:1000000037810000EF30905337050080130545001D
:100010002320050073001000130101FF232021019C
:100020000329C501232481002322910023261100E6
:10003000232C0502232E050213040500930400005F
:10004000630009049305100013050400EF00003D50
:1000500083558403EF20401F231CA4029305F0FF67
:1000600013050400EF00803B83558403EF20C01D7F
:10007000231CA4026384040293841400E31499FCF7
:100080008320C1000324810083244100032901004F
:10009000130500001301010167800000231DA40265
:1000A00093071000E30EF9FC930410006FF09FF922
:1000B000130101FE232C81000314050023282101D4
:1000C000232E110093577440232A910023263101D7
:1000D00093F717001379F407639E070493840500D0
:1000E0009355344093F5F5009397450013777400CA
:1000F000B3E5B7009309050083D78403630C0704B5
:1001000093061000630AD70813150401135505015F
:1001100013090400938507001379F907137404F099
:10012000EF20801233648900239CA4021364040826
:10013000239089008320C101032481011305090054
:1001400083244101032901018329C1001301010214
:1001500067800000930620021387050063D4D50052
:1001600013072002839624000396040083A544010C
:1001700003A584011377F70FEF10505383D7E403DF
:10018000131905011359094163940700239FA40221
:1001900083D784036FF01FF813860700138584024A
:1001A000EF10C03283D7C403131905011359094155
:1001B000E39007FE83D78403239EA4026FF09FF58C
:1001C000130101FE232C810003140500232A910052
:1001D000232821019357744023244101232E110029
:1001E0002326310193F717001389050093040600B5
:1001F000137AF407639C07049355344093F5F50094
:100200009397450013777400B3E5F5009309050053
:10021000835786036300070C930610006300D7140E
:100220001315040113550501130A040093850700F3
:10023000137AFA07137404F0EF20000133648A0084
:10024000239CA4021364040823908900031409006A
:100250009357744093F717009379F407639A070450
:100260009355344093F5F500939745001377740048
:10027000B3E5F50083D784036300070A93061000F3
:100280006302D710131504011355050193090400E7
:100290009385070093F9F907137404F0EF10D07AEF
:1002A00033E48900239CA40213640408231089000A
:1002B0008320C1010324810133053A418324410194
:1002C000032901018329C100032A810013010102CE
:1002D00067800000930620021387050063D4D500D1
:1002E00013072002839624000396040083A544018B
:1002F00003A584011377F70FEF10503B83D7E40376
:10030000131A0501135A0A4163940700239FA4029C
:1003100083D784036FF09FF19306200213870500B3
:1003200063D4D500130720028396240003960400AB
:1003300083A5440103A584011377F70FEF1010374D
:1003400083D7E4039319050193D909416394070006
:10035000239FA40283D784036FF09FF313860700C3
:1003600013858402EF10801683D7C403131A050186
:10037000135A0A41E39E07F883D78403239EA402FD
:100380006FF0DFEA1386070013858402EF10001474
:1003900083D7C4039319050193D90941E39C07FA54
:1003A00083D78403239EA4026FF09FEE630A0600A6
:1003B00003152500839725003305F540678000006D
:1003C0008317050013970701135707011357870079
:1003D00093F707F0B3E7E7002310F50083970500D4
:1003E00003152500139707011357070113578700BB
:1003F00093F707F0B3E7E7002390F5008397250014
:100400003305F540678000000397050083972500BA
:100410002310E5002311F5006780000083184500D4
:10042000130101FA232C8104232C8103232E1104B0
:10043000232A91042328210523263105232441055D
:100440002322510523206105232E7103232A9103C2
:100450002328A1032326B103232A0100130C05003E
:1004600003244502635610392326B1001306000009
:10047000130E000013050000130800008327C100BD
:100480009376F60F232AD10063C6072A630C045E15
:1004900003274400938607009307040003172700EF
:1004A000631CD7006F00C00103A747008326C1006B
:1004B000031727006306D70083A70700E39607FE0C
:1004C000930600006F00C0009306040013040700A9
:1004D000032704002320D400E31807FE63860728BF
:1004E00003A747001305150013150501031707009F
:1004F0001355050193761700638C06001357974038
:10050000137717003307E800131807011358080181
:1005100083A60700638C060003A7060023A0E7005C
:100520008327040023A0F6002320D4008327C100E2
:1005300063CA0700138B170093170B0193D707416A
:100540002326F10013061600131606011356064162
:10055000E396C8F293172500B387C741B307F800A5
:100560009397070193D70701232EF100634AB02820
:10057000832704009304040003A9070003A747008E
:10058000032649008326090023A2C7002322E9008D
:1005900023A0D7008327C1002320090063CE0712C0
:1005A00083A744008326C10083972700638AD7006E
:1005B00083A40400E39604FE8324040063840402FD
:1005C000832744008325C10103950700EF20C04025
:1005D00083A40400232EA100E39404FE83240400DA
:1005E0000327490083A6440083A70400130E1000CC
:1005F0002322D90023A2E4002320F90023A0240110
:100600001303000093040000930E0000930F1000EA
:10061000938E1E00930604009307000083A6060035
:100620009387170063860600E31AFEFE93070E0009
:100630001307040013060E0013840600638C0706DC
:10064000630E060A630C040A0328470003254400CE
:1006500083160800031F25008315280093980601C0
:1006600093D8080193F606F093D88800B3E61601F4
:100670002310D80083160500B385E54113980601C1
:100680001358080193F606F013588800B3E60601E4
:100690002310D5006354B00693060400032404001D
:1006A0001306F6FF630403022320D300138306001E
:1006B000E39807F8630C0604630C04049306040033
:1006C0001306F6FF03240400E31003FE93840600E0
:1006D000138306006FF0DFFD83A7440083264101EA
:1006E00083C70700E38ED7EC83A40400E39604FEDF
:1006F00083240400E39604EC6FF0DFEE930607001A
:100700009387F7FF032707006FF0DFF9E31204F088
:1007100023200300638EFE07131E1E00638004283F
:1007200013840400930E00001303000093040000E0
:100730006FF01FEE6308043403274400930704009E
:1007400003470700639CE6006FF09FD703A74700AD
:100750008326410103470700E304D7D683A7070098
:10076000E39607FE6FF0DFD503A7460093071E0050
:10077000139E070103071700135E0E01137717007E
:100780003307E80013180701135808016FF01FDA48
:1007900003A404006304042E83A744008325C1013D
:1007A00003950700EF20402303240400232EA1001B
:1007B000E31404FE8320C10503248105832441053D
:1007C000032901058329C104032A8104832A4104E2
:1007D000032B0104832BC103032C8103832C4103CE
:1007E000032D0103832DC102130101066780000060
:1007F0002326B100232E0100E35CB0D66300041A67
:10080000930710002324F10093078C02232CF1009E
:10081000130D040013090000130400002328010035
:10082000130A100083270101930D0D00930B0000A4
:10083000938717002328F10083AD0D00938B1B00D5
:1008400063860D0083278100E398FBFE832C8100E3
:1008500063880B0E63880C1063860D10832A4D008D
:1008600083A94D0083940A0093F7040813FBF4074F
:100870006398070493D5344093F5F50093974500AA
:1008800013F77400B3E5F50083578C036306071A6A
:10089000630047191395040113550501138B0400D8
:1008A00093850700EF10501A137BFB0793F804F0B1
:1008B000B3681B01231CAC0293E8080823901A01BB
:1008C000839A090093F70A0893F4FA0763980704D8
:1008D00093D53A4093F5F5009397450013F77A00C6
:1008E000B3E5F50083578C036302070E630C470BD7
:1008F00013950A011355050193840A009385070097
:10090000EF10901493F4F40793F80AF0B3E814018D
:10091000231CAC0293E8080823901901B3049B4000
:100920006352900493870D0083AD0D00938CFCFF00
:10093000630409022320F90013890700E39C0BF0EC
:10094000638A0C02638C0D0293870D00938CFCFF6D
:1009500083AD0D00E31009FE13840700138907001F
:100960006FF0DFFD93070D00938BFBFF032D0D0050
:100970006FF01FFC138D0D00E3960DEA03270101B4
:100980002320090093071000E304F7BE83278100AA
:10099000939717002324F100E31C04E623200000B2
:1009A000730010000325810113860700EF00103249
:1009B0008357CC039314050193D404416396070431
:1009C00083578C03231EAC026FF05FF39306200263
:1009D0001387050063D4D5001307200283162C006B
:1009E00003160C0083254C0103258C011377F70FA8
:1009F000EF10C04B8357EC039314050193D40441CB
:100A000063940700231FAC0283578C036FF01FEF22
:100A10000325810113860700EF00502B8357CC0379
:100A2000131B0501135B0B416396070483578C036B
:100A3000231EAC026FF0DFE6930620021387050049
:100A400063D4D5001307200283162C0003160C0074
:100A500083254C0103258C011377F70FEF10004518
:100A60008357EC03131B0501135B0B4163940700D1
:100A7000231FAC0283578C036FF09FE20325C10153
:100A80006FF05FD3832700007300100093074001CD
:100A90003355F502B787FFFF23A005001388070829
:100AA00093860501138785001305E5FF931E350026
:100AB000B38ED50123A2D501931F250023910E00EB
:100AC00023900E01B38FFE0193884E0063FED62162
:100AD00013888E00637AF82123A6150123A405004C
:100AE00023A0E50093C7F7FF9308F0FF23921E01B0
:100AF0002393FE00630A050693130601B782FFFFE6
:100B000093D303019308000093C2F2FF138E860073
:100B10006378DE05130F48006374FF051393080123
:100B200013530301B34773009397370093F7870775
:100B30001373730023A0E600B3E7670023A0D5007A
:100B40001397870023A20601B367F7002310F8006C
:100B5000231158001387060013080F0093060E0098
:100B600093881800E31415FB83270700638A0702A4
:100B7000930750003355F5023743000093061000E9
:100B80001303F3FF8328470063F0A612032707002F
:100B90002391D8009386160083270700E39407FE6D
:100BA000930F100093031000938705009308000033
:100BB00093050000130F0000130F1F00138507009B
:100BC0001307000003250500130717006304050041
:100BD000E31AF7FF9386070013860F0093070500BB
:100BE000630C0706630C0608638A070803AE460019
:100BF00003A3470003180E008312230003152E00E1
:100C0000931E080193DE0E01137808F093DE8E0028
:100C10003368D80123100E01031803003305554033
:100C2000131E0801135E0E01137808F0135E8E0088
:100C30003368C801231003016352A004138807001E
:100C400083A707001306F6FF6384080223A00801A8
:100C500093080800E31807F8630A0602638A07028C
:100C6000138807001306F6FF83A70700E39008FE2A
:100C700093050800930808006FF0DFFD1388060055
:100C80001307F7FF83A606006FF01FFCE39607F239
:100C900023A0080063067F04939F1F00E39605F0DE
:100CA0002320000073001000139806011358080158
:100CB0009307180003270700939787003348C8005D
:100CC00093F70770B3E7070103280700B3F767003E
:100CD0002391F80093861600E31608EA6FF05FECA4
:100CE000138505006780000093060700138808003D
:100CF000130700006FF01FE0032806009308880028
:100D000063F6E80403A70600130347006370F304C7
:100D100023201601832705008398050003962500EC
:100D20002320F800232005012322E80083A70600E2
:100D3000130508009387470023A0F6008327480087
:100D4000239017012391C70067800000130800005B
:100D5000130508006780000083270500032645006F
:100D60001307050083A5470083A607001385070026
:100D70002322B70023A2C7002320D70023A0070007
:100D80006780000003A645008326450003A70500F1
:100D90002322C50023A2D5002320E50023A0A5001F
:100DA000678000000397250063480702630405027B
:100DB0008327450083972700639AE7006F000005AB
:100DC00083274500839727006386E70003250500F6
:100DD000E31805FE67800000E30E05FE832745004B
:100DE0000397050083C70700639AE7006F0040027E
:100DF0008327450083C707006388E70003250500B4
:100E0000E31805FE6FF01FFD67800000678000009B
:100E10006780000063000502130700006F00800078
:100E200013850700832705002320E500130705002D
:100E3000E39807FE6780000063040514130101FDB9
:100E4000232A5101232861012326710123248101D2
:100E50002320A101232611022324810223229102AF
:100E600023202103232E3101232C41012322910130
:100E7000130B0500938B0500130C0600930A10005A
:100E8000130D1000130A0B00930C0000130900004F
:100E9000130B0000938C1C0013040A009304000041
:100EA000032404009384140063040400E39A54FFB1
:100EB00093890A00638E0402638E0904630C0404A0
:100EC0008325440003254A0013060C00E7800B002D
:100ED0006352A00493070400032404009389F9FFDC
:100EE000630409022320F90013890700E39604FC38
:100EF000638A0902630C0402930704009389F9FFD3
:100F000003240400E31009FE138B07001389070074
:100F10006FF0DFFD93070A009384F4FF032A0A00B1
:100F20006FF01FFC130A0400E31604F623200900E7
:100F3000638AAC01939A1A00E3160BF42320000095
:100F4000730010008320C1020324810213050B00EB
:100F500083244102032901028329C101032A81015B
:100F6000832A4101032B0101832BC100032C810043
:100F7000832C4100032D0100130101036780000051
:100F80002320000073001000130101FB23286103DC
:100F90002326110437FBFFFF23248104232291041D
:100FA00023202105232E3103232C4103232A51031F
:100FB0002326710323248103232291032320A103E9
:100FC000232EB1012324C100336B67016308054C54
:100FD000931B1500B308A040138D0500131C0701D7
:100FE000B305760113090600939E1800130305004C
:100FF00093840600135C0C0113860500130800009F
:10100000939828003385CE009307050083D6070008
:1010100093872700B306DC00239FD7FEE398C7FE23
:1010200013041800330615416306830013080400F7
:101030006FF05FFD330F8040931D240093090D0076
:1010400013050D00130E000013132F00B388BE000C
:1010500013060500938708008396070013064600D1
:1010600093872700B386E602232ED6FEE396B7FECB
:1010700093071E003305B501B385684063060E0172
:10108000138E07006FF09FFCB30ABD0193880A001E
:10109000130500009307000013060000930E0000E4
:1010A000131F3F00330E130193060E006F008001E3
:1010B0001315050193864600135505419307070054
:1010C000638E160303A706001315050113550501CA
:1010D000B3A7E7003306E6009305A5003305F50046
:1010E000E358CBFC13950501938646001355054143
:1010F0001306000093070700E39616FD93861E0073
:10110000B308EE416306D801938E06006FF09FF995
:1011100093050000EF10500C130A050013860D0014
:101120009305000013050D00EF20D03283288100C5
:101130003385740113080D0093870400938608001B
:101140001306000003970600839507009387270086
:10115000938626003307B7023306E600E314F5FE54
:101160002320C80013084800B3887801E3960AFDDD
:1011700013030D0013050000930700009306000001
:101180009308000093050300130600006F00C001E0
:1011900013150501130616001355054193854500E7
:1011A000930707006370860403A705001315050164
:1011B00013550501B3A7E700B386E6001308A500A1
:1011C0003305F500E356DBFC131508011306160082
:1011D00013550541930600009385450093070700CA
:1011E000E36486FC938818003303B301E3EC88F8CA
:1011F00093050A00EF10407E2326A100130A400049
:10120000631A0428832C8100130E0D00930A00003A
:1012100013050E0013060A0093050000EF2090232B
:10122000130E050013080500938804001305000041
:101230001386080093860C00930500001307000036
:1012400083970600031F06001307170093862600E6
:10125000B387E70333067601B385F500E36287FEC3
:101260002320B800130515001308480093882800B0
:10127000E36085FC938A1A00330EBE01B38C7C01B7
:10128000E3E88AF813030D0013050000930700003C
:101290009306000093080000930503001306000066
:1012A0006F00C00113150501130616001355054103
:1012B00093854500930707006370860403A7050024
:1012C0001315050113550501B3A7E700B386E60022
:1012D0001308A5003305F500E356DBFC13150801E0
:1012E000130616001355054193060000938545002B
:1012F00093070700E36486FC938818003303B30167
:10130000E3EC88F88325C100930A0000EF10C06C5D
:10131000832C81002326A10013060A0093050000F8
:1013200013050D00EF201013138E040013030D009E
:101330009308000093050E0013860C0013050000AF
:101340009306000003970500831706009386160096
:1013500013062600B387E702B385750113D727402C
:1013600093D757401377F70093F7F707B307F702C0
:101370003305F500E3E886FC2320A30093881800DA
:1013800013034300130E2E00E3E688FA938A1A0033
:10139000330DBD01B38C7C01E3E08AF81305000036
:1013A000930700009306000093080000938509004E
:1013B000130600006F00C001131505011306160087
:1013C0001355054193854500930707006370860414
:1013D00003A705001315050113550501B3A7E70081
:1013E000B386E6001308A5003305F500E356DBFCE1
:1013F0001315080113061600135505419306000046
:101400009385450093070700E36486FC93881800E2
:10141000B389B901E3EC88F88325C100EF10C05B04
:1014200013060000930709009306000003D7070086
:10143000938727009386160033078741239FE7FE93
:10144000E3E686FE1306160033097901E36C86FC99
:101450008320C1040324810413150501832441045E
:10146000032901048329C103032A8103832A410339
:10147000032B0103832BC102032C8102832C410225
:10148000032D0102832DC1011355054113010105EF
:1014900067800000138A0D006FF0DFD6930500000F
:1014A000EF1080539305050013050000EF10C052A4
:1014B0009305050013050000EF1000529305050089
:1014C00013050000EF1040516FF09FF8130101FF6A
:1014D0002324810013870500130406008325C5001B
:1014E00083268500032645000325050023261100D9
:1014F000EFF09FA993050400032481008320C1001D
:10150000130101016F10404D130101FF23268100DB
:1015100023249100232221011308050063140600EF
:10152000130610009383F5FF93F3C3FF93844300E6
:1015300013050000631608006F00000E1305070076
:1015400013071500B307E70293973700E3E807FF97
:10155000B302A5021309050093921200B38354004D
:1015600063020508370E010013141500938F030062
:10157000130F000013081000B38E7440130EFEFF0B
:1015800093850F00930800003306060393170801A4
:1015900093D707013383BE009385250093881800F5
:1015A000130818001357F641135707013306E600D6
:1015B0003376C6013306E6403387C70013170701A9
:1015C00013570701B307F700239FE5FE93F7F70FC3
:1015D0002310F300E3EAA8FA130F1F00B38F8F0064
:1015E000E360AFFAB38753009387F7FF0324C1008A
:1015F00093F7C7FF9387470023A2960023A02601F5
:1016000023A4760023A6F600832481000329410049
:101610001301010167800000938363001309F0FF49
:101620001305F0FF930220006FF0DFF3130F0500A6
:1016300063080508B30EA04093182500B388150170
:10164000939F2E00130300001305000013070000F2
:1016500093050000939E3E00338E1F0193070E00FA
:101660006F0080011315050193874700135505414D
:1016700013870600638EF80283A607001315050181
:10168000135505013327D700B385D5001308A500EE
:101690003305E500E358B6FC1315080193874700AE
:1016A000135505419305000013870600E396F8FCE7
:1016B00013031300B308DE41E3106FFA67800000E4
:1016C0001305000067800000630A0504330EA04084
:1016D00013181500931E1E00131F25003308060162
:1016E00093080000131E2E003303D8011386050053
:1016F000930703000397070013064600938727000C
:101700003307D702232EE6FEE316F8FE938818006F
:10171000B385E5013308C341E31815FD6780000078
:1017200063060504B308A0409316150013160601BE
:10173000B386D500139318001356060193050000D5
:10174000939828003308D3009307080003D70700B5
:10175000938727003307E600239FE7FEE398F6FE12
:1017600093851500B3061841E31EB5FC67800000A1
:101770006306050A130101FE938705002326310144
:1017800093192500232C8100232A910013040600BD
:1017900093040500930500001385070013860900D4
:1017A00023282101232E110013890600EF20804AEF
:1017B00093070500139E140093050500B3863701B7
:1017C000130504003303C90193070900130605003C
:1017D000130800000317060083980700938727006B
:1017E00013062600330717033308E800E314F3FE5B
:1017F00023A00501938545003305C501E396B6FC9A
:101800008320C101032481018324410103290101B3
:101810008329C10013010102678000006780000076
:101820006302050E130101FD232481021314150028
:101830002322910223202103232E3101232C410155
:10184000232A510123286101232671012326110235
:101850009389060013090500130A0600931B25004F
:1018600093880500B3048600B38A8600130B00003A
:101870001385080013860B0093050000EF20803DC0
:1018800093080500138808001385090093060500D6
:1018900093070A00130600000397070083950600CC
:1018A00093872700B38686003307B7023306E60026
:1018B000E394F4FE2320C800130525001308480014
:1018C000E396AAFC130B1B00B3887801330A8A0045
:1018D000B3848400E31E69F98320C10203248102DA
:1018E00083244102032901028329C101032A8101C2
:1018F000832A4101032B0101832BC1001301010342
:101900006780000067800000630C050E130101FD75
:10191000232021031319150023248102232291027D
:10192000232E3101232C4101232A51012328610157
:101930002326710123261102938406001304050057
:10194000130A0600931B250093880500B30926019E
:10195000B38A2601130B00001385080013860B00C1
:1019600093050000EF20002F93080500138808005E
:10197000138504001306050093060A009305000072
:101980000317060083970600938626003306260178
:10199000B387E70213D7274093D757401377F70051
:1019A00093F7F707B307F702B385F500E39AD9FC7D
:1019B0002320B8001305250013084800E39CAAFA69
:1019C000130B1B00B3887801330A2A01B38929015C
:1019D000E31464F98320C1020324810283244102B9
:1019E000032901028329C101032A8101832A4101BC
:1019F000032B0101832BC100130101036780000049
:101A0000678000001303F5FF93071000130E060014
:101A100063FC6714938615009396060193D606011E
:101A200093F776009387D7FF93970701B755000088
:101A3000B758000013D736001306400093D70701AC
:101A4000130800009385451393880812130F800034
:101A5000930EC002137737006366F60A9397270048
:101A6000B387170183A70700131727003387E50003
:101A700093861600930F98006780070093960601DF
:101A80000327070193D6060163FA6F0A93028000C9
:101A900083430700B3070E01238077000348170034
:101AA000A38007010348270023810701034837006B
:101AB000A38107016384C202034847002382070110
:101AC00003485700A38207010348670023830701E7
:101AD0006396E20103477700A383E700B3875700CB
:101AE0002380D70193F776009387D7FF9397070159
:101AF00013D7360093D7070113880F0013773700E9
:101B0000E37EF6F413172700938616003387E5006B
:101B100093960601930F58000327070093D60601FA
:101B200063FE6F00930240006FF09FF693960601EC
:101B30000327070293D60601E3EA6FF46374A80251
:101B4000330605419305000033050E016F20801018
:101B5000939606010327070393D60601E3E86FF285
:101B6000E360A8FE6780000013080000330605410B
:101B70009305000033050E016F20C00D832705007B
:101B800083C607006388062E1308C0021387170058
:101B9000638E062B83A80500138606FD1376F60FC9
:101BA0001303900093881800636CC30A23A01501E7
:101BB00083C617006384061693872700638E061575
:101BC000138606FD1308E002930890001303C00279
:101BD0001376F60F6386060363E0C80C834617008E
:101BE000138617001387070063880612638A662A24
:101BF00093070600138606FD1376F60FE39E06FD97
:101C000083A605019386160023A8D50083461700F6
:101C1000638206281307C002138617006382E62238
:101C200013085004930890001303C002138706FDA5
:101C300093F6F60D1377F70F6386060F63FAE81A2B
:101C400083A645011307060093071000938616002C
:101C500023AAD5002320E500138507006780000034
:101C60001306B002638AC6041306D0026386C60454
:101C70001306E002638CC61883A6450023A0150155
:101C8000930710009386160023A2D5002320E500B9
:101C9000138507006780000083A6050113870700EE
:101CA000930710009386160023A8D5002320E50093
:101CB000138507006780000023A0150183C8170063
:101CC0006380081C13872700638C081B03A685000C
:101CD000938608FD93F6F60F13089000130616007E
:101CE0006370D8029306E0026380D81423A4C50071
:101CF000930710002320E50013850700678000008C
:101D000023A4C50083C62700638A06001306C00209
:101D100093071700E396C6EA13870700930740006E
:101D20006FF0DFF803A745011307170023AAE500AA
:101D300083C71700638A07121308C002130716002F
:101D40006386071383A6C500938757FD93F7D70FC4
:101D50009386160023A6D500638A07009307100018
:101D60002320E500138507006780000083471600E5
:101D70006388070E130726006384070F83A6850177
:101D8000938707FD93F7F70F93861600930890004B
:101D900023ACD500E3E4F8FC83462600638E060AF4
:101DA000930736006388060B130690009308C00261
:101DB000938606FD93F6F60F637ED60083A6450054
:101DC00013870700930710009386160023A2D500FF
:101DD0006FF0DFED834617001388170013870700A5
:101DE000638A06066382160B930708006FF05FFC98
:101DF00083C61700130716009307060063820604C4
:101E000063826604130607006FF05FE223A01501EA
:101E100083C61700638806021386270063820603C1
:101E2000930707006FF0DFDF23A4C50083C62700F8
:101E3000638A06009307C00213061700E392F6FEBA
:101E400013070600930750006FF05FE6930700004A
:101E50006FF0DFE513870700930770006FF01FE551
:101E6000930760006FF09FE41307060093073000AC
:101E70006FF0DFE313870700930700006FF01FE3A5
:101E8000930720006FF09FE213070800930770008C
:101E90006FF0DFE113870700930750006FF01FE139
:101EA00013070600930740006FF05FE0130101F88D
:101EB000232C8106232A9106232821072326310774
:101EC0002324410723206107232E7105232E1106A9
:101ED000232251071384050083C5050093040103E1
:101EE000232801022326810023A2040023A4040046
:101EF00023A6040023A8040023AA040023AC0400A2
:101F000023AE040023280100232A0100232C010012
:101F1000232E010023200102232201022324010297
:101F200023260102930B0500130B0600138A0600FB
:101F30001309070093890700638E0514930AC100F3
:101F40009385040013850A00EFF05FC39307010532
:101F5000131525003385A7000327C100832705FC3F
:101F600003470700938717002320F5FCE31A07FCBB
:101F700023268100B30B740183450400637274133C
:101F80009306C0029307040033C765016382D5023C
:101F90002380E7008327C100B38727012326F100B0
:101FA00063FE770183C5070033C76501E392D5FE61
:101FB000B38727012326F100E3E677FF8347040078
:101FC00023268100930AC100638E070293850400D3
:101FD00013850A00EFF09FBA93070105131525003A
:101FE0003385A7000327C100832705FC03470700AB
:101FF000938717002320F5FCE31A07FC23268100B2
:10200000637474039306C0028347040033C7470117
:10201000638AD7062300E4000324C10033042401AB
:1020200023268100E36274FF130401011389040075
:10203000032504009385090013044400EF00C04801
:10204000930505000325090013094900EF00C04767
:1020500093090500E39E84FC8320C10703248107C4
:1020600083244107032901078329C106032A810626
:10207000832A4106032B0106832BC10513010108A6
:10208000678000003304240123268100E36E74F787
:102090006FF09FF9B30BA400E36474EF6FF0DFF807
:1020A000E39605F26FF05FF89307500063ECA70426
:1020B000B757000093874722131525003305F50015
:1020C0008327050067800700B757000003A5472452
:1020D00067800000B757000003A5C7246780000091
:1020E000B757000003A5872467800000B75700009A
:1020F00003A5872567800000B757000003A5472583
:10210000678000001305000067800000B346B5003B
:1021100093F616001357150093D71500638C06002D
:10212000B7A6FFFF93861600B3C7D70093970701A2
:1021300093D7070133C7E70013771700935625009D
:1021400093D71700630C070037A7FFFF130717008B
:10215000B3C7E7009397070193D70701B3C6D7002A
:1021600093F616001357350093D71700638C0600BB
:10217000B7A6FFFF93861600B3C7D7009397070152
:1021800093D7070133C7E70013771700935645002D
:1021900093D71700630C070037A7FFFF130717003B
:1021A000B3C7E7009397070193D70701B3C6D700DA
:1021B00093F616001357550093D71700638C06004B
:1021C000B7A6FFFF93861600B3C7D7009397070102
:1021D00093D7070133C7E7001377170093566500BD
:1021E00093D71700630C070037A7FFFF13071700EB
:1021F000B3C7E7009397070193D70701B3C6D7008A
:1022000093F616001357750093D71700638C0600DA
:10221000B7A6FFFF93861600B3C7D70093970701B1
:1022200093D7070193F6170013D51700638CE600C8
:10223000B7A7FFFF93871700B347F5001395070172
:10224000135505016780000033C6A5009376F50F8E
:102250001376160013D7160093D71500630C0600EB
:1022600037A6FFFF13061600B3C7C70093970701F1
:1022700093D7070133C7E7001376170093D71700EA
:1022800013D72600630C060037A6FFFF13061600BF
:10229000B3C7C7009397070193D7070133C7E70078
:1022A0001377170013D6360093D71700630C070077
:1022B00037A7FFFF13071700B3C7E700939707017E
:1022C00093D7070133C6C7001376160013D746000D
:1022D00093D71700630C060037A6FFFF13061600FE
:1022E000B3C7C7009397070193D7070133C7E70028
:1022F0001377170013D6560093D71700630C070007
:1023000037A7FFFF13071700B3C7E700939707012D
:1023100093D7070133C6C7001376160013D766009C
:1023200093D71700630C060037A6FFFF13061600AD
:10233000B3C7C7009397070193D7070133C7E700D7
:102340001377170093D6760093D71700630C070016
:1023500037A7FFFF13071700B3C7E70093970701DD
:1023600093D7070113F7170093D71700630CD70013
:1023700037A7FFFF13071700B3C7E70093970701BD
:1023800093D707011355850033C6A7001377F50FC0
:10239000137616009356170013D51700630C06002A
:1023A000B7A7FFFF938717003345F5001315050105
:1023B00013550501B3C6A60093F6160093572700E0
:1023C00013551500638C0600B7A6FFFF9386160011
:1023D0003345D5001315050113550501B347F50025
:1023E00093F717009356370013551500638C0700B9
:1023F000B7A7FFFF938717003345F50013150501B5
:1024000013550501B346D50093F6160093574700C0
:1024100013551500638C0600B7A6FFFF93861600C0
:102420003345D5001315050113550501B347F500D4
:1024300093F717009356570013551500638C070048
:10244000B7A7FFFF938717003345F5001315050164
:1024500013550501B346D50093F616009357670050
:1024600013551500638C0600B7A6FFFF9386160070
:102470003345D5001315050113550501B347F50084
:1024800093F717001357770013551500638C070057
:10249000B7A7FFFF938717003345F5001315050114
:1024A000135505019377150013551500638CE7004C
:1024B000B7A7FFFF938717003345F50013150501F4
:1024C000135505016780000033C8A5009376F50F0A
:1024D00013170501137818001357070113D61600B8
:1024E00093D71500630C0800B7A5FFFF938515006F
:1024F000B3C7B7009397070193D7070133C6C70047
:102500009375160093D7170013D62600638C050029
:10251000B7A5FFFF93851500B3C7B70093970701D1
:1025200093D7070133C6C7001376160093D536003C
:1025300093D71700630C060037A6FFFF130616009B
:10254000B3C7C7009397070193D70701B3C5B70077
:1025500093F5150013D6460093D71700638C05003A
:10256000B7A5FFFF93851500B3C7B7009397070181
:1025700093D7070133C6C7001376160093D55600CC
:1025800093D71700630C060037A6FFFF130616004B
:10259000B3C7C7009397070193D70701B3C5B70027
:1025A00093F5150013D6660093D71700638C0500CA
:1025B000B7A5FFFF93851500B3C7B7009397070131
:1025C00093D7070133C6C7001376160093D676005B
:1025D00093D71700630C060037A6FFFF13061600FB
:1025E000B3C7C7009397070193D7070113F61700E6
:1025F00093D71700630CD600B7A6FFFF938616008B
:10260000B3C7D7009397070193D7070113578700E4
:10261000B3C6E70093F616001377F70F13561700AB
:1026200093D71700638C0600B7A6FFFF93861600AA
:10263000B3C7D7009397070193D7070133C6C700E5
:10264000137616009356270093D71700630C0600E5
:1026500037A6FFFF13061600B3C7C70093970701FD
:1026600093D70701B3C6D70093F616001356370069
:1026700093D71700638C0600B7A6FFFF938616005A
:10268000B3C7D7009397070193D7070133C6C70095
:10269000137616009356470093D71700630C060075
:1026A00037A6FFFF13061600B3C7C70093970701AD
:1026B00093D70701B3C6D70093F6160013565700F9
:1026C00093D71700638C0600B7A6FFFF938616000A
:1026D000B3C7D7009397070193D7070133C6C70045
:1026E000137616009356670093D71700630C060005
:1026F00037A6FFFF13061600B3C7C700939707015D
:1027000093D70701B3C6D70093F616001357770087
:1027100093D71700638C0600B7A6FFFF93861600B9
:10272000B3C7D7009397070193D7070193F6170014
:1027300093D71700638CE60037A7FFFF1307170036
:10274000B3C7E7009397070193D707011355050116
:10275000B3C5A7001377F50F9316050193F5150080
:1027600093D606011356170013D51700638C050086
:10277000B7A7FFFF938717003345F5001315050131
:10278000135505013346C5001376160093572700ED
:1027900013551500630C060037A6FFFF130616003D
:1027A0003345C5001315050113550501B347F50061
:1027B00093F717001356370013551500638C070065
:1027C000B7A7FFFF938717003345F50013150501E1
:1027D000135505013346C50013761600935747007D
:1027E00013551500630C060037A6FFFF13061600ED
:1027F0003345C5001315050113550501B347F50011
:1028000093F717001356570013551500638C0700F4
:10281000B7A7FFFF938717003345F5001315050190
:10282000135505013346C50013761600935767000C
:1028300013551500630C060037A6FFFF130616009C
:102840003345C5001315050113550501B347F500C0
:1028500093F717001357770013551500638C070083
:10286000B7A7FFFF938717003345F5001315050140
:10287000135505019377150013551500638CE70078
:10288000B7A7FFFF938717003345F5001315050120
:102890001355050193D786003347F50013771700CA
:1028A00093F7F70F93D6170013551500630C070025
:1028B00037A7FFFF130717003345E5001315050180
:1028C00013550501B346D50093F6160013D727001C
:1028D00013551500638C0600B7A6FFFF93861600FC
:1028E0003345D50013150501135505013347A700DE
:1028F0001377170093D6370013551500630C0700A4
:1029000037A7FFFF130717003345E500131505012F
:1029100013550501B3C6A60093F6160013D747005A
:1029200013551500638C0600B7A6FFFF93861600AB
:102930003345D50013150501135505013347A7008D
:102940001377170093D6570013551500630C070033
:1029500037A7FFFF130717003345E50013150501DF
:1029600013550501B3C6A60093F6160013D76700EA
:1029700013551500638C0600B7A6FFFF938616005B
:102980003345D50013150501135505013347A7003D
:102990001377170093D7770013551500630C0700C2
:1029A00037A7FFFF130717003345E500131505018F
:1029B000135505011377150013551500630CF70027
:1029C000B7A7FFFF938717003345F50013150501DF
:1029D000135505016780000033C6A5001377F50F76
:1029E000931705011376160093D707019356170026
:1029F00013D51500630C0600B7A5FFFF93851500DE
:102A00003345B5001315050113550501B346D5002F
:102A100013F616001355150093562700630C060095
:102A2000B7A5FFFF938515003345B50013150501C4
:102A300013550501B346D50093F61600135637001B
:102A400013551500638C0600B7A6FFFF938616008A
:102A50003345D50013150501135505013346C5004F
:102A6000137616009356470013551500630C0600A5
:102A700037A6FFFF130616003345C50013150501E1
:102A800013550501B346D50093F6160013565700AB
:102A900013551500638C0600B7A6FFFF938616003A
:102AA0003345D50013150501135505013346C500FF
:102AB000137616009356670013551500630C060035
:102AC00037A6FFFF130616003345C5001315050191
:102AD00013550501B346D50093F61600135777003A
:102AE00013551500638C0600B7A6FFFF93861600EA
:102AF0003345D500131505011355050193761500CF
:102B000013551500638CE60037A7FFFF1307170066
:102B10003345E500131505011355050193D78700CB
:102B20003347F5001377170093F7F70F93D6170085
:102B300013551500630C070037A7FFFF1307170095
:102B40003345E5001315050113550501B3C6A6006D
:102B500093F6160013D7270013551500638C060053
:102B6000B7A6FFFF938616003345D5001315050160
:102B7000135505013347E5001377170093D6370047
:102B800013551500630C070037A7FFFF1307170045
:102B90003345E5001315050113550501B346D5006E
:102BA00093F6160013D7470013551500638C0600E3
:102BB000B7A6FFFF938616003345D5001315050110
:102BC000135505013347E5001377170093D65700D7
:102BD00013551500630C070037A7FFFF13071700F5
:102BE0003345E5001315050113550501B346D5001E
:102BF00093F6160013D7670013551500638C060073
:102C0000B7A6FFFF938616003345D50013150501BF
:102C1000135505013347E5001377170093D7770065
:102C200013551500630C070037A7FFFF13071700A4
:102C30003345E500131505011355050113771500FC
:102C400013551500630CF700B7A7FFFF9387170014
:102C50003345F50013150501135505016780000084
:102C60001305000067800000732500C06780000026
:102C7000732700C0B757000023A0E7246780000037
:102C8000732700C0B757000023AEE722678000001B
:102C9000B757000003A5C723B757000083A7072431
:102CA0003305F5406780000067800000930710003F
:102CB0002300F50067800000B75700003757000079
:102CC0000327072483A7C72323000500B387E74012
:102CD000370700802324F70067800000130101F606
:102CE000232A910823244109232E1108232C81082B
:102CF0002328210923263109232251092320610990
:102D0000232E7107232C8107232A91072328A1074B
:102D10002326B10713F8070493040500130A0600DD
:102D20006306081EB75800009388884813FD070102
:102D300063100D1C13F6170013FE1701130C00038C
:102D4000630C061A13F6270093FD07026306061CA0
:102D500063C8051C13F64700631A062093F7870023
:102D600013030000638607009386F6FF1303000237
:102D7000638C0D0093070001630CFA2093078AFF10
:102D800093B71700B386F6406394051A93070003C0
:102D9000230EF10013090000930C1000930910009A
:102DA0001304C101938A0C0063D4EC00930A07005A
:102DB000338B5641930BFBFF63160E02635C601F5F
:102DC00013060B00138504009305000223266100FF
:102DD000EF0050680323C100B3846401930BE0FF4C
:102DE000130BF0FF63060300238064009384140038
:102DF000638A0D00930780006300FA1A93070001AD
:102E0000630CFA16631C0D026350601B13CAFBFFB0
:102E1000135AFA4133FA4B01130D1A00138BFBFFBF
:102E20001385040013060D0093050C00330B4B4172
:102E3000EF005062B384A401930BFBFF63DE5C01DF
:102E4000B38A9A411385040013860A009305000390
:102E5000EF005060B384540133062401138704004B
:102E6000130510001307170083450600B307E5405C
:102E7000B3872701A30FB7FEB387F4001306F6FF4D
:102E8000E342F0FEB38434016354600393C7FBFF55
:102E900093D7F74133F4FB001304140013850400A7
:102EA0001306040093050002EF00D05AB384840097
:102EB0008320C10903248109138504000329010922
:102EC000832441098329C108032A8108832A4108F0
:102ED000032B0108832BC107032C8107832C410797
:102EE000032D0107832DC1061301010A678000002D
:102EF00093F7E7FF130E0D0013F62700130C0002E3
:102F000093FD0702630A06006FF09FE4B7580000C4
:102F1000938808466FF09FE1130300006FF05FE5B0
:102F2000B305B0409386F6FF1303D002E3940DE49B
:102F3000130900001304C1016F0080001389090008
:102F4000B3F74503930919003308340113850500CD
:102F5000938C0900B387F80083C70700B3D54503F6
:102F6000A30FF8FEE37C45FD6FF0DFE39386F6FFE9
:102F70001303B0026FF0DFDF930700032380F40038
:102F800093078007A380F400938424006FF09FE7E9
:102F90009386E6FF6FF05FDF930700032380F40062
:102FA000938414006FF01FE6138B0B00938BFBFFD1
:102FB0006FF0DFE89307EBFF138B0B00938B070099
:102FC0006FF05FE2B70700802380A70067800000F2
:102FD000130101B8232E7143232E1144232C814465
:102FE000232A914423282145232631452324414582
:102FF0002322514523206145232C8143232A9143D9
:103000002328A1432326B1432322B1462324C146CA
:103010002326D1462328E146232AF146232C0147C3
:10302000232E114783470500930B4146232E710140
:10303000E380072013098103375C0000375A000042
:10304000B759000013040500130B0900130CCC251D
:10305000130A0A2A93890946B75A00001307500237
:103060006380E7082300FB0083471400130B1B0059
:1030700013041400E39407FE23000B00834781032D
:103080006388073C13071000B70600803307274109
:103090003305E9002380F60013091900834709006E
:1030A000E39807FE8320C1450324814583244145DD
:1030B000032901458329C144032A8144832A4144C9
:1030C000032B0144832BC143032C8143832C4143B5
:1030D000032D0143832DC142130101486780000085
:1030E000834514009306000193070000138705FE33
:1030F0001377F70F9304140063E8E6021317270011
:1031000033078701032707006700070093E71700CD
:10311000138404008345140093041400138705FEF0
:103120001377F70FE3FCE6FC138705FD1377F70F22
:103130009306900063FAE60C1307A0029306F0FFD3
:10314000638EE50E1306E0021307F0FF6388C508DF
:1031500013F6F50D1305C004630AA6041386F5FBE8
:103160001376F60F13057003636CC52A1316260039
:1031700033064601032606006700060093E70701B1
:10318000138404006FF01FF993E7470013840400D1
:103190006FF05FF893E70702138404006FF09FF766
:1031A00093E78700138404006FF0DFF603C8140070
:1031B00013057003938C14001306F8FB1376F60FB7
:1031C0006364C5263755000013162600130505381D
:1031D0003306A600032606006700060083C5140018
:1031E0001306900013851400138705FD1377F70F5E
:1031F0006374E6261307A002638CE5289304050098
:10320000130700006FF0DFF4930600001306900030
:1032100013972600B306D7009384140093961600E4
:10322000B386B60083C50400938606FD138705FDAB
:103230001377F70FE37EE6FC6FF0DFF083A60B0059
:103240009304240083452400938B4B00E3DC06EEBB
:10325000B306D04093E707016FF0DFEE938C0400D4
:1032600093E707041306000113854B0083A50B00A9
:10327000930B050013050B00EFF05FA683C71C003E
:10328000130B050013841C00E39A07DC6FF0DFDEEC
:10329000938C04001306A0006FF01FFD938C0400B4
:1032A00003A40B00938B4B006300046603460400E9
:1032B000E3020606E3000706130604006F00C000E1
:1032C000B305E640638885001306160083450600B3
:1032D000E39805FE93F70701B3048640638A076409
:1032E0006352900A1307440013064B003337EB0078
:1032F0003336C4009387F4FF1347170013461600B4
:1033000093B797003367C70093C71700B3F7E70079
:10331000E3800704B3678B0093F73700E39A070253
:1033200093F5C4FF9307040013070B00B3858500D2
:1033300003A607001307470093874700232EC7FE05
:10334000E398F5FE93F7C4FF3304F400B305FB00E4
:1033500033079B006386970203450400138617001A
:103360002380A500635E9600034614009387270020
:10337000A380C50063D69700834724002381F5000E
:10338000130B070013841C0063DED400B384964043
:1033900013050B001386040093050002EF00900B49
:1033A000330B9B0083C71C00E39A07CA6FF0DFCC86
:1033B000938C04001306F0FF6382C65483A50B00B0
:1033C00013060001938B4B006FF0DFEA938C04002F
:1033D000130680006FF05FE9938C040093F70701F8
:1033E0009384F6FF6386075283A70B0013071B0025
:1033F000938B4B002300FB0013841C00635E9072D0
:10340000138604009305000213050700EF009004E3
:1034100083C71C00330B9500E39207C46FF0DFC530
:1034200013880500938C04009307500213071B00B8
:10343000630AF84A2300FB0003C80C00631E084817
:10344000130B070023000B0083478103E39C07C293
:10345000130500006FF01FC513070000130890004C
:10346000131627003307E60013051500131717007E
:103470003307B70083450500130707FD138605FDD5
:103480001376F60FE37EC8FC930405006FF05FCC63
:1034900003A70B0083C52400938B4B001346F7FF53
:1034A0001356F6413377C700938424006FF05FCA48
:1034B0001308C00693E7270013854B001306A000EE
:1034C000E38605DB6F00403F1307C00603A60B0031
:1034D00093E70704938B4B006392E5563757000040
:1034E0001307874883484600034806000345160033
:1034F000034E26000343360083455600935348008D
:103500001376F80093524500935F4E00135F43001B
:1035100093DE48001373F30013F8F8001375F500F9
:10352000137EFE003306C7003305A700B30867000B
:10353000B3037700B3025700B30FF701330EC7018F
:10354000330FE701B30ED7013308070113D345004A
:1035500003440600834C05003306670083C3030061
:1035600083C2020083CF0F00034E0E00034F0F00F3
:1035700083C8080083CE0E000348080003450600F8
:1035800093F5F5001306A003A30081022300710246
:103590002301C102A301510223029103A302C1022C
:1035A0002303F103A303C1032304C102A304E10322
:1035B00023051103A305C1022306D103A3060103BA
:1035C0002307C1023307B700A307A102034707007F
:1035D00093F707011384F6FF2308E1026394074081
:1035E0009307100163DAD73E1384F6FE1306040036
:1035F0009305000213050B002326D100EF00806520
:10360000130610019305010233058B00EF000057EC
:103610008326C1003307DB0083C724001384240002
:10362000130B0700E39C07A26FF01FA51307C0064A
:1036300003A60B00938B4B006392E54013870900B0
:103640006FF05FEA938C0400130600016FF0DFC196
:1036500003A60B00938B4B00034706006304073659
:103660009305300663D8E546130540063363A70289
:103670009308A000930540001304300013082000B5
:103680003347A702334513033387E9000347070095
:103690002300E1023387A9000345070033671303C2
:1036A000A300A1023387E900034507001307014285
:1036B000330707012300A7C0130501420347160083
:1036C000330585001308E002230005C16300072EBF
:1036D000130830066358E83C130840069308A0001E
:1036E000130E0142330EBE0093053400336307030B
:1036F00033470703334813033387E90003470700C1
:103700002300EEC033870901034807003367130322
:10371000230105C13387E900034507001307014270
:103720003307B700138415002300A7C09305014297
:1037300003472600338585009305E0022300B5C0CA
:10374000930514006300072213083006635CE82E1B
:10375000130840069308A000130E0142330EBE006A
:1037600093053400336307033347070333481303D8
:103770003387E900034707002300EEC033870901C0
:103780000348070033671303230105C13387E900AA
:1037900003450700130701423307B70013841500E0
:1037A0002300A7C00347360013060142B305860075
:1037B0001306E0022380C5C013061400630C071C27
:1037C000130530066358E52A130540061308A000C8
:1037D000130301423303C30013063400B368A70286
:1037E0003347A70233C508033387E90003470700BF
:1037F0002300E3C03387A9000345070033E708032C
:103800002381A5C03387E9008345070013070142E0
:103810003307C700130416002300B7C093F707014E
:10382000938CF6FF639A07026352D434338D86403B
:1038300013050B0013060D00930500022326D1008B
:10384000EF0040418326C100330BAB01B306D440E7
:10385000B3869601938CF6FF13050B001306040044
:10386000930501022326D100EF0040318326C100D9
:1038700033078B00130B07006352D40213060002B8
:1038800093061000130B1B00B3876641B3879701A3
:10389000A30FCBFEB307F700E346F4FE83C7140083
:1038A00013841400639C07FA6FF00FFD93E7270061
:1038B00013854B00938C040083A50B001306A00016
:1038C000930B05006FF01F9B03A60B0093E7070403
:1038D000938B4B006FF05FD893072B00130B0700FF
:1038E0001387070023000B0183C71C0013841C00EF
:1038F000130B0700639407F66FF00FF893E71700B8
:10390000930680006FF09FAB13840A4B6FF09F9A71
:10391000635A90201386040013050B0093050002E0
:10392000330B9B00EF0000339304F0FF6FF0DFAB2D
:10393000938DF6FF63DAD420338D964013050B0088
:1039400013060D00930500022326D100EF008030FE
:103950008326C100330BAB01B386D440B386B601D6
:103960006FF01F98130701423307B7009305000358
:103970002300B7C013042400034736001306014296
:10398000B30586001306E0022380C5C013061400A9
:10399000E31807E2130701423307C70013060003C9
:1039A000130424002300C7C06FF05FE71307014230
:1039B0003307B70093050003130424002300B7C0A6
:1039C0006FF0DFD6130700032300E1029305200008
:1039D000130410006FF05FCE9387E6FF9306040098
:1039E00013840700130610019305010213050B0051
:1039F0002326D100EF0080188326C100930C10010C
:103A000013071B01E3DADCC0930500021306200153
:103A10009306100113071700B307E640B307FB0036
:103A2000A30FB7FEB3878700E3C6F6FE6FF0DFBED5
:103A300013098103130B09006FF00FE493840C004A
:103A40006FF09FC113059000E352E5D41308A00066
:103A50003345070393080142B388B8009305240057
:103A60003385A90003450500336707032380A8C0F9
:103A70006FF0DFD193059000E3D6E5D81305A000E1
:103A8000B345A702130801423308C80013062400F7
:103A9000B385B90083C505003367A7022300B8C00A
:103AA0006FF05FD613059000E356E5C61308A0003B
:103AB0003345070393080142B388B80093052400F7
:103AC0003385A90003450500336707032380A8C099
:103AD0006FF05FC49305900063D6E5029308A000E1
:103AE000334517039305300013042000130810001A
:103AF0003385A90003450500336717032300A1029E
:103B00006FF05FBA93052000130410001308000043
:103B10006FF05FB993F40701E38C04E093040000B5
:103B20006FF05F8683A70B0013071B00938B4B007E
:103B30002300FB0013841C0083C71C00130B070029
:103B4000639E07D06FF04FD393860D006FF04FF94F
:103B500033079B00130414008347F4FF130B1B006F
:103B6000A30FFBFEE318EBFE6FF09F819387E6FF48
:103B700093860C00938C07006FF01FCEB3C7A5008F
:103B800093F737003307C5006396070093073000AB
:103B900063E2C70293070500637CE50A83C605005C
:103BA0009387170093851500A38FD7FEE3E8E7FE00
:103BB000678000009376350093070500638E06004A
:103BC00083C605009387170093851500A38FD7FE42
:103BD00093F637006FF09FFE9376C7FF138606FEBD
:103BE00063F4C70683A3050083A2450083AF850065
:103BF00003AFC50083AE050103AE450103A38501F4
:103C000083A8C5019385450223A0770003A8C5FFBB
:103C100023A2570023A4F70123A6E70123A8D70175
:103C200023AAC70123AC670023AE1701938747027D
:103C300023AE07FF6FF0DFFA03A605009387470066
:103C40009385450023AEC7FEE3E8D7FEE3E8E7F43B
:103C5000678000001303F00013070500637EC302B2
:103C60009377F7006390070A63920508937606FF3F
:103C70001376F600B386E6002320B7002322B700B0
:103C80002324B7002326B70013070701E366D7FEF6
:103C90006314060067800000B306C34093962600B5
:103CA00097020000B38656006780C6002307B7005E
:103CB000A306B7002306B700A305B7002305B70086
:103CC000A304B7002304B700A303B7002303B7007E
:103CD000A302B7002302B700A301B7002301B70076
:103CE000A300B7002300B7006780000093F5F50F2D
:103CF00093968500B3E5D50093960501B3E5D5000D
:103D00006FF0DFF69396270097020000B386560007
:103D100093820000E78006FA93800200938707FFF2
:103D20003307F7403306F600E378C3F66FF0DFF3AE
:103D3000284900003049000038490000130101F60D
:103D4000138605002326A1009305C1001305E10594
:103D5000232E1108232C8108232A910823282109C6
:103D600023263109232441092322510923206109F3
:103D7000232E7107232C8107232A91072328A107CB
:103D80002326B107EFE09FF213051000EFE0CFB15B
:103D9000231EA10013052000EFE00FB1231FA10097
:103DA00013053000EFE04FB02310A10213054000CF
:103DB000EFE08FAF232CA10213055000EFE0CFAE50
:103DC0006306055C232EA1028327C1016396076663
:103DD00083170102638007688327C103B75500007A
:103DE0009385059513F7270093F617003335E00008
:103DF0002322B102231E010413F847003386A600D4
:103E00006308080013051600131605011356060172
:103E10001305007D3355C50213060000232AA102B5
:103E2000639C065E631A075C631E085A6394062649
:103E30006310072893F74700638A070003260103EE
:103E40008315C10103254103EFD0DFBB8327810325
:103E5000639E070893071000232CF10203278103B8
:103E60001304000093172700B387E7009397170008
:103E7000232CF102EFE0DFDF83248103232A0104F6
:103E8000232C010463800404930510001305C10171
:103E9000EFC0CFD883554105EFE00FBB231AA10433
:103EA0009305F0FF1305C101EFC04FD783554105BE
:103EB000EFE08FB9231AA104630004221304140055
:103EC000E39484FCEFE0DFDBEFE09FDCEFE0DFDD9D
:103ED000E30605F89307A000B3D7A70203278103E1
:103EE00093871700B307F702232CF102EFE05FD8A6
:103EF0001305C101EFC04F92EFE09FD8EFE05FD90B
:103F0000930A05000315C10193050000EFE0DFAC43
:103F1000930505000315E101EFE01FAC93050500D3
:103F200003150102EFE05FAB9305050003154103A4
:103F3000EFE09FAAB7870000938757B013090500E9
:103F4000630CF55663F4A740B7940000938724A050
:103F5000630AF558B7F700009387579F631EF51A59
:103F600037450000372A00001305055D130A7AFD66
:103F7000B7E90000EFF0CF859384A4E3130B0A00A8
:103F800093894971375D000083270D25130C0000CC
:103F9000930B00006382075AB74C00006F000004C7
:103FA000330474011314240093070106338487003B
:103FB0000354C4FF3304840113871B00131404014A
:103FC00083270D2513540401931B0701131C0401BF
:103FD00093DB0B01135C0C4163F6FB1413944B0051
:103FE000B30D740193070106939D2D00B38DB701A6
:103FF00083A7CDFD239E0DFE93F717006384070270
:1040000003D66DFF630036039386090093850B008A
:104010001385CC62EFE0DFFB83D7CDFF93871700DA
:10402000239EFDFEB30D740193070106939D2D00A1
:10403000B38DB70183A7CDFD93F6270063880602F1
:1040400003D68DFF63046603B747000093060A009A
:104050001385C76593850B00EFE09FF783D6CDFFEF
:1040600083A7CDFD93861600239EDDFE93F74700C0
:10407000E38807F2B30D7401939D2D0093070106A9
:10408000B38DB70103D6ADFF6312960603D4CDFFFF
:104090006FF05FF20316C10183258102EFC01F9FFD
:1040A0008327C1032320A10413F72700E30407D8C3
:1040B0008317E1010316C1018325C10203254103D2
:1040C0009397070133E6C70093064104EFD0CFC3AF
:1040D0008327C1036FF01FD6231BA1049307100091
:1040E000E382F4DE130410006FF01FDAB74700001C
:1040F000138507699386040093850B00EFE05FED5D
:1041000083D7CDFF9387170013940701135404013D
:10411000239E8DFE6FF01FEA370401001304F4FFA5
:10412000375D0000EFE0DFB3832541033304A400D3
:10413000374500001305056CEFE09FE937450000A7
:1041400093850A001305856DEFE09FE813850A004B
:10415000EFE09FB593050500374500001305056F97
:10416000EFE01FE71314040113850A001354040140
:10417000EFE09FB36318053013850A00EFE0DFB26C
:104180009307900063FEA72C83270D2583258103C9
:104190003745000013050576B385F5029314040135
:1041A00093D40441EFE0DFE2B7450000374500005B
:1041B0009385857713054578EFE09FE1B7450000CB
:1041C000374500009385C5791305057AEFE05FE078
:1041D000B7450000374500009385857B1305057CB6
:1041E000EFE01FDF37450000930509001305857DCB
:1041F000EFE01FDE8327C10313F7170063080704EE
:1042000003270D2563040704130400003749000049
:1042100093174400B387870013070106939727007D
:10422000B307F70003D667FF930504001305497F22
:10423000EFE01FDA1304140083270D251314040183
:1042400013540401E366F4FC8327C10313F727002A
:104250006308070403270D25630A072413040000DD
:104260003759000093174400B387870013070106EE
:1042700093972700B307F70003D687FF9305040041
:1042800013050981EFE0DFD41304140083270D2503
:104290001314040113540401E366F4FC8327C103DF
:1042A00093F74700639A070E83270D251304000038
:1042B00037590000638E070293174400B3878700C5
:1042C0001307010693972700B307F70003D647FFAC
:1042D0009305040013058984EFE09FCF13041400B5
:1042E00083270D251314040113540401E366F4FC21
:1042F00063820418635A9012375500001305058B2A
:10430000EFE01FCD1305E105EFE01F9B8320C109FE
:104310000324810983244109032901098329C10850
:10432000032A8108832A4108032B0108832BC10734
:10433000032C8107832C4107032D0107832DC10620
:10434000130500001301010A67800000B727000071
:104350009387278F630EF51A375A00009307FAEAFE
:10436000E31CF5DA374500001305C559130A8A60C6
:10437000B7E40000B7790000EFE09FC59384445A8A
:10438000130B0A00938999A76FF0DFBF93077000A2
:10439000232EF1026FF05FA383270D25E38A07F434
:1043A000130400003759000093174400B3878700B7
:1043B0001307010693972700B307F70003D6A7FF5B
:1043C000930504001305C982EFE09FC01304140095
:1043D00083270D251314040113540401E366F4FC30
:1043E0006FF09FEC3306A602B385C5002328B10207
:1043F000E38006A46FF01FCAB308A60213061600D6
:104400001316060113560601B3881501232611035E
:10441000E30E08A06FF01FFD2324B1021306100065
:10442000E30407A06FF05FFD375500001305458CCE
:10443000EFE01FBA6FF01FED13071000E39EE7983F
:1044400083170102E39A0798B737153493875741CA
:10445000232EF100930760062310F1026FF0DF971F
:104460003745000013050572EFE09FB613041400F2
:104470006FF09FD13755000013054586EFE05FB51B
:104480006FF05FE883250D258324810313850A00DF
:10449000B384B402EFE05F81B3D5A40237450000D6
:1044A00013058570EFE0DFB26FF01FCD93F7470083
:1044B000E39007E46FF05FDF37450000371A000034
:1044C00013050557130A9A19B7440000B7390000BD
:1044D000EFE01FB09384F49B130B0A009389093417
:1044E0006FF05FAA3745000037CA00001305055476
:1044F000130A2AE5B7640000B7D90000EFE05FAD0A
:10450000938474E4130B0A009389094B6FF09FA7FF
:104510003745000013050560B7940000B7E90000B7
:10452000EFE01FAB938444D8130A7074130B7074BC
:104530009389193C6FF01FA5130400006FF09FBE14
:10454000366B20706572666F726D616E6365207286
:10455000756E20706172616D657465727320666F2F
:104560007220636F72656D61726B2E0A000000002D
:10457000366B2076616C69646174696F6E20727548
:104580006E20706172616D657465727320666F7202
:1045900020636F72656D61726B2E0A0050726F66D8
:1045A000696C652067656E65726174696F6E2072F3
:1045B000756E20706172616D657465727320666FCF
:1045C0007220636F72656D61726B2E0A00000000CD
:1045D000324B20706572666F726D616E636520721A
:1045E000756E20706172616D657465727320666F9F
:1045F0007220636F72656D61726B2E0A000000009D
:10460000324B2076616C69646174696F6E207275DB
:104610006E20706172616D657465727320666F7271
:1046200020636F72656D61726B2E0A005B25755D8C
:104630004552524F5221206C69737420637263207B
:10464000307825303478202D2073686F756C6420A5
:104650006265203078253034780A00005B25755D6E
:104660004552524F5221206D6174726978206372F5
:104670006320307825303478202D2073686F756C76
:1046800064206265203078253034780A000000000C
:104690005B25755D4552524F5221207374617465DC
:1046A0002063726320307825303478202D207368A1
:1046B0006F756C64206265203078253034780A008C
:1046C000436F72654D61726B2053697A65202020BB
:1046D000203A20256C750A00546F74616C2074694F
:1046E000636B732020202020203A20256C750A005F
:1046F000546F74616C2074696D65202873656373F1
:10470000293A2025640A0000497465726174696F52
:104710006E732F5365632020203A2025640A000021
:104720004552524F5221204D757374206578656350
:1047300075746520666F72206174206C6561737496
:10474000203130207365637320666F72206120769C
:10475000616C696420726573756C74210A000000D5
:10476000497465726174696F6E7320202020202067
:10477000203A20256C750A00474343382E322E30EC
:1047800000000000436F6D70696C65722076657281
:1047900073696F6E203A2025730A00002D4F320096
:1047A000436F6D70696C657220666C616773202061
:1047B000203A2025730A0000535441434B00000067
:1047C0004D656D6F7279206C6F636174696F6E20D7
:1047D000203A2025730A00007365656463726320C4
:1047E0002020202020202020203A2030782530341E
:1047F000780A00005B25645D6372636C69737420E2
:104800002020202020203A203078253034780A00DB
:104810005B25645D6372636D61747269782020202A
:1048200020203A203078253034780A005B25645DFA
:1048300063726373746174652020202020203A2005
:104840003078253034780A005B25645D63726366D6
:10485000696E616C2020202020203A20307825309D
:1048600034780A00436F7272656374206F706572EA
:104870006174696F6E2076616C6964617465642E21
:104880002053656520524541444D452E6D64206698
:104890006F722072756E20616E64207265706F7227
:1048A00074696E672072756C65732E0A00000000D3
:1048B0004572726F72732064657465637465640A0F
:1048C0000000000043616E6E6F742076616C696455
:1048D000617465206F7065726174696F6E20666FB8
:1048E0007220746865736520736565642076616CF9
:1048F0007565732C20706C6561736520636F6D70D6
:10490000617265207769746820726573756C747361
:10491000206F6E2061206B6E6F776E20706C6174FB
:10492000666F726D2E0A0000537461746963000033
:104930004865617000000000537461636B00474379
:10494000433A2028474E552920382E322E30000079
:104950000000000000000000000000000000000057
:104960000000000000000000000000000000000047
:104970000000000000000000000000000000000037
:104980000000000000000000000000000000000027
:105120007C1A00007C1A00002C1B00002C1B0000C5
:10513000501B0000045200000C52000014520000EA
:105140001C520000D4510000E0510000EC5100005E
:10515000F8510000A4510000B0510000BC51000003
:10516000C851000074510000805100008C510000B3
:105170009851000054302E33652D31460000000058
:105180002D542E542B2B5471000000003154332E1B
:105190003465347A0000000033342E30652D545EBF
:1051A00000000000352E353030652B330000000044
:1051B0002D2E313233652D32000000002D38376539
:1051C0002B383332000000002B302E36652D313263
:1051D0000000000033352E3534343030000000003C
:1051E0002E31323334353030000000002D31313073
:1051F0002E373030000000002B302E363434303063
:10520000000000003530313200000000313233340C
:10521000000000002D383734000000002B313232FE
:105220000000000004210000D4200000E020000065
:10523000EC200000F8200000C82000000000000062
:10524000000000000000000000000000000000005E
:10525000010000000100000066000000A031000015
:10526000283100002831000094310000283100006E
:1052700028310000283100002831000028310000CA
:10528000283100002831000088310000283100005A
:105290007C31000028310000283100000C31000072
:1052A000C838000020340000203400002034000002
:1052B000203400002034000020340000203400009E
:1052C000203400002034000020340000203400008E
:1052D000203400002034000020340000203400007E
:1052E000203400002034000020340000203400006E
:1052F0002034000020340000203400005C32000024
:10530000203400002034000020340000203400004D
:10531000203400002034000020340000203400003D
:105320005036000020340000D8330000AC380000B4
:10533000203400002034000020340000203400001D
:10534000AC3800002034000020340000203400007D
:105350002034000020340000CC330000B0330000C3
:1053600020340000203400009C3200002034000073
:105370009032000020340000203400004436000049
:10538000C83400002834000028340000283400000D
:10539000283400002834000028340000283400009D
:1053A000283400002834000028340000283400008D
:1053B000283400002834000028340000283400007D
:1053C000283400002834000028340000283400006D
:1053D0002834000028340000283400006032000027
:1053E000283400002834000028340000283400004D
:1053F000283400002834000028340000283400003D
:105400002C36000028340000DC330000B0340000EB
:10541000283400002834000028340000283400001C
:10542000B034000028340000283400002834000084
:105430002834000028340000D0330000B4330000CA
:105440002834000028340000A03200002834000076
:105450009432000028340000283400006432000038
:1054600030313233343536373839616263646566DA
:105470006768696A6B6C6D6E6F7071727374757644
:105480007778797A0000000030313233343536379E
:1054900038394142434445464748494A4B4C4D4EB2
:1054A0004F505152535455565758595A0000000006
:0854B0003C4E554C4C3E00003F
:00000001FF
