:1000000037810000EF208047370500801305450049
:100010002320050073001000130101FF232021019C
:100020000329C501232611002324810023229100E6
:10003000232C0502232E0502630609041304050080
:10004000930400009305100013050400EF00C04A5C
:1000500083558403EF10007C231CA4029305F0FF5A
:1000600013050400EF00404983558403EF10807AA4
:10007000231CA40263940400231DA402938414008F
:10008000E31299FC8320C1000324810083244100F2
:10009000032901001305000013010101678000001E
:1000A000630A060003152500839725003305F540F4
:1000B0006780000083170500139707011357070196
:1000C0001357870093F707F0B3E7E7002310F50015
:1000D00083970500031525001397070113570701A0
:1000E0001357870093F707F0B3E7E7002390F50075
:1000F000839725003305F54067800000130101FE5A
:10010000232C81000314050023282101232E110034
:1001100093577440232A91002326310193F7170047
:100120001379F407639E07049384050093553440C4
:1001300093F5F5009397450013777400B3E5B70086
:100140009309050083D78403630C0704930610000A
:10015000630AD70813150401135505011309040098
:10016000938507001379F907137404F0EF10806A80
:1001700033648900239CA40213640408239089003B
:100180008320C10103248101130509008324410157
:10019000032901018329C1001301010267800000C6
:1001A000930620021387050063D4D50013072002AD
:1001B000839624000396040083A5440103A58401CB
:1001C0001377F70FEF10403E83D7E40313190501AF
:1001D0001359094163940700239FA40283D7840322
:1001E0006FF01FF81386070013858402EF00D072AA
:1001F00083D7C4031319050113590941E39007FE7E
:1002000083D78403239EA4026FF09FF5130101FF9F
:1002100023202101138905009305060023261100E0
:10022000232481002322910013040600EFF01FED28
:10023000930405009305040013050900EFF01FEC7B
:100240008320C100032481003385A44003290100D9
:10025000832441001301010167800000039705001A
:10026000839725002310E5002311F5006780000027
:10027000032806009308880063F6E80403A7060035
:10028000130347006370F30423201601832705003E
:1002900083980500039625002320F80023200501FC
:1002A0002322E80083A70600130508009387470070
:1002B00023A0F60083274800239017012391C7004D
:1002C0006780000013080000130508006780000025
:1002D00083270500032645001307050083A5470073
:1002E00083A60700138507002322B70023A2C700B7
:1002F0002320D70023A007006780000003A6450045
:100300008326450003A705002322C50023A2D500AC
:100310002320E50023A0A5006780000003972500A7
:10032000634807026304050283274500839727007B
:10033000639AE7006F000005832745008397270035
:100340006386E70003250500E31805FE67800000CB
:10035000E30E05FE832745000397050083C70700CA
:10036000639AE7006F0040028327450083C70700B8
:100370006388E70003250500E31805FE6FF01FFD05
:10038000678000006780000067800000630005024E
:10039000130700006F008000138507008327050006
:1003A0002320E50013070500E39807FE678000009F
:1003B000130101FD232C4101232A51012326710140
:1003C000232481012320A101232611022324810259
:1003D0002322910223202103232E310123286101AE
:1003E00023229101130A0500138C0500930B0600CC
:1003F000930A1000130D1000630E0A0A930C0000FC
:1004000013090000130B0000938C1C0013040A0056
:100410009304000003240400938414006304040084
:10042000E39A9AFE93890A00638E0402638E09049C
:10043000630C04048325440003254A0013860B0043
:10044000E7000C006352A004930704000324040097
:100450009389F9FF630409022320F9001389070037
:10046000E39604FC638A0902630C04029307040008
:100470009389F9FF03240400E31009FE138B07009E
:10048000138907006FF0DFFD93070A009384F4FFE0
:10049000032A0A006FF01FFC130A0400E31604F697
:1004A00023200900638CAC01939A1A00130A0B00F5
:1004B0006FF09FF423200000730010008320C1021E
:1004C0000324810213050B00832441020329010246
:1004D0008329C101032A8101832A4101032B0101E0
:1004E000832BC100032C8100832C4100032D0100CC
:1004F0001301010367800000130101FC232C81011B
:10050000031C4500232C8102232251032320610375
:10051000232E1102232A91022328210323263103AB
:1005200023244103232E7101232A91012317B100B3
:10053000130B0500938A050003244502635A8021AA
:10054000938C050093040000930B000093090000B6
:1005500013090000130AC10093F7F40F93050A0072
:10056000130504002316F100EFF05FDB63000402C3
:10057000130700006F008000138407008327040026
:100580002320E40013070400E39807FE630A05062E
:1005900083274500938919009399090183970700E0
:1005A00093D9090113F71700630C070093D79740FD
:1005B00093F717003309F9001319090113590901B9
:1005C00083270500638C070003A707002320E500AD
:1005D0000327040023A0E7002320F40063C60C00D7
:1005E000938C1C00231791019384140093940401AD
:1005F00093D40441630C9C02831CE1006FF0DFF58F
:1006000083270400938B1B00939B0B0183A7470058
:1006100093DB0B018387170093F717003309F90069
:1006200013190901135909016FF05FFB9394290015
:10063000B3847441B30499009394040193D40401E6
:10064000635E5001B70500001305040013060B009C
:100650009385C520EFF0DFD5130405008327040040
:1006600093050A001305040083A9070003AA4700A5
:1006700083A6490003A7090023A2D70023A24901AA
:1006800023A0E70023A00900EFF05FC913090500CC
:10069000630A050A83274400938504000395070035
:1006A000EF1080220329090093040500E31409FEDA
:1006B0000329040003AA49000327490083270900EE
:1006C000B705000023A2E9002322490123A0F90075
:1006D0002320390113050400130600009385050A41
:1006E000EFF01FCD03240500130905006300040289
:1006F000832749009385040003950700EF10C01C71
:100700000324040093040500E31404FE8320C103C2
:100710000324810313850400032901038324410377
:100720008329C102032A8102832A4102032B010289
:10073000832BC101032C8101832C4101130101048E
:100740006780000003290400E31609F46FF0DFF668
:1007500093040000130AC1006FF09FEE13034001E1
:10076000335365021385050023A00500B787FFFFFB
:100770009386070893850501130785001303E3FF9C
:10078000131F3300330FE5012322E501931F2300DC
:100790002310DF0023110F00B30FFF0193064F005A
:1007A00063FEE51193088F0063FAF8112326D50044
:1007B000232405002320E50093C7F7FF9306F0FFED
:1007C0002312DF002313FF00630A030693120601BE
:1007D000B783FFFF93D202011308000093C3F3FF16
:1007E0009316080193D60601B3C7560093973700B6
:1007F00093F6760093F78707B3E7D70093968700C1
:10080000138E850013081800938E4800B3E7F60096
:100810006374EE0363F2FE0323A0E5002320B5001A
:1008200023A215012390F800239178001387050077
:1008300093880E0093050E00E31403FB8327070043
:100840006386070693075000374800003353F302CE
:10085000930510001308F8FF6F00800103270700BD
:100860002391B60093851500832707006380070452
:100870009396050193D606019387160093978700F8
:10088000B3C6C60093F70770B3E7D700B3F7070105
:1008900083264700E3E465FC032707002391F60065
:1008A0009385150083270700E39407FCB705000034
:1008B000130600009385050A6FF09FAF93050700AC
:1008C00093880600130700006FF01FF0130101FF6B
:1008D00023268100232491002322210113080500EF
:1008E00063140600130610009383F5FF93F3C3FF10
:1008F0009384430013050000631608006F00000E88
:100900001305070013071500B307E7029397370095
:10091000E3E807FFB302A502130905009392120052
:10092000B383540063020508370E01001314150049
:10093000938F0300130F000013081000B38E744050
:10094000130EFEFF93850F00930800003306060385
:100950009317080193D707013383BE0093852500C1
:1009600093881800130818001357F641135707010E
:100970003306E6003376C6013306E6403387C70008
:100980001317070113570701B307F700239FE5FE6D
:1009900093F7F70F2310F300E3EAA8FA130F1F00F1
:1009A000B38F8F00E360AFFAB38753009387F7FFED
:1009B0000324C10093F7C7FF9387470023A2960043
:1009C00023A0260123A4760023A6F6008324810019
:1009D0000329410013010101678000009383630034
:1009E0001309F0FF1305F0FF930220006FF0DFF30F
:1009F000130F050063080508B30EA04093182500E7
:100A0000B3881501939F2E00130300001305000007
:100A10001307000093050000939E3E00338E1F01D4
:100A200093070E006F00C00113150801938747005C
:100A3000135505419305000013870600638CF802E7
:100A400083A6070013150501135505013327D700A9
:100A5000B385D5001308A5003305E500E346B6FCD1
:100A600013150501938747001355054113870600A9
:100A7000E398F8FC13031300B308DE41E3106FFAA8
:100A8000678000001305000067800000630A05040A
:100A9000330EA04013181500931E1E00131F2500CF
:100AA0003308060193080000131E2E0033830E0145
:100AB00013860500930703000397070013064600FB
:100AC000938727003307D702232EE6FEE39607FF1E
:100AD00093881800B385E5013308C341E31815FD79
:100AE0006780000063060504B308A0409316150054
:100AF00013160601B386D50013931800135606018A
:100B000093050000939828003308D300930708004A
:100B100003D70700938727003307E600239FE7FEEC
:100B2000E398F6FE93851500B3061841E31EB5FC65
:100B30006780000063060504931E15001315250049
:100B4000338EA5003383D601938706001305060074
:100B500013080000031705008398070093872700F8
:100B600013052500330717033308E800E314F3FEE9
:100B700023A00501938545003306D601E316BEFC8C
:100B8000678000006304050893181500130101FF36
:100B900023268100130F06003303160113142500CA
:100BA00093820500B38F160193030000138E060095
:100BB000938E020013060E0093070F0093050000AA
:100BC00003970700031806009387270033061601D2
:100BD00033070703B385E500E314F3FE23A0BE004B
:100BE000130E2E00938E4E00E396CFFD93831300D9
:100BF000330F1F0133031301B3828200E31875FA28
:100C00000324C10013010101678000006780000018
:100C1000630E050893181500130101FF23268100B8
:100C2000130F0600330316011314250093820500E9
:100C3000B38F160193030000138E0600938E0200FB
:100C400093050E0013060F0013080000039705001C
:100C50008317060013062600B3851501B387E70244
:100C600013D7274093D757401377F70093F7F70729
:100C7000B307F7023308F800E31AC3FC23A00E0100
:100C8000130E2E00938E4E00E39CCFFB9383130034
:100C9000330F1F0133031301B3828200E31E75F883
:100CA0000324C10013010101678000006780000078
:100CB000130101FB23248104232291042320210515
:100CC000232E310323261104B7F9FFFF232C410300
:100CD000232A51032328610323267103232481033C
:100CE000232291032320A103232EB10113840500A5
:100CF0009304060013890600B36937016302053ABD
:100D0000131C15003308A040B3058601931A070190
:100D1000930B0600931E18009308050093DA0A014E
:100D200013860500930D0000131828003385CE00AC
:100D30009307050083D6070093872700B386DA0060
:100D4000239FD7FEE318F6FE138A1D0033060541E4
:100D500063864801930D0A006FF05FFDB3084041C0
:100D6000131B2A00930C040013050400130E00004B
:100D7000139828003383D501130605009307030059
:100D8000839607001306460093872700B386E60282
:100D9000232ED6FEE396F5FE93071E00330565016C
:100DA000B30503416306BE01138E07006FF09FFC7D
:100DB000330D640113030D00130500001307000039
:100DC00013060000930E000093983800330E0301C1
:100DD00093070E006F00C00113950501938747002C
:100DE000135505411306000013870600630CF30238
:100DF00083A6070013150501135505013327D700F6
:100E00003306D6009305A5003305E500E3C6C9FC0B
:100E100013150501938747001355054113870600F5
:100E2000E318F3FC93871E0033031E416386BE0163
:100E3000938E07006FF09FF99305000023261101A0
:100E400023240101EF0050282322A100138604006F
:100E500013050A009306090093050400EFF09FCDE7
:100E600003234100032881008328C10013050000EB
:100E70001307000013060000930E0000330E0D014F
:100E800093070E006F00C00113950501938747007B
:100E9000135505411306000013870600630CFD027D
:100EA00083A6070013150501135505013327D70045
:100EB0003306D6009305A5003305E500E3C6C9FC5B
:100EC0001315050193874700135505411387060045
:100ED000E318FDFC93871E00330D1E416386BE019F
:100EE000938E07006FF09FF993050300EF00D01D6C
:100EF00093060900130D05001386040013050A006C
:100F000093050400EFF01FC813030400130500004D
:100F10009307000093060000930800009305030068
:100F2000130600006F0000021315080113061600D7
:100F3000135505419306000093854500930707006C
:100F4000637E460303A7050013150501135505012C
:100F5000B3A7E700B386E6001308A5003305F50044
:100F6000E3C4D9FC131505011306160013550541FA
:100F70009385450093070700E36646FD93881800B4
:100F800033036301E3EC48F993050D00EF00D01340
:100F900093060900130D05001386040013050A00CB
:100FA00093050400EFF0DFC613050000930700006F
:100FB000930600009308000093850C0013060000C0
:100FC0006F000002131508011306160013550541A2
:100FD000930600009385450093070700637E460350
:100FE00003A705001315050113550501B3A7E70075
:100FF000B386E6001308A5003305F500E3C4D9FC69
:101000001315050113061600135505419385450078
:1010100093070700E36646FD93881800B38C6C01C4
:10102000E3EC48F993050D00EF00100A13060000E9
:1010300093870B009306000003D7070093872700D0
:101040009386160033075741239FE7FEE3E646FFEA
:1010500013061600B38B8B01E36C46FD8320C1049D
:101060000324810413150501832441040329010489
:101070008329C103032A8103832A4103032B01032C
:10108000832BC102032C8102832C4102032D010218
:10109000832DC1011355054113010105678000002F
:1010A00093050000EF005002930609001386040028
:1010B000930905009305040013050000EFF09FA7B6
:1010C0009385090013050000EF0010009306090046
:1010D000138604009309050093050400130500001E
:1010E000EFF05FAA9385090013050000EF00C07DB3
:1010F0009309050093050400930609001386040074
:1011000013050000EFF0DFB0938509001305000020
:10111000EF00807B6FF09FF4130101FF2324810017
:1011200013870500130406008325C5008326850068
:10113000032645000325050023261100EFF05FB7C5
:1011400093050400032481008320C10013010101E1
:101150006F008077130F0000930E00009385150039
:10116000B38FEE0193950501373800003733000047
:101170009306F5FF93821F0093D5050193070000A6
:10118000130EC002930840001308487D1303037C2C
:1011900063FED20463160F0893F775009387D7FF99
:1011A0009397070113D7350093D7070113773700BB
:1011B00063EAF80A93972700B387670083A70700BD
:1011C000131727003307E80067800700832707010C
:1011D000130F800093851500B38FEE0193950501E1
:1011E00093821F0093D50501E3E6D2FAB307D60137
:1011F0003306A60063F8AE0023800700938717002C
:10120000E31CF6FE6780000083270702130F8000AF
:101210006FF05FFC83270703130F80006FF09FFBC5
:101220003307D601338FE70183CE0700130717007A
:1012300093871700A30FD7FFE318FFFE93F77500FE
:101240009387D7FFB30FF6019397070113D73500A4
:101250002380CF0193D70701938E020013773700C5
:10126000E3FAF8F4131727003307E8008327070091
:10127000130F40006FF01FF68327050083C6070099
:101280006388062E1308C00213871700638E062B8F
:1012900083A80500138606FD1376F60F130390004E
:1012A00093881800636CC30A23A0150183C6170036
:1012B0006384061693872700638E0615138606FD42
:1012C0001308E002930890001303C0021376F60F90
:1012D0006386060363E0C80C834617001386170075
:1012E0001387070063880612638A662A930706003D
:1012F000138606FD1376F60FE39E06FD83A6050111
:101300009386160023A8D50083461700638206281B
:101310001307C002138617006382E62213085004E5
:10132000930890001303C002138706FD93F6F60D91
:101330001377F70F6386060F63FAE81A83A6450151
:1013400013070600930710009386160023AAD50002
:101350002320E50013850700678000001306B00214
:10136000638AC6041306D0026386C6041306E0022D
:10137000638CC61883A6450023A0150193071000AF
:101380009386160023A2D5002320E50013850700CD
:101390006780000083A605011387070093071000EC
:1013A0009386160023A8D5002320E50013850700A7
:1013B0006780000023A0150183C817006380081C04
:1013C00013872700638C081B03A68500938608FDFE
:1013D00093F6F60F13089000130616006370D802F8
:1013E0009306E0026380D81423A4C500930710007D
:1013F0002320E500138507006780000023A4C500B3
:1014000083C62700638A06001306C00293071700ED
:10141000E396C6EA13870700930740006FF0DFF8F2
:1014200003A745011307170023AAE50083C7170088
:10143000638A07121308C002130716006386071396
:1014400083A6C500938757FD93F7D70F93861600A1
:1014500023A6D500638A0700930710002320E50028
:101460001385070067800000834716006388070E16
:10147000130726006384070F83A68501938707FD62
:1014800093F7F70F938616009308900023ACD500CE
:10149000E3E4F8FC83462600638E060A93073600D1
:1014A0006388060B130690009308C002938606FD1E
:1014B00093F6F60F637ED60083A6450013870700D8
:1014C000930710009386160023A2D5006FF0DFED7E
:1014D000834617001388170013870700638A0606E0
:1014E0006382160B930708006FF05FFC83C617003A
:1014F00013071600930706006382060463826604DE
:10150000130607006FF05FE223A0150183C61700E2
:101510006388060213862700638206039307070089
:101520006FF0DFDF23A4C50083C62700638A0600AF
:101530009307C00213061700E392F6FE1307060096
:10154000930750006FF05FE6930700006FF0DFE550
:1015500013870700930770006FF01FE59307600083
:101560006FF09FE413070600930730006FF0DFE38E
:1015700013870700930700006FF01FE39307200015
:101580006FF09FE213070800930770006FF0DFE130
:1015900013870700930750006FF01FE11307060041
:1015A000930740006FF05FE0130101F8232A9106D2
:1015B000232821079304010113090103232C810629
:1015C00023263107232441072322510723206107C3
:1015D000232C8105938A060093090700138A0700CC
:1015E000232E1106232E710513840500130C05000C
:1015F000130B06002326B100930601051387040090
:101600009307090023A007002320070093874700C2
:1016100013074700E398D7FE03470400630E071241
:10162000930BC1009305010313850B00EFF0DFC49A
:1016300093070105131525003385A7000327C10073
:10164000832705FC03470700938717002320F5FC39
:10165000E31A07FC23268100330C840103470400AE
:1016600063748411930704001306C0026F008000A6
:1016700003C70700B34667016304C7002380D70090
:101680008327C100B38737012326F100E3E287FFF8
:101690008347040023268100930BC100638E070259
:1016A0009305010313850B00EFF01FBD93070105A0
:1016B000131525003385A7000327C100832705FCE8
:1016C00003470700938717002320F5FCE31A07FC64
:1016D00023268100637484039306C00283470400B9
:1016E00033C757016384D7002300E4000324C100FB
:1016F0003304340123268100E36284FF138404024F
:1017000003A5040093050A0093844400EF008018A9
:10171000930505000325090013094900EF00801710
:10172000130A0500E31E94FC8320C10703248107EC
:1017300083244107032901078329C106032A81065F
:10174000832A4106032B0106832BC105032C810547
:10175000130101086780000023268100330C8401F7
:10176000E36284F16FF09FF9E31C07F26FF01FF959
:101770009307500063ECA704B74700009387478C9A
:10178000131525003305F500832705006780070042
:10179000B747000003A5478E67800000B7470000E9
:1017A00003A5C78E67800000B747000003A5878E9A
:1017B00067800000B747000003A5878F678000009F
:1017C000B747000003A5478F67800000130500009E
:1017D0006780000037A6FFFF9307800013061600FE
:1017E00033C7A5009387F7FF93D51500137717002C
:1017F00093F7F70FB3C6C50013551500630607002E
:101800009395060193D50501E39C07FC138505001C
:101810006780000037A8FFFF9376F50F93078000DD
:101820001308180033C7D5009387F7FF93D5150029
:101830001377170093F7F70F33C6050193D61600F9
:10184000630607009315060193D50501E39C07FC89
:1018500037A6FFFF13558500930780001306160077
:1018600033C7A5009387F7FF93D5150013771700AB
:1018700093F7F70FB3C6C5001355150063060700AD
:101880009395060193D50501E39C07FC138505009C
:1018900067800000130101FF232481001304050069
:1018A000131505011355050123261100EFF09FF6CE
:1018B0009305050013550401032481008320C10012
:1018C000130101016FF01FF51315050113550501F3
:1018D0006FF05FF41305000067800000732500C0FF
:1018E00067800000732700C0B747000023A0E78E81
:1018F00067800000732700C0B747000023AEE78C65
:1019000067800000B747000003A5C78DB7470000F8
:1019100083A7078E3305F5406780000067800000CD
:10192000930710002300F50067800000B747000010
:10193000374700000327078E83A7C78D23000500C4
:10194000B387E740370700802324F7006780000053
:10195000130101FA232E8104232C9104232A21054B
:101960002328310513F807046304081EB74F00004D
:10197000938F8FB213F40701631E041A13F8170034
:1019800093F9170193030003630A081A13F8270059
:1019900093F407026304081C63C6051C13F8470090
:1019A0006318082093F78700130900006386070077
:1019B0009386F6FF13090002638C0400930700016D
:1019C000630AF620930786FF93B71700B386F640A5
:1019D0006392051A930700032306F100130800031E
:1019E0001303000093021000130E10009307C100B0
:1019F000938E020063D4E200930E0700B386D641B3
:101A00009388F6FF63920902B305D500130700021D
:101A10006352D01E13051500A30FE5FEE31CB5FEAF
:101A20009308E0FF9306F0FF6306090023002501F9
:101A300013051500638A0400130780006300E61A8B
:101A400013070001630CE616631404041307050072
:101A5000130610006358D01A13071700B306E640A8
:101A6000B3861601A30F77FEB306D500E346D0FE7A
:101A700013C7F8FF1357F74133F7E8009386F8FFD1
:101A8000B386E640130717003305E5009388F6FF99
:101A900033875E403307E5001306000363D8D21591
:101AA00013051500A30FC5FEE31CE5FEB385670013
:101AB00013060700130510006F00800003C805001F
:101AC00013061600B307C540B3876700A30F06FFD0
:101AD000B307F7009385F5FFE342F0FE3305C70136
:101AE000635ED00213070500130600029306100080
:101AF00013071700B387E640B3871701A30FC7FE8C
:101B0000B307F500E346F0FE93C7F8FF93D7F7411C
:101B1000B3F8F80093881800330515010324C105B4
:101B20008324810503294105832901051301010649
:101B30006780000093F7E7FF9309040013F827007C
:101B40009303000293F40702630A08006FF0DFE4D6
:101B5000B74F0000938F0FB06FF0DFE11309000063
:101B60006FF09FE5B305B0409386F6FF1309D002EE
:101B7000E39604E4130300009307C1006F008000A4
:101B800013030E0033F8C502130E1300338FC70181
:101B9000938E050093020E0033880F01034808005E
:101BA000B3D5C502A30F0FFFE3FCCEFC6FF05FE4DB
:101BB0009386F6FF1309B0026FF01FE013070003CE
:101BC0002300E50013078007A300E50013052500A7
:101BD0006FF09FE79386E6FF6FF09FDF1307000328
:101BE0002300E500130515006FF01FE6130705003D
:101BF0006FF0DFEB1387E6FF93860800930807007A
:101C00006FF09FE2938608009388F8FF6FF05FE81B
:101C1000B70700802380A70067800000130101BA86
:101C200023263143232E1142232C8142232A914221
:101C3000232821432324414323225143232061436A
:101C4000232E7141232C8141232A91412322B14427
:101C50002324C1442326D1442328E144232AF144E8
:101C6000232C0145232E1145834705009309414448
:101C700023263101638C077213098102374A000061
:101C8000B74400003744000013030500130ACA8F4D
:101C90001305090093840494130404B0130750023D
:101CA000638EE7062300F500834713001305150034
:101CB00013031300E39407FE23000500034781028A
:101CC000630C073493061000930709003706008061
:101CD000B38626413385D7002300E600938717009B
:101CE00003C70700E31807FE8320C1430324814391
:101CF00083244143032901438329C142032A8142AA
:101D0000832A4142032B0142832BC141032C814191
:101D1000832C414113010146678000008345130075
:101D20009306000193070000138705FE1377F70F52
:101D30001306130063E8E602131727003307470171
:101D4000032707006700070093E717001303060047
:101D50008345130013061300138705FE1377F70F4F
:101D6000E3FCE6FC138705FD1377F70F930690005D
:101D700063FAE60C1307A0029306F0FF638EE50EEC
:101D80001308E0021307F0FF6388050913F8F50D47
:101D90009308C004630A18051388F5FB1378F80F3D
:101DA0009308700363E2082513182800330898008D
:101DB000032808006700080093E7070113030600E3
:101DC0006FF01FF993E74700130306006FF05FF809
:101DD00093E70702130306006FF09FF793E787006E
:101DE000130306006FF0DFF6034316009308700339
:101DF000930A16001308F3FB1378F80F63EA081F21
:101E0000B748000013182800938808A23308180167
:101E10000328080067000800834516009308900017
:101E200013081600138705FD1377F70F63FAE81EF2
:101E30001307A0026380E5221306080013070000C1
:101E40006FF0DFF49306000013089000139726004C
:101E5000B306D7001306160093961600B386B60095
:101E600083450600938606FD138705FD1377F70F5C
:101E7000E37EE8FC6FF0DFF083A609001306230081
:101E80008345230093894900E3DC06EEB306D04086
:101E900093E707016FF0DFEE930A060093E707046C
:101EA000130600011388490083A50900930908005F
:101EB000EFF01FAA83C71A0013831A00E39007DE0E
:101EC0006FF09FDF930A06001306A0006FF09FFDDE
:101ED000930A060083A5090093894900638A054691
:101EE00003C605006304065063020750138605000D
:101EF0006F00C0003308E6406308B8001306160000
:101F000003480600E31808FE93F707013306B640BE
:101F10006388074A635CC0523307C5009385150088
:101F200083C7F5FF13051500A30FF5FEE318E5FEC3
:101F30003385C64013831A003305A70093070002B8
:101F4000635AD64C13071700A30FF7FEE31CA7FE36
:101F500083C71A00E39407D46FF01FD6930A0600D4
:101F60001306F0FF6380C63E83A509001306000137
:101F700093894900EFF0DF9D83C71A0013831A008D
:101F8000E39E07D06FF05FD3930A0600130680002C
:101F90006FF05FF1930A060093F707019386F6FF4F
:101FA000638E073A03A609001307150093871600EE
:101FB0002300C500938949003305F50013831A00F7
:101FC00093070700130600026356D0449387170057
:101FD000A38FC7FEE39CA7FE83C71A003305D70073
:101FE000E39E07CA6FF05FCD13830500930A0600D6
:101FF00013075002930715006304E3322300E50042
:1020000003C70A0063100742138507002300050079
:1020100003478102E31807CA130500006FF0DFCC05
:1020200013070000131627003307E60013081800F3
:10203000131717003307B70083450800130707FD80
:10204000138605FD1376F60FE3FEC8FC13060800A1
:102050006FF0DFD303A70900834526009389490069
:102060001348F7FF1358F84133770701130626008A
:102070006FF0DFD19308C00693E72700138849006B
:102080001306A000E38215E36F0080271308C00643
:1020900003A7090093E7070493894900639E05316C
:1020A00037430000130383B2130E0101930E210284
:1020B00013080E00130FA0036F008000A30FE8FFAA
:1020C00083450700130838001307170093D845000D
:1020D00093F5F500B3081301B305B30083C80800F6
:1020E00083C50500A30E18FF230FB8FEE3980EFD6D
:1020F00093F707019385F6FF639607029387F6FE31
:1021000013081001B307F500130700026358D83213
:1021100013051500A30FE5FEE31CF5FE9305F00083
:10212000930600011308050093081E01930705009C
:1021300003470E0093871700130E1E00A38FE7FEC0
:10214000E398C8FF930710011305150163D4D70264
:1021500093080002930620011307100113051500D0
:10216000B387A640B3870701A30F15FFB387B70056
:10217000E346F7FE8347260013032600E39007B2E9
:102180006FF09FB31308C00603A7090093894900A5
:102190006394052393F5070413030400E38605F015
:1021A0006FF01FF0930A0600130600016FF09FCF37
:1021B00003A709009389490083450700930800009D
:1021C00013034700930F300693039000930EA00073
:1021D00093024006130F0003130EE0021388180049
:1021E000639A050293050141B38815012380E8C174
:1021F00013071700630E670693050141B3850501B8
:102200002380C5C183450700930818001388180070
:10221000E38A05FC63D4BF16B3EB5502930A014170
:10222000B38C1A01338C0A01138B280013883800F1
:10223000B3CA5502B3C8DB03B30A540183C50A000D
:102240002380BCC0B3E5DB03B308140183C80800D6
:1022500023001CC1B305B40083C8050093050141E8
:10226000B3856501238015C113071700E31667F8CE
:1022700093F707019388F6FF63960702B387064139
:10228000B307F500130700026352D81A13051500AF
:10229000A30FE5FEE39CA7FEB306D840B386160164
:1022A0009388F6FF930701013307050183C50700F3
:1022B0001305150093871700A30FB5FEE318E5FE7D
:1022C0006352D8029305000293061000130515000F
:1022D000B387A640B3871701A30FB5FEB307F70076
:1022E000E346F8FE8347160013031600E398079AA7
:1022F0006FF09F9C93E7270013884900930A06001C
:1023000083A509001306A000930908006FF05FBAC7
:1023100003A7090093E70704938949006FF0DFE9F9
:1023200003C70A009386070093070500138506007C
:102330002380E70083C71A0013831A00E3900796EF
:102340006FF09F9793E71700930680006FF0DFC14F
:10235000B7450000938505B56FF01FB93307D50069
:1023600093070002635ED00813051500A30FF5FE66
:10237000E31CE5FE9306F0FF6FF0DFC2138B08004D
:10238000E3DAB3ECB3CAD503130B0141B30B1B0162
:10239000130B080013882800B308540183C80800F1
:1023A000B3E5D50323801BC16FF0DFEA1309810277
:1023B000130509006FF05F9013860A006FF0DFDFEE
:1023C0001388F6FF6352D60AB387C640B307F500F9
:1023D0001307000213051500A30FE5FEE31CF5FE2D
:1023E000B306D640B38606016FF0DFB213F60701DD
:1023F0006302060613070500130600006FF05FB3C3
:1024000083A7090013071500938949002300F500ED
:1024100013831A0083C71A0013050700E390078887
:102420006FF09F89130525006FF09FF09387E6FFFB
:1024300093860800938807006FF0DFE69387E6FF36
:1024400093860500938507006FF0DFCD1307050025
:102450006FF01FAE1388F6FFE348D0F6930608002E
:10246000130705006FF0DFAC930608006FF09FAA1A
:10247000C82F0000D02F0000D82F0000130101F753
:10248000138605002326A1009305C1001305E1056D
:1024900023261108232481082322910823202109BF
:1024A000232E3107232C4107232A510723286107B4
:1024B0002326710723248107232291072320A107C4
:1024C000EFF00FC613051000EFF08FAA231EA10036
:1024D00013052000EFF0CFA9231FA1001305300042
:1024E000EFF00FA92310A10213054000EFF04FA851
:1024F000232CA10213055000EFF08FA7630A0558A3
:10250000232EA1028327C1016398075E831701026E
:10251000638207608327C103B7350000938505FFF9
:1025200013F7270093F617003335E0002322B1029A
:10253000231E010493F547003386A6006388050037
:102540001305160013160501135606011305007D29
:102550003355C502130800001306000013031000D2
:1025600093083000232AA102B315C300B3F5F50088
:10257000639A054E13061600E31816FF63920622AF
:10258000631E072293F74700638A070003260103AF
:102590008315C10103254103EFE0DFBB83278103DE
:1025A000639A070493071000232CF1020327810389
:1025B00093172700B387E70093971700232CF102A6
:1025C000EFF04FB21305C101EFD01FA5EFF08FB2AE
:1025D000EFF04FB3EFF08FB4E30A05FC9307A000D0
:1025E000B3D7A7020327810393871700B307F70226
:1025F000232CF102EFF00FAF1305C101EFD0DFA1E3
:10260000EFF04FAFEFF00FB0130905000315C10154
:1026100093050000EFF04FAB930505000315E101B2
:10262000EFF08FAA9305050003150102EFF0CFA983
:102630009305050003154103EFF00FA9B7870000CC
:10264000938757B0930405006308F55263FCA718FD
:10265000B7970000938727A0630AF552B7F70000E9
:102660009387579F6318F51C37350000130505C77E
:10267000EFF0CFDA93073000B74B000003A70B8FC2
:10268000130D0000130C000063060752B73C000056
:1026900093971700938CCCBBB38CFC00373B0000A6
:1026A000B73A0000373A00006F0000043304840199
:1026B0001314240093070106338487000354C4FFD6
:1026C0003304A401130C1C001314040183A70B8F03
:1026D00013540401131C0C01131D0401135C0C01A1
:1026E000135D0D41637EFC1413144C00B309840187
:1026F0009307010693992900B389370183A7C9FD80
:10270000239E09FE93F717006384070203D669FF2F
:1027100083D60C00630ED60093050C001305CBCCBA
:10272000EFF0CFCF83D7C9FF93871700239EF9FE21
:10273000B30984019307010693992900B3893701EE
:1027400083A7C9FD13F727006306070203D689FF95
:1027500083D6CC006300D60293050C001385CACF44
:10276000EFF0CFCB03D7C9FF83A7C9FD130717002D
:10277000239EE9FE93F74700E38A07F2B309840139
:102780009399290093070106B389370103D6A9FF5E
:1027900083D68C01631ED60603D4C9FF6FF05FF2A7
:1027A0000316C10183258102EFD05FFB8327C1039C
:1027B0002320A10413F72700E30607DC8317E101B8
:1027C0000316C1018325C102032541039397070125
:1027D00033E6C70093064104EFE04F8F8327C10320
:1027E0006FF05FDAB72700009387278F630AF53A07
:1027F000B75700009387F7EA631EF50237350000EC
:102800001305C5C3EFF08FC1930720006FF0DFE61B
:1028100093050C0013050AD3EFF04FC083D7C9FF0F
:10282000938717001394070113540401239E89FE14
:102830006FF01FE9370401001304F4FFB74B0000E9
:10284000EFF04F89832541033304A400373500009E
:10285000130505D6EFF08FBC37350000930509004E
:10286000130585D7EFF08FBB13050900EFF00F8B31
:102870009305050037350000130505D9EFF00FBAB1
:10288000131404011305090013540401EFF00F8918
:10289000631A052A13050900EFF04F88930790008B
:1028A00063F8A72883A70B8F8325810337350000A2
:1028B000130505E0B385F502131904011359094105
:1028C000EFF0CFB5B735000037350000938585E1CF
:1028D000130545E2EFF08FB4B7350000373500003F
:1028E0009385C5E3130505E4EFF04FB3B73500005A
:1028F00037350000938585E5130505E6EFF00FB247
:102900003735000093850400130585E7EFF00FB11C
:102910008327C10313F717006308070403A70B8F6E
:102920006304070413040000B73400009317440045
:10293000B38787001307010693972700B307F700B3
:1029400003D667FF93050400138544E9EFF00FAD4C
:102950001304140083A70B8F1314040113540401F0
:10296000E366F4FC8327C10313F727006308070419
:1029700003A70B8F630C071E13040000B73400007D
:1029800093174400B3878700130701069397270026
:10299000B307F70003D687FF93050400138504EB04
:1029A000EFF0CFA71304140083A70B8F13140401B7
:1029B00013540401E366F4FC8327C10393F7470033
:1029C000639E070C83A70B8F13040000B73400002D
:1029D000638E070293174400B3878700130701062D
:1029E00093972700B307F70003D647FF930504002A
:1029F000138584EEEFF08FA21304140083A70B8FCE
:102A00001314040113540401E366F4FC630A09106F
:102A1000635C200D37350000130505F5EFF00FA0BE
:102A20001305E105EFE09FF08320C108032481082E
:102A300083244108032901088329C107032A810748
:102A4000832A4107032B0107832BC106032C810630
:102A5000832C4106032D0106130500001301010913
:102A600067800000B30EA802130EC1019315260063
:102A7000B305BE00032E4102130818001318080105
:102A800013580801330EDE0123A6C5016FF09FAE77
:102A900093077000232EF1026FF0DFA683A70B8F40
:102AA000E38607F613040000B734000093174400D0
:102AB000B38787001307010693972700B307F70032
:102AC00003D6A7FF930504001385C4ECEFF00F9520
:102AD0001304140083A70B8F13140401135404016F
:102AE000E366F4FC6FF01FEE37350000130545F682
:102AF000EFF0CF926FF0DFF213071000E39CE7A036
:102B000083170102E39807A0B7371534938757411D
:102B1000232EF100930760062310F1026FF09F9FB0
:102B200037350000130545F0EFF04F8F6FF05FEF82
:102B300037350000130505DCEFF04F8E1304140049
:102B40006FF05FD683A50B8F8329810313050900DE
:102B5000B389B902EFE09FDCB3D5A9023735000095
:102B6000130585DAEFF08F8B6FF0DFD293F7470014
:102B7000E39E07E86FF01FE537350000130505C138
:102B8000EFF0CF89930710006FF01FAF37350000CB
:102B9000130505BEEFF08F88930700006FF0DFADDF
:102BA00037350000130505CAEFF04F879307400043
:102BB0006FF09FAC130400006FF09FC8B0D4403397
:102BC000796A14E7C1E3000052BE99110856D71F75
:102BD00047070000475EBF39A4E53A8E848D0000A8
:102BE000366B20706572666F726D616E6365207200
:102BF000756E20706172616D657465727320666FA9
:102C00007220636F72656D61726B2E0A00000000A6
:102C1000366B2076616C69646174696F6E207275C1
:102C20006E20706172616D657465727320666F727B
:102C300020636F72656D61726B2E0A0050726F6651
:102C4000696C652067656E65726174696F6E20726C
:102C5000756E20706172616D657465727320666F48
:102C60007220636F72656D61726B2E0A0000000046
:102C7000324B20706572666F726D616E6365207293
:102C8000756E20706172616D657465727320666F18
:102C90007220636F72656D61726B2E0A0000000016
:102CA000324B2076616C69646174696F6E20727555
:102CB0006E20706172616D657465727320666F72EB
:102CC00020636F72656D61726B2E0A005B25755D06
:102CD0004552524F5221206C6973742063726320F5
:102CE000307825303478202D2073686F756C64201F
:102CF0006265203078253034780A00005B25755DE8
:102D00004552524F5221206D61747269782063726E
:102D10006320307825303478202D2073686F756CEF
:102D200064206265203078253034780A0000000085
:102D30005B25755D4552524F522120737461746555
:102D40002063726320307825303478202D2073681A
:102D50006F756C64206265203078253034780A0005
:102D6000436F72654D61726B2053697A6520202034
:102D7000203A20256C750A00546F74616C207469C8
:102D8000636B732020202020203A20256C750A00D8
:102D9000546F74616C2074696D652028736563736A
:102DA000293A2025640A0000497465726174696FCC
:102DB0006E732F5365632020203A2025640A00009B
:102DC0004552524F5221204D7573742065786563CA
:102DD00075746520666F72206174206C6561737410
:102DE000203130207365637320666F722061207616
:102DF000616C696420726573756C74210A0000004F
:102E0000497465726174696F6E73202020202020E0
:102E1000203A20256C750A00474343382E322E3065
:102E200000000000436F6D70696C657220766572FA
:102E300073696F6E203A2025730A00002D4F32000F
:102E4000436F6D70696C657220666C6167732020DA
:102E5000203A2025730A0000535441434B000000E0
:102E60004D656D6F7279206C6F636174696F6E2050
:102E7000203A2025730A000073656564637263203D
:102E80002020202020202020203A20307825303497
:102E9000780A00005B25645D6372636C697374205B
:102EA0002020202020203A203078253034780A0055
:102EB0005B25645D6372636D6174726978202020A4
:102EC00020203A203078253034780A005B25645D74
:102ED00063726373746174652020202020203A207F
:102EE0003078253034780A005B25645D6372636650
:102EF000696E616C2020202020203A203078253017
:102F000034780A00436F7272656374206F70657263
:102F10006174696F6E2076616C6964617465642E9A
:102F20002053656520524541444D452E6D64206611
:102F30006F722072756E20616E64207265706F72A0
:102F400074696E672072756C65732E0A000000004C
:102F50004572726F72732064657465637465640A88
:102F60000000000043616E6E6F742076616C6964CE
:102F7000617465206F7065726174696F6E20666F31
:102F80007220746865736520736565642076616C72
:102F90007565732C20706C6561736520636F6D704F
:102FA000617265207769746820726573756C7473DB
:102FB000206F6E2061206B6E6F776E20706C617475
:102FC000666F726D2E0A00005374617469630000AD
:102FD0004865617000000000537461636B004743F3
:102FE000433A2028474E552920382E322E300000F3
:102FF00000000000000000000000000000000000D1
:1030000000000000000000000000000000000000C0
:1030100000000000000000000000000000000000B0
:1030200000000000000000000000000000000000A0
:1037C000CC110000CC11000008120000081200000B
:1037D00014120000A4380000AC380000B438000017
:1037E000BC38000074380000803800008C380000BD
:1037F0009838000044380000503800005C38000061
:103800006838000014380000203800002C38000010
:103810003838000054302E33652D3146000000004A
:103820002D542E542B2B5471000000003154332E94
:103830003465347A0000000033342E30652D545E38
:1038400000000000352E353030652B3300000000BD
:103850002D2E313233652D32000000002D383765B2
:103860002B383332000000002B302E36652D3132DC
:103870000000000033352E353434303000000000B5
:103880002E31323334353030000000002D313130EC
:103890002E373030000000002B302E3634343030DC
:1038A0000000000035303132000000003132333486
:1038B000000000002D383734000000002B31323278
:1038C00000000000CC1700009C170000A8170000A3
:1038D000B4170000C017000090170000000000009F
:1038E00000000000000000000000000000000000D8
:1038F000010000000100000066000000DC1D000067
:10390000641D0000641D0000D01D0000641D000047
:10391000641D0000641D0000641D0000641D0000A3
:10392000641D0000641D0000C41D0000641D000033
:10393000B81D0000641D0000641D0000481D00004B
:1039400010230000E81F0000E81F0000E81F00002F
:10395000E81F0000E81F0000E81F0000E81F00004B
:10396000E81F0000E81F0000E81F0000E81F00003B
:10397000E81F0000E81F0000E81F0000E81F00002B
:10398000E81F0000E81F0000E81F0000E81F00001B
:10399000E81F0000E81F0000E81F0000981E00005C
:1039A000E81F0000E81F0000E81F0000E81F0000FB
:1039B000E81F0000E81F0000E81F0000E81F0000EB
:1039C000B0210000E81F0000941F0000F422000056
:1039D000E81F0000E81F0000E81F0000E81F0000CB
:1039E000F4220000E81F0000E81F0000E81F0000AC
:1039F000E81F0000E81F0000881F00005C1F000097
:103A0000E81F0000E81F0000D01E0000E81F0000B3
:103A1000C41E0000E81F0000E81F0000A4210000F1
:103A20008C200000F01F0000F01F0000F01F0000BD
:103A3000F01F0000F01F0000F01F0000F01F00004A
:103A4000F01F0000F01F0000F01F0000F01F00003A
:103A5000F01F0000F01F0000F01F0000F01F00002A
:103A6000F01F0000F01F0000F01F0000F01F00001A
:103A7000F01F0000F01F0000F01F00009C1E00005F
:103A8000F01F0000F01F0000F01F0000F01F0000FA
:103A9000F01F0000F01F0000F01F0000F01F0000EA
:103AA00084210000F01F0000981F00007420000017
:103AB000F01F0000F01F0000F01F0000F01F0000CA
:103AC00074200000F01F0000F01F0000F01F000035
:103AD000F01F0000F01F00008C1F0000601F00009E
:103AE000F01F0000F01F0000D41E0000F01F0000B7
:103AF000C81E0000F01F0000F01F0000A01E000004
:103B00003031323334353637383961626364656653
:103B10006768696A6B6C6D6E6F70717273747576BD
:103B20007778797A00000000303132333435363717
:103B300038394142434445464748494A4B4C4D4E2B
:103B40004F505152535455565758595A000000007F
:083B50003C4E554C4C3E0000B8
:00000001FF
