:1000000037810000EF20901337050080130545006D
:100010002320050073001000130101FF232021019C
:100020000329C501232611002324810023229100E6
:10003000232C0502232E0502630609041304050080
:10004000930400009305100013050400EF00C04A5C
:1000500083558403EF105028231CA4029305F0FF5E
:1000600013050400EF00404983558403EF10D026A8
:10007000231CA40263940400231DA402938414008F
:10008000E31299FC8320C1000324810083244100F2
:10009000032901001305000013010101678000001E
:1000A000630A060003152500839725003305F540F4
:1000B0006780000083170500139707011357070196
:1000C0001357870093F707F0B3E7E7002310F50015
:1000D00083970500031525001397070113570701A0
:1000E0001357870093F707F0B3E7E7002390F50075
:1000F000839725003305F54067800000130101FE5A
:10010000232C81000314050023282101232E110034
:1001100093577440232A91002326310193F7170047
:100120001379F407639E07049384050093553440C4
:1001300093F5F5009397450013777400B3E5B70086
:100140009309050083D78403630C0704930610000A
:10015000630AD70813150401135505011309040098
:10016000938507001379F907137404F0EF10D01684
:1001700033648900239CA40213640408239089003B
:100180008320C10103248101130509008324410157
:10019000032901018329C1001301010267800000C6
:1001A000930620021387050063D4D50013072002AD
:1001B000839624000396040083A5440103A58401CB
:1001C0001377F70FEF10806A83D7E4031319050143
:1001D0001359094163940700239FA40283D7840322
:1001E0006FF01FF81386070013858402EF10001FBD
:1001F00083D7C4031319050113590941E39007FE7E
:1002000083D78403239EA4026FF09FF5130101FF9F
:1002100023202101138905009305060023261100E0
:10022000232481002322910013040600EFF01FED28
:10023000930405009305040013050900EFF01FEC7B
:100240008320C100032481003385A44003290100D9
:10025000832441001301010167800000039705001A
:10026000839725002310E5002311F5006780000027
:10027000032806009308880063F6E80403A7060035
:10028000130347006370F30423201601832705003E
:1002900083980500039625002320F80023200501FC
:1002A0002322E80083A70600130508009387470070
:1002B00023A0F60083274800239017012391C7004D
:1002C0006780000013080000130508006780000025
:1002D00083270500032645001307050083A5470073
:1002E00083A60700138507002322B70023A2C700B7
:1002F0002320D70023A007006780000003A6450045
:100300008326450003A705002322C50023A2D500AC
:100310002320E50023A0A5006780000003972500A7
:10032000634807026304050283274500839727007B
:10033000639AE7006F000005832745008397270035
:100340006386E70003250500E31805FE67800000CB
:10035000E30E05FE832745000397050083C70700CA
:10036000639AE7006F0040028327450083C70700B8
:100370006388E70003250500E31805FE6FF01FFD05
:10038000678000006780000067800000630005024E
:10039000130700006F008000138507008327050006
:1003A0002320E50013070500E39807FE678000009F
:1003B000130101FD232C4101232A51012326710140
:1003C000232481012320A101232611022324810259
:1003D0002322910223202103232E310123286101AE
:1003E00023229101130A0500138C0500930B0600CC
:1003F000930A1000130D1000630E0A0A930C0000FC
:1004000013090000130B0000938C1C0013040A0056
:100410009304000003240400938414006304040084
:10042000E39A9AFE93890A00638E0402638E09049C
:10043000630C04048325440003254A0013860B0043
:10044000E7000C006352A004930704000324040097
:100450009389F9FF630409022320F9001389070037
:10046000E39604FC638A0902630C04029307040008
:100470009389F9FF03240400E31009FE138B07009E
:10048000138907006FF0DFFD93070A009384F4FFE0
:10049000032A0A006FF01FFC130A0400E31604F697
:1004A00023200900638CAC01939A1A00130A0B00F5
:1004B0006FF09FF423200000730010008320C1021E
:1004C0000324810213050B00832441020329010246
:1004D0008329C101032A8101832A4101032B0101E0
:1004E000832BC100032C8100832C4100032D0100CC
:1004F0001301010367800000130101FC232C81011B
:10050000031C4500232C8102232251032320610375
:10051000232E1102232A91022328210323263103AB
:1005200023244103232E7101232A91012317B100B3
:10053000130B0500938A050003244502635A8021AA
:10054000938C050093040000930B000093090000B6
:1005500013090000130AC10093F7F40F93050A0072
:10056000130504002316F100EFF05FDB63000402C3
:10057000130700006F008000138407008327040026
:100580002320E40013070400E39807FE630A05062E
:1005900083274500938919009399090183970700E0
:1005A00093D9090113F71700630C070093D79740FD
:1005B00093F717003309F9001319090113590901B9
:1005C00083270500638C070003A707002320E500AD
:1005D0000327040023A0E7002320F40063C60C00D7
:1005E000938C1C00231791019384140093940401AD
:1005F00093D40441630C9C02831CE1006FF0DFF58F
:1006000083270400938B1B00939B0B0183A7470058
:1006100093DB0B018387170093F717003309F90069
:1006200013190901135909016FF05FFB9394290015
:10063000B3847441B30499009394040193D40401E6
:10064000635E5001B70500001305040013060B009C
:100650009385C520EFF0DFD5130405008327040040
:1006600093050A001305040083A9070003AA4700A5
:1006700083A6490003A7090023A2D70023A24901AA
:1006800023A0E70023A00900EFF05FC913090500CC
:10069000630A050A83274400938504000395070035
:1006A000EF10C04E0329090093040500E31409FE6E
:1006B0000329040003AA49000327490083270900EE
:1006C000B705000023A2E9002322490123A0F90075
:1006D0002320390113050400130600009385050A41
:1006E000EFF01FCD03240500130905006300040289
:1006F000832749009385040003950700EF10004904
:100700000324040093040500E31404FE8320C103C2
:100710000324810313850400032901038324410377
:100720008329C102032A8102832A4102032B010289
:10073000832BC101032C8101832C4101130101048E
:100740006780000003290400E31609F46FF0DFF668
:1007500093040000130AC1006FF09FEE130101FF24
:1007600023229100938405009305400123248100F6
:10077000232021012326110013090600EF208010F9
:100780001305E5FF131E3500338EC401B787FFFF45
:1007900023A0040023A2C401138707081316250011
:1007A0002310EE0023110E00938604013306CE00C1
:1007B0001384840013074E0063FAC61313088E00D7
:1007C0006376C81223A6E40023A4040023A08400B7
:1007D00093C7F7FF1307F0FF2312EE002313FE0069
:1007E000630A0506931E0901378FFFFF93DE0E0192
:1007F00093050000134FFFFF1397050113570701DF
:10080000B347D701939737001377770093F787079C
:10081000B3E7E70013978700938886009385150058
:1008200013034800B367F70063F4C8036372C3029D
:1008300023A0860023A0D40023A206012310F800E1
:100840002311E801138406001308030093860800AF
:10085000E314B5FA83270400638607069305500066
:10086000EF20400237460000930610001306F6FF03
:100870006F008001032404002311D7009386160023
:1008800083270400638007041397060113570701A9
:1008900093071700939787003347270193F7077053
:1008A000B3E7E700B3F7C70003274400E3E4A6FC7F
:1008B000032404002311F700938616008327040005
:1008C000E39407FC032481008320C1000329010075
:1008D0001385040083244100B705000013060000BF
:1008E0009385050A130101016FF09FAC9306040084
:1008F00013080700130400006FF09FEE130101FBC3
:1009000023248104232E310323229103232611045F
:100910002322910423202105232C4103232A510360
:100920002328610323267103232481032320A103A9
:10093000232EB10193090500938C060013041000C7
:100940006304060013040600938BF5FF93FBCBFFB3
:1009500093874B002322F100930400006396090063
:100960006F00C01393040900138914009305090054
:1009700013050900EF10506E13153500E36435FFC1
:100980009385040013850400EF10106D03274100C8
:10099000931715002326F10023249100B30BF700D1
:1009A000638804088327410037090100139C140061
:1009B000938A0B00130A0000930D1000B38977414E
:1009C0001309F9FF138D0A00130B000093850D0026
:1009D00013050400EF1050681356F5411356060135
:1009E0003304C50093970D013374240193D7070195
:1009F0003304C440338787001317070113570701D7
:100A0000B307F7002310ED0093F7F70F3387A90121
:100A10002310F700130B1B00938D1D00130D2D00E9
:100A2000E3669BFA130A1A00B38A8A01E36C9AF808
:100A30008327C100032741008320C104B387FB0043
:100A40009387F7FF93F7C7FF9387470023A6FC0020
:100A5000832781000324810423A47C0123A2EC00CA
:100A600023A0FC001385040003290104832441040E
:100A70008329C103032A8103832A4103032B010332
:100A8000832BC102032C8102832C4102032D01021E
:100A9000832DC10113010105678000009307F0FF5A
:100AA0002324F10093072000938B6B009304F0FF45
:100AB0002326F1006FF01FEF130F050063080508F0
:100AC000B30EA04093182500B3881501939F2E0004
:100AD0001303000013050000130700009305000036
:100AE000939E3E00338E1F0193070E006F00C001DE
:100AF000131508019387470013550541930500001E
:100B000013870600638CF80283A6070013150501FE
:100B1000135505013327D700B385D5001308A50069
:100B20003305E500E346B6FC13150501938747003E
:100B30001355054113870600E398F8FC13031300CF
:100B4000B308DE41E3106FFA678000001305000070
:100B5000678000006308050C130101FD23202103B9
:100B60002324810113191500330CA040232E3101D9
:100B7000232C4101232A51012326710123229101B3
:100B80002320A10123261102131D1C00232481020E
:100B9000232291022328610193890600930B05000B
:100BA000931C2500138A050033092601930A0000CF
:100BB000131C2C00330B2D0193040A0013040B00AB
:100BC000031504009385090013042400EF10D04896
:100BD00023A0A40093844400E31424FF938A1A0002
:100BE000330A9A0133098B41E3965BFD8320C102EE
:100BF0000324810283244102032901028329C101C4
:100C0000032A8101832A4101032B0101832BC100A7
:100C1000032C8100832C4100032D010013010103EB
:100C2000678000006780000063060504B308A040E9
:100C30009316150013160601B386D50013931800FA
:100C40001356060193050000939828003308D3003B
:100C50009307080003D70700938727003307E600B0
:100C6000239FE7FEE398F6FE93851500B30618412F
:100C7000E31EB5FC67800000630A050A130101FD4D
:100C800023248101131C150013152500232E310187
:100C9000232C4101232A51012328610123267101BC
:100CA00023261102232481022322910223202103DF
:100CB000938B0600138A0500930A0600338BA50068
:100CC000B389860113840B0093840A001309000082
:100CD0008315040003950400130424009384240066
:100CE000EF1090373309A900E39489FE23202A01ED
:100CF000130A4A00B38A8A01E3164BFD8320C1021E
:100D00000324810283244102032901028329C101B2
:100D1000032A8101832A4101032B0101832BC10096
:100D2000032C81001301010367800000678000002D
:100D3000630C050E130101FB232291049317250078
:100D40009314150023202105232A5103232861032E
:100D500023267103232481032322910323261104D4
:100D600023248104232E3103232C41032320A103B8
:100D7000232EB1012326D100930C0500930A06000F
:100D8000330996002324F100938B0500338B9600E2
:100D9000130C00008329C100138A0B00138D090076
:100DA00013840A00930D000083150D000315040041
:100DB00013042400330D9D00EF10102AB38DAD00F5
:100DC000E31489FE2320BA0193892900130A4A00FB
:100DD000E3163BFD83278100130C1C00B38A9A00A5
:100DE00033099900B38BFB00E3968CFB8320C1048D
:100DF0000324810483244104032901048329C103BA
:100E0000032A8103832A4103032B0103832BC1029D
:100E1000032C8102832C4102032D0102832DC10189
:100E2000130101056780000067800000630605105C
:100E3000130101FB232481049317250013141500CB
:100E400023229104232C4103232A510323286103E5
:100E50002326710323248103232611042320210543
:100E6000232E3103232291032320A103232EB1013A
:100E70002326D100130C0500130A0600B3048600D4
:100E80002324F100138B0500B38A8600930B000026
:100E90000329C10093090B00930C0900930D0A006C
:100EA000130D000083950C0003950D00938D2D000C
:100EB000B38C8C00EF10501A935625409355554033
:100EC00093F5F50713F5F600EF101019330DAD008B
:100ED000E39AB4FD23A0A9011309290093894900CD
:100EE000E39C2AFB83278100938B1B00330A8A0033
:100EF000B3848400330BFB00E31C7CF98320C10422
:100F00000324810483244104032901048329C103A8
:100F1000032A8103832A4103032B0103832BC1028C
:100F2000032C8102832C4102032D0102832DC10178
:100F3000130101056780000067800000130101F9BB
:100F40002320A105B7F7FFFF2326110623248106DE
:100F50002322910623202107232E3105232C41052E
:100F6000232A5105232861052326710523248105A1
:100F700023229105232EB1032320B1022322C10293
:100F80002324D102336DF7006308053C9317150045
:100F9000130805003305A040B304F600232EF1002A
:100FA0001314070193171500130B0600130907000C
:100FB000135404012328F100138604009309000050
:100FC0001315250083270101B385C700138705008A
:100FD0008356070013072700B306D400231FD7FE4C
:100FE000E318E6FE938D19003386A5406306B80129
:100FF00093890D006FF01FFD032C0102B307B04170
:101000002326F102139A2D0023268101232C0100AF
:10101000939B270083270101930A0C00B387F400F8
:10102000232AF100938C070003950C009305090017
:10103000938C2C00EF10500223A0AA00938A4A0040
:10104000E39494FF8327810103274101330C4C0172
:1010500093861700B304774163863701232CD100B0
:101060006FF05FFB832701021305000013060000E9
:10107000B38447018327C1021383040013080000CF
:10108000930E000013993700330E730193060E0080
:101090006F00C00113950801938646001355054162
:1010A0001308000013860500630CD30283A5060015
:1010B00013150501135505013326B6003308B80092
:1010C0009308A5003305C500E3460DFD1315050182
:1010D000938646001355054113860500E318D3FC9B
:1010E00093861E0033032E4163863E01938E0600D5
:1010F0006FF09FF993050000EF005029032641028D
:101100008326810283250102130C050013850D003F
:10111000EFF09FB61305000013060000130800004F
:10112000130E000033837401930603006F00C001A7
:1011300013950801938646001355054113080000D6
:1011400013860500638CD40283A5060013150501E0
:10115000135505013326B6003308B8009308A500DF
:101160003305C500E3460DFD1315050193864600C2
:101170001355054113860500E398D4FC93061E0021
:10118000B304234163063E01138E06006FF09FF9FE
:1011900093050C00EF00901F0329010283268102B2
:1011A00003264102930509009304050013850D00F1
:1011B000EFF01FB8930E090013050000930600001E
:1011C00093050000130E000093880E001308000022
:1011D0006F00000213150301130818001355054191
:1011E000930500009388480093060600637EB803C9
:1011F00003A608001315050113550501B3A6C60083
:10120000B385C5001303A5003305D500E344BDFC39
:10121000131505011308180013550541938848005C
:1012200093060600E366B8FD130E1E00B38E4E0152
:10123000E36CBEF993850400EF005015832681020C
:1012400083250102032641029304050013850D0046
:10125000EFF0DFBD130500009306000093050000CA
:10126000130E00008328C100130800006F00000265
:1012700013150301130818001355054193050000C9
:101280009388480093060600637EB80303A608000F
:101290001315050113550501B3A6C600B385C50096
:1012A0001303A5003305D500E344BDFC1315050168
:1012B000130818001355054193884800930606004B
:1012C000E366B8FD8327C100130E1E00B3874701F4
:1012D0002326F100E368BEF993850400EF00100BAC
:1012E0009305000093070B001306000083D6070048
:1012F0009387270013061600B3868640239FD7FEE8
:10130000E366B6FF8327C10193851500330BFB000D
:10131000E3EAB5FD8320C106032481061315050108
:1013200083244106032901068329C105032A810577
:10133000832A4105032B0105832BC104032C81045F
:10134000832C4104032D0104832DC1031355054152
:10135000130101076780000093050000EF001003F0
:101360008329810203294102832401029386090013
:1013700013060900130405009385040013050000FB
:10138000EFF09F8F9305040013050000EF0010009D
:1013900093860900130609001304050093850400D1
:1013A00013050000EFF0DF9893050400130500001B
:1013B000EF00C07D130405009385040093860900A7
:1013C0001306090013050000EFF05FA69305040063
:1013D00013050000EF00807B6FF0DFF3130101FFC6
:1013E0002324810013870500130406008325C5000C
:1013F00083268500032645000325050023261100CA
:10140000EFF0DFB393050400032481008320C100C3
:10141000130101016F008077130F0000930E00008D
:1014200093851500B38FEE019395050137480000B1
:10143000374300009306F5FF93821F0093D5050103
:1014400093070000130EC002930840001308C8CB96
:10145000130383CA63FED20463160F0893F7750063
:101460009387D7FF9397070113D7350093D70701C9
:101470001377370063EAF80A93972700B38767006A
:1014800083A70700131727003307E80067800700CA
:1014900083270701130F800093851500B38FEE019A
:1014A0009395050193821F0093D50501E3E6D2FAD7
:1014B000B307D6013306A60063F8AE002380070009
:1014C00093871700E31CF6FE67800000832707025E
:1014D000130F80006FF05FFC83270703130F80005A
:1014E0006FF09FFB3307D601338FE70183CE0700F0
:1014F0001307170093871700A30FD7FFE318FFFE0A
:1015000093F775009387D7FFB30FF6019397070101
:1015100013D735002380CF0193D70701938E0200A4
:1015200013773700E3FAF8F4131727003307E800BE
:1015300083270700130F40006FF01FF68327050075
:1015400083C607006388062E1308C002138717009E
:10155000638E062B83A80500138606FD1376F60F0F
:101560001303900093881800636CC30A23A015012D
:1015700083C617006384061693872700638E0615BB
:10158000138606FD1308E002930890001303C002BF
:101590001376F60F6386060363E0C80C83461700D4
:1015A000138617001387070063880612638A662A6A
:1015B00093070600138606FD1376F60FE39E06FDDD
:1015C00083A605019386160023A8D500834617003D
:1015D000638206281307C002138617006382E6227F
:1015E00013085004930890001303C002138706FDEC
:1015F00093F6F60D1377F70F6386060F63FAE81A72
:1016000083A6450113070600930710009386160072
:1016100023AAD5002320E50013850700678000007A
:101620001306B002638AC6041306D0026386C6049A
:101630001306E002638CC61883A6450023A015019B
:10164000930710009386160023A2D5002320E500FF
:10165000138507006780000083A605011387070034
:10166000930710009386160023A8D5002320E500D9
:10167000138507006780000023A0150183C81700A9
:101680006380081C13872700638C081B03A6850052
:10169000938608FD93F6F60F1308900013061600C4
:1016A0006370D8029306E0026380D81423A4C500B7
:1016B000930710002320E5001385070067800000D2
:1016C00023A4C50083C62700638A06001306C00250
:1016D00093071700E396C6EA1387070093074000B5
:1016E0006FF0DFF803A745011307170023AAE500F1
:1016F00083C71700638A07121308C0021307160076
:101700006386071383A6C500938757FD93F7D70F0A
:101710009386160023A6D500638A0700930710005E
:101720002320E5001385070067800000834716002B
:101730006388070E130726006384070F83A68501BD
:10174000938707FD93F7F70F938616009308900091
:1017500023ACD500E3E4F8FC83462600638E060A3A
:10176000930736006388060B130690009308C002A7
:10177000938606FD93F6F60F637ED60083A645009A
:1017800013870700930710009386160023A2D50045
:101790006FF0DFED834617001388170013870700EB
:1017A000638A06066382160B930708006FF05FFCDE
:1017B00083C617001307160093070600638206040A
:1017C00063826604130607006FF05FE223A0150131
:1017D00083C6170063880602138627006382060308
:1017E000930707006FF0DFDF23A4C50083C627003F
:1017F000638A06009307C00213061700E392F6FE01
:1018000013070600930750006FF05FE69307000090
:101810006FF0DFE513870700930770006FF01FE597
:10182000930760006FF09FE41307060093073000F2
:101830006FF0DFE313870700930700006FF01FE3EB
:10184000930720006FF09FE21307080093077000D2
:101850006FF0DFE113870700930750006FF01FE17F
:1018600013070600930740006FF05FE0130101F8D3
:10187000232A910623282107930401011309010358
:10188000232C8106232631072324410723225107D5
:1018900023206107232C8105938A06009309070002
:1018A000138A0700232E1106232E710513840500C9
:1018B000130C0500130B06002326B1009306010547
:1018C000138704009307090023A0070023200700C3
:1018D0009387470013074700E398D7FE03470400A8
:1018E000630E0712930BC1009305010313850B00D0
:1018F000EFF0DFC493070105131525003385A7001A
:101900000327C100832705FC0347070093871700BF
:101910002320F5FCE31A07FC23268100330C840105
:101920000347040063748411930704001306C00284
:101930006F00800003C70700B34667016304C70058
:101940002380D7008327C100B38737012326F10006
:10195000E3E287FF8347040023268100930BC10045
:10196000638E07029305010313850B00EFF01FBD83
:1019700093070105131525003385A7000327C10030
:10198000832705FC03470700938717002320F5FCF6
:10199000E31A07FC23268100637484039306C002C4
:1019A0008347040033C757016384D7002300E40052
:1019B0000324C1003304340123268100E36284FF41
:1019C0001384040203A5040093050A0093844400D1
:1019D000EF0080189305050003250900130949004D
:1019E000EF008017130A0500E31E94FC8320C10753
:1019F0000324810783244107032901078329C106A2
:101A0000032A8106832A4106032B0106832BC10585
:101A1000032C810513010108678000002326810043
:101A2000330C8401E36284F16FF09FF9E31C07F249
:101A30006FF01FF99307500063ECA704B74700004D
:101A40009387C7DA131525003305F50083270500B2
:101A500067800700B747000003A5C7DC6780000068
:101A6000B747000003A547DD67800000B7470000C7
:101A700003A507DD67800000B747000003A507DE68
:101A800067800000B747000003A5C7DD678000003E
:101A9000130500006780000037A6FFFF9307800052
:101AA0001306160033C7A5009387F7FF93D51500DB
:101AB0001377170093F7F70FB3C6C500135515003A
:101AC000630607009395060193D50501E39C07FC87
:101AD000138505006780000037A8FFFF9376F50F98
:101AE000930780001308180033C7D5009387F7FFCA
:101AF00093D515001377170093F7F70F33C6050139
:101B000093D61600630607009315060193D50501C9
:101B1000E39C07FC37A6FFFF135585009307800061
:101B20001306160033C7A5009387F7FF93D515005A
:101B30001377170093F7F70FB3C6C50013551500B9
:101B4000630607009395060193D50501E39C07FC06
:101B50001385050067800000130101FF2324810025
:101B60001304050013150501135505012326110063
:101B7000EFF09FF69305050013550401032481003F
:101B80008320C100130101016FF01FF5131505013A
:101B9000135505016FF05FF4130500006780000026
:101BA000732500C067800000732700C0B74700009E
:101BB00023A4E7DC67800000732700C0B74700005C
:101BC00023A2E7DC67800000B747000003A547DCDD
:101BD000B747000083A787DC3305F5406780000026
:101BE00067800000930710002300F5006780000065
:101BF000B747000037470000032787DC83A747DC8F
:101C000023000500B387E740370700802324F7004F
:101C100067800000130101F52324810A232E310976
:101C2000232C41092320A1092326110A2322910AEA
:101C30002320210B232A5109232861092326710916
:101C40002324810923229109232EB10713F80704C5
:101C5000232AE10013040500138D050093090600F3
:101C6000138A0600630C0820B74A0000938A0A0111
:101C700013F707012328E1006312071E93F61701EB
:101C800013F71700232CD100130B0003630C071C60
:101C900093F6070213F727002326D1006316071EC9
:101CA000232E01008327C100638C070093070001E6
:101CB0006386F928938789FF93B71700330AFA40A0
:101CC00063120D20930700032306F102130900039A
:101CD000930D0000130C1000930C10009304C1022C
:101CE0008327410193080C006354FC00938807008C
:101CF00083278101330A1A419305FAFF6392070291
:101D00003307440193070002635A4025130414006B
:101D1000A30FF4FEE31CE4FE9305E0FF130AF0FFBB
:101D20008327C101638607002300F4001304140015
:101D30008327C100638A0700930780006384F9202A
:101D4000930700016380F91E832701016394070450
:101D50001307040013051000635A402113071700EE
:101D6000B307E540B387B700A30F67FFB307F400DD
:101D7000E346F0FE93C7F5FF93D7F741B3F7F500BD
:101D8000138AF5FF330AFA40938717003304F400EF
:101D90009305FAFF338588413305A40093070003B8
:101DA000635A1C1B13041400A30FF4FEE31CA4FECF
:101DB0003386B40113070500930810006F008000FC
:101DC0000349060013071700B387E840B387B7013C
:101DD000A30F27FFB307F5001306F6FFE342F0FE5B
:101DE00033059501635E40031307050013060002E7
:101DF0009306100013071700B387E640B387B700B8
:101E0000A30FC7FEB307F500E346F0FE93C7F5FF47
:101E100093D7F741B3F5F500938515003305B50069
:101E20008320C10A0324810A8324410A0329010A69
:101E30008329C109032A8109832A4109032B010946
:101E4000832BC108032C8108832C4108032D010832
:101E5000832DC1071301010B6780000093F7E7FF93
:101E6000232CE10093F6070213F727002326D10065
:101E7000130B0002E30607E26F000001B74A0000FF
:101E8000938A8AFE6FF0DFDE63440D0213F747008A
:101E90006312070893F78700232E0100E38407E00D
:101EA00093070002130AFAFF232EF1006FF09FDF61
:101EB0009307D002232EF100330DA041130AFAFF3D
:101EC000E39606DE930D00009304C1026F008000CC
:101ED000938D0C009385090013050D00EF00101F72
:101EE0003385AA0003490500938C1D0033879401B4
:101EF00013050D0093850900A30F27FF930B0D0019
:101F0000EF005018138C0C00130D0500E3F23BFD9D
:101F10006FF01FDD9307B002130AFAFF232EF100C2
:101F20006FF05FD8930700032300F4009307800746
:101F3000A300F400130424006FF01FE1130AEAFF6A
:101F40006FF01FD8930700032300F400130414005C
:101F50006FF09FDF130504006FF09FE59307EAFF22
:101F6000138A0500938507006FF09FDB138A050035
:101F70009385F5FF6FF01FE2B70700802380A7006D
:101F800067800000130101B72324814623202147E5
:101F9000232A51452326114623229146232E3145DB
:101FA000232C41452328614523267145232481455F
:101FB000232291452320A145232EB143232AB14654
:101FC000232CC146232ED1462320E1482322F14869
:101FD000232401492326114983470500930A4147D9
:101FE000130981042326510313040900638C07029B
:101FF000374B0000374A0000B7490000130B4BDE97
:10200000130A8AE2938989FE130750026380E70866
:102010002300F40083471500130414001305150072
:10202000E39407FE2300040083478104638A073496
:1020300013071000B7060080330727413305E90076
:102040002380F6001309190083470900E39807FE6F
:102050008320C14603248146832441460329014647
:102060008329C145032A8145832A4145032B014524
:10207000832BC144032C8144832C4144032D014410
:10208000832DC1431301014967800000834515007A
:102090009306000193070000138705FE1377F70FDF
:1020A0009304150063E8E60213172700330767015E
:1020B000032707006700070093E717001385040054
:1020C0008345150093041500138705FE1377F70F5A
:1020D000E3FCE6FC138705FD1377F70F93069000EA
:1020E00063FAE60C1307A0029306F0FF638EE50E79
:1020F0001306E0021307F0FF6388C50813F6F50D19
:102100001305C004630AA6041386F5FB1376F60FC5
:1021100013057003636EC5221316260033064601AD
:10212000032606006700060093E7070113850400F5
:102130006FF01FF993E74700138504006FF05FF815
:1021400093E70702138504006FF09FF793E787007A
:10215000138504006FF0DFF603C814001305700345
:10216000138C14001306F8FB1376F60F6366C51E76
:102170003745000013162600130585F03306A60028
:10218000032606006700060083C5140013069000AE
:1021900013851400138705FD1377F70F6376E61E8A
:1021A0001307A002638EE5209304050013070000C7
:1021B0006FF0DFF4930600001306900013972600DB
:1021C000B306D7009384140093961600B386B60026
:1021D00083C50400938606FD138705FD1377F70F6B
:1021E000E37EE6FC6FF0DFF083A60A00930425008F
:1021F00083452500938A4A00E3DC06EEB306D0400F
:1022000093E707016FF0DFEE138C040093E70704F8
:102210001306000113854A0083A50A00930A0500EE
:1022200013050400EFF01F9F83471C0013040500F3
:1022300013051C00E39A07DC6FF0DFDE138C04004B
:102240001306A0006FF01FFD138C040083A50A0085
:10225000938A4A006388054A03C60500630C065644
:10226000630A0756138605006F00C0003305E64079
:102270006308B5001306160003450600E31805FEC3
:1022800093F707013306B640638007526354C05A80
:102290003307C4009385150083C7F5FF13041400AA
:1022A000A30FF4FEE318E4FE3384C64013051C00BC
:1022B00033048700930700026352D65413071700B4
:1022C000A30FF7FEE31C87FE83471C00E39E07D2A3
:1022D0006FF05FD5138C04001306F0FF638EC640C9
:1022E00083A50A0013060001938A4A006FF05FF38A
:1022F000138C0400130680006FF0DFF1138C0400D0
:1023000093F707019386F6FF6384074003A60A004C
:1023100013071400938716002300C400938A4A0011
:102320003304F40013051C00930707001306000292
:102330006356D04C93871700A38FC7FEE39C87FE9C
:1023400083471C003304D700E39007CC6FF09FCD88
:1023500013880500138C0400130750029307140020
:10236000630AE8362300E40003470C006310074AC1
:10237000138407002300040083478104E39A07CAFB
:10238000130500006FF0DFCC130700001308900066
:10239000131627003307E60013051500131717005F
:1023A0003307B70083450500130707FD138605FDB6
:1023B0001376F60FE37EC8FC930405006FF01FD47C
:1023C00003A70A0083C52400938A4A001346F7FF37
:1023D0001356F6413377C700938424006FF01FD261
:1023E0001307C00683AB0A0093E70704938A4A00E9
:1023F0006398E53A3745000013050501130801030A
:1024000093082104130608001303A0036F00800043
:10241000A30F66FE03C70B0013063600938B1B0049
:10242000935547001377F700B305B5003307E50070
:1024300083C5050003470700A30EB6FE230FE6FE83
:10244000E398C8FC93F707011386F6FF639607022B
:102450009387F6FE93051001B307F40013070002FB
:1024600063D2D53C13041400A30FE4FEE31CF4FE76
:102470001306F000930600019305040013051801EC
:1024800093070400034708009387170013081800F8
:10249000A38FE7FEE31805FF93071001130414014F
:1024A00063D4D7021305000293062001130710011D
:1024B00013041400B3878640B387B700A30FA4FEAC
:1024C000B387C700E346F7FE83C7240013852400C3
:1024D000E39C07B26FF01FB51307C00683AB0A0079
:1024E000938A4A00639EE52A13F7070413850900BF
:1024F000E30607F06FF01FF01308C00693E727000C
:1025000013854A001306A000E38805D16F00801BE5
:10251000138C0400130600016FF0DFCF83AB0A00B9
:10252000938A4A0003CD0B00930D000013884B00E3
:10253000130E300613030003930CE002138C1D00EE
:10254000631A0D0213070143B30DB70123806DC059
:10255000938B1B0063880B0D1307014303CD0B0006
:1025600033078701930D1C00230097C1138C1D00B6
:10257000E30A0DFC635EAE1B9305400613050D00D8
:10258000232E6100232C0101232AD1002328F100EE
:10259000EF00C02E3385A9000346050093070143D1
:1025A0003387B7012300C7C09305400613050D000C
:1025B000EF0000359305A000130D0500EF00002C7F
:1025C0003385A9000347050093070143338C870136
:1025D0002300ECC013050D0013872D009305A00008
:1025E0002326E100EF00C0310327C100832701014A
:1025F00083264101032881010323C101130D050036
:10260000138C3D00130E3006338DA90103460D00D7
:10261000930501433387E5002300C7C0938B1B005C
:10262000E39C0BF393F707019385F6FF639607028C
:10263000B3878641B307F40013070002635CDC1C18
:1026400013041400A30FE4FEE39C87FEB306DC40F2
:10265000B386B6009385F6FF930701033307840121
:1026600003C607001304140093871700A30FC4FECA
:10267000E318E4FE6352DC02130600029306100026
:1026800013041400B3878640B387B700A30FC4FEBA
:10269000B307F700E346FCFE83C71400138514005C
:1026A000E39407966FF01F9883AB0A0093E7070443
:1026B000938A4A006FF01FE793E7270013854A00CB
:1026C000138C040083A50A001306A000930A0500DA
:1026D0006FF01FB503470C009386070093070400B3
:1026E000138406002380E70083471C0013051C00A9
:1026F000E39C07906FF01F9393E717009306800009
:102700006FF01FBEB7450000938585036FF05FB57E
:102710003307D400930700026358D00C130414004D
:10272000A30FF4FEE31CE4FE9306F0FF6FF01FBE60
:102730001306900013870D00E358A6ED9305A00043
:1027400013050D00232E6100232C0101232AD10043
:102750002328F100EF0080123385A900034605000D
:10276000930701433387B70113050D002300C7C04A
:102770009305A00023268101EF008018130D0500AA
:10278000138C2D000323C101130E30060328810191
:1027900083264101832701010327C1006FF0DFE693
:1027A00093040C006FF01FD81385F6FF6352D60A0E
:1027B000B387C640B307F4001307000213041400E4
:1027C000A30FE4FEE31CF4FEB306D640B386A600D6
:1027D0006FF0DFAB13F60701630206061307040070
:1027E000130600006FF05FAC83A70A001307140004
:1027F000938A4A002300F40013051C0083471C0041
:1028000013040700E39207806FF0DF8113042400B4
:102810006FF05FED9387E6FF9386050093850700D1
:102820006FF09FE39387E6FF930606001386070089
:102830006FF09FC4130704006FF01FA71385F6FF06
:10284000E348D0F693060500130704006FF0DFA5F8
:10285000930605006FF09FA3130605001305000003
:1028600093F61500638406003305C50093D5150063
:1028700013161600E39605FE678000006340050608
:1028800063C6050613860500930505001305F0FFD2
:10289000630C060293061000637AB6006358C0000A
:1028A0001316160093961600E36AB6FE1305000091
:1028B00063E6C500B385C5403365D50093D61600E1
:1028C00013561600E39606FE678000009382000010
:1028D000EFF05FFB13850500678002003305A04021
:1028E00063D80500B305B0406FF0DFF9B305B04021
:1028F00093820000EFF01FF93305A04067800200CB
:102900009382000063CA0500634C0500EFF09FF757
:102910001385050067800200B305B040E35805FE4B
:102920003305A040EFF01FF63305B040678002008A
:10293000B0340000B8340000C0340000130101F7C7
:10294000138605002326A1009305C1001305E105A8
:1029500023261108232481082322910823202109FA
:10296000232E3107232C4107232A510723286107EF
:102970002326710723248107232291072320A107FF
:10298000EFF04FA613051000EFF0CF8A231EA10031
:1029900013052000EFF00F8A231FA100130530005C
:1029A000EFF04F892310A10213054000EFF08F884C
:1029B000232CA10213055000EFF0CF876306055AC0
:1029C000232EA1028327C1016394076083170102AC
:1029D000638E07600324C103B73700009387874DD8
:1029E0009374240013791400333790002322F102EA
:1029F000231E010493774400B305E90063880700B0
:102A0000938515009395050193D505011305007D68
:102A1000EFF05FE7130A0500232AA10293090000E3
:102A2000930A0000130C1000930B3000B3173C0105
:102A3000B3F787006390075093891900E39879FFF3
:102A4000631409226392042413744400630A04008B
:102A5000032601038315C10103254103EFE0DF9B3A
:102A600083278103639C070493071000232CF10242
:102A70000327810393172700B387E7009397170075
:102A8000232CF102EFF04F921305C101EFD0CFD804
:102A9000EFF08F92EFF04F93EFF08F94E30A05FC85
:102AA000930505001305A000EFF0DFDD9305150089
:102AB00003258103EFF05FDA232CA102EFF0CF8E24
:102AC0001305C101EFD04FD5EFF00F8FEFF0CF8F8F
:102AD000130905000315C10193050000EFF00F8BEA
:102AE000930505000315E101EFF04F8A93050500FA
:102AF00003150102EFF08F899305050003154103CB
:102B0000EFF0CF88B7870000938757B09304050094
:102B10006308F55463FEA718B7970000938727A0B2
:102B2000630AF554B7F700009387579F631AF51CA3
:102B30003735000013058515EFF0CFC4930730003B
:102B4000B74B000003A78BDD130D0000130C000032
:102B500063060754B73C000093971700938C4C0A08
:102B6000B38CFC00373B0000B73A0000373A000056
:102B70006F0000043304840113142400930701063A
:102B8000338487000354C4FF3304A401130C1C00D6
:102B90001314040183A78BDD13540401131C0C01CF
:102BA000131D0401135C0C01135D0D416370FC16D1
:102BB00013144C00B309840193070106939929006B
:102BC000B389370183A7C9FD239E09FE93F7170038
:102BD0006384070203D669FF83D60C00630ED60018
:102BE00093050C0013054B1BEFF0CFB983D7C9FF3A
:102BF00093871700239EF9FEB3098401930701060A
:102C000093992900B389370183A7C9FD13F72700DA
:102C10006306070203D689FF83D6CC006300D60281
:102C200093050C0013854A1EEFF0CFB503D7C9FFFB
:102C300083A7C9FD13071700239EE9FE93F74700FA
:102C4000E38A07F2B30984019399290093070106E7
:102C5000B389370103D6A9FF83D68C016310D60848
:102C600003D4C9FF6FF05FF20316C101832581020F
:102C700013050A00EFD09FAE0324C1032320A10453
:102C800093742400E38204DC8317E1010316C1017D
:102C90008325C1020325410393970701930641044D
:102CA00033E6C700EFD09FC50324C1036FF0DFD91F
:102CB000B72700009387278F6308F53CB7570000BC
:102CC0009387F7EA631EF5023735000013054512B6
:102CD000EFF04FAB930720006FF09FE693050C00D9
:102CE00013058A21EFF00FAA83D7C9FF9387170036
:102CF0001394070113540401239E89FE6FF0DFE84B
:102D0000370401001304F4FFB74B0000EFE0DFE8E5
:102D1000832541033304A4003735000013058524BF
:102D2000EFF04FA63735000093050900130505267F
:102D3000EFF04FA513050900EFE09FEA93050500AA
:102D40003735000013058527EFF0CFA313140401D6
:102D50001305090013540401EFE09FE86310052CEC
:102D600013050900EFE0DFE79307900063FEA72853
:102D700083A58BDD03258103131904011359094130
:102D8000EFF09FAD93050500373500001305852E44
:102D9000EFF04F9FB73500003735000093850530C1
:102DA0001305C530EFF00F9EB73500003735000032
:102DB0009385453213058532EFF0CF9CB73500007F
:102DC000373500009385053413058534EFF08F9B6C
:102DD000373500009385040013050536EFF08F9A10
:102DE0008327C10313F717006308070403A78BDDCC
:102DF0006304070413040000B73400009317440071
:102E0000B38787001307010693972700B307F700DE
:102E100003D667FF930504001385C437EFF08F9640
:102E20001304140083A78BDD13140401135404014D
:102E3000E366F4FC8327C10313F727006308070444
:102E400003A78BDD6308072013040000B7340000DC
:102E500093174400B3878700130701069397270051
:102E6000B307F70003D687FF930504001385843961
:102E7000EFF04F911304140083A78BDD13140401AA
:102E800013540401E366F4FC8327C10393F747005E
:102E90006392070E83A78BDD13040000B734000094
:102EA000638E070293174400B38787001307010658
:102EB00093972700B307F70003D647FF9305040055
:102EC0001385043DEFF00F8C1304140083A78BDDF2
:102ED0001314040113540401E366F4FC630E091097
:102EE0006350200F3735000013058543EFF08F89BD
:102EF0001305E105EFE0DFCF8320C108032481083B
:102F000083244108032901088329C107032A810773
:102F1000832A4107032B0107832BC106032C81065B
:102F2000832C4106032D010613050000130101093E
:102F3000678000009307C10113850A00139B2900D5
:102F400093050A00338B6701EFF01F91832741023D
:102F5000938A1A00939A0A013385A70093DA0A012B
:102F60002326AB006FF05FAD93077000232EF102B4
:102F70006FF05FA583A78BDDE38207F613040000E3
:102F8000B734000093174400B38787001307010686
:102F900093972700B307F70003D6A7FF9305040014
:102FA0001385443BEFE01FFE1304140083A78BDD61
:102FB0001314040113540401E366F4FC6FF09FED55
:102FC000373500001305C544EFE0DFFB6FF05FF21B
:102FD00013071000E390E7A083170102E39C079E0C
:102FE000B737153493875741232EF10093076006B6
:102FF0002310F1026FF01F9E373500001305C53E08
:10300000EFE05FF86FF0DFEE373500001305852A3B
:10301000EFE05FF7130414006FF09FD583A58BDDFD
:1030200003258103EFF05F83930905001305090071
:10303000EFE01FBB9305050013850900EFF09F84A7
:10304000930505003735000013050529EFE09FF3D0
:103050006FF01FD193F74700E39207E86FF09FE30B
:10306000373500001305850FEFE0DFF193071000FF
:103070006FF01FAD373500001305850CEFE09FF0B2
:10308000930700006FF0DFAB37350000130585189C
:10309000EFE05FEF930740006FF09FAA130400007A
:1030A0006FF0DFC6B0D44033796A14E7C1E30000A3
:1030B00052BE99110856D71F47070000475EBF3917
:1030C000A4E53A8E848D0000366B20706572666FC1
:1030D000726D616E63652072756E20706172616DD4
:1030E000657465727320666F7220636F72656D61BF
:1030F000726B2E0A00000000366B2076616C6964EA
:103100006174696F6E2072756E20706172616D6599
:103110007465727320666F7220636F72656D617281
:103120006B2E0A0050726F66696C652067656E656C
:10313000726174696F6E2072756E20706172616D5C
:10314000657465727320666F7220636F72656D615E
:10315000726B2E0A00000000324B20706572666FA1
:10316000726D616E63652072756E20706172616D43
:10317000657465727320666F7220636F72656D612E
:10318000726B2E0A00000000324B2076616C69647D
:103190006174696F6E2072756E20706172616D6509
:1031A0007465727320666F7220636F72656D6172F1
:1031B0006B2E0A005B25755D4552524F5221206CE3
:1031C0006973742063726320307825303478202D41
:1031D0002073686F756C6420626520307825303408
:1031E000780A00005B25755D4552524F5221206DD3
:1031F0006174726978206372632030782530347886
:10320000202D2073686F756C6420626520307825EE
:103210003034780A000000005B25755D4552524F3E
:1032200052212073746174652063726320307825A5
:10323000303478202D2073686F756C6420626520AF
:103240003078253034780A00436F72654D61726BB7
:103250002053697A65202020203A20256C750A00C9
:10326000546F74616C207469636B7320202020207C
:10327000203A20256C750A00546F74616C207469C3
:103280006D65202873656373293A2025640A000060
:10329000497465726174696F6E732F536563202082
:1032A000203A2025640A00004552524F5221204DF9
:1032B000757374206578656375746520666F722018
:1032C0006174206C656173742031302073656373A1
:1032D00020666F7220612076616C6964207265736C
:1032E000756C74210A000000497465726174696F1D
:1032F0006E73202020202020203A20256C750A00A3
:10330000474343382E322E3000000000436F6D706B
:10331000696C65722076657273696F6E203A20253C
:10332000730A00002D4F3200436F6D70696C657237
:1033300020666C6167732020203A2025730A000004
:10334000535441434B0000004D656D6F7279206C02
:103350006F636174696F6E20203A2025730A000044
:103360007365656463726320202020202020202064
:10337000203A203078253034780A00005B25645DDF
:103380006372636C697374202020202020203A200F
:103390003078253034780A005B25645D6372636D94
:1033A000617472697820202020203A2030782530FE
:1033B00034780A005B25645D6372637374617465BD
:1033C0002020202020203A203078253034780A0030
:1033D0005B25645D63726366696E616C20202020EA
:1033E00020203A203078253034780A00436F7272FA
:1033F000656374206F7065726174696F6E207661A9
:103400006C6964617465642E205365652052454182
:10341000444D452E6D6420666F722072756E20617A
:103420006E64207265706F7274696E672072756C5D
:1034300065732E0A000000004572726F727320647B
:10344000657465637465640A0000000043616E6E14
:103450006F742076616C6964617465206F70657249
:103460006174696F6E20666F722074686573652081
:10347000736565642076616C7565732C20706C656E
:1034800061736520636F6D70617265207769746820
:1034900020726573756C7473206F6E2061206B6E83
:1034A0006F776E20706C6174666F726D2E0A00000B
:1034B0005374617469630000486561700000000026
:1034C000537461636B004743433A2028474E5529A4
:1034D00020382E322E3000000000000000000000D6
:1034E00000000000000000000000000000000000DC
:1034F00000000000000000000000000000000000CC
:1035000000000000000000000000000000000000BB
:1035100000000000000000000000000000000000AB
:103CA00000000000000000009014000090140000CC
:103CB000CC140000CC140000D81400008C3D00008F
:103CC000943D00009C3D0000A43D00005C3D0000D0
:103CD000683D0000743D0000803D00002C3D000068
:103CE000383D0000443D0000503D0000FC3C000019
:103CF000083D0000143D0000203D000054302E33EC
:103D0000652D3146000000002D542E542B2B54718C
:103D1000000000003154332E3465347A0000000076
:103D200033342E30652D545E00000000352E3530C2
:103D300030652B33000000002D2E313233652D32DB
:103D4000000000002D3837652B38333200000000AA
:103D50002B302E36652D31320000000033352E35E4
:103D600034343030000000002E31323334353030FE
:103D7000000000002D3131302E37303000000000BF
:103D80002B302E36343430300000000035303132E4
:103D90000000000031323334000000002D38373489
:103DA000000000002B31323200000000901A0000A9
:103DB000601A00006C1A0000781A0000841A0000D3
:103DC000541A000000000000000000000000000085
:103DD00000000000000000000100000001000000E1
:103DE000660000004C210000D4200000D420000018
:103DF00040210000D4200000D4200000D420000086
:103E0000D4200000D4200000D4200000D4200000E2
:103E100034210000D420000028210000D42000001C
:103E2000D4200000B8200000A82600005023000085
:103E300050230000502300005023000050230000B6
:103E400050230000502300005023000050230000A6
:103E50005023000050230000502300005023000096
:103E60005023000050230000502300005023000086
:103E70005023000050230000502300005023000076
:103E800050230000082200005023000050230000AF
:103E90005023000050230000502300005023000056
:103EA00050230000502300001C2500005023000078
:103EB000FC220000B8260000502300005023000020
:103EC0005023000050230000B826000050230000BB
:103ED0005023000050230000502300005023000016
:103EE000F0220000D42200005023000050230000E4
:103EF00048220000502300003C2200005023000014
:103F00005023000010250000E0230000582300008B
:103F100058230000582300005823000058230000B5
:103F200058230000582300005823000058230000A5
:103F30005823000058230000582300005823000095
:103F40005823000058230000582300005823000085
:103F50005823000058230000582300005823000075
:103F6000582300000C2200005823000058230000B2
:103F70005823000058230000582300005823000055
:103F80005823000058230000D824000058230000C4
:103F900000230000F82400005823000058230000EC
:103FA0005823000058230000F82400005823000084
:103FB0005823000058230000582300005823000015
:103FC000F4220000D82200005823000058230000EB
:103FD0004C2200005823000040220000582300001B
:103FE0005823000010220000303132333435363788
:103FF00038396162636465666768696A6B6C6D6EA7
:104000006F707172737475767778797A000000003A
:1040100030313233343536373839414243444546FE
:104020004748494A4B4C4D4E4F50515253545556A8
:104030005758595A000000003C4E554C4C3E000069
:00000001FF
