:1000000037810000EF10501A3705008013054500B6
:1000100023200500029041114AC00329C50106C6EC
:1000200022C426C2232C0502232E0502630C0902DA
:100030002A84814485452285312E83558403EF002F
:10004000707D231CA402FD55228529268355840337
:10005000EF00507C231CA40299E0231DA402850418
:10006000E31A99FCB24022449244024901454101FD
:10007000828019C603152500839725001D8D828077
:1000800083170500139707014183218393F707F036
:10009000D98F2310F50083970500031525001397CA
:1000A00007014183218393F707F0D98F2390F5004F
:1000B000839725001D8D8280011122CC0314050039
:1000C0004AC806CE9357744026CA4EC6858B13790C
:1000D000F407A1E7AE8493553440BD89939745005A
:1000E00013777400DD8DAA8983D784031DCF8546DD
:1000F000630AD7061315040141812289BE8513794D
:10010000F907137404F0EF00F07033648900239C46
:10011000A4021364040823908900F24062444A85D3
:10012000D2444249B24905618280930620022E875B
:1001300063D4D5001307200283962400039604009D
:10014000CC48884C1377F70FEF00F05383D7E403C4
:10015000131905011359094199E3239FA40283D779
:10016000840369BF3E8613858402EF00B01E83D7E7
:10017000C4031319050113590941F5F383D7840307
:10018000239EA402A5BF41114AC02E89B28506C68E
:1001900022C426C232840D37AA84A2854A85293F0B
:1001A000B24022443385A4400249924441018280F6
:1001B00003970500839725002310E5002311F50020
:1001C0008280032806009308880063FFE8029842B3
:1001D00013034700637AF302232016011C4183981E
:1001E0000500039625002320F80023200501232283
:1001F000E8009C42428591079CC2832748002390D7
:1002000017012391C70082800148428582801C41EA
:1002100050412A87CC4394433E854CC3D0C314C37A
:1002200023A007008280D0415441984150C1D4C1DD
:1002300018C188C18280039725006341070211CD50
:100240005C41839727006398E7001DA85C41839772
:1002500027006384E700084175F982807DDD5C41F9
:100260000397050083C707006398E70019A85C415E
:1002700083C707006385E700084175F9F9BF8280ED
:100280008280828001C9014711A03E851C4118C1AE
:100290002A87E5FF8280797152CC56CA5EC662C455
:1002A0006AC006D622D426D24AD04ECE5AC866C2DA
:1002B0002A8A2E8CB28B854A054D630B0A06814C27
:1002C0000149014B850C528481440040850419C0CA
:1002D000E39D9AFED68985C4638E090205CC4C4005
:1002E00003254A005E86029C6356A002A287004056
:1002F000FD19630E09002320F9003E89F1FC63809B
:10030000090205C0A287FD190040E31609FE3E8BD5
:100310003E89EDB7D287FD14032A0A00D9BF228A8D
:1003200055F0232009006388AC01860A5A8A71B708
:10033000232000000290B25022545A859254025950
:10034000F249624AD24A424BB24B224C924C024D85
:1003500045618280397162CC031C450022DC56D293
:100360005AD006DE26DA4AD84ED652D45ECE66CAB7
:100370002317B1002A8BAE8A405163528017AE8C8E
:100380008144814B81490149130AC10093F7F40F5D
:10039000D28522852316F100793D01C8014711A0BD
:1003A0003E841C4018C02287E5FF29C55C418509B1
:1003B000C2098397070093D9090113F7170019C7DA
:1003C000A587858B3E994209135909011C4191C7A4
:1003D000984318C1184098C31CC063C50C00850C15
:1003E000231791018504C204C18463039C02831C0A
:1003F000E10069BF1C40850BC20BDC4393DB0B01A2
:1004000083871700858B3E99420913590901F1B77B
:1004100093942900B3847441CA94C204C180635A7E
:100420005001B705000022855A8693856518A535C9
:100430002A841C40D285228583A9070003AA47008D
:1004400083A6490003A70900D4C323A2490198C386
:1004500023A00900CD332A8935CD5C40A6850395BC
:100460000700EF00104203290900AA84E31709FEE0
:100470000329040003AA4900032749008327090030
:10048000B705000023A2E9002322490123A0F900B7
:10049000232039012285014693852507ED3B004144
:1004A0002A8919C883274900A68503950700EF000C
:1004B000503D0040AA847DF4F25062542685425992
:1004C000D254B259225A925A025BF24B624CD24C2D
:1004D0002161828003290400E31109F871BF81447E
:1004E000130AC1002DBF5143335365022E8523A04B
:1004F0000500E17793860708C10513078500791386
:10050000131F33002A9F2322E501931F230023108A
:10051000DF0023110F00FA9F93064F0063F8E50DEB
:1005200093088F0063F4F80D54C52324050018C107
:1005300093C7F7FFFD562312DF002313FF00630D5F
:10054000030493120601E17393D20201014893C39D
:10055000F3FF93160801C182B3C756008E079D8A28
:1005600093F78707D58F93968700138E850005082C
:10057000938E4800D58F637FEE0163FDFE0198C125
:100580000CC123A215012390F800239178002E8737
:10059000F688F285E31F03FB1C43B9C39547116836
:1005A0003353F30285457D1839A018432391B600D3
:1005B00085051C4395C793960501C1829387160054
:1005C000A207B18E93F70770D58FB3F70701544395
:1005D000E3ED65FC18432391F60085051C43E1FF1C
:1005E000B705000001469385250775B1BA85B68821
:1005F0000147B1B7411122C626C44AC22A8811E276
:1006000005469383F5FF93F3C3FF938443000145AD
:100610006314080069A83A8513071500B307E702B9
:100620008E07E3EA07FFB302A5022A898602B38395
:10063000540031CD416E131415009E8F014F0548B3
:10064000B38E74407D1EFE858148330606039317E2
:100650000801C1833383BE00890585080508135747
:10066000F64141833A963376C601198E3387C70027
:1006700042074183BA97239FE5FE93F7F70F2310B4
:10068000F300E3E4A8FC050FA29FE36EAFFAB38783
:100690005300FD173244F19B9107C4C223A02601E9
:1006A00023A47600DCC6A24412494101828099034A
:1006B0007D597D558942BDBF2A8F25C1B30EA0400B
:1006C00093182500AE98939F2E00014301450147E2
:1006D00081458E0E338E1F01F28709A8131508017C
:1006E00091074185814536876383F802944342052B
:1006F00041813327D700B6951308A5003A95E34FFB
:10070000B6FC4205910741853687E391F8FE050363
:10071000B308DE41E3106FFC82800145828021C175
:10072000330EA04013181500931E1E00131F250042
:10073000329881480A0E33830E012E869A870397DA
:100740000700110689073307D702232EE6FEE39838
:1007500007FF8508FA953308C341E31E15FD828023
:1007600005CDB308A040931615004206AE9613932C
:100770001800418281458A083308D300C28703D715
:10078000070089073297239FE7FEE39AF6FE850567
:10079000B3061841E312B5FE828005CD931E150005
:1007A0000A05338EA5003383D601B687328501480A
:1007B0000317050083980700890709053307170306
:1007C0003A98E317F3FE23A0050191057696E31E00
:1007D000BEFC828029CD93181500411122C6328FAC
:1007E0003303160113142500AE82B38F1601814323
:1007F000368E968E7286FA87814503970700031816
:1008000006008907469633070703BA95E317F3FEF8
:1008100023A0BE00090E910EE39ECFFD8503469FE7
:100820004693A292E31675FC324441018280828095
:100830002DC593181500411122C6328F33031601BE
:1008400013142500AE82B38F16018143368E968E27
:10085000F2857A860148039705008317060009068A
:10086000C695B387E70213D7274095873D8B93F74B
:10087000F707B307F7023E98E31FC3FC23A00E015E
:10088000090E910EE396CFFD8503469F4693A292F3
:10089000E31E75FA32444101828082805D71A2C4F8
:1008A000A6C2CAC04EDE86C6FD7952DC56DA5AD8D8
:1008B0005ED662D466D26AD06ECE2E84B284368979
:1008C000B3693701630A0524131C15003308A040DF
:1008D000B3058601931A0701B28B931E1800AA88EC
:1008E00093DA0A012E86814D0A083385CE00AA8745
:1008F00083D607008907D696239FD7FEE31AF6FE14
:10090000138A1D003306054163844801D28DF1BF6F
:10091000B3084041131B2A00A28C2285014E139874
:1009200028003383D5012A869A878396070011060B
:100930008907B386E602232ED6FEE398F5FE9307D9
:100940001E005A95B30503416304BE013E8ED1BF1C
:10095000330D64016A83014501470146814E8E08CB
:10096000330E0301F28709A813950501910741850C
:10097000014636876303F3029443420541813327DE
:10098000D70036969305A5003A95E3CFC9FC4205FA
:10099000910741853687E311F3FE93871E003303E9
:1009A0001E416384BE01BE8E65BF814546C642C4FA
:1009B000C92D2AC226865285CA86A285F93B1243D2
:1009C0002248B248014501470146814E330E0D01D0
:1009D000F28709A8139505019107418501463687DD
:1009E0006303FD029443420541813327D7003696C5
:1009F0009305A5003A95E3CFC9FC420591074185CF
:100A00003687E311FDFE93871E00330D1E4163847C
:100A1000BE01BE8E65BF9A85AD25CA862A8D268603
:100A20005285A285453B2283014581478146814805
:100A30009A85014611A813150801050641858146CE
:100A40009105BA8763744603984142054181B3A773
:100A5000E700BA961308A5003E95E3CED9FC4205FF
:100A6000050641859105BA87E36046FF85085A93DC
:100A7000E3E048FDEA853125CA862A8D268652851F
:100A8000A2857D330145814781468148E68501463F
:100A900011A8131508010506418581469105BA87FD
:100AA00063744603984142054181B3A7E700BA96B3
:100AB0001308A5003E95E3CED9FC42050506418505
:100AC0009105BA87E36046FF8508DA9CE3E048FDBC
:100AD000EA85452B0146DE87814603D70700890753
:100AE000850633075741239FE7FEE3E846FF0506E7
:100AF000E29BE36246FFB64026444205964406491F
:100B0000F259625AD25A425BB25B225C925C025D3D
:100B1000F24D4185616182808145A523CA86268682
:100B2000AA89A28501459539CE850145992BCA86AA
:100B30002686AA89A28501457139CE850145912372
:100B4000AA89A285CA8626860145DD31CE85014562
:100B50000D2B55B7411122C42E8732844C451445C4
:100B60005041084106C61D3BA2852244B2404101C6
:100B700009AB014F814E8505B38FEE01C2050D68AB
:100B80000D639306F5FF93821F00C1818147130E09
:100B9000C0029148130808B41303C3B263FFD20222
:100BA000631E0F0493F77500F517C20713D73500BE
:100BB000C1830D8B63EDF8068A079A979C430A0759
:100BC000429782871C4B214F8505B38FEE01C205EA
:100BD00093821F00C181E3E5D2FCB307D6012A96B8
:100BE00063F7AE00238007008507E31DF6FE8280D1
:100BF0001C53214FD1BF1C5B214FF9B73307D601DE
:100C00003E9F83CE070005078507A30FD7FFE31A92
:100C1000FFFE93F77500F517B29FC20713D7350093
:100C20002380CF01C183968E0D8BE3F7F8F80A0776
:100C300042971C43114F49BF1C4183C6070063867E
:100C400006221308C002138717006386062183A8B3
:100C50000500138606FD1376F60F25438508636BA2
:100C6000C30823A0150183C61700638906108907EE
:100C700063850611138606FD1308E002A5481303D9
:100C8000C0021376F60F6383060363EAC80883463F
:100C90001700138617003E87EDC26383661EB28776
:100CA000138606FD1376F60FE39106FF9449850639
:100CB00094C9834617006382061C1307C00213867B
:100CC00017006387E61813085004A5481303C002F1
:100CD000138706FD93F6F60D1377F70F6382060B65
:100CE00063F9E812D449328785478506D4C918C10B
:100CF0003E8582801306B002638BC6021306D002C3
:100D00006387C6021306E002638FC610D44123A096
:100D1000150185478506D4C118C13E858280944956
:100D20003E878547850694C918C13E85828023A0E9
:100D3000150183C81700638D081213872700638984
:100D400008139045938608FD93F6F60F254805068F
:100D5000637BD8009306E0026382D80E90C5854776
:100D600018C13E85828090C583C6270081CA1306BC
:100D7000C00293071700E39FC6EE3E8791476DB709
:100D8000D8490507D8C983C71700E9CF1308C0029F
:100D9000130716006389070DD445938757FD93F712
:100DA000D70F8506D4C589C7854718C13E8582807F
:100DB00083471600D5C7130726006383070B944D9E
:100DC000938707FD93F7F70F8506A54894CDE3EDCC
:100DD000F8FC83462600D9C293073600638F0607C6
:100DE00025469308C002938606FD93F6F60F6378B6
:100DF000D600D4413E8785478506D4C135B78346A2
:100E00001700138817003E87A9CA63851607C28793
:100E1000D9BF83C6170013071600B28795CA638A25
:100E200066023A8675B523A0150183C6170095C2E0
:100E300013862700638E0601BA8771B590C583C6F5
:100E4000270081CA9307C00213061700E396F6FE37
:100E500032879547D1BD8147C1BD3E879D47E9B5E2
:100E60009947D9B532878D47C1B53E8781476DBD5A
:100E700089475DBD42879D4745BD3E8795476DB516
:100E80003287914755B51971A6DACAD804081309F3
:100E90000103A2DCCED6D2D4D6D2DAD0E2CCB68A46
:100EA000BA893E8A86DEDECE2E842A8C328B2EC60E
:100EB00094082687CA8723A00700232007009107EC
:100EC0001107E39AD7FE0347040071CB930BC100CF
:100ED0000C185E8595339C080A053E95324783279A
:100EE00005FC0347070085072320F5FC75F322C6A0
:100EF000229C034704006379840BA2871306C00277
:100F000019A003C70700B34667016304C700238025
:100F1000D700B247CE973EC6E3E587FF834704007C
:100F200022C6930BC1009DC30C185E8531339C080B
:100F30000A053E953247832705FC034707008507CE
:100F40002320F5FC75F322C6637184039306C00267
:100F50008347040033C757016384D7002300E400AC
:100F600032444E9422C6E36584FF13840402884011
:100F7000D2859104CD28AA85032509001109E52011
:100F80002A8AE31694FEF6506654D6544659B6594A
:100F9000265A965A065BF64B664C0961828022C639
:100FA000229CE36C84F5D1B741F3C1B7954763ED5B
:100FB000A7028D67938707C30A053E951C41828768
:100FC0008D6703A507C582808D6703A587C58280CD
:100FD0008D6703A547C582808D6703A547C68280BC
:100FE0008D6703A507C68280014582806976A14787
:100FF000050633C7A500FD178581058B93F7F70F0D
:10100000B3C6C500058101C793950601C181F5F3FB
:101010002E85828069789376F50FA147050833C73E
:10102000D500FD178581058B93F7F70F33C60501B2
:10103000858201C793150601C181F5F36976218187
:10104000A147050633C7A500FD178581058B93F7DA
:10105000F70FB3C6C500058101C793950601C1818D
:10106000F5F32E858280411122C42A8442054181F4
:1010700006C64D37AA85135504012244B2404101EA
:1010800051BF4205418179B701458280732500C077
:101090008280732700C08D6723A6E7C482807327F0
:1010A00000C08D6723A4E7C482808D6703A587C431
:1010B0008D6783A7C7C41D8D8280828085472300EA
:1010C000F50082808D670D670327C7C483A787C497
:1010D00023000500998F370700801CC782801D718F
:1010E000A2CEA6CCCACACEC813F80704630C081651
:1010F000B73F0000938F4FE913F4070163190414FD
:1011000013F8170093F917019303000363030814FE
:1011100013F8270093F40702630B081463CB05143C
:1011200013F8470063140818A18B014981C7FD1605
:101130001309000289C8C1476308F618930786FFA0
:1011400093B717009D8E639D051293070003230636
:10115000F1001308000301438542054E7C00968E82
:1011600063D3E200BA8EB386D6419388F6FF639FBD
:101170000900B305D500130700026351D016050519
:10118000A30FE5FEE31DB5FEF958FD566305090002
:1011900023002501050599C421476309E61241474B
:1011A000630AE61015E82A870546635ED012050734
:1011B000B306E640C696A30F77FEAA96E349D0FE93
:1011C00013C7F8FF7D8733F7E8009386F8FF998E01
:1011D00005073A959388F6FF33875E402A971306F2
:1011E000000363DBD20F0505A30FC5FEE31DE5FE7B
:1011F000B38567003A86054519A003C805000506B2
:10120000B307C5409A97A30F06FFBA97FD15E346AB
:10121000F0FE3305C7016356D0022A871306000289
:1012200085460507B387E640C697A30FC7FEAA9772
:10123000E349F0FE93C7F8FFFD87B3F8F80085088F
:1012400046957644E6445649C64925618280F99B15
:10125000A28913F827009303000293F4070263089E
:1012600008006DBDB73F0000938FCFE671B501490F
:10127000D1B5B305B040FD161309D002E39D04EAD1
:1012800001437C0011A0728333F8C502130E1300D2
:10129000338FC701AE8EF2827E9803480800B3D523
:1012A000C502A30F0FFFE3F0CEFE55BDFD161309D7
:1012B000B00249B5130700032300E50013078007B8
:1012C000A300E5000905F9BDF916B5BD1307000334
:1012D0002300E5000505F9B52A8719BF1387E6FF46
:1012E000C686BA8865B5C686FD18FDB5B707008005
:1012F0002380A7008280130101BA23263143232EC5
:101300001142232C8142232A914223282143232462
:1013100041432322514323206143232E7141232C37
:101320008141232A91412322B1442324C14423260D
:10133000D1442328E144232AF144232C0145232EC0
:10134000114583470500930941444EC66384075CF9
:10135000130981020D6A8D64373400002A83130A51
:101360008AC64A859384C4CA1304C4E6130750028C
:101370006386E7062300F500834713000505050390
:10138000F5F723000500034781026309072A854614
:10139000CA8737060080B38626413385D7002300ED
:1013A000E600850703C707006DFB8320C1430324C4
:1013B000814383244143032901438329C142032AF2
:1013C0008142832A4142032B0142832BC141032CDA
:1013D0008141832C414113010146828083451300E2
:1013E000C1468147138705FE1377F70F13061300D5
:1013F00063E3E6020A0752971843028793E7170050
:1014000032838345130013061300138705FE1377F9
:10141000F70FE3F1E6FE138705FD1377F70FA546F7
:1014200063F5E60A1307A002FD566383E50C130873
:10143000E0027D576389050713F8F50D9308C00492
:10144000630F18031388F5FB1378F80F93087003E4
:1014500063E1081D0A08269803280800028893E71C
:101460000701328379BF93E74700328359BF93E77F
:101470000702328379B793E78700328359B7034372
:10148000160093087003930A16001308F3FB1378F1
:10149000F80F63E208198D680A089388C8D846983F
:1014A00003280800028883451600A5481308160083
:1014B000138705FD1377F70F63F4E8181307A002ED
:1014C0006383E51A4286014785BF81462548139705
:1014D0002600BA9605068606AE96834506009386D4
:1014E00006FD138705FD1377F70FE372E8FE81B75A
:1014F00083A6090013062300834523009109E3D83E
:1015000006F2B306D04093E7070115B7B28A93E716
:10151000070441461388490083A50900C289C136E2
:1015200083C71A0013831A00E39207E499BDB28AB5
:101530002946CDB7B28A83A509009109638505388C
:1015400003C6050063000640630E073E2E8629A0F1
:101550003308E6406307B800050603480600E319B0
:1015600008FEC18B0D8E638D073A635EC040330762
:10157000C500850583C7F5FF0505A30FF5FEE31A32
:10158000E5FE3385C64013831A003A95930700029F
:101590006359D63C0507A30FF7FEE31DA7FE83C7DB
:1015A0001A00E39507DCF1BBB28A7D566389C63029
:1015B00083A50900414691091D3683C71A0013838C
:1015C0001A00E39507DA75BBB28A2146A1B7B28A41
:1015D000C18BFD16638E072E03A6090013071500A5
:1015E000938716002300C50091093E9513831A00C6
:1015F000BA87130600026356D0368507A38FC7FE4D
:10160000E39DA7FE83C71A003305D700E39007D6F2
:101610008DBB2E83B28A1307500293071500630215
:10162000E3282300E50003C70A00631207343E8560
:101630002300050003478102E31B07D40145B5B32E
:101640000147131627003297050806072E97834592
:101650000800130707FD138605FD1376F60FE3F266
:10166000C8FE4286D1BB03A7090083452600910925
:101670001348F7FF1358F8413377070109066DBB8C
:101680009308C00693E72700138849002946E3859D
:1016900015E9EDAA1308C00603A7090093E707049C
:1016A0009109639D052737330000130343E9130EA7
:1016B0000101930E21027288130FA00319A0A30F3A
:1016C000E8FF834507000D08050793D84500BD894D
:1016D0009A989A9583C8080083C50500A30E18FF41
:1016E000230FB8FEE39D0EFDC18B9385F6FF85E3C6
:1016F0009387F6FE4548AA97130700026350D8283F
:101700000505A30FE5FEE31DF5FEBD45C1462A888C
:1017100093081E01AA8703470E008507050EA38FB5
:10172000E7FEE39AC8FFC547450563DFD700930886
:101730000002C94645470505B387A640C297A30FD7
:1017400015FFAE97E349F7FE8347260013032600F3
:10175000E39E07C03DB11308C00603A70900910925
:10176000639E051B93F507042283B1D12DBFB28A76
:1017700041464DB303A709009109834507008148FD
:1017800013034700930F3006A543A94E930240066A
:10179000130F0003130EE002138818008DE5930564
:1017A0000141AE982380E8C10507630767069305EA
:1017B0000141C2952380C5C18345070093081800E5
:1017C00013881800E9DD63D2BF12B3EB5502930A08
:1017D0000141B38C1A01338C0A01138B2800138842
:1017E0003800B3CA5502B3C8DB03A29A83C50A0006
:1017F0002380BCC0B3E5DB03A29883C808002300A4
:101800001CC1A29583C8050093050141DA95238088
:1018100015C10507E31D67F8C18B9388F6FF95E3B3
:10182000B3870641AA97130700026354D81405052D
:10183000A30FE5FEE39DA7FEB306D840C6969388A6
:10184000F6FF1C083307050183C50700050585075A
:10185000A30FB5FEE31AE5FE635ED8009305000210
:1018600085460505B387A640C697A30FB5FEBA9770
:10187000E349F8FE8347160013031600E39807AE0A
:1018800009B693E7270013884900B28A83A50900A7
:101890002946C28969B103A7090093E707049109A2
:1018A000E9BD03C70A00BE86AA8736852380E70004
:1018B00083C71A0013831A00E39A07AAD9B493E7DF
:1018C0001700A146F5B1B73500009385C5EBADB95A
:1018D0003307D50093070002635CD0060505A30F0C
:1018E000F5FEE31DE5FEFD56C5B9468BE3DBB3F01F
:1018F000B3CAD503130B0141B30B1B01428B1388F1
:101900002800B308540183C80800B3E5D503238039
:101910001BC1C5BD130981024A85A5B45686B1BD58
:101920001388F6FF635AD606B387C640AA971307F3
:1019300000020505A30FE5FEE31DF5FEB306D64044
:10194000C29625B113F6070129C22A87014615B9A7
:1019500083A709001307150091092300F5001383DD
:101960001A0083C71A003A85E39207A019BC09053B
:1019700035BF9387E6FFC686BE88E1B59387E6FF4D
:10198000AE86BE8569B32A87EDBE1388F6FFE34DA8
:10199000D0F8C2862A87F5B6C286C1BE34230000BD
:1019A0003C2300004423000075712E862AC66C007B
:1019B0001305E10506C722C526C34AC1CEDED2DC27
:1019C000D6DADAD8DED6E2D4E6D2EAD0EFF00FEFFC
:1019D0000545EFF0AFDD231EA1000945EFF00FDD57
:1019E000231FA1000D45EFF06FDC2310A10211456C
:1019F000EFF0CFDB2ADC1545EFF04FDB6301054448
:101A00002ADEF2476392074883170102638A074878
:101A1000F25789659385C53513F7270093F61700AC
:101A20003335E0002ED2231E010493F547003386A0
:101A3000A60091C513051600131605014182130572
:101A4000007D3355C5020148014605438D482ADA19
:101A5000B315C300FD8D6395053C0506E31A16FF1B
:101A60006392061A631B071A918B99C74256831516
:101A7000C1015255EFF0EF8FE2578DEF85473EDC05
:101A8000625793172700BA9786073EDCEFF06FE0A6
:101A90006808EFE04FD8EFF08FE0EFF00FE1EFF0E4
:101AA000CFE179DDA947B3D7A70262578507B3070E
:101AB000F7023EDCEFF0EFDD6808EFE0CFD5EFF0A6
:101AC0000FDEEFF08FDE2A890315C1018145EFF0AB
:101AD0004FDBAA850315E101EFF0AFDAAA85031504
:101AE0000102EFF00FDAAA8503154103EFF06FD979
:101AF000A167938757B0AA84630DF53E63FCA712D4
:101B0000A567938727A0630EF53EBD679387579F10
:101B10006312F516372500001305C5FDEFF0AFFD84
:101B20008D478D6B03A7CBC5014D014C630B073E61
:101B3000896C8607938C8CF2BE9C372B0000B72AE9
:101B40000000372A000035A062940A049C103E94DD
:101B50000354C4FF6A94050C420483A7CBC541809B
:101B6000420C131D0401135C0C01135D0D416376DF
:101B7000FC1013144C00B30984019C108A09BE990F
:101B800083A7C9FD239E09FE858B8DC303D669FFFC
:101B900083D60C00630CD600E28513058B03EFF0AF
:101BA0008FF583D7C9FF8507239EF9FEB30984010A
:101BB0009C108A09BE9983A7C9FD13F727001DC38E
:101BC00003D689FF83D6CC00630ED600E285138549
:101BD0008A06EFF04FF203D7C9FF83A7C9FD0507B7
:101BE000239EE9FE918BADD3B30984018A099C1031
:101BF000BE9903D6A9FF83D68C01631FD60403D4F4
:101C0000C9FF89BF0316C101A255EFE0DF8DF2576E
:101C1000AAC013F72700E30907E48317E1010316BD
:101C2000C101B2555255C2075D8ED400EFE09F9CB2
:101C3000F2571DBD89679387278F630CF52C956735
:101C40009387F7EA6318F50237250000130585FA34
:101C5000EFF06FEA8947F1B5E2851305CA09EFF0A5
:101C60008FE983D7C9FF8507139407014180239E1D
:101C700089FECDB541647D148D6BEFF0EFC0D25578
:101C80002A94372500001305C50CEFF0CFE6372561
:101C90000000CA851305450EEFF0EFE54A85EFF029
:101CA000CFC1AA85372500001305C50FEFF0AFE4BB
:101CB00042044A854180EFF04FC0631705204A85F2
:101CC000EFF0AFBFA54763F9A71E83A7CBC5E255C9
:101CD000372500001305C516B385F5021319040155
:101CE00013590941EFF02FE1B72500003725000017
:101CF0009385451813050519EFF0EFDFB7250000B0
:101D0000372500009385851A1305C51AEFF0AFDE5D
:101D1000B7250000372500009385451C1305C51C19
:101D2000EFF06FDD37250000A6851305451EEFF0A7
:101D30008FDCF25713F7170005CF03A7CBC50DCBE8
:101D40000144B724000093174400A29798108A0713
:101D5000BA9703D667FFA28513850420EFF0AFD9A9
:101D6000050483A7CBC542044180E36EF4FCF2571F
:101D700013F727000DCF03A7CBC56308071601444F
:101D8000B724000093174400A29798108A07BA97C7
:101D900003D687FFA2851385C421EFF0CFD50504B4
:101DA00083A7CBC542044180E36EF4FCF257918BCC
:101DB000D1EB83A7CBC50144B72400008DC793178F
:101DC0004400A29798108A07BA9703D647FFA285C6
:101DD00013854425EFF02FD2050483A7CBC5420419
:101DE0004180E36EF4FC6302090C63582009372537
:101DF00000001305C52BEFF00FD01305E105EFF040
:101E00006FACBA402A449A440A49F659665AD65ADF
:101E1000465BB65B265C965C065D01454961828047
:101E2000B30EA802125E9315260060080508A2955D
:101E3000420813580801769E23A6C50139B99D476B
:101E40003EDEC1B683A7CBC5D9DF0144B72400006D
:101E500093174400A29798108A07BA9703D6A7FF52
:101E6000A28513858423EFF00FC9050483A7CBC592
:101E700042044180E36EF4FC2DBF372500001305BA
:101E8000052DEFF04FC795BF0547E393E7B88317DC
:101E90000102E39F07B6B7371534938757413ECE0B
:101EA000930760062310F102A5B63725000013053D
:101EB0000527EFF04FC491B7372500001305C51271
:101EC000EFF06FC3050411B583A5CBC5E2594A8570
:101ED000B389B902EFF06F9EB3D5A9023725000090
:101EE00013054511EFF02FC1D9BB918BE39D07EE90
:101EF000C9B5372500001305C5F7EFF0CFBF8547FB
:101F00000DB1372500001305C5F4EFF0CFBE8147B2
:101F100009B9372500001305C500EFF0CFBD914783
:101F200009B1014499BB0000B0D44033796A14E789
:101F3000C1E3000052BE99110856D71F47070000A1
:101F4000475EBF39A4E53A8E848D0000366B207061
:101F50006572666F726D616E63652072756E20705A
:101F60006172616D657465727320666F7220636F54
:101F700072656D61726B2E0A00000000366B207670
:101F8000616C69646174696F6E2072756E20706136
:101F900072616D657465727320666F7220636F7213
:101FA000656D61726B2E0A0050726F66696C6520F8
:101FB00067656E65726174696F6E2072756E2070F0
:101FC0006172616D657465727320666F7220636FF4
:101FD00072656D61726B2E0A00000000324B20703A
:101FE0006572666F726D616E63652072756E2070CA
:101FF0006172616D657465727320666F7220636FC4
:1020000072656D61726B2E0A00000000324B207603
:10201000616C69646174696F6E2072756E207061A5
:1020200072616D657465727320666F7220636F7282
:10203000656D61726B2E0A005B25755D4552524FCE
:102040005221206C697374206372632030782530CC
:102050003478202D2073686F756C642062652030A1
:1020600078253034780A00005B25755D4552524F63
:102070005221206D61747269782063726320307818
:1020800025303478202D2073686F756C642062656C
:10209000203078253034780A000000005B25755D1B
:1020A0004552524F522120737461746520637263EC
:1020B00020307825303478202D2073686F756C645B
:1020C000206265203078253034780A00436F7265CD
:1020D0004D61726B2053697A65202020203A2025BB
:1020E0006C750A00546F74616C207469636B7320A3
:1020F00020202020203A20256C750A00546F74613E
:102100006C2074696D65202873656373293A2025F6
:10211000640A0000497465726174696F6E732F53AD
:1021200065632020203A2025640A00004552524F62
:102130005221204D75737420657865637574652030
:10214000666F72206174206C656173742031302079
:102150007365637320666F7220612076616C6964B9
:1021600020726573756C74210A00000049746572F1
:102170006174696F6E73202020202020203A202572
:102180006C750A00474343382E322E3000000000A1
:10219000436F6D70696C65722076657273696F6EDE
:1021A000203A2025730A00002D4F3200436F6D70D6
:1021B000696C657220666C6167732020203A202567
:1021C000730A0000535441434B0000004D656D6F8E
:1021D0007279206C6F636174696F6E20203A2025DC
:1021E000730A0000736565646372632020202020F9
:1021F00020202020203A203078253034780A000032
:102200005B25645D6372636C6973742020202020F9
:1022100020203A203078253034780A005B25645D30
:102220006372636D617472697820202020203A20E7
:102230003078253034780A005B25645D63726373FF
:10224000746174652020202020203A2030782530C9
:1022500034780A005B25645D63726366696E616C45
:102260002020202020203A203078253034780A00A1
:10227000436F7272656374206F7065726174696F09
:102280006E2076616C6964617465642E20536565A7
:1022900020524541444D452E6D6420666F72207278
:1022A000756E20616E64207265706F7274696E67FE
:1022B0002072756C65732E0A000000004572726F03
:1022C00072732064657465637465640A00000000BD
:1022D00043616E6E6F742076616C69646174652011
:1022E0006F7065726174696F6E20666F72207468BA
:1022F00065736520736565642076616C7565732C04
:1023000020706C6561736520636F6D70617265200C
:102310007769746820726573756C7473206F6E20B2
:1023200061206B6E6F776E20706C6174666F726D7A
:102330002E0A00005374617469630000486561707F
:1023400000000000537461636B004743433A202848
:10235000474E552920382E322E3000000000000054
:10236000000000000000000000000000000000006D
:10237000000000000000000000000000000000005D
:10238000000000000000000000000000000000004D
:10239000000000000000000000000000000000003D
:102B2000000000000000000000000000C40B0000D6
:102B3000C40B0000F00B0000F00B0000F60B0000CF
:102B4000102C0000182C0000202C0000282C000065
:102B5000E02B0000EC2B0000F82B0000042C000000
:102B6000B02B0000BC2B0000C82B0000D42B0000B1
:102B7000802B00008C2B0000982B0000A42B000061
:102B800054302E33652D3146000000002D542E5454
:102B90002B2B5471000000003154332E3465347AED
:102BA0000000000033342E30652D545E000000001C
:102BB000352E353030652B33000000002D2E31329C
:102BC00033652D32000000002D3837652B38333245
:102BD000000000002B302E36652D31320000000041
:102BE00033352E3534343030000000002E3132338E
:102BF00034353030000000002D3131302E37303088
:102C0000000000002B302E3634343030000000003D
:102C10003530313200000000313233340000000022
:102C20002D383734000000002B3132320000000014
:102C3000E80F0000C80F0000D00F0000D80F000000
:102C4000E00F0000C00F00000000000000000000C6
:102C50000000000000000000000000000100000073
:102C60000100000066000000761400001614000049
:102C7000161400006E140000161400001614000054
:102C8000161400001614000016140000161400009C
:102C90001614000066140000161400005E140000F4
:102CA0001614000016140000FC1300009618000013
:102CB0001216000012160000121600001216000074
:102CC0001216000012160000121600001216000064
:102CD0001216000012160000121600001216000054
:102CE0001216000012160000121600001216000044
:102CF0001216000012160000121600001216000034
:102D000012160000121600000C150000121600002A
:102D10001216000012160000121600001216000013
:102D200012160000121600001216000074170000A0
:102D300012160000CE1500008218000012160000C6
:102D40001216000012160000121600008218000071
:102D500012160000121600001216000012160000D3
:102D600012160000C8150000A81500001216000079
:102D70001216000034150000121600002E15000077
:102D800012160000121600006E17000094160000C4
:102D90001616000016160000161600001616000083
:102DA0001616000016160000161600001616000073
:102DB0001616000016160000161600001616000063
:102DC0001616000016160000161600001616000053
:102DD0001616000016160000161600001616000043
:102DE00016160000161600000E150000161600003C
:102DF0001616000016160000161600001616000023
:102E000016160000161600001616000056170000D1
:102E100016160000D01500008016000016160000DF
:102E20001616000016160000161600008016000088
:102E300016160000161600001616000016160000E2
:102E400016160000CA150000AA150000161600008C
:102E5000161600003615000016160000301500008A
:102E6000161600001616000012150000303132331D
:102E70003435363738396162636465666768696A14
:102E80006B6C6D6E6F707172737475767778797A1A
:102E900000000000303132333435363738394142A2
:102EA000434445464748494A4B4C4D4E4F5051527A
:102EB000535455565758595A000000003C4E554C33
:042EC0004C3E000084
:00000001FF
