:1000000037810000EF10103C3705008013054500D4
:100010002320050073001000130101FF232021019C
:100020000329C501232481002322910023261100E6
:1000300013040500232C0502232E0502930400005F
:10004000639024038320C1000324810083244100A2
:10005000032901001305000013010101678000005E
:100060009305100013050400EF00404283558403FC
:10007000EF10C018231CA4029305F0FF1305040021
:10008000EF00C04083558403EF104017231CA402E7
:1000900063940400231DA402938414006FF05FFA9C
:1000A000631E06028317050013F707F093970701F5
:1000B00093D7070193D78700B367F7002310F500A4
:1000C0008397050013F707F09397070193D707016C
:1000D00093D78700B367F7002390F5000315250039
:1000E000839725003305F54067800000130101FE6A
:1000F000232A910083140500232E1100232C810054
:1001000093D77440232821012326310193F7170048
:100110006382070213F5F4078320C10103248101E0
:1001200083244101032901018329C1001301010234
:10013000678000001384050093D5344093F7F500E1
:100140009395470013F77400B3E5F5009309050094
:1001500083578403630A070293061000138904007F
:100160006312D7061386070013058402EF00D0340C
:100170008357C403131905011359094163940704F4
:10018000231EA4026F0000049306200213870500BB
:1001900063D4D5001307200283162400031604003D
:1001A00083254401032584011377F70FEF00D06006
:1001B0008357E40313190501135909416394070098
:1001C000231FA40283558403131509011355050148
:1001D000EF10C002231CA40293F404F01375F90776
:1001E000B364950093E40408239099006FF0DFF264
:1001F000130101FE232A9100938405009305060054
:10020000232E1100232C81002326C100EFF01FEEC6
:100210000326C1001304050013850400930506009E
:10022000EFF0DFEC3305A4408320C10103248101FA
:1002300083244101130101026780000083970500B8
:100240002310F500839725002311F5006780000037
:1002500013080500032506009308850063F4E804ED
:1002600003A7060013034700637EF3022320160151
:10027000832708002320F5002320A8002322E5007F
:1002800083A70600039705009387470023A0F60085
:10029000832745002390E700039725002391E7007B
:1002A00067800000130500006780000083270500B9
:1002B0000327450083A647002322D50023A2E70099
:1002C00003A707002320E50023A0070013850700EC
:1002D0006780000083A64500032745002322D50040
:1002E00023A2E50003A705002320E50023A0A50025
:1002F000678000008397250063D40702630A050224
:100300008327450003C70700839705006314F700A0
:1003100067800000032505006FF05FFE03250500E0
:10032000630805000327450003172700E318F7FEBD
:100330006780000093070500130500006394070021
:100340006780000003A7070023A0A700138507000C
:10035000930707006FF09FFE130101FD232C41015D
:10036000232A510123248101232291012320A10169
:100370002326110223248102232291022320210318
:10038000232E31012328610123267101138C0500DE
:10039000930C0600130A0500930A1000130D1000B9
:1003A00093040A00930B0000130B0000130A0000D3
:1003B000639A040023200B00635C7D09939A1A0062
:1003C0006FF01FFE938B1B001384040013090000C1
:1003D0000324040013091900631E040093890A0012
:1003E000631E090063840900631A04049304040073
:1003F0006FF01FFCE39E2AFD6FF05FFE638409002F
:1004000063140402930704001384040083A404000B
:100410001309F9FF630A0B0223208B00130B04005E
:10042000138407006FF0DFFB8325440003A544001D
:1004300013860C00E7000C00E356A0FC83270400A1
:100440009389F9FF6FF01FFD130A04006FF01FFD81
:100450008320C1020324810213050A008324410280
:10046000032901028329C101032A8101832A410151
:10047000032B0101832BC100032C8100832C41003D
:10048000032D01001301010367800000130101FB2C
:10049000232481042326710303244502831B450082
:1004A0002322910423202105232C4103232A5103D5
:1004B0002328610323261104232E3103130605008C
:1004C000138A0500231FB100930A0000130B0000DC
:1004D000130900009304000063C47A0D1319290066
:1004E00033096941B38424019394040193D4040132
:1004F000635C4001B7050000130504009385051FE8
:10050000EFF09FE51304050003250400EFF01FDA68
:10051000930905009305C10113050400EFF09FDD69
:10052000130905006314050003290400631E091262
:100530008327040003A74900B705000083A64700EE
:10054000130504001306000023A2D90023A2E7002C
:1005500003A707009385050A23A0E90023A037011C
:10056000EFF09FDF0324050013090500631C04104E
:100570008320C1040324810413850400032901049A
:10058000832441048329C103032A8103832A41036D
:10059000032B0103832BC1021301010567800000B7
:1005A00093F7FA0F9305C101130504002326C10038
:1005B000231EF100EFF01FD493090500130504007A
:1005C000EFF05FD7130405000326C100639609040A
:1005D00083270500130B1B00131B0B0183A7470088
:1005E000135B0B018387170093F71700B384F400A4
:1005F0009394040193D404018317E10163C60700B7
:1006000093871700231FF10093871A00939A07011D
:1006100093DA0A416FF05FEC03A749001309190050
:1006200013190901831707001359090113F717005C
:10063000630C070093D7974093F71700B384F40037
:100640009394040193D4040183A70900E38607FA75
:1006500003A7070023A0E9000327040023A0E70065
:100660002320F4006FF05FF9832744009385040092
:1006700003950700EF00D03E93040500032909000D
:100680006FF0DFEA83274900938504000395070094
:10069000EF00103D93040500032404006FF01FEDEC
:1006A000130101FC232C8102130440013354850201
:1006B000232A9102232821032326310323244103E3
:1006C00023225103232E1102B787FFFF23A0050029
:1006D0009387070893890500130906009306810193
:1006E0001306C10013850900130A00001304E4FF78
:1006F00093143400B384950023A295002390F40052
:1007000023910400938785002326F10093874400FA
:10071000232CF100931A2400B707008093C7F7FF3A
:10072000B38A5401232EF1001387040093870A0033
:100730009305C101EFF0DFB1636E8A041305500029
:100740003354A40283A709003746000013071000A2
:100750001306F6FF83A5070063940508B70500009C
:1007600013850900130600009385050AEFF0DFBE2C
:100770008320C1030324810383244103032901034C
:100780008329C102032A8102832A41021301010441
:100790006780000013170A0113570701B3472701A9
:1007A000939737001377770093F78707B3E7E7004E
:1007B00013978700B367F700231EF1001387040027
:1007C00093870A00930681011306C1009305C101B6
:1007D00013850900EFF0DFA7130A1A006FF0DFF5A9
:1007E00003A54700637A87002311E500130717006C
:1007F000938705006FF01FF69316070193D6060145
:10080000938716009397870093F70770B3C6260166
:10081000B3E7D700B3F7C7002311F5006FF01FFD52
:10082000130101FF23268100631406001306100044
:1008300013070000930700006F0000019387170063
:100840003387F70213173700E36AA7FE1385F7FF14
:10085000B307A5029385F5FF93F5C5FF9385450082
:1008600093121500930E0000130F1000B703010040
:1008700093981700B3871501938F07003384F540D1
:1008800063E0AE0823A4F600B38717019387F7FF50
:100890000324C10093F7C7FF9387470023A2B60044
:1008A00023A6F60023A0A600130101016780000023
:1008B0003306E60213180701135808011303130047
:1008C000336676023307C800131707011357070171
:1008D0002310EE00330707011377F70F3308C40125
:1008E0002310E800130E2E003307E301E362A3FC9C
:1008F000938E1E00B38F5F00330FE5016FF05FF83A
:10090000138E0F00130300006FF01FFE931E2500CF
:10091000130800009307000093060000130700006F
:100920006310A8061385070067800000032E0300EC
:100930009397070193D707013307C7016358E6026E
:100940009387A7009397070193D7074113070000E8
:10095000938818001303430093060E00E398A8FC45
:1009600013081800B385D5016FF09FFBB3A6C6012D
:10097000B387D7009397070193D707416FF05FFDC7
:1009800013830500930800006FF05FFD131E150030
:10099000931E250093070000639AA702678000005A
:1009A0000313080013071700130828003303D302AA
:1009B0009388480023AE68FEE314A7FE93871700D0
:1009C0003306C601B385D5016FF01FFD938805007E
:1009D00013080600130700006FF01FFE93181500A0
:1009E000130700006316A7026780000003D8070002
:1009F000938616009387270033080601239F07FF7D
:100A0000E396A6FE13071700B38515016FF09FFD4F
:100A100093870500930600006FF09FFE9318150062
:100A2000131525003385A5006314B5006780000009
:100A300093070000130700003308F6003383F60025
:100A40000318080003130300938727003308680284
:100A500033070701E392F8FE23A0E50033061601F1
:100A6000938545006FF05FFC93122500931F1500DE
:100A700013080000631EA804678000009317170086
:100A8000B387F600930E060013030000130E000058
:100A9000039F0E0083930700130E1E00938E2E00FB
:100AA000330F7F02B387F7013303E301E312C5FF7E
:100AB00023A068001307170093884800E310A7FCE1
:100AC00013081800B38555003306F6016FF09FFA3E
:100AD00093880500130700006FF05FFE9313250055
:100AE00093121500130300006318A306678000002B
:100AF000139718003387E600930F0600930E00004B
:100B0000130F00000318070083970F00130F1F0037
:100B1000938F2F00B38707033307570013D827405D
:100B200093D757401378F80093F7F707B307F80205
:100B3000B38EFE00E318E5FD2320DE019388180044
:100B4000130E4E00E396A8FA13031300B385750045
:100B5000330656006FF05FF9138E0500930800000E
:100B60006FF05FFE130101FE232821011309060027
:100B7000232A9100130607002324410193840500D2
:100B800037FAFFFF93050900232E1100336A47014E
:100B9000232C8100232631012322510193090700D0
:100BA0002320610113040500938A0600EFF01FE380
:100BB00093860900130609009385040013050400B9
:100BC000EFF0DFDC13060A00938504001305040030
:100BD000EFF0DFD393050000EF00806893860A00F2
:100BE000130B050013060900938504001305040088
:100BF000EFF0DFE213060A009385040013050400FA
:100C0000EFF0DFD093050B00EF00806593860A00BC
:100C1000130B050013060900938504001305040057
:100C2000EFF09FE413060A00938504001305040007
:100C3000EFF0DFCD93050B00EF00806293860A0092
:100C4000130B050013060900938504001305040027
:100C5000EFF0DFE813060A00938504001305040093
:100C6000EFF0DFCA93050B00EF00805F33063041E1
:100C700013160601930405009305090013050400EB
:100C800013560641EFF09FD58320C1010324810153
:100C90001395040103290101832441018329C10023
:100CA000032A8100832A4100032B010013550541CB
:100CB0001301010267800000130101FF232481005A
:100CC00013870500130406008325C50083268500CD
:100CD000032645000325050023261100EFF09FE8B9
:100CE00093050400032481008320C1001301010146
:100CF0006F000057930700009306000093851500CE
:100D00003383F6009395050137380000373E000025
:100D1000130FF5FF9303130093D50501130700008C
:100D2000930FC00293024000130808EC130ECEE8A4
:100D300063EEE30763E4A60667800000B307F800EC
:100D400003A7070093074000938515003383F6003F
:100D5000939505019303130093D5050163ECE30517
:100D600063E6A6020324C1001301010167800000AD
:100D700003A70701930780006FF01FFD03A7070279
:100D80006FF05FFF03A707036FF0DFFEB307D60026
:100D900023800700938616006FF09FFCB307D600F0
:100DA00023800700938616006FF0DFF8130101FF20
:100DB000232681006388070293080000B30E170101
:100DC00003C40E00B38E1601B30ED60123808E002D
:100DD00093881800E39417FF330366002300F301A0
:100DE0009386030013F775001307D7FF1317070146
:100DF00093D715001357070193F7C700E3E0E2F418
:100E0000131727003307C70103270700B307F800AC
:100E1000670007008326050037380000130700002D
:100E200013031000130EC002930E7000130808EA9B
:100E300013069000130F50049308E00283C70600C6
:100E400063840700631867002320D500130507009B
:100E50006780000093861600E388C7FFE3E0EEFE9C
:100E6000931F2700B38F0F0183AF0F0067800F0020
:100E7000938F07FD93FFFF0F130740006376F60380
:100E8000938F57FD93FFDF0F13072000638E0F0032
:100E900013075000638A170183A74500130710004A
:100EA0009387170023A2F50083A7050093871700F7
:100EB00023A0F5006FF09FF803A78500938F07FD2F
:100EC00093FFFF0F13071700637AF601639E170164
:100ED00023A4E500130750006FF05FF623A4E5009C
:100EE000130740006FF09FF523A4E50013071000DF
:100EF0006FF0DFF4639A170183A70501938717004A
:100F000023A8F5006FF01FFD938707FD93F7F70FF8
:100F1000E376F6F283A705019387170023A8F5006F
:100F20006FF0DFFC93FFF70D639CEF0183A7450192
:100F3000130730009387170023AAF5006FF01FF006
:100F4000938707FD93F7F70FE37AF6EE83A7450142
:100F50009387170023AAF5006FF05FF903A7C50078
:100F6000938757FD93F7D70F1307170023A6E500C4
:100F700013076000E39C07F66FF05FEC03A78501A1
:100F8000938707FD93F7F70F1307170023ACE500CE
:100F900013077000E374F6EA6FF05FF5938707FDBF
:100FA00093F7F70FE37CF6E883A7450093871700D4
:100FB00023A2F5006FF09FF3130101F8232C8106A3
:100FC000232A9106232821072326310723244107BA
:100FD0001384050013890700232EB100232E110668
:100FE00093040500138A0600930907009305000087
:100FF00093070002130701043307B70023200700FB
:10100000130701023307B70023200700938545002B
:10101000E392F5FE8327C10183C70700639A07089F
:10102000232E8100B30494001307C0028327C1015B
:1010300063E8970A232E81008327C10183C7070035
:101040006390070C232E81001307C0028327C10180
:1010500063EC970C13040000930400029307010251
:10106000B387870003A5070093050900EF00001C64
:1010700093070104B38787009305050003A50700C4
:1010800013044400EF00801A13090500E31894FCD0
:101090008320C10703248107832441070329010713
:1010A0008329C106032A8106130101086780000015
:1010B000930501041305C1012326C100EFF09FD55C
:1010C00093070106131525003385A700832705FC28
:1010D0000326C100938717002320F5FC6FF09FF3D0
:1010E00083C507006386E500B3C5C5002380B7004C
:1010F0008327C101B3873701232EF1006FF01FF35F
:10110000930501041305C101EFF0DFD09307010639
:10111000131525003385A700832705FC9387170047
:101120002320F5FC6FF05FF103C607006306E600BD
:10113000334646012380C7008327C101B3873701A7
:10114000232EF1006FF09FF01305F5FF9307400089
:1011500063ECA704B7370000938707FB131525003E
:101160003305F5008327050067800700B7370000C7
:1011700003A547FD67800000B737000003A507FD02
:1011800067800000B737000003A507FE67800000F6
:10119000B737000003A5C7FD67800000B737000020
:1011A00003A5C7FC678000001305000067800000EE
:1011B000B746000093078000938626003786FFFF1E
:1011C00033C7A500137717001355150063040700F4
:1011D000B3C5D50093D5150063080700B3E5C50076
:1011E0009395050193D505019387F7FF93F7F70FC3
:1011F000E39807FC1385050067800000130101FFD9
:1012000023248100130405001375F50F2326110014
:10121000EFF01FFA930505001355840003248100A5
:101220008320C100130101016FF09FF8130101FF3A
:10123000232481001304050013150501135505012E
:1012400023261100EFF09FFB9305050013550401C1
:10125000032481008320C100130101016FF01FFAF4
:1012600013150501135505016FF05FF91305000013
:1012700067800000732500C067800000732700C0EE
:10128000B737000023A4E7FC67800000732700C085
:10129000B737000023A2E7FC67800000B7370000E3
:1012A00003A547FCB737000083A787FC3305F5404B
:1012B0006780000067800000930710002300F5009E
:1012C00067800000130101FF2326110023000500A1
:1012D000EFF0DFFC8320C100B707008023A4A70044
:1012E000130101016780000013F80704130101FBDB
:1012F00063000802B73800009388C80093FF070115
:10130000638E0F0093F7E7FF130E00026F00C0011A
:10131000B7380000938848FE6FF05FFE13F817009F
:10132000130E0003E30208FE13F827001303000066
:10133000630A080063D00508B305B0409386F6FF42
:101340001303D00293F2070263880200130800011E
:10135000631606099386E6FF639A05089305000362
:101360002306B10013081000930508006354E80039
:101370009305070093F71701B386B6406386070C01
:10138000630603002300650013051500638C02004B
:10139000930780006312F60C930700032300F50007
:1013A0001305150063800F10B305B5001307000384
:1013B0006F00801013F84700630808009386F6FF5B
:1013C0001303B0026FF01FF813F88700E30C08F660
:1013D0009386F6FF130300026FF0DFF61308800018
:1013E000E31C06F79386F6FF6FF01FF7930EC1001C
:1013F0001308000033FFC50293830500130818008B
:10140000938E1E00338FE801034F0F00B3D5C50242
:10141000A38FEEFFE3F0C3FE6FF01FF59387170075
:10142000A38FD7FF3387F840E34AE0FE9387060097
:1014300063D40600930700009386F6FF3305F5009A
:10144000B386F6406FF0DFF393070500B308D500CD
:10145000930E00026FF01FFD93070001E314F6F4F2
:10146000930700032300F50093078007A300F5000E
:10147000130525006FF01FF393871700A38FC7FF95
:101480003307F640E34AE0FE9387060063D4060084
:10149000930700009386F6FF3305F500B386F64008
:1014A0006FF09FF0930705003306D5006FF05FFDE6
:1014B00013051500A30FE5FEB387A540E34AF8FE28
:1014C00093070800130705001306F0FF9387F7FF43
:1014D0006398C7023308050113070800B305D80055
:1014E000130500023386E5406348C00263D406005A
:1014F000930600003305D800130101056780000042
:101500009305C100B385F50083C5050013071700D7
:10151000A30FB7FE6FF09FFB13071700A30FA7FEE3
:101520006FF05FFCB70700802380A7006780000092
:10153000130101BA232A9142232821432322514334
:101540002322B144232C0145930541441308810211
:10155000B7340000B73A000037390000232C81422D
:1015600023263143232E1142232441432320614368
:10157000232E7141130405002324C1442326D144A2
:101580002328E144232AF144232E11452326B100C8
:101590009309080093844403938A4AFE1309C900FF
:1015A0008347040063940704230008001305000028
:1015B00037070080B387A90083C707006398075ED9
:1015C0008320C143032481438324414303290143EE
:1015D0008329C142032A8142832A4142032B0142CB
:1015E000832BC1411301014667800000130750029D
:1015F000638AE700130518002300F800138A05002A
:101600006F00002A930700009306B0021305D00272
:101610009308000313030002130E30026F00C00191
:101620006308A7006316170393E717006F00800095
:1016300093E7070113040600034714001306140080
:101640006308D702E3EEE6FC63086702630AC70398
:10165000930607FD93F6F60F130590006360D50817
:1016600093060000930890001303A0006F00C002CF
:1016700093E747006FF01FFC93E787006FF09FFB35
:1016800093E707026FF01FFBB3866602130616008E
:10169000B386A600938606FD03450600130705FDE5
:1016A0001377F70FE3F2E8FE034506001307E002A5
:1016B0006316E51003451600930890001304160006
:1016C000130705FD1377F70F63E6E80C1307000017
:1016D000930890001303A0006F00C0031305A0023D
:1016E0009306F0FFE312A7FC83A60500130624006F
:1016F00093854500E3DA06FAB306D04093E7070185
:101700006FF09FFA33076702130414003307A70032
:10171000130707FD03450400130605FD1376F60FB6
:10172000E3F2C8FE034604001305C0049308F0FF6B
:101730001373F60D6316A300930806001304140038
:1017400003450400130690066308C5086360A60AF3
:10175000130610066308C5206368A6061306100466
:101760006300C52013068005630CC5409307500233
:101770006306F5002300F8001308180083470400EF
:10178000E39A07E61304F4FF138A05001305080023
:101790006F0000119308A00213070000E31415F96D
:1017A00003A70500130426001386450063540700B1
:1017B00013070000930506006FF0DFF61304060020
:1017C0001307F0FF6FF01FF613063006630CC50613
:1017D00013064006E31CC5F81306C00693E727006E
:1017E000639AC83A1306A0006F004005130630073D
:1017F0006306C50C636AA6021306F0066308C538C3
:1018000013060007E314C5F61306F0FF6396C6003F
:1018100093E7170093068000138A45001306000122
:1018200083A505006F00C03713065007E30CC5FA07
:101830001303800713060001E31A65F2138A4500BB
:101840006FF01FFE93F70701639C07023306D80071
:10185000130500026F00C000A38FA7FE13880700C6
:10186000930718003307F640E348E0FE9387F6FF3E
:101870006344D00093061000B386D74093861600C9
:1018800083A70500138A4500130518002300F800FC
:10189000B306D80013070002B387A640634AF000DE
:1018A0001304140093050A00130805006FF05FCFBE
:1018B00013051500A30FE5FE6FF01FFE138A450008
:1018C00083A5050063940500938504003387E50034
:1018D0001386050003450600630405006314E6044F
:1018E00093F707013307B640130600026386070427
:1018F0009307000063CAE704130507006354070059
:10190000130500003305A800B306D5001306000236
:10191000B387A640E356F7F813051500A30FC5FEDD
:101920006FF01FFF130616006FF0DFFA13081800A0
:10193000A30FC8FE938607009387F6FFE348D7FE00
:10194000938607006FF0DFFA3386F5000345060043
:101950003306F800938717002300A6006FF09FF965
:1019600093E707041307C00603AE0500138A45007A
:10197000639AE81413F7070413850A006304070049
:101980001305090013070101930500001303070065
:10199000930E6000130FA0033306BE00034606003B
:1019A0009385150013073700935846001376F60009
:1019B000B30815013306C50083C8080003460600B6
:1019C000A30E17FF230FC7FE6392D50793F70701F6
:1019D000639E070013061001930500029387F6FF2C
:1019E000130718006348D604938607009307000086
:1019F00013071001B305F30083C505003306F80093
:101A0000938717002300B600E396E7FE130518013D
:101A10009307100113070002E3D4D7E8130515005C
:101A2000A30FE5FE9386F6FF6FF01FFFA30FE7FFFE
:101A30006FF09FF6A30FB7FE938607001308070009
:101A40006FF0DFF913070141930516003306C70055
:101A5000230066C13307AE000347070013030141AB
:101A6000138615003303B30063120708230073C005
:101A700013051500E318E5FD93F707019305000230
:101A80006386070E9307000093050101B385F500F7
:101A900083C505003307F800938717002300B700BC
:101AA000E394C7FE3305C800B306D5001307000250
:101AB000B387A640E356F6DE13051500A30FE5FE37
:101AC0006FF01FFF1305000093050000930F300611
:101AD000930290009308A000930E40069303000326
:101AE000130F4000130BE0026FF0DFF663DAEF0430
:101AF000B34BD703938525003367D703B38B7A01A4
:101B000083CB0B00230073C1130301413306C300D1
:101B1000334317033367170333836A000343030018
:101B2000230066C03387EA0003470700130301411F
:101B300013861500B305B3002380E5C06FF05FF393
:101B4000E3D2E2FEB3451703B385BA0083C50500AF
:101B5000336717032300B3C0930506006FF09FFCA3
:101B6000A30FB7FE93860700130807009387F6FFBD
:101B700013071800E346D6FE938607006FF09FF028
:101B800093E70704130600016FF05FCB1306800094
:101B90006FF0DFCA138A450083A505001306A00075
:101BA00013050800EFF04FF46FF09FCF2300F7000C
:101BB000130515006FF01FA0942600009C2600005E
:101BC000A4260000130101F7138605002326A100B7
:101BD0009305C1001305E10523261108232481087C
:101BE0002322910823202109232E3107232C41078A
:101BF000232A5107232861072326710723248107FD
:101C0000232291072320A107EFF00FEB130510000B
:101C1000EFF08FD3231EA10013052000EFF0CFD2E9
:101C2000231FA10013053000EFF00FD22310A102F3
:101C300013054000EFF04FD1232CA10213055000F3
:101C4000EFF08FD063000538232EA1028327C10156
:101C5000639A07000317010263180702130760065F
:101C60002310E102130710006390E70283170102BB
:101C7000639C0700B737153493875741232EF10033
:101C8000930760062310F1028326C103B7270000E3
:101C90009387C76B2322F10213F81600231E010459
:101CA00093F7260013050800638407001305180046
:101CB00093F7460063880700130515001315050107
:101CC000135505019307007D33D5A70213070000C4
:101CD000930700001303100093083000232AA10289
:101CE0003316F3003376D60063060602330EA702DE
:101CF0009305C101139627003386C5008325410251
:101D0000130717001317070113570701B385C50100
:101D10002326B60093871700E39417FD630A080093
:101D20000316C10183258102EFE09F972320A104C0
:101D30008327C10393F72700638207028317E1011A
:101D40000316C1018325C1020325410393970701AF
:101D50009306410433E6C700EFE09FAC8327C1033D
:101D600093F74700638A0700032601038315C10127
:101D700003254103EFE01FF88327810363960704DF
:101D800093071000232CF1021304A0008327810382
:101D9000B3878702232CF102EFF04FCE1305C10168
:101DA000EFE08FA7EFF08FCEEFF04FCFEFF08FD0B7
:101DB000E30E05FC3354A40203258103130414002D
:101DC00033048502232C8102EFF04FCB1305C101B0
:101DD000EFE08FA4EFF08FCBEFF04FCC930A05002C
:101DE0000315C1019305000037390000EFF04FC71C
:101DF000930505000315E101EFF08FC6930505007B
:101E000003150102EFF0CFC593050500031541034B
:101E1000EFF00FC5B7870000938757B09304050014
:101E2000630CF52063E6A71AB72700009387278F76
:101E30006308F522B75700009387F7EA6308F52097
:101E40001304F0FFEFF08FC28325410333048500B4
:101E5000372500001305C542EFF08FED3725000050
:101E600093850A0013054544EFF08FEC13850A00B3
:101E7000EFF04FC493050500372500001305C54555
:101E8000EFF00FEB1314040113850A00135404013F
:101E9000EFF04FC263040502832589FD8329810386
:101EA00013850A00B389B902EFF0CFC0B3D5A902F8
:101EB0003725000013054547EFF08FE713850A002B
:101EC000EFF04FBF9307900063FCA728832789FD9D
:101ED00083258103372500001305C54CB385F50222
:101EE0001314040113540441EFF08FE4B7250000EC
:101EF000372500009385454E1305054FEFF04FE35E
:101F0000B725000037250000938585501305C5507F
:101F1000EFF00FE2B725000037250000938545520A
:101F20001305C552EFF0CFE037250000938504007C
:101F300013054554EFF0CFDF8327C10393F7170054
:101F4000639407268327C10393F727006390072A2A
:101F50008327C10393F74700639C072C9304000079
:101F600093094004372A0000832789FD63EAF42C93
:101F7000631E042E372500001305055DEFF04FDBCF
:101F80001305E105EFF00FB48320C1080324810895
:101F900083244108032901088329C107032A8107F3
:101FA000832A4107032B0107832BC106032C8106DB
:101FB000832C4106032D01061305000013010109BE
:101FC0006780000093077000232EF1026FF01FC896
:101FD000B7970000938727A06302F502B7F70000C8
:101FE0009387579FE31EF5E4372500001305C5339B
:101FF000EFF00FD4930730006F0040013725000049
:102000001305C52AEFF0CFD293070000B7290000CF
:10201000939717009389892813040000130D00007B
:10202000130B4004B389F900B72B0000372C0000D4
:10203000B72C00006F000012372500001305C52DD6
:10204000EFF00FCF930710006FF05FFC3725000013
:1020500013058530EFF0CFCD930720006FF01FFB05
:10206000372500001305C536EFF08FCC93074000ED
:102070006FF0DFF9330A6D0393070106338A4701D6
:102080008327CAFD231E0AFE93F717006384070205
:1020900003566AFF83D60900630ED60093050D0030
:1020A00013858B39EFF0CFC88357CAFF938717008A
:1020B000231EFAFE330A6D0393070106338A470194
:1020C0008327CAFD93F727006384070203568AFF1C
:1020D00083D6C900630ED60093050D0013058C3C12
:1020E000EFF00FC58357CAFF93871700231EFAFE30
:1020F000330A6D0393070106338A47018327CAFD1C
:1021000093F74700638407020356AAFF83D6890129
:10211000630ED60093050D001385CC3FEFF04FC141
:102120008357CAFF93871700231EFAFEB3076D0378
:1021300013070106130D1D00131D0D01135D0D0185
:10214000B307F70003D5C7FF3304A4001314040139
:1021500013540441832789FDE36EFDF06FF09FCE99
:10216000372500001305C548EFF08FBC1304140099
:102170006FF0DFD5B387340313070106938504009E
:102180009384140013050A569394040193D4040114
:10219000B307F70003D667FFEFF08FB9832789FDF8
:1021A000E3EAF4FC6FF01FDA9304000093094004A3
:1021B000372A00006FF09FFEB38734031307010630
:1021C00093850400938414001305CA579394040163
:1021D00093D40401B307F70003D687FFEFF04FB5A0
:1021E000832789FDE3EAF4FC6FF09FD69304000097
:1021F00093094004372A00006FF09FFEB387340331
:1022000013070106938504009384140013058A596B
:102210009394040193D40401B307F70003D6A7FFF6
:10222000EFF00FB1832789FDE3EAF4FC6FF01FD3D1
:102230009304000093094004372A00006FF09FFECA
:10224000B3873403130701069385040093841400B5
:1022500013054A5B9394040193D40401B307F70078
:1022600003D647FFEFF0CFAC6FF01FD0635880006C
:10227000372500001305C5616FF05FD037250000DA
:10228000130505636FF09FCFB0D44033796A14E72C
:10229000C1E3000052BE99110856D71F470700003E
:1022A000475EBF39A4E53A8E848D0000366B2070FE
:1022B0006572666F726D616E63652072756E2070F7
:1022C0006172616D657465727320666F7220636FF1
:1022D00072656D61726B2E0A00000000366B20760D
:1022E000616C69646174696F6E2072756E207061D3
:1022F00072616D657465727320666F7220636F72B0
:10230000656D61726B2E0A0050726F66696C652094
:1023100067656E65726174696F6E2072756E20708C
:102320006172616D657465727320666F7220636F90
:1023300072656D61726B2E0A00000000324B2070D6
:102340006572666F726D616E63652072756E207066
:102350006172616D657465727320666F7220636F60
:1023600072656D61726B2E0A00000000324B2076A0
:10237000616C69646174696F6E2072756E20706142
:1023800072616D657465727320666F7220636F721F
:10239000656D61726B2E0A005B25755D4552524F6B
:1023A0005221206C69737420637263203078253069
:1023B0003478202D2073686F756C6420626520303E
:1023C00078253034780A00005B25755D4552524F00
:1023D0005221206D617472697820637263203078B5
:1023E00025303478202D2073686F756C6420626509
:1023F000203078253034780A000000005B25755DB8
:102400004552524F52212073746174652063726388
:1024100020307825303478202D2073686F756C64F7
:10242000206265203078253034780A00436F726569
:102430004D61726B2053697A65202020203A202557
:102440006C750A00546F74616C207469636B73203F
:1024500020202020203A20256C750A00546F7461DA
:102460006C2074696D65202873656373293A202593
:10247000640A0000497465726174696F6E732F534A
:1024800065632020203A2025640A00004552524FFF
:102490005221204D757374206578656375746520CD
:1024A000666F72206174206C656173742031302016
:1024B0007365637320666F7220612076616C696456
:1024C00020726573756C74210A000000497465728E
:1024D0006174696F6E73202020202020203A20250F
:1024E0006C750A00474343382E322E30000000003E
:1024F000436F6D70696C65722076657273696F6E7B
:10250000203A2025730A00002D4F3200436F6D7072
:10251000696C657220666C6167732020203A202503
:10252000730A0000535441434B0000004D656D6F2A
:102530007279206C6F636174696F6E20203A202578
:10254000730A000073656564637263202020202095
:1025500020202020203A203078253034780A0000CE
:102560005B25645D6372636C697374202020202096
:1025700020203A203078253034780A005B25645DCD
:102580006372636D617472697820202020203A2084
:102590003078253034780A005B25645D637263739C
:1025A000746174652020202020203A203078253066
:1025B00034780A005B25645D63726366696E616CE2
:1025C0002020202020203A203078253034780A003E
:1025D000436F7272656374206F7065726174696FA6
:1025E0006E2076616C6964617465642E2053656544
:1025F00020524541444D452E6D6420666F72207215
:10260000756E20616E64207265706F7274696E679A
:102610002072756C65732E0A000000004572726F9F
:1026200072732064657465637465640A0000000059
:1026300043616E6E6F742076616C696461746520AD
:102640006F7065726174696F6E20666F7220746856
:1026500065736520736565642076616C7565732CA0
:1026600020706C6561736520636F6D7061726520A9
:102670007769746820726573756C7473206F6E204F
:1026800061206B6E6F776E20706C6174666F726D17
:102690002E0A00005374617469630000486561701C
:1026A00000000000537461636B004743433A2028E5
:1026B000474E552920382E322E30000000000000F1
:1026C000000000000000000000000000000000000A
:1026D00000000000000000000000000000000000FA
:1026E00000000000000000000000000000000000EA
:1026F00000000000000000000000000000000000DA
:102E8000000000000000000000000000700D0000C5
:102E9000700D00007C0D00007C0D0000840D000012
:102EA000700E00003C0E0000B80E00005C0F000029
:102EB000F40E0000240F00007C0F00009C0F0000A7
:102EC000902F0000982F0000A02F0000A82F0000D6
:102ED000602F00006C2F0000782F0000842F00006E
:102EE000302F00003C2F0000482F0000542F00001E
:102EF000002F00000C2F0000182F0000242F0000CE
:102F000054302E33652D3146000000002D542E54D0
:102F10002B2B5471000000003154332E3465347A69
:102F20000000000033342E30652D545E0000000098
:102F3000352E353030652B33000000002D2E313218
:102F400033652D32000000002D3837652B383332C1
:102F5000000000002B302E36652D313200000000BD
:102F600033352E3534343030000000002E3132330A
:102F700034353030000000002D3131302E37303004
:102F8000000000002B302E363434303000000000BA
:102F9000353031320000000031323334000000009F
:102FA0002D383734000000002B3132320000000091
:102FB0006C110000781100008411000090110000D5
:102FC0009C11000000000000000000000000000054
:102FD00000000000000000000100000001000000EF
:102FE00066000000303132333435363738396162AB
:102FF000636465666768696A6B6C6D6E6F70717229
:10300000737475767778797A000000003031323346
:103010003435363738394142434445464748494AB2
:103020004B4C4D4E4F505152535455565758595A78
:0C303000000000003C4E554C4C3E0000DF
:00000001FF
