:1000000037810000EF1040313705008013054500AF
:1000100023200500029041114AC00329C50122C4D2
:1000200026C206C62A84232C0502232E05028144FB
:1000300063992401B240224492440249014541019E
:10004000828085452285552C83558403EF00B0338B
:10005000231CA402FD5522854D2483558403EF0003
:100060009032231CA40299E0231DA4028504C9B781
:100070000DE68317050013F707F0C207C183A183BC
:10008000D98F2310F5008397050013F707F0C207F7
:10009000C183A183D98F2390F50003152500839791
:1000A00025001D8D8280011126CA8314050006CE0D
:1000B00022CC93D774404AC84EC6858B91CB13F59A
:1000C000F407F2406244D2444249B2490561828059
:1000D0002E8493D5344093F7F5009395470013F79A
:1000E0007400DD8DAA89835784031DC38546268944
:1000F000631AD7043E861305840235278357C40349
:10010000131905011359094195EF231EA4021DA8D7
:10011000930620022E8763D4D5001307200283168E
:100120002400031604004C48084C1377F70FEF0027
:10013000700F8357E403131905011359094199E31B
:10014000231FA40283558403131509014181EF0085
:100150009023231CA40293F404F01375F907C98CAF
:1001600093E4040823909900A9BF011126CAAE8424
:10017000B28506CE22CC32C63D3732462A84268549
:10018000B28515373305A440F2406244D24405617C
:100190008280839705002310F500839725002311A3
:1001A000F50082802A8808429308850063FCE802F3
:1001B0009842130347006377F30223201601832735
:1001C00008001CC12320A80058C19C4203970500C9
:1001D00091079CC25C412390E7000397250023917F
:1001E000E7008280014582801C415841D44354C1BC
:1001F000D8C3984318C123A007003E858280D4410C
:10020000584154C1D8C1984118C188C18280839790
:10021000250063DE070015C15C4103C70700839713
:1002200005006313F70082800841F5B7084111C546
:10023000584103172700E31BF7FE8280AA87014578
:1002400091E38280984388C33E85BA87D5BF797190
:1002500052CC56CA62C466C26AC006D622D426D21E
:100260004AD04ECE5AC85EC62E8CB28C2A8A854A97
:10027000054DD284814B014B014A99E423200B00A8
:10028000635E7D05860AF5B7850B2684014900402B
:10029000050909E8D689631A09006383090015E88E
:1002A000A284E1BFE3952AFFF5B76383090001EC5F
:1002B000A287268484407D1963000B0223208B00D3
:1002C000228B3E84C9BF4C40C8406686029CE351E5
:1002D000A0FE1C40FD19CDB7228ADDB7B2502254D2
:1002E000528592540259F249624AD24A424BB24B69
:1002F000224C924C024D456182805D71A2C45ED653
:100300004051831B4500A6C2CAC052DC56DA5AD8F7
:1003100086C64EDE2A862E8A231FB100814A014BF3
:100320000149814463CF7A070A0933096941CA94B4
:10033000C204C18063594001B7050000228593853E
:10034000A51631372A8408404535AA896C082285CC
:100350007D3D2A8919E1032904006317090C1C401B
:1003600003A74900B7050000D4432285014623A214
:10037000D900D8C398439385050723A0E90023A09B
:100380003701F13500412A8955E8B64026442685D3
:1003900006499644F259625AD25A425BB25B616195
:1003A000828093F7FA0F6C08228532C6231EF10073
:1003B000B93DAA89228559352A843246639C0902AF
:1003C0001C41050B420BDC43135B0B0183871700B9
:1003D000858BBE94C204C1808317E10163C5070009
:1003E0008507231FF10093871A00939A070193DA78
:1003F0000A410DBF03A749000509420983170700F9
:100400001359090113F7170011C7A587858BBE94EF
:10041000C204C18083A70900E1D3984323A0E90067
:10042000184098C31CC04DBF5C40A68503950700CB
:10043000EF00E078AA840329090005B78327490063
:10044000A68503950700EF008077AA8400402DBFA2
:10045000397122DC51443354850226DA4AD84ED60B
:1004600052D456D206DEE17723A005009387070811
:10047000AE893289340870004E85014A791493148C
:100480003400AE94C4C12390F400239104009387F8
:1004900085003EC6938744003ECC931A2400B707DC
:1004A000008093C7F7FFA69A3ECE2687D6876C08B2
:1004B000D539636C8A0215453354A40283A7090019
:1004C000116605477D168C43A9E9B70500004E85E6
:1004D000014693850507A53BF2506254D254425918
:1004E000B259225A925A2161828013170A0141831C
:1004F000B34727018E071D8B93F78707D98F139773
:100500008700D98F231EF1002687D6873408700014
:100510006C084E854139050A69BFC8436377870077
:100520002311E5000507AE8779BF93160701C18245
:1005300093871600A20793F70770B3C62601D58FDD
:10054000F18F2311F500F9BF411122C611E20546D2
:100550000147814729A085073387F7020E07E36C1F
:10056000A7FE1385F7FFB307A502FD15F1999105C5
:1005700093121500814E054FC16393981700B387FE
:100580001501BE8F3384F54063ECAE049CC6C6975C
:10059000FD173244F19B9107CCC2DCC688C24101F1
:1005A00082803306E6021318070113580801050379
:1005B000336676023307C800420741832310EE00FA
:1005C00042971377F70F3308C4012310E800090E90
:1005D0003307E301E367A3FC850E969F2A9F6DB75F
:1005E0007E8E0143F5B7931E250001488147814661
:1005F0000147631DA8023E858280032E0300C207C7
:10060000C1837297635EE600A907C207C1870147ED
:1006100085081103F286E392A8FE0508F695D1BF7E
:10062000B3A6C601B697C207C187DDB72E8381483E
:10063000DDB7131E1500931E250081476392A702A4
:10064000828003130800050709083303D3029108C9
:1006500023AE68FEE317A7FE85077296F695F9BFED
:10066000AE8832880147FDB7931815000147631F14
:10067000A700828003D80700850689073298239F48
:1006800007FFE399A6FE0507C695D5B7AE87814655
:10069000CDBF931815000A052E956313B50082800F
:1006A000814701473308F6003383F600031808003A
:1006B000031303008907330868024297E394F8FEA6
:1006C00098C146969105D1BF93122500931F15003E
:1006D0000148631FA802828093171700B697B28E55
:1006E0000143014E039F0E0083930700050E890E00
:1006F000330F7F02FE977A93E316C5FF23A06800AD
:1007000005079108E31AA7FC050896957E96D1B7D0
:10071000AE880147C5BF931325009312150001430E
:100720006318A3048280139718003697B28F814E06
:10073000014F0318070083970F00050F890FB38738
:100740000703169713D8274095871378F80093F777
:10075000F707B307F802BE9EE31DE5FD2320DE0187
:100760008508110EE391A8FC05039E9516964DBFD2
:100770002E8E8148C5BF01114AC8328926CA3A86E1
:1007800052C4AE847D7ACA8506CE336A470122CC34
:100790004EC656C2BA895AC02A84B68AF135CE8668
:1007A0004A86A685228571355286A6852285253DF5
:1007B00081453121D6862A8B4A86A6852285D13D60
:1007C0005286A68522850535DA85D52ED6862A8BD2
:1007D0004A86A6852285CD3D5286A685228521356D
:1007E000DA85F12ED6862A8B4A86A685228525377C
:1007F0005286A6852285C53BDA85D126330630414F
:100800004206AA84CA8522854186B93DF2406244E7
:10081000139504014249D244B249224A924A024BFA
:10082000418505618280411122C42E8732844C4566
:1008300014455041084106C63D3FA2852244B240BE
:100840004101B5AE8147814685053383F600C20577
:100850000968096E130FF5FF93031300C181014767
:10086000930FC002914213084846130E0E4363E9EA
:10087000E30563E1A6048280C2979843914785050A
:100880003383F600C20593031300C18163ECE303D5
:1008900063ECA600324441018280984BA147C5B762
:1008A0009853EDBF985BDDBFB307D60023800700E8
:1008B0008506F9BFB307D60023800700850655BF1C
:1008C000411122C695C38148B30E170103C40E001F
:1008D000B38E1601B29E23808E008508E39617FF23
:1008E00032932300F3019E8613F7750075174207B4
:1008F00093D715004183B18BE3E0E2F80A077297C2
:100900001843C29702871441096801470543130E33
:10091000C0029D4E130848442546130F5004930807
:10092000E00283C7060099C36315670014C13A85C6
:1009300082808506E38CC7FFE3E5EEFE931F270068
:10094000C29F83AF0F00828F938F07FD93FFFF0F2E
:1009500011476370F603938F57FD93FFDF0F09472D
:1009600063890F00154763861701DC41054785073A
:10097000DCC19C4185079CC16DB79845938F07FDED
:1009800093FFFF0F05076377F6016398170198C57A
:10099000154741BF98C5114769B798C5054751B775
:1009A000639617019C4985079CC9DDB7938707FDAE
:1009B00093F7F70FE377F6F69C4985079CC9F9BFD3
:1009C00093FFF70D6397EF01DC490D478507DCC9FD
:1009D00089BF938707FD93F7F70FE374F6F4DC49BB
:1009E0008507DCC965BFD845938757FD93F7D70FB7
:1009F0000507D8C51947DDF32DB7984D938707FD37
:100A000093F7F70F050798CD1D47E37CF6F079B70C
:100A1000938707FD93F7F70FE375F6F0DC41850741
:100A2000DCC1ADBF1971A2DCA6DACAD8CED6D2D449
:100A30002E843E892ECE86DEAA84368ABA898145E6
:100A40009307000298002E972320070018102E9776
:100A5000232007009105E397F5FEF24783C70700BF
:100A6000A1EF22CEA2941307C002F24763E49706D7
:100A700022CEF24783C70700ADEB22CE1307C00298
:100A8000F24763E097080144930400021C10A29708
:100A90008843CA8539229C00A297AA8588431104FD
:100AA00009222A89E31494FEF6506654D654465916
:100AB000B659265A096182808C00680832C6A13571
:100AC0009C100A053E95832705FC324685072320A6
:100AD000F5FC61B783C507006385E500B18D238010
:100AE000B700F247CE973ECE49B78C006808213D4B
:100AF0009C100A053E95832705FC85072320F5FCFD
:100B00008DBF03C607006306E60033464601238017
:100B1000C700F247CE973ECEA5B77D15914763ED4E
:100B2000A7028967938747550A053E951C4182872E
:100B3000896703A587578280896703A54757828005
:100B4000896703A547588280896703A50758828073
:100B5000896703A507578280014582809166A14776
:100B60008906617633C7A500058B058111C3B58D54
:100B7000858101C7D18DC205C181FD1793F7F70F9C
:100B8000F5F32E858280411122C42A841375F50F56
:100B900006C6E937AA85135584002244B2404101B4
:100BA00075BF411122C42A844205418106C6E13F36
:100BB000AA85135504012244B2404101E9B7420518
:100BC0004181D1B701458280732500C0828073279F
:100BD00000C0896723A6E7568280732700C0896713
:100BE00023A4E7568280896703A58756896783A770
:100BF000C7561D8D8280828085472300F500828044
:100C0000411106C623000500F93FB240B707008036
:100C100088C74101828013F807045D71630E0800E4
:100C2000B72800009388085B93FF0701638B0F00D0
:100C3000F99B130E000221A8B7280000938888585A
:100C4000E5B713F81700130E0003E30408FE13F8CA
:100C5000270001436309080063D10506B305B040CE
:100C6000FD161303D00293F2070263860200414887
:100C700063150607F916BDE5930500032306B100C9
:100C80000548C2856353E800BA85C58B8D8EC1CFF8
:100C900063050300230065000505638A0200A14780
:100CA0006319F608930700032300F5000505638E1A
:100CB0000F0AAA9513070003C1A013F847006306A3
:100CC0000800FD161303B00279BF13F88700E30C88
:100CD00008F8FD161303000279B72148E31D06F951
:100CE000FD1651BF930EC100014833FFC502AE830C
:100CF0000508850E469F034F0F00B3D5C502A38F8D
:100D0000EEFFE3F4C3FEB5BF8507A38FD7FF33879C
:100D1000F840E34BE0FEB68763D306008147FD163B
:100D20003E959D8EB5B7AA87B308D500930E0002F5
:100D3000F9BFC147E31DF6F6930700032300F50052
:100D400093078007A300F500090595B78507A38FD2
:100D5000C7FF3307F640E34BE0FEB68763D30600D8
:100D60008147FD163E959D8EA9B7AA873306D5000B
:100D7000CDB70505A30FE5FEB387A540E34BF8FE0D
:100D8000C2872A877D56FD176393C7022A98428738
:100D9000B305D800130500023386E5406341C00265
:100DA00063D3060081463305D800616182806C0000
:100DB000BE9583C505000507A30FB7FEE9B7050774
:100DC000A30FA7FED1BFB70700802380A7008280B2
:100DD000130101BA232A914223282143232251439C
:100DE0002322B144232C0145930541441308810279
:100DF000B7240000B72A000037290000232C8142C5
:100E000023263143232E11422324414323206143CF
:100E1000232E71412A842324C1442326D14423282C
:100E2000E144232AF144232E11452EC6C28993841E
:100E3000845D938A8A581309095B83470400A9E3F8
:100E400023000800014537070080B387A90083C746
:100E500007006399074A8320C14303248143832405
:100E60004143032901438329C142032A8142832A42
:100E70004142032B0142832BC14113010146828071
:100E8000130750026388E700130518002300F800D9
:100E90002E8A2DA481479306B0021305D002930831
:100EA000000313030002130E300219A86307A70002
:100EB0006314170393E7170019A093E7070132841F
:100EC00003471400130614006303D702E3E0E6FEB1
:100ED000630267026303C703930607FD93F6F60FE9
:100EE00025456362D5068146A548294305A093E7B9
:100EF0004700F1B793E78700D9B793E70702C1B777
:100F0000B38666020506AA96938606FD034506008B
:100F1000130705FD1377F70FE3F4E8FE034506001A
:100F20001307E002631EE50C03451600A5481304F1
:100F30001600130705FD1377F70F63E4E80A01476E
:100F4000A54829433DA01305A002FD56E318A7FCC0
:100F50009441130624009105E3D206FCB306D04069
:100F600093E7070165BF3307670205042A97130754
:100F700007FD03450400130605FD1376F60FE3F4A1
:100F8000C8FE034604001305C004FD581373F60D94
:100F90006314A300B28805040345040013069006F9
:100FA000630BC5066361A60813061006630DC5181A
:100FB000636BA604130610046305C51813068005A9
:100FC0006305C532930750026305F5002300F8005E
:100FD000050883470400E39907EA7D142E8A4285B9
:100FE000F1A89308A0020147E31D15F998411304E5
:100FF000260013864500635307000147B28551B7A9
:1010000032847D57BDBF130630066303C506130641
:101010004006E319C5FA1306C00693E72700639C50
:10102000C82C294699A0130630076301C50A6365D9
:10103000A6021306F006630EC52A13060007E31383
:10104000C5F87D566395C60093E71700A146138A3D
:10105000450041468C4165A413065007E303C5FCD7
:10106000130380074146E31F65F4138A4500DDB78B
:10107000C18B9DE73306D8001305000221A0A38F82
:10108000A7FE3E88930718003307F640E349E0FEC9
:101090009387F6FF6343D0008546B386D740850625
:1010A0009C41138A4500130518002300F800C296DE
:1010B00013070002B387A6406346F0000504D285FB
:1010C0002A88A5BB0505A30FE5FEEDB7138A4500E9
:1010D0008C4191E1A6852E972E860345060019C105
:1010E000631BE602C18B3307B6401306000295CBA3
:1010F000814763CEE7023A85635307000145429575
:10110000AA9613060002B387A640E359F7FA05052D
:10111000A30FC5FECDBF0506C9B70508A30FC8FEBE
:10112000BE869387F6FFE34AD7FEBE86D1B73386E5
:10113000F500034506003306F80085072300A600E6
:101140004DBF93E707041307C00603AE0500138ADB
:1011500045006392E81013F70704568511C34A85CA
:10116000180881453A83994E130FA0033306BE0039
:101170000346060085050D07935846003D8AAA9848
:101180002A9683C8080003460600A30E17FF230F04
:10119000C7FE6397D505C18B99EB454693050002C1
:1011A0009387F6FF13071800634FD602BE86814768
:1011B0004547B305F30083C505003306F8008507EE
:1011C0002300B600E397E7FE13051801C547130790
:1011D0000002E3D5D7EE0505A30FE5FEFD16D5BF4A
:1011E000A30FE7FF61B7A30FB7FEBE863A884DBFD6
:1011F00013070141930516003A96230066C1330791
:10120000AE000347070013030141138615002E9318
:101210002DE3230073C00505E31CE5FDC18B930599
:101220000002C5CF81470C08BE9583C50500330772
:10123000F80085072300B700E397C7FE3305C80011
:10124000AA9613070002B387A640E359F6E6050500
:10125000A30FE5FECDBF01458145930F3006A542A2
:10126000A948930E400693030003114F130BE002AD
:1012700079B763D3EF04B34BD70389053367D7033B
:10128000D69B83CB0B00230073C1130301411A9635
:1012900033431703336717035693034303002300B5
:1012A00066C05697034707001303014113861500D4
:1012B0009A952380E5C085B7E3D5E2FEB3451703D1
:1012C000D69583C50500336717032300B3C0B285E5
:1012D000C9BFA30FB7FEBE863A889387F6FF1307F0
:1012E0001800E348D6FEBE8635BF93E707044146A3
:1012F000ADBB21469DBB138A45008C4129464285E2
:10130000193A6DBB2300F700050581B6381C0000B3
:10131000401C0000481C000075712E862AC66C0017
:101320001305E10506C722C526C34AC1CEDED2DCBD
:10133000D6DADAD8DED6E2D4E6D2EAD0EFF0DF8B26
:101340000545EFF08FFD231EA1000945EFF0EFFCEE
:10135000231FA1000D45EFF04FFC2310A102114502
:10136000EFF0AFFB2ADC1545EFF02FFB6302052AF7
:101370002ADEF24781EB0317010205E71307600637
:101380002310E1020547639EE7008317010291EBFA
:10139000B7371534938757413ECE93076006231025
:1013A000F102F2568967938707C63ED213F81600FA
:1013B000231E010493F72600428599C313051800E4
:1013C00093F7460081C70505420541819307007DDB
:1013D00033D5A7020147814705438D482ADA3316E2
:1013E000F300758E09CE330EA7026C081396270002
:1013F0002E969255050742074183F2954CC6850704
:10140000E39F17FD630808000316C101A255EFF022
:101410002F84AAC0F257898B81CF8317E10103166D
:10142000C101B2555255C207D4005D8EEFF0CF9185
:10143000F257918B99C742568315C1015255EFF06F
:101440006FC0E2579DEB85473EDC2944E257B387E6
:1014500087023EDCEFF0AFF76808EFE0DFBBEFF0AC
:10146000CFF7EFF04FF8EFF00FF96DD13354A4023E
:10147000625505043304850222DCEFF04FF568085D
:10148000EFE07FB9EFF06FF5EFF0EFF5AA8A031503
:10149000C10181450969EFF08FF2AA850315E101C9
:1014A000EFF0EFF1AA8503150102EFF04FF1AA85E5
:1014B00003154103EFF0AFF0A167938757B0AA84FB
:1014C0006304F51A63E9A71489679387278F630D6F
:1014D000F51A95679387F7EA6300F51A7D54EFF0E4
:1014E0006FEED2552A94372500001305059DEFF0C5
:1014F0003F8E37250000D6851305859EEFF05F8D62
:101500005685EFF04FEFAA8537250000130505A09B
:10151000EFF01F8C420456854180EFF0CFED0DC1F6
:101520008325C957E2595685B389B902EFF0AFEC6C
:10153000B3D5A90237250000130585A1EFF05F8917
:101540005685EFF04FEBA54763F4A7208327C957D3
:10155000E25537250000130505A7B385F5024204BF
:101560004184EFF0FF86B725000037250000938502
:1015700085A8130545A9EFF0BF85B72500003725DD
:1015800000009385C5AA130505ABEFF07F84B7254E
:10159000000037250000938585AC130505ADEFF0FD
:1015A0003F8337250000A685130585AEEFF05F82E7
:1015B000F257858B6399071CF257898B639E071E30
:1015C000F257918B63930722814493094004372A91
:1015D00000008327C95763E0F422631D04223725E6
:1015E0000000130545B7EFF0AFFE1305E105EFF07E
:1015F0002FE1BA402A449A440A49F659665AD65A03
:10160000465BB65B265C965C065D0145496182805F
:101610009D473EDEB9BBA567938727A0630FF50002
:10162000BD679387579FE31BF5EA37250000130535
:10163000058EEFF0EFF98D4701A83725000013055F
:101640000585EFF0EFF88147896986079389C9829C
:101650000144014D130B4004BE99B72B0000372CF9
:101660000000B72C0000C5A0372500001305058831
:10167000EFF00FF68547C9BF372500001305C58A6F
:10168000EFF00FF58947C9B737250000130505911D
:10169000EFF00FF491474DBF330A6D039C103E9A53
:1016A0008327CAFD231E0AFE858B8DC303566AFF5E
:1016B00083D60900630CD600EA851385CB93EFF03F
:1016C0002FF18357CAFF8507231EFAFE330A6D03E5
:1016D0009C103E9A8327CAFD898B8DC303568AFFCF
:1016E00083D6C900630CD600EA851305CC96EFF0CB
:1016F0002FEE8357CAFF8507231EFAFE330A6D03B8
:101700009C103E9A8327CAFD918B8DC30356AAFF76
:1017100083D68901630CD600EA8513850C9AEFF015
:101720002FEB8357CAFF8507231EFAFEB3076D030D
:101730009810050D420D135D0D01BA9703D5C7FF33
:101740002A94420441848327C957E367FDF441BBCF
:1017500037250000130505A3EFF08FE70504FDB35F
:10176000B38734039810A685850413054AB0C204D4
:10177000C180BA9703D667FFEFF08FE58327C9577B
:10178000E3E0F4FE15BD814493094004372A0000CC
:10179000F5B7B38734039810A685850413050AB2FC
:1017A000C204C180BA9703D687FFEFF06FE28327A8
:1017B000C957E3E0F4FE29B5814493094004372A70
:1017C0000000F5B7B38734039810A6858504130588
:1017D000CAB3C204C180BA9703D6A7FFEFF04FDFA8
:1017E0008327C957E3E0F4FEC5B38144930940045D
:1017F000372A0000F5B7B38734039810A68585040F
:1018000013058AB5C204C180BA9703D647FFEFF02B
:101810002FDCC1B36357800037250000130505BCDA
:10182000D9B337250000130545BD75BBB0D440338F
:10183000796A14E7C1E3000052BE99110856D71F18
:1018400047070000475EBF39A4E53A8E848D00004B
:10185000366B20706572666F726D616E63652072A3
:10186000756E20706172616D657465727320666F4C
:101870007220636F72656D61726B2E0A000000004A
:10188000366B2076616C69646174696F6E20727565
:101890006E20706172616D657465727320666F721F
:1018A00020636F72656D61726B2E0A0050726F66F5
:1018B000696C652067656E65726174696F6E207210
:1018C000756E20706172616D657465727320666FEC
:1018D0007220636F72656D61726B2E0A00000000EA
:1018E000324B20706572666F726D616E6365207237
:1018F000756E20706172616D657465727320666FBC
:101900007220636F72656D61726B2E0A00000000B9
:10191000324B2076616C69646174696F6E207275F8
:101920006E20706172616D657465727320666F728E
:1019300020636F72656D61726B2E0A005B25755DA9
:101940004552524F5221206C697374206372632098
:10195000307825303478202D2073686F756C6420C2
:101960006265203078253034780A00005B25755D8B
:101970004552524F5221206D617472697820637212
:101980006320307825303478202D2073686F756C93
:1019900064206265203078253034780A0000000029
:1019A0005B25755D4552524F5221207374617465F9
:1019B0002063726320307825303478202D207368BE
:1019C0006F756C64206265203078253034780A00A9
:1019D000436F72654D61726B2053697A65202020D8
:1019E000203A20256C750A00546F74616C2074696C
:1019F000636B732020202020203A20256C750A007C
:101A0000546F74616C2074696D652028736563730D
:101A1000293A2025640A0000497465726174696F6F
:101A20006E732F5365632020203A2025640A00003E
:101A30004552524F5221204D75737420657865636D
:101A400075746520666F72206174206C65617374B3
:101A5000203130207365637320666F7220612076B9
:101A6000616C696420726573756C74210A000000F2
:101A7000497465726174696F6E7320202020202084
:101A8000203A20256C750A00474343382E322E3009
:101A900000000000436F6D70696C6572207665729E
:101AA00073696F6E203A2025730A00002D4F3200B3
:101AB000436F6D70696C657220666C61677320207E
:101AC000203A2025730A0000535441434B00000084
:101AD0004D656D6F7279206C6F636174696F6E20F4
:101AE000203A2025730A00007365656463726320E1
:101AF0002020202020202020203A2030782530343B
:101B0000780A00005B25645D6372636C69737420FE
:101B10002020202020203A203078253034780A00F8
:101B20005B25645D6372636D617472697820202047
:101B300020203A203078253034780A005B25645D17
:101B400063726373746174652020202020203A2022
:101B50003078253034780A005B25645D63726366F3
:101B6000696E616C2020202020203A2030782530BA
:101B700034780A00436F7272656374206F70657207
:101B80006174696F6E2076616C6964617465642E3E
:101B90002053656520524541444D452E6D642066B5
:101BA0006F722072756E20616E64207265706F7244
:101BB00074696E672072756C65732E0A00000000F0
:101BC0004572726F72732064657465637465640A2C
:101BD0000000000043616E6E6F742076616C696472
:101BE000617465206F7065726174696F6E20666FD5
:101BF0007220746865736520736565642076616C16
:101C00007565732C20706C6561736520636F6D70F2
:101C1000617265207769746820726573756C74737E
:101C2000206F6E2061206B6E6F776E20706C617418
:101C3000666F726D2E0A0000537461746963000050
:101C40004865617000000000537461636B00474396
:101C5000433A2028474E552920382E322E30000096
:101C60000000000000000000000000000000000074
:101C70000000000000000000000000000000000064
:101C80000000000000000000000000000000000054
:101C90000000000000000000000000000000000044
:102430009A0800009A080000A0080000A008000008
:10244000A408000048090000220900007A090000E1
:10245000E6090000A0090000C0090000FA09000018
:10246000100A0000342500003C250000442500002F
:102470004C25000004250000102500001C2500004C
:1024800028250000D4240000E0240000EC240000F3
:10249000F8240000A4240000B0240000BC240000A4
:1024A000C824000054302E33652D31460000000052
:1024B0002D542E542B2B5471000000003154332E18
:1024C0003465347A0000000033342E30652D545EBC
:1024D00000000000352E353030652B330000000041
:1024E0002D2E313233652D32000000002D38376536
:1024F0002B383332000000002B302E36652D313260
:102500000000000033352E35343430300000000038
:102510002E31323334353030000000002D3131306F
:102520002E373030000000002B302E36343430305F
:102530000000000035303132000000003132333409
:10254000000000002D383734000000002B313232FB
:1025500000000000300B0000380B0000400B0000B2
:10256000480B0000500B00000000000000000000BD
:10257000000000000000000000000000010000005A
:102580000100000066000000303132333435363748
:1025900038396162636465666768696A6B6C6D6E21
:1025A0006F707172737475767778797A00000000B5
:1025B0003031323334353637383941424344454679
:1025C0004748494A4B4C4D4E4F5051525354555623
:1025D0005758595A000000003C4E554C4C3E0000E4
:00000001FF
