:1000000037010100EF1090363705008013054500D9
:100010002320050073001000130101FF232021019C
:100020000329C501232481002322910023261100E6
:1000300013040500232C0502232E0502930400005F
:10004000639024038320C1000324810083244100A2
:10005000032901001305000013010101678000005E
:100060009305100013050400EF00804283558403BC
:10007000EF108017231CA4029305F0FF1305040062
:10008000EF00004183558403EF100016231CA402E7
:1000900063940400231DA402938414006FF05FFA9C
:1000A000631E06028317050013F707F093970701F5
:1000B00093D7070193D78700B367F7002310F500A4
:1000C0008397050013F707F09397070193D707016C
:1000D00093D78700B367F7002390F5000315250039
:1000E000839725003305F54067800000130101FE6A
:1000F000232A910083140500232E1100232C810054
:1001000093D77440232821012326310193F7170048
:100110006382070213F5F4078320C10103248101E0
:1001200083244101032901018329C1001301010234
:10013000678000001384050093D5344093F7F500E1
:100140009395470013F77400B3E5F5009309050094
:1001500083578403630A070093061000630AD706D7
:10016000138904006F000004930620021387050022
:1001700063D4D5001307200283162400031604005D
:1001800083254401032584011377F70FEF00906165
:100190008357E403131905011359094163940700B8
:1001A000231FA40283558403131509011355050168
:1001B000EF10800393F404F0231CA40293E40408DA
:1001C0001375F907B3649500239099006FF0DFF47D
:1001D0001386070013058402EF00D02F8357C40352
:1001E0001319050113590941E39E07FA231EA402BE
:1001F0006FF05FFB130101FE232A91009384050039
:1002000093050600232E1100232C81002326C10014
:10021000EFF0DFED0326C100130405001385040091
:1002200093050600EFF09FEC3305A4408320C10145
:10023000032481018324410113010102678000002E
:10024000839705002310F500839725002311F500FF
:100250006780000013080500032506009308850049
:1002600063F4E80403A7060013034700637EF30268
:1002700023201601832708002320F5002320A8004F
:100280002322E50083A70600039705009387470014
:1002900023A0F600832745002390E700039725005D
:1002A0002391E700678000001305000067800000CD
:1002B000832705000327450083A647002322D50096
:1002C00023A2E70003A707002320E50023A00700DF
:1002D000138507006780000083A6450003274500BB
:1002E0002322D50023A2E50003A705002320E50073
:1002F00023A0A500678000008397250063D4070230
:10030000630A05028327450003C70700839705009A
:100310006314F70067800000032505006FF05FFE9F
:100320000325050063080500032745000317270080
:10033000E318F7FE6780000093070500130500002F
:10034000639407006780000003A7070023A0A700AD
:1003500013850700930707006FF09FFE130101FD4F
:10036000232C4101232A51012324810123229101BD
:100370002320A1012326110223248102232291029A
:1003800023202103232E310123286101232671011B
:10039000138C0500930C0600130A0500930A100045
:1003A000130D100093040A00930B0000130B0000C0
:1003B000130A0000639A040023200B00635C7D098C
:1003C000939A1A006FF01FFE938B1B001384040096
:1003D000130900000324040013091900631E04001C
:1003E00093890A00631E090063840900631A0404E8
:1003F000930404006FF01FFCE39E2AFD6FF05FFE84
:100400006384090063140402930704001384040046
:1004100083A404001309F9FF630A0B0223208B0055
:10042000130B0400138407006FF0DFFB83254400E7
:1004300003A5440013860C00E7000C00E356A0FC63
:10044000832704009389F9FF6FF01FFD130A04004E
:100450006FF01FFD8320C1020324810213050A00EF
:1004600083244102032901028329C101032A810156
:10047000832A4101032B0101832BC100032C81003E
:10048000832C4100032D010013010103678000004C
:10049000130101FB23248104232671030324450255
:1004A000831B45002322910423202105232C410393
:1004B000232A51032328610323261104232E310309
:1004C00013060500138A0500231FB100930A0000DC
:1004D000130B0000130900009304000063C47A0D9D
:1004E0001319290033096941B38424019394040149
:1004F00093D40401635C4001B705000013050400B8
:100500009385451FEFF09FE51304050003250400C4
:10051000EFF01FDA930905009305C10113050400EC
:10052000EFF09FDD130905006314050003290400A3
:10053000631E09128327040003A74900B7050000C2
:1005400083A64700130504001306000023A2D90068
:1005500023A2E70003A707009385050A23A0E9006B
:1005600023A03701EFF09FDF0324050013090500E6
:10057000631C04108320C104032481041385040038
:1005800003290104832441048329C103032A81032D
:10059000832A4103032B0103832BC10213010105AD
:1005A0006780000093F7FA0F9305C101130504005B
:1005B0002326C100231EF100EFF01FD4930905008C
:1005C00013050400EFF05FD7130405000326C100F4
:1005D0006396090483270500130B1B00131B0B01F3
:1005E00083A74700135B0B018387170093F717005E
:1005F000B384F4009394040193D404018317E101BC
:1006000063C6070093871700231FF10093871A0022
:10061000939A070193DA0A416FF05FEC03A7490050
:100620001309190013190901831707001359090148
:1006300013F71700630C070093D7974093F7170041
:10064000B384F4009394040193D4040183A70900B4
:10065000E38607FA03A7070023A0E90003270400A5
:1006600023A0E7002320F4006FF05FF98327440004
:100670009385040003950700EF00503D93040500A7
:10068000032909006FF0DFEA8327490093850400FE
:1006900003950700EF00903B93040500032404003A
:1006A0006FF01FED130101FC232C810213044001A4
:1006B00033548502232A9102232821032326310360
:1006C0002324410323225103232E1102B787FFFF66
:1006D00023A00500938707089389050013090600E6
:1006E000930681011306C10013850900130A000057
:1006F0001304E4FF93143400B384950023A29500FF
:100700002390F40023910400938785002326F100B1
:1007100093874400232CF100931A2400B70700802C
:1007200093C7F7FFB38A5401232EF1001387040007
:1007300093870A009305C101EFF0DFB1636E8A046D
:10074000130550003354A40283A709003746000064
:10075000130710001306F6FF83A50700639405082E
:10076000B705000013850900130600009385050AEC
:10077000EFF0DFBE8320C103032481038324410300
:10078000032901038329C102032A8102832A41022A
:10079000130101046780000013170A0113570701B2
:1007A000B3472701939737001377770093F78707AD
:1007B000B3E7E70013978700B367F700231EF10044
:1007C0001387040093870A00930681011306C10072
:1007D0009305C10113850900EFF0DFA7130A1A0082
:1007E0006FF0DFF503A54700637A87002311E5006A
:1007F00013071700938705006FF01FF69316070184
:1008000093D60601938716009397870093F7077096
:10081000B3C62601B3E7D700B3F7C7002311F5002D
:100820006FF01FFD130101FF2326810063140600F2
:100830001306100013070000930700006F0000016B
:10084000938717003387F70213173700E36AA7FE71
:100850001385F7FFB307A5029385F5FF93F5C5FF51
:100860009385450093121500130F00001303100029
:10087000B703010093981700B3871501938F070002
:100880003384F5406360AF0823A4F600B3871701F3
:100890009387F7FF0324C10093F7C7FF93874700AF
:1008A00023A2B60023A6F60023A0A600130101018F
:1008B000678000003306060313170801135707016A
:1008C0001308180033667602B30EC700939E0E011C
:1008D00093DE0E013307D7012310DE011377F70FE4
:1008E000B30EC4012390EE00130E2E0033076840B0
:1008F000E362A7FC130F1F00B38F5F003303650093
:100900006FF05FF8138E0F00130803006FF01FFEE7
:10091000131E2500930800009307000093060000B3
:10092000130700006392A806138507006780000084
:1009300013132800338365000323030093970701F3
:1009400093D70701330767006356E6029387A70032
:100950009397070193D70741130700001308180066
:1009600093060300E316A8FC93881800B385C5011D
:100970006FF05FFBB3A66600B387D70093970701BC
:1009800093D707416FF09FFD130800006FF09FFDA4
:1009900013131500131E250013070000631EA70282
:1009A0006780000093981700B30816018398080029
:1009B0001398270033880501B388D802938717005E
:1009C00023201801E390A7FE1307170033066600E3
:1009D000B385C5016FF09FFC930700006FF09FFE89
:1009E00093181500130700006316A7026780000024
:1009F00003D8070093861600938727003308060163
:100A0000239F07FFE396A6FE13071700B385150182
:100A10006FF09FFD93870500930600006FF09FFE27
:100A200013131500130700006314A700678000006C
:100A300023A0050093070000639A670013071700BF
:100A400093854500330666006FF01FFE3308F600FD
:100A5000B388F600031808008398080093872700DE
:100A6000B308180303A805003308180123A00501E3
:100A70006FF09FFC931F2500131F15001303000048
:100A80006312A306678000001317180023A0070055
:100A90003387E600930800006390A802130818004B
:100AA00093874700E312A8FE13031300B385F501F3
:100AB0003306E6016FF0DFFC139E1800330EC6010B
:100AC000031E0E00831E0700938818003307E701FA
:100AD000B30EDE0303AE0700330EDE0123A0C70111
:100AE0006FF09FFB93870500130800006FF09FFBDA
:100AF000931F2500131F1500930E0000639CAE0684
:100B000067800000131813002320070033880601B4
:100B1000130E00006310AE02130313001307470007
:100B2000E312A3FE938E1E00B385F5013306E601A2
:100B30006FF0DFFC93171E00B307F6008318080060
:100B400083970700130E1E003308E801B3871703CD
:100B500093D8274093D7574093F8F80093F7F707B7
:100B6000B387F80283280700B387F8002320F70033
:100B70006FF05FFA13870500130300006FF05FFA50
:100B8000130101FE2328210113090600232A9100E5
:100B900013060700232441019384050037FAFFFF61
:100BA00093050900232E1100336A4701232C81008D
:100BB00023263101232251019309070023206101DB
:100BC00013040500938A0600EFF09FE19386090065
:100BD000130609009385040013050400EFF05FDBA2
:100BE00013060A009385040013050400EFF05FD29A
:100BF00093050000EF00806593860A00130B050043
:100C0000130609009385040013050400EFF05FE16B
:100C100013060A009385040013050400EFF05FCF6C
:100C200093050B00EF00806293860A00130B05000A
:100C3000130609009385040013050400EFF09FE3F9
:100C400013060A009385040013050400EFF05FCC3F
:100C500093050B00EF00805F93860A00130B0500DD
:100C6000130609009385040013050400EFF05FE804
:100C700013060A009385040013050400EFF05FC912
:100C800093050B00EF00805C33063041131606011C
:100C9000930405009305090013050400135606414B
:100CA000EFF01FD48320C1010324810113950401B7
:100CB00003290101832441018329C100032A810002
:100CC000832A4100032B0100135505411301010242
:100CD00067800000130101FF2324810013870500B2
:100CE000130406008325C5008326850003264500DE
:100CF0000325050023261100EFF09FE8930504006B
:100D0000032481008320C100130101016F000054FE
:100D1000938515009395050137380000373300009F
:100D2000130EF5FF93D5050193070000130700008C
:100D300093060000930EC002130F40001308C8E68C
:100D4000130383E3B388E600938F180063EACF01AF
:100D5000B307D6003387C740636EA70867800000DB
:100D600063060702B306D6003387E70083C2070095
:100D70009387170093861600A38F56FEE318F7FE9D
:100D8000B30816012380D80193860F0013F775006E
:100D90001307D7FF1317070193D715001357070140
:100DA00093F7C700636CEF00131727003307670042
:100DB00003270700B307F80067000700B307F80030
:100DC00083A707001307400093851500939505013D
:100DD00093D505016FF01FF783A707011307800064
:100DE0006FF09FFE83A707026FF05FFF83A70703E3
:100DF0006FF0DFFE23800700938717006FF09FF5E9
:100E00008326050037380000130700001303100085
:100E1000130EC002930E70001308C8E4130690006E
:100E2000130F50049308E00283C706006384070091
:100E3000631867002320D5001305070067800000B2
:100E400093861600E388C7FFE3E0EEFE931F2700BA
:100E5000B38F0F0183AF0F0067800F00938F07FDE3
:100E600093FFFF0F130740006376F603938F57FD40
:100E700093FFDF0F13072000638E0F00130750004E
:100E8000638A170183A74500130710009387170093
:100E900023A2F50083A705009387170023A0F50080
:100EA0006FF09FF803A78500938F07FD93FFFF0F57
:100EB00013071700637AF601639E170123A4E50068
:100EC000130750006FF05FF623A4E50013074000FE
:100ED0006FF09FF523A4E500130710006FF0DFF417
:100EE000639A170183A705019387170023A8F500CC
:100EF0006FF01FFD938707FD93F7F70FE376F6F288
:100F000083A705019387170023A8F5006FF0DFFC86
:100F100093FFF70D639CEF0183A745011307300092
:100F20009387170023AAF5006FF01FF0938707FD42
:100F300093F7F70FE37AF6EE83A74501938717003F
:100F400023AAF5006FF05FF903A7C500938757FD4B
:100F500093F7D70F1307170023A6E50013076000C8
:100F6000E39C07F66FF05FEC03A78501938707FD0D
:100F700093F7F70F1307170023ACE5001307700072
:100F8000E374F6EA6FF05FF5938707FD93F7F70FC9
:100F9000E37CF6E883A745009387170023A2F500BA
:100FA0006FF09FF3130101F8232C8106232A910689
:100FB0002328210723263107232441071384050012
:100FC00013890700232EB100232E11069304050078
:100FD000138A060093090700930500009307000297
:100FE000130701043307B70023200700130701028A
:100FF0003307B7002320070093854500E392F5FEF1
:101000008327C10183C70700639A0708232E810045
:10101000B30494001307C0028327C10163E8970A51
:10102000232E81008327C10183C707006390070C2B
:10103000232E81001307C0028327C10163EC970CA4
:10104000130400009304000293070102B387870092
:1010500003A5070093050900EF00001C9307010496
:10106000B38787009305050003A507001304440018
:10107000EF00801A13090500E31894FC8320C107D0
:101080000324810783244107032901078329C1061B
:10109000032A8106130101086780000093050104FB
:1010A0001305C1012326C100EFF09FD59307010668
:1010B000131525003385A700832705FC0326C100EF
:1010C000938717002320F5FC6FF09FF383C507007B
:1010D0006386E500B3C5C5002380B7008327C1013F
:1010E000B3873701232EF1006FF01FF3930501043E
:1010F0001305C101EFF0DFD093070106131525009A
:101100003385A700832705FC938717002320F5FC70
:101110006FF05FF103C607006306E6003346460141
:101120002380C7008327C101B3873701232EF10035
:101130006FF09FF01305F5FF9307400063ECA704E1
:10114000B73700009387C7F5131525003305F50061
:101150008327050067800700B737000003A507F85D
:1011600067800000B737000003A5C7F7678000005D
:10117000B737000003A5C7F867800000B737000045
:1011800003A587F867800000B737000003A587F73D
:10119000678000001305000067800000B74600006C
:1011A00093078000938626003786FFFF33C7A5008C
:1011B000137717001355150063040700B3C5D50056
:1011C00093D5150063080700B3E5C50093950501A5
:1011D00093D505019387F7FF93F7F70FE39807FC83
:1011E0001385050067800000130101FF232481009F
:1011F000130405001375F50F23261100EFF01FFAF5
:101200009305050013558400032481008320C10049
:10121000130101016FF09FF8130101FF23248100E6
:1012200013040500131505011355050123261100AC
:10123000EFF09FFB93050500135504010324810083
:101240008320C100130101016FF01FFA131505017E
:10125000135505016FF05FF913050000678000006A
:10126000732500C067800000F32700C037370000F7
:10127000232AF7F667800000F32700C03737000005
:101280002328F7F667800000B737000003A507F7AB
:10129000B737000083A747F73305F54067800000A4
:1012A00067800000930710002300F50067800000AE
:1012B000130101FF2326110023000500EFF0DFFCDE
:1012C0008320C100B707008023A4A70013010101F8
:1012D000678000001388070093F70704130101FBE0
:1012E000638C070AB7380000938888FB937708015E
:1012F000638407001378E8FF93771800930E0003C8
:1013000063940700930E00029377280013030000F4
:10131000638A070063D80508B305B0409386F6FFDB
:101320001303D002137F080263080F009307000124
:10133000631EF6089386E6FF6392050A930700038F
:101340002306F100930710009385070063D4E7009C
:101350009305070013771801B386B640630C070C9A
:10136000630603002300650013051500630C0F00DE
:10137000130780006318E60C130700032300E50041
:10138000130515001378080163040810B305B500B0
:10139000130600036F000011B7380000938808F9A6
:1013A0006FF0DFF493774800638807009386F6FFB9
:1013B0001303B0026FF01FF793778800E38407F6FA
:1013C0009386F6FF130300026FF0DFF593078000AA
:1013D000E314F6F69386F6FF6FF01FF6930700000E
:1013E000130EC10093871700B30FFE0033FEC50232
:1013F000B3D5C502338EC801034E0E00A38FCFFFB5
:10140000E39005FE6FF05FF413071700A30FF7FFDB
:10141000B308EE40E34A10FF1387060063D40600CA
:10142000130700009386F6FF3305E500B386E64018
:101430006FF01FF313070500330ED500930F000262
:101440006FF01FFD13070001E31EE6F21307000310
:101450002300E50013078007A300E500130525001E
:101460006FF05FF213071700A30FD7FF3306E840B2
:10147000E34AC0FE1387060063D40600130700008A
:101480009386F6FF3305E500B386E6406FF01FF064
:10149000130705003308D5006FF05FFD1305150035
:1014A000A30FC5FE3387A540E3CAE7FE13870700F5
:1014B00013060500634CE00263D4070093070000A5
:1014C000B307F50013870700B385D70013050002A3
:1014D0003386E540634AC00263D4060093060000E9
:1014E0003385D70013010105678000009305C10013
:1014F000B385E50083C5F5FF130616001307F7FF54
:10150000A30FB6FE6FF01FFB13071700A30FA7FE74
:101510006FF01FFCB70700802380A70067800000E2
:10152000130101BA232C8142232A914223206143D3
:10153000130405002322B14413058102930541449D
:10154000373B0000B73400002328214323263143D2
:1015500023244143232E114223225143232E714140
:10156000232C81412324C1442326D1442328E14450
:10157000232AF144232C0145232E11452326B100B3
:1015800013090500130A0002B7390000130B0BF909
:10159000938484FB834704006396070423000500BB
:1015A00093070900B706008003C70700338527416A
:1015B0006312075A8320C143032481438324414398
:1015C000032901438329C142032A8142832A4142DC
:1015D000032B0142832BC141032C8141130101469E
:1015E0006780000013075002638AE7002300F500BC
:1015F000938A0500130515006F004029930700002A
:101600009306B0021308D0029308000313030002EC
:10161000130E30026F00C001630807016316170341
:1016200093E717006F00800093E70701130406009B
:1016300003471400130614006308D702E3EEE6FC28
:1016400063086702630AC703930607FD93F6F60F64
:10165000130890006360D808930600009308900078
:101660001303A0006F00C00293E747006FF01FFC58
:1016700093E787006FF09FFB93E707026FF01FFB74
:10168000B386660213061600B3860601938606FD2E
:1016900003480600130708FD1377F70FE3F2E8FE8F
:1016A000034806001307E0026314E810034816001D
:1016B0009308900013041600130708FD1377F70F23
:1016C00063E4E80C13070000930890001303A000E4
:1016D0006F00C0031308A0029306F0FFE31207FD9A
:1016E00083A605001306240093854500E3DA06FA75
:1016F000B306D04093E707016FF09FFA3307670204
:101700001304140033070701130707FD03480400FF
:10171000130608FD1376F60FE3F2C8FE0348040033
:101720009308C0041306F0FF1373F80D631613013A
:1017300013060800130414000348040093089006DD
:101740006306180963EA080993081006630A181F5C
:1017500063E60807930810046302181F1306800548
:101760006304C83E930750026306F8002300F500A7
:101770001305150083470400E39A07E61304F4FFFA
:10178000938A05006F0080109308A00213070000E1
:10179000E31618F903A70500130426001386450075
:1017A0006354070013070000930506006FF01FF74E
:1017B000130406001307F0FF6FF05FF61306300600
:1017C000630EC80613064006E31EC8F893E7270019
:1017D0001306A0006F008005130630076304C80CD1
:1017E000636C06031306F0066306C80413060007BD
:1017F000E31AC8F61306F0FF6396C60093E71700D6
:1018000093068000938A45001306000183A5050016
:10181000EFF05FAC6F00800713065007E30AC8FAC9
:101820009308800713060001E31E18F3938A45000E
:101830006FF0DFFD130680006FF05FFF93F7070185
:10184000639A07023306D5006F00C000A38F47FFDD
:1018500013850700930715003307F640E348E0FEC1
:101860009387F6FF6344D00093061000B386D740F9
:101870009386160083A70500938A4500130515007B
:10188000A30FF5FE9386F6FF6348D00013041400FF
:1018900093850A006FF01FD013051500A30F45FFB5
:1018A0006FF05FFE938A450083A5050063940500F1
:1018B000938509FE3387E50013860500034806007B
:1018C000630408006318E60493F707013307B64082
:1018D000639807009386F6FF938716006340F7042A
:1018E000930705003386A7406340E604930707008B
:1018F00063540700930700003305F500B306D500D5
:10190000B387A640E354F7F813051500A30F45FF6E
:101910006FF01FFF130616006FF05FFA1305150036
:10192000A30F45FF6FF01FFB9385150003C6F5FF5E
:1019300093871700A38FC7FE6FF0DFFA93E70704C2
:101940001307C00683A80500938A45006314E614B4
:1019500013F70704138304006314070013030B0039
:101960001306000093050000930E6000130FA00300
:101970003387C8000347070013080141330EB8003E
:10198000135847001377F700330803013307E300C8
:1019900003480800034707001306160023000EC182
:1019A000A300EEC0138825006314D60593F7070142
:1019B000638E070493070000130601013306F60047
:1019C000034606003307F500938717002300C7007E
:1019D000E314F8FE33050501B306D500B387A6402E
:1019E000E356F8EA13051500A30F45FF6FF01FFF3C
:1019F0001307014133080701938535002300E8C12F
:101A00006FF01FF713051500A30F45FF9386F6FF30
:101A100093871600E348F8FE6FF0DFF913070141E2
:101A200013861B00B30B770123807BC0338708012B
:101A30000347070093050141930B1600338CC50043
:101A4000631E070623005CC013081800E318D8FDC6
:101A500093F707016382070E930700001306010145
:101A60003306F600034606003307F5009387170098
:101A70002300C700E39477FF33057501B306D50053
:101A8000B387A640E3D4FBE013051500A30F45FF81
:101A90006FF01FFF1308000013060000130F30063D
:101AA000930F90001303A000130E4006930200034F
:101AB000930E40009303E0026FF05FF7635AEF0468
:101AC000B345C703130626003367C703B305BB003E
:101AD00083C505002300BCC093050141B38B75018C
:101AE000B345670233676702B305BB0083C50500D2
:101AF0002380BBC03307EB00034707009305014178
:101B0000930B16003386C5002300E6C06FF0DFF3A9
:101B1000E3D2EFFE334667023306CB0003460600EE
:101B2000336767022300CCC013860B006FF09FFC65
:101B300013051500A30F45FF9386F6FF9387160044
:101B4000E3C8FBFE6FF05FF193E7070413060001A3
:101B50006FF0DFCD2380E600938717006FF0DFA4DE
:101B6000402600004826000050260000130101F71F
:101B7000138605002326A1009305C1001305E10586
:101B800023261108232481082322910823202109D8
:101B9000232E3107232C4107232A510723286107CD
:101BA0002326710723248107232291072320A107DD
:101BB000EFF04FEF13051000EFF0CFD7231EA10079
:101BC00013052000EFF00FD7231FA10013053000ED
:101BD000EFF04FD62310A10213054000EFF08FD590
:101BE000232CA10213055000EFF0CFD4630405208D
:101BF000232EA1028327C101639A07000317010264
:101C000063160700130760062310E1021307100094
:101C10006390E70283170102639C0700B73715340E
:101C200093875741232EF100930760062310F1029A
:101C30008326C103B72700009387876613F8160031
:101C40002322F10213150801231E010493F7260035
:101C500013550501638407001305150093F746002B
:101C600063880700130515001315050113550501B9
:101C70009307007D33D5A7021307000093070000E8
:101C80001303100093083000232AA1023316E30047
:101C90003376D60063060602338EA7029305C10190
:101CA000131627003386C50083254102938717004A
:101CB0009397070193D70701B385C5012326B60083
:101CC00013071700E31417FD630A08000316C10188
:101CD00083258102EFE01F9D2320A1048327C103F8
:101CE00093F72700638207028317E1010316C101FE
:101CF0008325C102032541039397070193064104FD
:101D000033E6C700EFE01FB28327C10393F7470014
:101D1000638A0700032601038315C10103254103DC
:101D2000EFE01FFF832781036396070493071000EA
:101D3000232CF1021304A00083278103B3878702B9
:101D4000232CF102EFF04FD21305C101EFE0CFAC2D
:101D5000EFF08FD2EFF04FD3EFF08FD4E30E05FC0E
:101D60003354A402032581031304140033048502B1
:101D7000232C8102EFF04FCF1305C101EFE0CFA973
:101D8000EFF08FCFEFF04FD0130B05000315C1011B
:101D90009305000037390000EFF04FCB93050500A5
:101DA0000315E101EFF08FCA930505000315010249
:101DB000EFF0CFC99305050003154103EFF00FC9FC
:101DC000B7870000938757B0130A0500630EF50824
:101DD00063E8A702B72700009387278F630AF50AF5
:101DE000B75700009387F7EA630AF5081304F0FF7A
:101DF0006F00C01993077000232EF1026FF09FDF70
:101E0000B7970000938727A06302F502B7F7000099
:101E10009387579FE31CF5FC372500001305852E9B
:101E2000EFF00FF0930730006F00400137250000FE
:101E300013058525EFF0CFEE93070000B72A0000C9
:101E400093971700938A4A23130400009304000019
:101E5000930B4004B38AFA00372C0000B72C000023
:101E6000372D00006F00001237250000130585286C
:101E7000EFF00FEB930710006FF05FFC37250000C9
:101E80001305452BEFF0CFE9930720006FF01FFB00
:101E90003725000013058531EFF08FE893074000E8
:101EA0006FF0DFF9B389740393070106B389370133
:101EB00083A7C9FD239E09FE93F7170063840702D9
:101EC00003D669FF83D60A00630ED600938504000B
:101ED00013054C34EFF0CFE483D7C9FF9387170085
:101EE000239EF9FEB389740393070106B389370172
:101EF00083A7C9FD93F727006384070203D689FFF0
:101F000083D6CA00630ED6009385040013854C3730
:101F1000EFF00FE183D7C9FF93871700239EF9FEE7
:101F2000B389740393070106B389370183A7C9FDF9
:101F300093F747006384070203D6A9FF83D68A017B
:101F4000630ED6009385040013058D3AEFF04FDD44
:101F500083D7C9FF93871700239EF9FEB3877403C5
:101F600013070106938414009394040193D404018D
:101F7000B307F70003D5C7FF3304A400131404010B
:101F800013540441832749F8E3EEF4F0EFF0CFACAB
:101F90008325410333048500372500001305853D63
:101FA000EFF00FD83725000093050B001305053F10
:101FB000EFF00FD713050B00EFF08FAE9305050080
:101FC0003725000013058540EFF08FD51314040169
:101FD00013050B0013540401EFF08FAC63040502EA
:101FE000832549F88324810313050B00B384B402CD
:101FF000EFF00FABB3D5A40237250000130505425F
:10200000EFF00FD213050B00EFF08FA993079000AC
:1020100063F2A70A832749F8832581033725000047
:1020200013058547B385F5021314040113540441C5
:10203000EFF00FCFB7250000372500009385054945
:102040001305C549EFF0CFCDB725000037250000B7
:102050009385454B1305854BEFF08FCCB7250000DA
:10206000372500009385054D1305854DEFF04FCBC7
:102070003725000093050A001305054FEFF04FCAFE
:102080008327C10393F71700639A07068327C103C9
:1020900093F727006396070A8327C10393F7470046
:1020A0006392070E9304000093094004372A00004E
:1020B0006F00C0103725000013058543EFF04FC6B1
:1020C000130414006FF01FF5B387340313070106E0
:1020D00093850400938414001305CA50939404015B
:1020E00093D40401B307F70003D667FFEFF04FC3A3
:1020F000832749F8E3EAF4FC6FF05FF993040000EA
:1021000093094004372A00006FF09FFEB387340321
:1021100013070106938504009384140013058A5263
:102120009394040193D40401B307F70003D687FF07
:10213000EFF00FBF832749F8E3EAF4FC6FF0DFF517
:102140009304000093094004372A00006FF09FFEBB
:10215000B3873403130701069385040093841400A6
:1021600013054A549394040193D40401B307F70070
:1021700003D6A7FFEFF0CFBA832749F8E3EAF4FCD0
:102180006FF05FF29304000093094004372A0000C7
:102190006FF09FFEB3873403130701069385040095
:1021A0009384140013050A569394040193D40401F4
:1021B000B307F70003D647FFEFF08FB6832749F840
:1021C000E3EAF4FC631A0404372500001305C5573D
:1021D000EFF00FB51305E105EFF08F8D8320C108F7
:1021E0000324810883244108032901088329C107A6
:1021F000032A8107832A4107032B0107832BC1068A
:10220000032C8106832C4106032D010613050000D3
:102210001301010967800000635880003725000022
:102220001305855C6FF0DFFA372500001305C55DE7
:102230006FF01FFAB0D44033796A14E7C1E30000AD
:1022400052BE99110856D71F47070000475EBF3995
:10225000A4E53A8E848D0000366B20706572666F3F
:10226000726D616E63652072756E20706172616D52
:10227000657465727320666F7220636F72656D613D
:10228000726B2E0A00000000366B2076616C696468
:102290006174696F6E2072756E20706172616D6518
:1022A0007465727320666F7220636F72656D617200
:1022B0006B2E0A0050726F66696C652067656E65EB
:1022C000726174696F6E2072756E20706172616DDB
:1022D000657465727320666F7220636F72656D61DD
:1022E000726B2E0A00000000324B20706572666F20
:1022F000726D616E63652072756E20706172616DC2
:10230000657465727320666F7220636F72656D61AC
:10231000726B2E0A00000000324B2076616C6964FB
:102320006174696F6E2072756E20706172616D6587
:102330007465727320666F7220636F72656D61726F
:102340006B2E0A005B25755D4552524F5221206C61
:102350006973742063726320307825303478202DBF
:102360002073686F756C6420626520307825303486
:10237000780A00005B25755D4552524F5221206D51
:102380006174726978206372632030782530347804
:10239000202D2073686F756C64206265203078256D
:1023A0003034780A000000005B25755D4552524FBD
:1023B0005221207374617465206372632030782524
:1023C000303478202D2073686F756C64206265202E
:1023D0003078253034780A00436F72654D61726B36
:1023E0002053697A65202020203A20256C750A0048
:1023F000546F74616C207469636B732020202020FB
:10240000203A20256C750A00546F74616C20746941
:102410006D65202873656373293A2025640A0000DE
:10242000497465726174696F6E732F536563202000
:10243000203A2025640A00004552524F5221204D77
:10244000757374206578656375746520666F722096
:102450006174206C6561737420313020736563731F
:1024600020666F7220612076616C696420726573EA
:10247000756C74210A000000497465726174696F9B
:102480006E73202020202020203A20256C750A0021
:10249000474343372E322E3000000000436F6D70EB
:1024A000696C65722076657273696F6E203A2025BB
:1024B000730A00002D4F3200436F6D70696C6572B6
:1024C00020666C6167732020203A2025730A000083
:1024D000535441434B0000004D656D6F7279206C81
:1024E0006F636174696F6E20203A2025730A0000C3
:1024F00073656564637263202020202020202020E3
:10250000203A203078253034780A00005B25645D5D
:102510006372636C697374202020202020203A208D
:102520003078253034780A005B25645D6372636D12
:10253000617472697820202020203A20307825307C
:1025400034780A005B25645D63726373746174653B
:102550002020202020203A203078253034780A00AE
:102560005B25645D63726366696E616C2020202068
:1025700020203A203078253034780A00436F727278
:10258000656374206F7065726174696F6E20766127
:102590006C6964617465642E205365652052454101
:1025A000444D452E6D6420666F722072756E2061F9
:1025B0006E64207265706F7274696E672072756CDC
:1025C00065732E0A000000004572726F72732064FA
:1025D000657465637465640A0000000043616E6E93
:1025E0006F742076616C6964617465206F706572C8
:1025F0006174696F6E20666F722074686573652000
:10260000736565642076616C7565732C20706C65EC
:1026100061736520636F6D7061726520776974689E
:1026200020726573756C7473206F6E2061206B6E01
:102630006F776E20706C6174666F726D2E0A000089
:1026400053746174696300004865617000000000A4
:10265000537461636B004743433A2028474E552922
:1026600020372E322E300000000000000000000055
:10267000000000000000000000000000000000005A
:10268000000000000000000000000000000000004A
:10269000000000000000000000000000000000003A
:1026A000000000000000000000000000000000002A
:102E30000000000000000000D80D0000D80D0000C8
:102E4000E40D0000E40D0000EC0D00005C0E00003D
:102E5000280E0000A40E0000480F0000E00E000045
:102E6000100F0000680F0000880F00003C2F0000CA
:102E7000442F00004C2F0000542F00000C2F0000A6
:102E8000182F0000242F0000302F0000DC2E00003F
:102E9000E82E0000F42E0000002F0000AC2E0000F1
:102EA000B82E0000C42E0000D02E000054302E3367
:102EB000652D3146000000002D542E542B2B5471EB
:102EC000000000003154332E3465347A00000000D5
:102ED00033342E30652D545E00000000352E353021
:102EE00030652B33000000002D2E313233652D323A
:102EF000000000002D3837652B3833320000000009
:102F00002B302E36652D31320000000033352E3542
:102F100034343030000000002E313233343530305C
:102F2000000000002D3131302E373030000000001D
:102F30002B302E3634343030000000003530313242
:102F40000000000031323334000000002D383734E7
:102F5000000000002B313232000000005811000048
:102F600064110000701100007C1100008811000045
:102F70000000000000000000000000000000000051
:102F800000000000010000000100000066000000D9
:102F900030313233343536373839616263646566CF
:102FA0006768696A6B6C6D6E6F7071727374757639
:102FB0007778797A00000000303132333435363793
:102FC00038394142434445464748494A4B4C4D4EA7
:102FD0004F505152535455565758595A00000000FB
:082FE0003C4E554C4C3E000034
:00000001FF
