:1000000037010100EF20100A370500801305450075
:100010002320050073001000130101FE2328210195
:100020000329C501232E1100232C8100232A9100CE
:1000300023263101232C0502232E0502630A09041D
:100040001304050093040000B73900001385490527
:10005000EF10D07F9305100013050400EF00404A15
:1000600083558403EF105042231CA4029305F0FF34
:1000700013050400EF00C04883558403EF10D040FF
:10008000231CA4026386040293841400E31099FCE9
:100090008320C1010324810183244101032901013B
:1000A0008329C100130500001301010267800000CD
:1000B000231DA4026FF05FFD631E06028317050077
:1000C00013970701135707011357870093F707F09A
:1000D000B3E7E7002310F5008397050013970701A6
:1000E0001357070193F707F013578700B3E7E700AB
:1000F0002390F50003152500839725003305F5406F
:1001000067800000130101FE232C81000314050009
:1001100023282101232E110093577440232A910094
:100120002326310193F717001379F4076392070828
:10013000938405009355344093F5F500939745005B
:1001400013777400B3E5B7009309050083D78403E0
:1001500063000708930610006316D7021386070092
:1001600013858402EF10402D83D7C40313190501B2
:100170001359094163940700239EA40283D7840383
:100180006F0080001309040013150901938507000F
:1001900013550501137404F0EF10102F1379F907AC
:1001A00013640408239CA40233648900239089000B
:1001B0008320C10103248101130509008324410127
:1001C000032901018329C100130101026780000096
:1001D000930620021387050063D4D500130720027D
:1001E000839624000396040083A5440103A584019B
:1001F0001377F70FEF10C07B83D7E40313190501C2
:1002000013590941E39C07F6239FA40283D7840373
:100210006FF09FF7130101FF2320210113890500CF
:100220009305060023261100232481002322910038
:1002300013040600EFF01FED93040500930504007E
:1002400013050900EFF01FEC8320C1000324810097
:100250003385A440032901008324410013010101D7
:100260006780000003970500839725002310E500B1
:100270002311F5006780000003280600930888001A
:1002800063F6E80403A70600130347006370F30452
:100290002320160183270500839805000396250077
:1002A0002320F800232005012322E80083A706006D
:1002B000130508009387470023A0F6008327480012
:1002C000239017012391C7006780000013080000E6
:1002D00013050800678000008327050003264500FA
:1002E0001307050083A5470083A6070013850700B1
:1002F0002322B70023A2C7002320D70023A0070092
:100300006780000003A645008326450003A705007B
:100310002322C50023A2D5002320E50023A0A500A9
:100320006780000003972500634807026304050205
:100330008327450083972700639AE7006F00000535
:1003400083274500839727006386E7000325050080
:10035000E31805FE67800000E30E05FE83274500D5
:100360000397050083C70700639AE7006F00400208
:100370008327450083C707006388E700032505003E
:10038000E31805FE6FF01FFD678000006780000026
:100390006780000063000502130700006F00800003
:1003A00013850700832705002320E50013070500B8
:1003B000E39807FE67800000130101FD232C410133
:1003C000232A510123267101232481012320A10125
:1003D00023261102232481022322910223202103B8
:1003E000232E31012328610123229101130A0500E4
:1003F000138C0500930B0600930A1000130D1000D8
:10040000630E0A0A930C000013090000130B00008E
:10041000938C1C0013040A009304000003240400BE
:100420009384140063040400E39A9AFE93890A00FB
:10043000638E0402638E0904630C04048325440064
:1004400003254A0013860B00E7000C006352A0044A
:1004500093070400032404009389F9FF630409024D
:100460002320F90013890700E39604FC638A09023C
:10047000630C0402930704009389F9FF032404002A
:10048000E31009FE138B0700138907006FF0DFFDEF
:1004900093070A009384F4FF032A0A006FF01FFCFD
:1004A000130A0400E31604F623200900638CAC0150
:1004B000939A1A00130A0B006FF09FF42320000098
:1004C000730010008320C1020324810213050B0076
:1004D00083244102032901028329C101032A8101E6
:1004E000832A4101032B0101832BC100032C8100CE
:1004F000832C4100032D01001301010367800000DC
:10050000130101FC232C8101031C4500232C8102D3
:1005100023206103232E7101232E1102232A91022D
:1005200023282103232631032324410323225103BB
:10053000232A91012328A1012317B100930B050061
:10054000138B050003244502635A8025138D050093
:1005500013090000130A000093090000930400002F
:10056000930AC100B74C00009377F90F93850A00F6
:10057000130504002316F100EFF0DFDA6300040234
:10058000130700006F008000138407008327040016
:100590002320E40013070400E39807FE6306050820
:1005A00083274500938919009399090183970700D0
:1005B00093D9090113F71700630C070093D79740ED
:1005C00093F71700B384F4009394040193D40401C7
:1005D00083270500638C070003A707002320E5009D
:1005E0000327040023A0E7002320F40063460D0046
:1005F000130D1D002317A10193050900138709009E
:1006000093060A001386040013858CCA1309190087
:10061000EF10D0239317090193D7074163DC8703B9
:10062000031DE1006FF05FF483270400130A1A0032
:10063000131A0A0183A74700135A0A018387170078
:1006400093F71700B384F4009394040193D4040146
:100650006FF0DFF993992900338A4941B38444014B
:100660009394040193D40401635E6001B705000014
:100670001305040013860B0093854521EFF0DFD3AB
:10068000130405008327040093850A001305040062
:1006900083A9070083A6470003A6490003A7090012
:1006A00023A2C70023A2D90023A0E70023A00900AA
:1006B000EFF05FC713090500630C050C83274400A6
:1006C0009385040003950700EF1040670329090094
:1006D00093040500E31409FE3745000093850400E8
:1006E000130545CCEF1090168327040083A649001C
:1006F0001305040083A5470003A7070013060000A5
:1007000023A2B90023A2D70023A0E900B705000067
:1007100023A037019385850BEFF01FCA0324050042
:100720001309050063000402832749009385040030
:1007300003950700EF108060032404009304050074
:10074000E31404FE3745000093850400130585CDAE
:10075000EF10D00F8320C10303248103138504000D
:1007600003290103832441038329C102032A81024F
:10077000832A4102032B0102832BC101032C810137
:10078000832C4101032D0101130101046780000046
:1007900003290400E30209F46FF05FF29304000000
:1007A000930AC1006FF05FEC130101FE232C81005E
:1007B0001304050037450000232441011305C5CE6D
:1007C000138A050093050400232A910023282101A0
:1007D000232631012322510123206101232E110000
:1007E000930A0600EF109006930740013354F40279
:1007F000B787FFFF23200A009386070813070A0123
:1008000013098A001304E4FF93143400B3049A001C
:1008100023229A00131B2400239104002390D40068
:10082000338B640193894400637697009386840038
:1008300063E466173745000093050400130545D0AF
:10084000EF10D00083250A00630A040693980A017A
:100850003788FFFF93D80801130700001348F8FFFB
:1008600013068900138549006376960493160701E1
:1008700093D60601B3C716019397370093F6760017
:1008800093F78707B3E7D70093968700B3E7F6009F
:10089000637265032320B90023202A012322390132
:1008A0002390F9002391090193050900930905009C
:1008B0001309060013071700E314E4FA9307500026
:1008C000374800003354F402130700209306100049
:1008D0001308F8FF6F00C0012391D500130707101C
:1008E0001317070193861600135707019305060097
:1008F00003A605009377077033C55601B3E7A70039
:10090000B3F70701630A060083A54500E3E686FC0A
:100910002391F5006FF09FFCB70500009385850BD0
:1009200013050A00EFF05FA9130905003745000021
:10093000130505D1EF108071630409021304090047
:10094000B744000083274400138544D203D6070030
:1009500083952700EF10806F03240400E31404FE46
:10096000373500001305452EEF10406E8320C1017E
:100970000324810113050900832441010329010196
:100980008329C100032A8100832A4100032B01002F
:10099000130101026780000023202A0123263A0167
:1009A00023240A0093C7F7FF1306F0FF2392C40025
:1009B0002393F40093890600130907006FF09FE763
:1009C000130101FD23202103232A5101138905006E
:1009D000930A0500374500009305060093060900B9
:1009E00013060900130505D32326110223248102CF
:1009F00023229102232E3101232C4101232861015E
:100A00002326710123248101EF104064630C090443
:100A1000131C1900130B0000374A0000B73B0000FD
:100A2000B749000093840A00130400006F00C0005F
:100A3000EF10C061938424008395040013058AD4C9
:100A400013041400EF108060138549D4E31289FE6B
:100A500013854B2E130B1B00EF10405FB38A8A01E6
:100A6000E3122BFD8320C10203248102832441026F
:100A7000032901028329C101032A8101832A41013B
:100A8000032B0101832BC100032C810013010103FF
:100A900067800000130101FD23202103232A510157
:100AA00013890500930A05003745000093050600E9
:100AB0009306090013060900130505D32326110226
:100AC0002324810223229102232E3101232C410170
:100AD000232861012326710123248101EF1000578F
:100AE000630C0904131C2900130B0000374A000093
:100AF000B73B0000B749000093840A0013040000CC
:100B00006F00C000EF1080549384440083A504005C
:100B100013058AD413041400EF104053138549D4ED
:100B2000E31289FE13854B2E130B1B00EF100052AE
:100B3000B38A8A01E3122BFD8320C10203248102C0
:100B400083244102032901028329C101032A81016F
:100B5000832A4101032B0101832BC100032C810057
:100B60001301010367800000130101FF2326110018
:100B70002324810023229100631406001306100031
:100B80009384F5FF93F4C4FF138F44001304000013
:100B9000631605006F00001113040700130714000B
:100BA000B307E70293973700E3E8A7FEB303840295
:100BB000930F040093931300B3047F0063040408AD
:100BC000370E01009302000013031000B30E9F4084
:100BD00093101400130EFEFF338550021307030019
:100BE0003385A4003306E6029317070193D7070164
:100BF000B388AE00130525001307170033086740BC
:100C00009355F64193D505013306B6003376C601F8
:100C10003306B640B385C7009395050193D505010A
:100C2000B387B700231FB5FE93F7F70F2390F800A3
:100C3000E36A88FA9382120063F6820013030700C6
:100C40006FF09FF9B38774009387F7FF93F7C7FF9F
:100C500093874700374600009305040013050F00F3
:100C600023A496001306C6D423A2E60123A6F60009
:100C700023A0F601EFF0DFD437460000138504000F
:100C800093050400130606D5EFF09FD31305040067
:100C90008320C1000324810083244100130101014A
:100CA0006780000093846400930FF0FF1304F0FF4B
:100CB000930320006FF0DFF0630A0508330FA040B4
:100CC00093172500B385F500931F2F00130E000026
:100CD000930700009306000093080000131F3F00D5
:100CE000B38EBF0013870E006F00C001931703017E
:100CF0001307470093D707419308000093060800A5
:100D0000638CE502032807009397070193D7070137
:100D1000B3A60601B38808011383A700B387D700E1
:100D2000E34616FD939707011307470093D7074142
:100D300093060800E398E5FC130E1E00B385EE4110
:100D4000E310C5FB138507006780000093070000D0
:100D50001385070067800000630E0502131E15004F
:100D600013132500930800003308CE0013870500F5
:100D7000831706001307470013062600B387D70220
:100D8000232EF7FEE31606FF93881800B38565004F
:100D9000E31C15FD67800000630A050213160601B7
:100DA0001356060113181500930600003307B80008
:100DB00083D7050093852500B307F600239FF5FE32
:100DC000E318B7FE93861600E312D5FE6780000095
:100DD00063060504931E150013152500338EA50028
:100DE0003383D6019387060013050600130800001D
:100DF0000317050083980700938727001305250034
:100E0000330717033308E800E314F3FE23A00501BA
:100E1000938545003306D601E316BEFC67800000CB
:100E200063000508131E1500130101FF232681002E
:100E3000B30EC60113142500B382C601930300004C
:100E4000138F0600938F050013080F009307060009
:100E500093080000039707000313080093872700F7
:100E60003308C80133076702B388E800E394FEFE45
:100E700023A01F01130F2F00938F4F00E396E2FD75
:100E8000938313003306C601B38ECE01B38585006C
:100E9000E31875FA0324C100130101016780000003
:100EA00067800000630A0508131E1500130101FF87
:100EB00023268100B30EC60113142500B382C60198
:100EC00093030000138F0600938F050093080F0013
:100ED0001308060013030000039708008317080097
:100EE00013082800B388C801B387E70213D7274047
:100EF00093D757401377F70093F7F707B307F70235
:100F00003303F300E39A0EFD23A06F00130F2F00AD
:100F1000938F4F00E39CE2FB938313003306C601DB
:100F2000B38ECE01B3858500E31E75F80324C1009E
:100F3000130101016780000067800000130101FBBD
:100F4000232481042322910423202105232C4103FF
:100F50002326110437FAFFFF232E3103232A5103DE
:100F60002328610323267103232481032322910371
:100F70002320A103232EB10113840500930406004E
:100F800013890600336A47016306053C931A07017B
:100F9000130D070093DA0A01131C1500930B0600CA
:100FA00093070600930900003306FC0083D6070070
:100FB00093872700B386DA00239FD7FEE318F6FE57
:100FC0009389190093070600E31035FF37460000A8
:100FD00013850400130646D593850900EFF05F9E44
:100FE000139B2900930C040013050400938704004D
:100FF00013070000B38587011306050083960700D9
:101000001306460093872700B386A603232ED6FE39
:10101000E396B7FE1307170033056501E31C37FDA0
:10102000B30D3041330D640113972D0093080D006B
:101030001305000093070000930500001303000050
:10104000939D3D00330E170113060E006F00C00183
:1010500013150801130646001355054193050000BA
:1010600093870600638CC8028326060013150501CA
:1010700013550501B3A7D700B385D5001308A50004
:101080003305F500E346BAFC1315050113064600C7
:101090001355054193870600E398C8FC130313001A
:1010A000B308BE41E31033FB930500002326E100A3
:1010B000EF00D048374600002324A100130686D64F
:1010C0009385090013050400EFF0DF9C93050400ED
:1010D000138509009306090013860400EFF05FCF23
:1010E000832881000327C100130500009307000037
:1010F0009305000013030000330EA70113060E0032
:101100006F00C00113150801130646001355054171
:101110009305000093870600630CCD02832606002A
:101120001315050113550501B3A7D700B385D500E5
:101130001308A5003305F500E346BAFC13150501B5
:10114000130646001355054193870600E318CDFCAE
:1011500013031300330DBE41E31033FB93850800E6
:10116000EF00D03D374600001306C6D7938509002F
:10117000130D050013050400EFF0DF91930609003D
:10118000138509001386040093050400EFF05FC97E
:1011900013030400130500009307000093060000EA
:1011A0009308000093050300130600006F0000027F
:1011B0001315080113061600135505419306000088
:1011C0009385450093070700637E360303A7050058
:1011D0001315050113550501B3A7E700B386E60013
:1011E0001308A5003305F500E344DAFC13150501E7
:1011F0001306160013550541938545009307070014
:10120000E36636FD9388180033036301E3EC38F995
:1012100093050D00EF009032374600001306C6D844
:1012200093850900130D050013050400EFF09F8658
:101230009306090013850900138604009305040032
:10124000EFF05FC61305000093070000930600004F
:101250009308000093850C00130600006F00000245
:1012600013150801130616001355054193060000D7
:101270009385450093070700637E360303A70500A7
:101280001315050113550501B3A7E700B386E60062
:101290001308A5003305F500E344DAFC1315050136
:1012A0001306160013550541938545009307070063
:1012B000E36636FD93881800B38C6C01E3EC38F9D3
:1012C00093050D00EF00902737460000130606DA5D
:1012D000930405009385090013050400EFF08FFBCC
:1012E0001306000093870B009306000003D7070046
:1012F000938727009386160033075741239FE7FE05
:10130000E3E636FF13061600B38B8B01E36C36FD64
:101310008320C104032481041395040103290104DB
:10132000832441048329C103032A8103832A4103BF
:10133000032B0103832BC102032C8102832C410266
:10134000032D0102832DC101135505411301010530
:101350006780000037460000130646D51385040059
:1013600093050000EFF0CFE59305000013050000A2
:10137000EF00D01C3746000093090500130686D6FF
:101380001305040093050000EFF0CFF09306090069
:10139000138604009305040013050000EFF05FA31B
:1013A0009385090013050000EF005019374600002F
:1013B000930905001306C6D7130504009305000022
:1013C000EFF04FED93060900138604009305040027
:1013D00013050000EFF0DFA493850900130500005A
:1013E000EF00D01537460000930905001306C6D854
:1013F0001305040093050000EFF0CFE91386040005
:10140000930609009305040013050000EFF09FA95F
:101410009385090013050000EF00501237460000C5
:1014200093040500130606DA930500001305040073
:10143000EFF04FE66FF0DFED130101FF2324810091
:1014400013870500130406008325C5008326850045
:10145000032645000325050023261100EFF01FAEEB
:1014600093050400032481008320C10013010101BE
:101470006F00D00C130101FB23229104232291035E
:1014800093040500938C0500930505003745000083
:10149000232A5103130545E1930A060013860C0025
:1014A0002324810423202105232E3103232C4103EF
:1014B0002328610323267103232481032320A1030E
:1014C000232EB101374A000023261104930D00009A
:1014D000EF00D0371304000093070ADC938C1C0044
:1014E000330AB401939C0C01B74900001389F4FF3F
:1014F0002326F100130C1A0093DC0C01130D0000DD
:10150000B74B0000130B4000938949DD63762C072D
:101510009305040013854BE2EF00503363920D0EE8
:1015200093F77C009387D7FF9397070113D73C006D
:1015300093D7070113773700636AFB108326C10036
:101540009397270013172700B387D70083A70700B7
:101550003387E90067800700032D0701930D8000A2
:10156000938C1C00330AB401939C0C01130C1A00D9
:1015700093DC0C01E36E2CF96374940233898A00C6
:10158000B749000093050400138509E3EF00102C10
:10159000130414002300090013091900E39484FEC6
:1015A000373500001305050AEF00502A0324810493
:1015B0008320C10483244104032901048329C10336
:1015C000032A8103032B0103832BC102032C810215
:1015D000832C4102032D0102832DC10193850A0052
:1015E000832A4103374500001305C5E313010105B4
:1015F0006F00D025032D0702930D80006FF05FF67A
:1016000093070D0033848A00B30DBD0103C70700A3
:101610001304140093871700A30FE4FEE398B7FFA9
:101620009307C002B3864A012380F60093F77C003B
:101630009387D7FF9397070113D73C0093D70701F0
:1016400013040C0013773700E37AFBEE131727001F
:101650003387E900032D0700930D40006FF05FF022
:10166000032D0703930D80006FF09FEF8327050084
:1016700003C70700630407069306C002138617001A
:101680006304D72A03A80500930807FD93F8F80F11
:1016900013039000130818006368130523A00501C5
:1016A00003C717006304072C93872700630ED70C2A
:1016B0001308E002930890001303C002930607FD8D
:1016C00093F6F60F6306070D63F4D82083A6050191
:1016D000130710009386160023A8D5002320F500D9
:1016E00013050700678000009308B002630C17031E
:1016F0009308D002630817039308E002630C1723D2
:1017000003A7450023A00501930706001307170050
:1017100023A2E500130710002320F500130507009E
:101720006780000023A0050103C817006304082296
:10173000138627006300D82283A68500130708FDBF
:101740001377F70F930890009386160063F2E80270
:101750001307E002630AE81A23A4D50093070600E2
:10176000130710002320F500130507006780000011
:1017700023A4D50003C72700630A071E9306C002EF
:1017800093071600E316D7F2130740006FF01FF51A
:1017900003A705011307170023A8E5000347160058
:1017A000630E071C9306C00213881700630ED71838
:1017B000930607FD130650041377F70D9308900066
:1017C0001303C00293F6F60F6308C70263E2D81250
:1017D00003C717009306180093070800630607164F
:1017E0006302671C13880600930607FD1377F70D45
:1017F00093F6F60FE31CC7FC03A745011307170078
:1018000023AAE50003C71700630C07141306C002E0
:10181000930718006308C71483A6C500130757FD74
:101820001377D70F9386160023A6D500630A070007
:10183000130710002320F500130507006780000040
:101840000347180063000714930628006300C714B9
:1018500083A78501130707FD1377F70F93871700F9
:101860009308900023ACF50063F8E8009387060026
:10187000130710006FF01FFC03472800630E0710CA
:10188000930738006302C704130690009308C00250
:10189000130707FD1377F70F637CE60083A6450067
:1018A000130710009386160023A2D5006FF01FE3E4
:1018B00003C7160013881700938607006306070006
:1018C00093070800E31617FD130770006FF01FE180
:1018D000034716009386170013860700E30607EAFE
:1018E00093870600E31C67DC130740006FF01FDFDF
:1018F00083A645019307080013071000938616007E
:1019000023AAD5006FF09FDD23A4D50003C72700CD
:10191000630407069307C002130816006306F70264
:10192000930706006FF0DFE8930706001307000037
:101930006FF0DFDA23A0050103C71700630E07026B
:1019400013882700E31ED7FC9307080013075000F5
:101950006FF0DFD893070600130720006FF01FD841
:1019600093070800130730006FF05FD79307060056
:10197000130740006FF09FD693070600130750002F
:101980006FF0DFD5130760006FF05FD59387060017
:10199000130760006FF09FD4938706001307700051
:1019A0006FF0DFD393870600130750006FF01FD34B
:1019B000130101F82324410723206107232C81050B
:1019C0002328A105130C0600138B0600130A070039
:1019D000130D05003745000013870700232C8106EF
:1019E00093060A001384050013060B0093050C00F0
:1019F000130505E5232A910623282107232631070D
:101A0000232E11069389070023225107232E7105E7
:101A1000232A91059304010123268100EF0000632E
:101A200013090103930601051387040093070103BB
:101A300023A00700232007009387470013074700D0
:101A4000E398D7FE8327C10083C707006384070498
:101A5000930CC100B74A00009305010313850C00E5
:101A6000EFF0DFC09317250013070105B307F70058
:101A700003A707FC930505001385CAE613071700A3
:101A800023A0E7FCEF00805C8327C10083C7070029
:101A9000E39407FCB73B000013854B2EEF00005B7F
:101AA000330DA40123268100637AA4119307040057
:101AB0001306C00203C70700B34687016304C700CB
:101AC0002380D7008327C100B38747012326F10075
:101AD000E3E2A7FF8347040023268100638C070EFF
:101AE000930CC100B74A00009305010313850C0055
:101AF000EFF0DFB79317250013070105B307F700D1
:101B000003A707FC930505001385CAE61307170012
:101B100023A0E7FCEF0080538327C10083C70700A1
:101B2000E39407FC13854B2EEF00405223268100DF
:101B30006374A4039306C0028347040033C767019C
:101B40006384D7002300E4000324C100330444016C
:101B500023268100E362A4FF1384040203A504008A
:101B60009385090093844400EF00001A9305050053
:101B70000325090013094900EF0000199309050026
:101B8000E39E84FC8320C10703248107832441074B
:101B9000032901078329C106032A8106832A4106F6
:101BA000032B0106832BC105032C8105832C4105E2
:101BB000032D01051301010867800000834704001D
:101BC000E39007F213854B2EEF0040482326810057
:101BD0006FF09FF813854B2EEF00404723268100BE
:101BE0006FF05FF59307500063ECA704B747000060
:101BF000938707F2131525003305F50083270500A9
:101C000067800700B747000003A507F4678000005E
:101C1000B747000003A587F467800000B7470000BE
:101C200003A547F467800000B747000003A547F508
:101C300067800000B747000003A507F56780000034
:101C4000130500006780000037A6FFFF93078000A0
:101C50001306160033C7A5009387F7FF93D5150029
:101C60001377170093F7F70FB3C6C5001355150088
:101C7000630607009395060193D50501E39C07FCD5
:101C8000138505006780000037A8FFFF9376F50FE6
:101C9000930780001308180033C7D5009387F7FF18
:101CA00093D515001377170093F7F70F33C6050187
:101CB00093D61600630607009315060193D5050118
:101CC000E39C07FC37A6FFFF1355850093078000B0
:101CD0001306160033C7A5009387F7FF93D51500A9
:101CE0001377170093F7F70FB3C6C5001355150008
:101CF000630607009395060193D50501E39C07FC55
:101D00001385050067800000130101FF2324810073
:101D100013040500131505011355050123261100B1
:101D2000EFF09FF69305050013550401032481008D
:101D30008320C100130101016FF01FF51315050188
:101D4000135505016FF05FF4130500006780000074
:101D50001305000067800000B747000023AE07F2BC
:101D600067800000B747000023AC07F267800000DF
:101D7000B747000003A587F3B747000083A7C7F361
:101D80003305F540678000009307A0003355F50246
:101D900067800000930710002300F50067800000B3
:101DA000230005006780000013F80704130101FBFE
:101DB0006316081E374300001303C31593FF070182
:101DC00063860F1C93F7E7FF930E000213F82700BA
:101DD000930300006300080263CC052013F847005A
:101DE000631E081C13F88700630608009386F6FF3D
:101DF0009303000293F20702638C020013080001B0
:101E0000630C0621130886FF13381800B3860641B9
:101E1000638C05181308C100130E1000330E0E4119
:101E2000B3F8C502330F0E0113081800B3D5C5026D
:101E3000B308130183C80800A30F18FFE39205FE3F
:101E40009308FFFF13080F006354EF001308070007
:101E5000B386064193F717019385F6FF6392070255
:101E60003307D500930700026354D01C13051500F7
:101E7000A30FF5FEE31CE5FE9305E0FF9306F0FFDC
:101E8000638603002300750013051500638A0200B2
:101E900093078000630AF61693070001630AF6129F
:101EA00063940F041307050013061000635CD0163B
:101EB00013071700B307E640B387B700A30FD7FF98
:101EC000B307F500E346F0FE93C7F5FF93D7F7415C
:101ED000B3F7F5009386F5FFB386F64093871700B6
:101EE0003305F5009385F6FFB307E841B307F50026
:101EF0001307000363580F0113051500A30FE5FE38
:101F0000E39CA7FE6352E0051306C100130810000E
:101F1000B3071601130705003308C84003C60700BE
:101F2000130717009387F7FFA30FC7FE3306F800C8
:101F3000E346C0FE93C7F8FF93D7F741B3F7F80025
:101F4000938717003305F500635ED0021307050081
:101F5000130600029306100013071700B387E6402C
:101F6000B387B700A30FC7FEB307F500E346F0FE43
:101F700093C7F5FF93D7F741B3F5F50093851500A7
:101F80003305B500130101056780000013F8170041
:101F9000630C0804930E00036FF05FE33743000007
:101FA000130343186FF09FE1930500032306B1006C
:101FB00093080000130F10006FF0DFE893F20702A0
:101FC0009386F6FF9303B002E38402E46FF01FE30D
:101FD000930700032300F50093078007A300F50093
:101FE000130525006FF0DFEB930E00026FF01FDE8C
:101FF00093F20702B305B0409386F6FF9303D00235
:10200000E38802E06FF09FDF930700032300F500F1
:10201000130515006FF0DFE89386E6FFE39C05DE0D
:102020006FF09FF8938605009385F5FF6FF0DFEB67
:102030009387E6FF93860500938507006FF05FE4C2
:10204000B70700802380A70067800000130101818B
:102050002324817C13040500371500002326117CFE
:102060002322917C2320217D232E317B232C417B35
:10207000232A517B2328617B2326717B2324817BA8
:102080002322917B13034582130101FB33032300B9
:102090002320B30093050500130585823305250031
:1020A0002320C500138605009385C582B3852500CE
:1020B00023A0D500930606001306068333062600E8
:1020C0002320E6001387060093864683B386260006
:1020D00023A0F60093078783B387270023A0070177
:1020E0009307C783B387270023A017018347040002
:1020F00023226100638E076C93090102374A0000B6
:1021000037490000B7440000930A03001385090013
:10211000130A8AF51309C9F99384C4156F00800165
:102120002300F50083471400130515001304140061
:102130006386071213075002E394E7FE0346140078
:102140009306000193070000130706FE1377F70FAD
:102150009305140063E8E6021317270033074701CD
:10216000032707006700070093E7170013840500A3
:102170000346140093051400130706FE1377F70FA8
:10218000E3FCE6FC130706FD1377F70F93069000B8
:1021900063F0E6161307A0029306F0FF6300E64023
:1021A0001308E0021307F0FF630E06111378F60D13
:1021B0009308C004630A18051308F6FB1378F80F98
:1021C0009308700363EA08071318280033082801EE
:1021D000032808006700080093E70701138405003F
:1021E0006FF01FF993E74700138405006FF05FF865
:1021F00093E70702138405006FF09FF793E78700CA
:10220000138405006FF0DFF603C315009308700315
:10221000138415001308F3FB1378F80F63E2080327
:10222000B7480000131828009388C807330818011E
:102230000328080067000800130306001384050044
:102240009307500213071500630AF35A2300F500A1
:10225000834704006396075E13050700230005000B
:102260000347010263020756930610009387090093
:1022700037060080B38636413385D7002300E60059
:102280009387170003C70700E31807FE1301010532
:102290008320C17C0324817C8324417C0329017C2D
:1022A0008329C17B032A817B832A417B032B017B0A
:1022B000832BC17A032C817A832C417A1301017F0D
:1022C0006780000003C6150093089000138815006E
:1022D000130706FD1377F70F63F6E8041307A00250
:1022E0006304E64C93050800130700006FF01FEC31
:1022F000930600001308900013972600B306D7003A
:102300009385150093961600B386C60003C6050094
:10231000938606FD130706FD1377F70FE37EE8FCAF
:102320006FF01FE813070000931527003387E500BF
:1023300013081800131717003307C70003460800D7
:10234000130707FD930506FD93F5F50FE3FEB8FCB3
:10235000930508006FF09FE593E707041308C00694
:1023600003A70A00938A4A006310061113F60704B4
:10237000938E040063060600B74E0000938E4E183D
:102380001303000013080000930F60009302A003E2
:102390006F0080011306017F3306E6011308380041
:1023A000230C568013071700034607009308017F8C
:1023B000338E0801935846001376F600B3881E0149
:1023C0003386CE0083C808000346060013031300BB
:1023D000230C1E81A30CCE80130F2800E31CF3FBFB
:1023E00093F707011386F6FF63940702B387E6416C
:1023F000B307F500130700026358DF481305150003
:10240000A30FE5FEE31CF5FE9306FFFF1306EFFFA7
:10241000930781003307E50103C807001305150082
:1024200093871700A30F05FFE318E5FE6352DF0251
:10243000130800029306100013051500B387A64089
:10244000B387C700A30F05FFB307F700E346FFFEFE
:1024500083C725006FF09FCD03A70A0093E7070409
:10246000938A4A001384050093050700930800002F
:102470001307000093033006130B9000930EA00087
:1024800093024006930F000313034000130EE00273
:102490006F00C0021306017F3307E600230CF781AB
:1024A00093881800638068081307017F33060701CB
:1024B000230CC681130718009385150003C6050079
:1024C00013081700E30806FC63DAC30EB36B560269
:1024D000130F017FB30CEF00330C0F01130837000B
:1024E000130727003346560233CFDB033386C4007D
:1024F00003460600238CCC803386E401034F06009C
:1025000033E6DB03230CEC813386C400034F060063
:102510001306017F3306E600230CE681938818003A
:10252000E39468F893F707019385F6FF6394070235
:10253000B3870641B307F500130700026354D8328E
:1025400013051500A30FE5FEE31CF5FE9306F8FF47
:102550009305E8FF930781003307050103C60700D1
:102560001305150093871700A30FC5FEE318E5FEBA
:102570006352D802130600029306100013051500DB
:10258000B387A640B387B700A30FC5FEB307F70014
:10259000E346F8FE834714006FF05FB983A60A0094
:1025A00093052400938A4A0003462400E3DA06BE1A
:1025B000B306D04093E707016FF09FBEE356CBF41C
:1025C000334FD603930B017FB38BEB00130C270023
:1025D0001307080013080C00338FE401034F0F00AA
:1025E0003366D603238CEB816FF01FF21384050052
:1025F0001306A00013884A0083A50A00930A080066
:10260000EFF08FFA834714006FF05FB21384050078
:10261000130680006FF01FFE1384050093F7070177
:102620009386F6FF638C071A03A70A0013061500AA
:10263000938716002300E500938A4A003305F500CE
:1026400013070002930706006358D02093871700F2
:10265000A38FE7FEE39CA7FE3305D6008347140053
:102660006FF0DFAC1384050093E707041306000145
:102670006FF05FF8138405001306F0FF6396C60041
:1026800093E717009306800083A50A001306000154
:10269000938A4A00EFF04FF1834714006FF01FA9AF
:1026A0001384050003A60A0093050700938A4A00D5
:1026B000630406160348060093080600630608161E
:1026C00063040716130706006F00C0009385F5FF2B
:1026D000638805001307170003480700E31808FE86
:1026E00093F70701330717411388F6FF638807083C
:1026F0006352E018B308E6009307050013061600BE
:102700008345F6FF93871700A38FB7FEE31816FFE4
:102710003306E50013050600930800029305100038
:10272000E35AD7E613051500B387A540B387070121
:10273000A30F15FFB307F600E346F7FE8347140027
:102740006FF0DF9E1384050093E727001306A000B7
:102750006FF05FEA130600016FF0DFE903A70A00DC
:1027600013840500938A4A006FF01FD013884A0033
:1027700013840500130600016FF01FE8B387E640DD
:10278000B307F50093050002635AD70E1305150031
:10279000A30FB5FEE39CA7FEB306D840B386E600C0
:1027A0001388F6FF6FF0DFF403A70A0003C62500C5
:1027B000938A4A001348F7FF1358F841337707010B
:1027C000938525006FF09F9E130500006FF01FACEE
:1027D00093090102138509006FF05FA83307D50044
:1027E000930700026352D00613051500A30FF5FEF0
:1027F000E31CE5FE9306F0FF6FF01FE38347040040
:102800009306070013070500138506002300F70051
:10281000834714006FF09F91374600009308C61A53
:102820001306C61A6FF0DFE913F707011388F6FFE6
:10283000E30607F413060500130700006FF09FED91
:10284000130525006FF09FFC83A70A0013061500EF
:10285000938A4A002300F5008347140013050600FD
:102860006FF0DF8C9387E6FF938605009385070062
:102870006FF05FCE130605006FF0DFE993060800E6
:102880001308F8FF6FF0DFE69387E6FF9306060074
:10289000138607006FF0DFB7B0340000B8340000D3
:1028A000C0340000130101F72326A10037350000D2
:1028B0001305850623261108232481082322910865
:1028C0001384050023202109232E3107232C4107DF
:1028D000232A510723286107232671072324810710
:1028E000232291072320A107EFF04FF613060400DF
:1028F0009305C1001305E105EFF0CFC913051000E2
:10290000EFF04FAE231EA10013052000EFF08FADB6
:10291000231FA10013053000EFF0CFAC2310A1025C
:1029200013054000EFF00FAC9307100013055000A3
:10293000232CF102EFF00FAB63060522232EA10238
:102940008327C101639E0736831701026388073816
:102950008326C103373600001306864D13F7260081
:1029600093F716003337E0002322C102231E01042F
:1029700013F64600B387E700630806009387170045
:102980009397070193D707011306007D3356F6028C
:102990001308000093070000130510009305300092
:1029A000232AC1023317F5003377D70063160718BF
:1029B00093871700E398B7FE373500001305C50766
:1029C000EFF0CFE88327C10393F71700639A07144A
:1029D0003735000013050509EFF04FE78327C103E2
:1029E00093F72700639C0710373500001305850A0D
:1029F000EFF0CFE58327C10393F74700638A070011
:102A0000032601038315C10103254103EFE09FA6BF
:102A100083278103639A070493071000232CF10294
:102A20000327810393172700B387E70093971700C5
:102A3000232CF102EFF04FB21305C101EFD0CFDD2F
:102A4000EFF04FB2EFF0CFB2EFF00FB4E30A05FCB6
:102A50009307A00033D5A702832781031305150030
:102A60003385A702232CA102373500001305C50BBF
:102A7000EFF0CFDDEFF04FAE1305C101EFD0CFD9AE
:102A8000EFF04FAEEFF0CFAE930905000315C10193
:102A900093050000EFF08FAA930505000315E101EF
:102AA000EFF0CFA99305050003150102EFF00FA980
:102AB0009305050003154103EFF04FA8B787000009
:102AC000938757B0130905006300F55463E2A70A22
:102AD000B72700009387278F630EF550B757000084
:102AE0009387F7EA6312F520373500001305451286
:102AF000EFF0CFD5930720006F00000A8317E101A4
:102B00000316C1018325C1020325410393970701E1
:102B10009306410433E6C700EFE00F856FF0DFEC6A
:102B20000316C1018325810203254103EFD0DFC7CE
:102B30002320A1046FF0DFE93303C8029308C10129
:102B4000139727003387E8008328410213081800F1
:102B50001318080113580801B388680023261701C9
:102B60006FF01FE593077000232EF1026FF05FDD19
:102B7000B7970000938727A06304F546B7F70000D6
:102B80009387579F6312F516373500001305851597
:102B9000EFF0CFCB93073000B74B000003A7CBF487
:102BA000130D0000130C0000630A0746B73C000039
:102BB00093971700938C0C03B38CFC00373B0000F9
:102BC000B73A0000373A00006F0000043304840174
:102BD0001314240093070106338487000314C4FFF1
:102BE0003304A401130C1C001314040183A7CBF4B9
:102BF00013540401131C0C01131D0401135C0C017C
:102C0000135D0D416378FC0E13144C00B304840172
:102C10009307010693942400B384970083A7C4FD0F
:102C2000239E04FE93F717006384070203D664FF14
:102C300083D60C00630ED60093050C0013054B1BC6
:102C4000EFF0CFC083D7C4FF93871700239EF4FE15
:102C5000B30484019307010693942400B38497007E
:102C600083A7C4FD13F727006306070203D684FF7A
:102C700083D6CC006300D60293050C0013854A1E50
:102C8000EFF0CFBC03D7C4FF83A7C4FD1307170021
:102C9000239EE4FE93F74700E38A07F2B30484011E
:102CA0009394240093070106B384970003D6A4FFEE
:102CB00083D68C016316D62A0394C4FF6FF05FF2AB
:102CC00013071000E396E7C883170102E39207C8D1
:102CD000B737153493875741232EF10093076006C9
:102CE0002310F1026FF0DFC6370401001304F4FF74
:102CF000B74B0000EFF04F85832541033304A40058
:102D00003735000013058524EFF04FB43735000048
:102D10009385090013050526EFF04FB313850900CD
:102D2000EFF08F86930505003735000013058527E2
:102D3000EFF0CFB1131404011385090013540401FB
:102D4000EFF08F84631A052413850900EFF0CF8319
:102D50009307900063F8A72283A7CBF48325810310
:102D6000373500001305852EB385F5029314040151
:102D700093D40441EFF08FADB73500003735000034
:102D8000938505301305C530EFF04FACB735000023
:102D9000373500009385453213058532EFF00FABD0
:102DA000B7350000373500009385053413058534A9
:102DB000EFF0CFA93735000093050900130505365C
:102DC000EFF0CFA88327C10313F7170063080704A8
:102DD00003A7CBF463040704130400003739000091
:102DE00093174400B38787001307010693972700C2
:102DF000B307F70003D667FF930504001305C9372F
:102E0000EFF0CFA41304140083A7CBF41314040130
:102E100013540401E366F4FC8327C10313F727006E
:102E20006308070403A7CBF4630E071E1304000016
:102E30003739000093174400B38787001307010652
:102E400093972700B307F70003D687FF9305040085
:102E500013058939EFF08F9F1304140083A7CBF477
:102E60001314040113540401E366F4FC8327C10323
:102E700093F747006386070483A7CBF463860708AC
:102E8000130400003739000093174400B38787000C
:102E90001307010693972700B307F70003D6A7FF90
:102EA000930504001305493BEFF04F9A13041400F7
:102EB00083A7CBF41314040113540401E366F4FC58
:102EC00083A7CBF41304000037390000638E070298
:102ED00093174400B38787001307010693972700D1
:102EE000B307F70003D647FF930504001305093D18
:102EF000EFF0CF951304140083A7CBF4131404014F
:102F000013540401E366F4FC638C040A6352900CCE
:102F10003735000013058543EFF04F931305E105A6
:102F2000EFE01FE88320C1080324810883244108BF
:102F3000032901088329C107032A8107832A41073E
:102F4000032B0107832BC106032C8106832C41062A
:102F5000032D01061305000013010109678000001D
:102F600093050C0013058A21EFF04F8E83D7C4FF21
:102F7000938717001394070113540441239E84FE82
:102F80006FF01FC6373500001305852AEFF00F8C50
:102F9000130414006FF05FDC83A5CBF4832481035A
:102FA00013850900B384B402EFE01FDEB3D5A40299
:102FB0003735000013050529EFF04F896FF0DFD892
:102FC000373500001305C53EEFF04F886FF01FF551
:102FD000373500001305C544EFF04F876FF01FF43D
:102FE000373500001305850CEFF04F86930700007E
:102FF0006FF09FBA3735000013058518EFF00F8585
:10300000930740006FF05FB9373500001305850F57
:10301000EFF0CF83930710006FF01FB81304000088
:103020006FF05FCD93F74700E39007EE6FF05FE935
:10303000B0D44033796A14E7C1E3000052BE99115D
:103040000856D71F47070000475EBF39A4E53A8EF0
:10305000848D0000636F72655F62656E63685F6C8C
:103060006973740A00000000436F72656D61726BD2
:10307000207374617274210A00000000636F72652E
:103080005F6C6973745F696E69742E2E2E0A00007E
:10309000636F72655F696E69745F6D617472697880
:1030A0002E2E2E0A00000000636F72655F696E6944
:1030B000745F73746174652E2E2E0A0073746172CE
:1030C000742E2E2E0A000000366B20706572666F1B
:1030D000726D616E63652072756E20706172616DD4
:1030E000657465727320666F7220636F72656D61BF
:1030F000726B2E0A00000000366B2076616C6964EA
:103100006174696F6E2072756E20706172616D6599
:103110007465727320666F7220636F72656D617281
:103120006B2E0A0050726F66696C652067656E656C
:10313000726174696F6E2072756E20706172616D5C
:10314000657465727320666F7220636F72656D615E
:10315000726B2E0A00000000324B20706572666FA1
:10316000726D616E63652072756E20706172616D43
:10317000657465727320666F7220636F72656D612E
:10318000726B2E0A00000000324B2076616C69647D
:103190006174696F6E2072756E20706172616D6509
:1031A0007465727320666F7220636F72656D6172F1
:1031B0006B2E0A005B25755D4552524F5221206CE3
:1031C0006973742063726320307825303478202D41
:1031D0002073686F756C6420626520307825303408
:1031E000780A00005B25755D4552524F5221206DD3
:1031F0006174726978206372632030782530347886
:10320000202D2073686F756C6420626520307825EE
:103210003034780A000000005B25755D4552524F3E
:1032200052212073746174652063726320307825A5
:10323000303478202D2073686F756C6420626520AF
:103240003078253034780A00436F72654D61726BB7
:103250002053697A65202020203A20256C750A00C9
:10326000546F74616C207469636B7320202020207C
:10327000203A20256C750A00546F74616C207469C3
:103280006D65202873656373293A2025640A000060
:10329000497465726174696F6E732F536563202082
:1032A000203A2025640A00004552524F5221204DF9
:1032B000757374206578656375746520666F722018
:1032C0006174206C656173742031302073656373A1
:1032D00020666F7220612076616C6964207265736C
:1032E000756C74210A000000497465726174696F1D
:1032F0006E73202020202020203A20256C750A00A3
:10330000474343372E322E3000000000436F6D706C
:10331000696C65722076657273696F6E203A20253C
:10332000730A00002D4F3200436F6D70696C657237
:1033300020666C6167732020203A2025730A000004
:10334000535441434B0000004D656D6F7279206C02
:103350006F636174696F6E20203A2025730A000044
:103360007365656463726320202020202020202064
:10337000203A203078253034780A00005B25645DDF
:103380006372636C697374202020202020203A200F
:103390003078253034780A005B25645D6372636D94
:1033A000617472697820202020203A2030782530FE
:1033B00034780A005B25645D6372637374617465BD
:1033C0002020202020203A203078253034780A0030
:1033D0005B25645D63726366696E616C20202020EA
:1033E00020203A203078253034780A00436F7272FA
:1033F000656374206F7065726174696F6E207661A9
:103400006C6964617465642E205365652052454182
:10341000444D452E6D6420666F722072756E20617A
:103420006E64207265706F7274696E672072756C5D
:1034300065732E0A000000004572726F727320647B
:10344000657465637465640A0000000043616E6E14
:103450006F742076616C6964617465206F70657249
:103460006174696F6E20666F722074686573652081
:10347000736565642076616C7565732C20706C656E
:1034800061736520636F6D70617265207769746820
:1034900020726573756C7473206F6E2061206B6E83
:1034A0006F776E20706C6174666F726D2E0A00000B
:1034B0005374617469630000486561700000000026
:1034C000537461636B004743433A2028474E5529A4
:1034D00020372E322E3000000000000000000000D7
:1034E00000000000000000000000000000000000DC
:1034F00000000000000000000000000000000000CC
:1035000000000000000000000000000000000000BB
:1035100000000000000000000000000000000000AB
:103CA00000000000000000004C6973742066696E1B
:103CB000642025643A205B25642C25642C25645DF2
:103CC0000A0000004C69737420736F727420313ADB
:103CD00020253034780A00004C69737420736F72A9
:103CE0007420323A20253034780A0000626C6B73FD
:103CF000697A653A2025642C20736565643A20252D
:103D0000640A000073697A653A2025640A0000009D
:103D1000496E697469616C697A6564206C69737451
:103D20003A0A00005B253034782C253034785D0069
:103D30004D6174726978202573205B256478256451
:103D40005D3A0A002C0000002564000041000000DC
:103D5000420000006D61747269785F6164645F6342
:103D60006F6E7374000000006D61747269785F6D2E
:103D7000756C5F636F6E7374000000006D61747228
:103D800069785F6D756C5F76656374006D617472E0
:103D900069785F6D756C5F6D6174726978000000A1
:103DA0006D61747269785F6D756C5F6D6174726955
:103DB000785F6269746578747261637400000000F2
:103DC0005815000058150000F4150000F415000007
:103DD00060160000003F0000083F0000103F000098
:103DE000183F0000D03E0000DC3E0000E83E00002E
:103DF000F43E0000A03E0000AC3E0000B83E0000D3
:103E0000C43E0000703E00007C3E0000883E000082
:103E1000943E000053746174653A2025642C256437
:103E20000A000000746F74616C3A2025640A000077
:103E3000746F74616C2A3A2025640A0053746174AB
:103E40006520496E7075743A2025730A00000000E1
:103E500053746174652042656E63683A2025642C52
:103E600025642C25642C253034780A0025642C0028
:103E700054302E33652D3146000000002D542E5451
:103E80002B2B5471000000003154332E3465347AEA
:103E90000000000033342E30652D545E0000000019
:103EA000352E353030652B33000000002D2E313299
:103EB00033652D32000000002D3837652B38333242
:103EC000000000002B302E36652D3132000000003E
:103ED00033352E3534343030000000002E3132338B
:103EE00034353030000000002D3131302E37303085
:103EF000000000002B302E3634343030000000003B
:103F0000353031320000000031323334000000001F
:103F10002D383734000000002B3132320000000011
:103F2000401C0000101C00001C1C0000281C00008D
:103F3000341C0000041C0000000000000000000011
:103F40000000000000000000000000000100000070
:103F50000100000066000000FC2100008421000038
:103F600084210000F0210000842100008421000051
:103F700084210000842100008421000084210000AD
:103F800084210000E421000084210000D8210000E9
:103F900084210000842100006821000058240000D2
:103FA00038220000382200003822000038220000A9
:103FB0003822000038220000382200003822000099
:103FC0003822000038220000382200003822000089
:103FD0003822000038220000382200003822000079
:103FE0003822000038220000382200003822000069
:103FF0003822000038220000642600003822000029
:104000003822000038220000382200003822000048
:104010003822000038220000382200005C2700000F
:104020003822000018260000442700003822000033
:104030003822000038220000382200004427000007
:104040003822000038220000382200003822000008
:10405000382200000C2600007426000038220000E0
:1040600038220000A026000038220000EC250000C5
:1040700038220000382200006C270000582300007E
:1040800040220000402200004022000040220000A8
:104090004022000040220000402200004022000098
:1040A0004022000040220000402200004022000088
:1040B0004022000040220000402200004022000078
:1040C0004022000040220000402200004022000068
:1040D000402200004022000068260000402200002C
:1040E0004022000040220000402200004022000048
:1040F0004022000040220000402200005C2300001B
:10410000402200001C26000048270000402200003A
:10411000402200004022000040220000482700000A
:104120004022000040220000402200004022000007
:1041300040220000102600007826000040220000E7
:1041400040220000A426000040220000F0250000CC
:10415000402200004022000054270000303132335A
:104160003435363738396162636465666768696A11
:104170006B6C6D6E6F707172737475767778797A17
:10418000000000003031323334353637383941429F
:10419000434445464748494A4B4C4D4E4F50515277
:1041A000535455565758595A000000003C4E554C30
:0441B0004C3E000081
:00000001FF
