:1000000037410000EF20403373001000130101FF5F
:10001000232021010329C501232611002324810067
:1000200023229100232C0502232E050263040904D8
:100030001304050093040000930510001305040049
:10004000EF00004A83558403EF100074231CA402C0
:100050009305F0FF13050400EF00804883558403E7
:10006000EF108072231CA4026384040293841400A2
:10007000E31499FC8320C100032481008324410000
:10008000032901001305000013010101678000002E
:10009000231DA4026FF09FFD631E06028317050057
:1000A00013970701135707011357870093F707F0BA
:1000B000B3E7E7002310F5008397050013970701C6
:1000C0001357070193F707F013578700B3E7E700CB
:1000D0002390F50003152500839725003305F5408F
:1000E00067800000130101FE232C8100031405002A
:1000F00023282101232E110093577440232A9100B5
:100100002326310193F717001379F4076392070848
:10011000938405009355344093F5F500939745007B
:1001200013777400B3E5B7009309050083D7840300
:1001300063000708930610006316D70213860700B2
:1001400013858402EF00507383D7C403131905018C
:100150001359094163940700239EA40283D78403A3
:100160006F0080001309040013150901938507002F
:1001700013550501137404F0EF1000611379F907AA
:1001800013640408239CA40233648900239089002B
:100190008320C10103248101130509008324410147
:1001A000032901018329C1001301010267800000B6
:1001B000930620021387050063D4D500130720029D
:1001C000839624000396040083A5440103A58401BB
:1001D0001377F70FEF10803483D7E4031319050169
:1001E00013590941E39C07F6239FA40283D7840394
:1001F0006FF09FF7130101FF2320210113890500F0
:100200009305060023261100232481002322910058
:1002100013040600EFF01FED93040500930504009E
:1002200013050900EFF01FEC8320C10003248100B7
:100230003385A440032901008324410013010101F7
:100240006780000003970500839725002310E500D1
:100250002311F5006780000003280600930888003A
:1002600063F6E80403A70600130347006370F30472
:100270002320160183270500839805000396250097
:100280002320F800232005012322E80083A706008D
:10029000130508009387470023A0F6008327480032
:1002A000239017012391C700678000001308000006
:1002B000130508006780000083270500032645001A
:1002C0001307050083A5470083A6070013850700D1
:1002D0002322B70023A2C7002320D70023A00700B2
:1002E0006780000003A645008326450003A705009C
:1002F0002322C50023A2D5002320E50023A0A500CA
:100300006780000003972500634807026304050225
:100310008327450083972700639AE7006F00000555
:1003200083274500839727006386E70003250500A0
:10033000E31805FE67800000E30E05FE83274500F5
:100340000397050083C70700639AE7006F00400228
:100350008327450083C707006388E700032505005E
:10036000E31805FE6FF01FFD678000006780000046
:100370006780000063000502130700006F00800023
:1003800013850700832705002320E50013070500D8
:10039000E39807FE67800000130101FD232C410153
:1003A000232A510123267101232481012320A10145
:1003B00023261102232481022322910223202103D8
:1003C000232E31012328610123229101130A050004
:1003D000138C0500930B0600930A1000130D1000F8
:1003E000630E0A0A930C000013090000130B0000AF
:1003F000938C1C0013040A009304000003240400DF
:100400009384140063040400E39A9AFE93890A001B
:10041000638E0402638E0904630C04048325440084
:1004200003254A0013860B00E7000C006352A0046A
:1004300093070400032404009389F9FF630409026D
:100440002320F90013890700E39604FC638A09025C
:10045000630C0402930704009389F9FF032404004A
:10046000E31009FE138B0700138907006FF0DFFD0F
:1004700093070A009384F4FF032A0A006FF01FFC1D
:10048000130A0400E31604F623200900638CAC0170
:10049000939A1A00130A0B006FF09FF423200000B8
:1004A000730010008320C1020324810213050B0096
:1004B00083244102032901028329C101032A810106
:1004C000832A4101032B0101832BC100032C8100EE
:1004D000832C4100032D01001301010367800000FC
:1004E000130101FC232C8101031C4500232C8102F4
:1004F0002322510323206103232E1102232A910278
:10050000232821032326310323244103232E7101B1
:10051000232A91012317B100130B0500938A0500CC
:1005200003244502635A8021938C050013090000BF
:10053000930B00009309000093040000130AC1000C
:100540009377F90F93050A00130504002316F100B1
:10055000EFF05FDB63000402130700006F00800010
:1005600013840700832704002320E40013070400FA
:10057000E39807FE630A050683274500938919005F
:10058000939909018397070093D9090113F717007D
:10059000630C070093D7974093F71700B384F400D8
:1005A0009394040193D4040183270500638C07000E
:1005B00003A707002320E5000327040023A0E7008A
:1005C0002320F40063C60C00938C1C0023179101B8
:1005D000130919001319090113590941630C2C035C
:1005E000831CE1006FF0DFF583270400938B1B0071
:1005F000939B0B0183A7470093DB0B0183871700B5
:1006000093F71700B384F4009394040193D4040186
:100610006FF05FFB93992900B38B7941B384740128
:100620009394040193D40401635E5001B705000064
:100630001305040013060B009385451FEFF0DFD56B
:10064000130405008327040093050A001305040022
:1006500083A9070003AA470083A6490003A709004E
:1006600023A2D70023A2490123A0E70023A0090069
:10067000EFF05FC913090500630A050A83274400E8
:100680009385040003950700EF10401B0329090020
:1006900093040500E31409FE0329040003AA49009A
:1006A0000327490083270900B705000023A2E900BA
:1006B0002322490123A0F900232039011305040056
:1006C0001306000093858509EFF01FCD0324050074
:1006D0001309050063000402832749009385040081
:1006E00003950700EF108015032404009304050010
:1006F000E31404FE8320C103032481031385040053
:1007000003290103832441038329C102032A8102AF
:10071000832A4102032B0102832BC101032C810197
:10072000832C4101130101046780000003290400A8
:10073000E30809F66FF09FF493040000130AC10068
:100740006FF09FEE130740013357E5021385050054
:1007500023A00500B787FFFF93880708938605014C
:10076000938F8500930500001307E7FF13183700E8
:100770003308050123220501131F27002311080058
:1007800023101801330FE8011303480063F6060134
:100790009308880063E2E80F630A070693130601D3
:1007A000B782FFFF93D303019306000093C2F2FFC9
:1007B000138E8F00930E430063760E059398060107
:1007C00093D80801B3C778009397370093F878005F
:1007D00093F78707B3E7170193988700B3E7F8000B
:1007E00063F2EE0323A0BF002320F50123A26F00D4
:1007F0002310F3002311530093850F0013830E0081
:10080000930F0E0093861600E314D7FA9308500056
:10081000374E0000B358170393061000130700204B
:10082000130EFEFF6F00C0012391D50013070710C0
:100830001317070193861600135707019305080045
:1008400003A805009377077033C3C600B3E76700BA
:10085000B3F7C701630A080083A54500E3E616FD68
:100860002391F5006FF09FFCB70500001306000010
:10087000938585096FF05FB22320F501232665007B
:10088000232405001303F0FF93C7F7FF93850F00A0
:10089000231268002313F80013830800938F0600C7
:1008A0006FF09FEF130101FF2326810023249100A5
:1008B000232221011308050063140600130610000B
:1008C000938FF5FF93FFCFFF13844F0013050000B4
:1008D000631608006F00400E13050700130715008C
:1008E000B307E70293973700E3E807FFB302A502D7
:1008F0009304050093921200B30F5400630405089B
:10090000370E0100130F000013031000B30EF44163
:1009100093131500130EFEFF3388E3031307030040
:1009200033880F013306E6029317070193D70701B7
:1009300033890E011308280013071700B308674016
:100940009355F64193D505013306B6003376C601BB
:100950003306B640B385C7009395050193D50501CD
:10096000B387B700231FB8FE93F7F70F2310F900E2
:10097000E3EAA8FA130F1F006376AF001303070022
:100980006FF09FF9B3875F009387F7FF23A286007C
:1009900093F7C7FF0324C1009387470023A0960065
:1009A00023A4F60123A6F600832481000329410035
:1009B0001301010167800000938F6F009304F0FF23
:1009C0001305F0FF930220006FF09FF3630A050800
:1009D000330FA04093172500B385F500931F2F0018
:1009E000130E000093070000930600009308000018
:1009F000131F3F00B38EBF0013870E006F00C001AE
:100A0000931703011307470093D70741930800008A
:100A100093060800638CE5020328070093970701FB
:100A200093D70701B3A60601B38808011383A70073
:100A3000B387D700E34616FD9397070113074700D6
:100A400093D7074193060800E398E5FC130E1E00B8
:100A5000B385EE41E310C5FB1385070067800000F6
:100A6000930700001385070067800000630E0502EE
:100A7000131E150013132500930800003308CE0041
:100A80001387050083170600130747001306260087
:100A9000B387D702232EF7FEE31606FF93881800CC
:100AA000B3856500E31C15FD67800000630A05023D
:100AB00013160601135606011318150093060000BD
:100AC0003307B80083D7050093852500B307F600E8
:100AD000239FF5FEE318B7FE93861600E312D5FEBA
:100AE0006780000063060504931E1500131525009A
:100AF000338EA5003383D6019387060013050600C5
:100B00001308000003170500839807009387270048
:100B100013052500330717033308E800E314F3FE39
:100B200023A00501938545003306D601E316BEFCDC
:100B30006780000063000508131E1500130101FF04
:100B400023268100B30EC60113142500B382C6010B
:100B500093030000138F0600938F050013080F0006
:100B6000930706009308000003970700031308008B
:100B7000938727003308C80133076702B388E8006A
:100B8000E394FEFE23A01F01130F2F00938F4F004D
:100B9000E396E2FD938313003306C601B38ECE01C4
:100BA000B3858500E31875FA0324C1001301010120
:100BB0006780000067800000630A0508131E1500A7
:100BC000130101FF23268100B30EC6011314250073
:100BD000B382C60193030000138F0600938F0500B4
:100BE00093080F0013080600130300000397080082
:100BF0008317080013082800B388C801B387E702E9
:100C000013D7274093D757401377F70093F7F70789
:100C1000B307F7023303F300E39A0EFD23A06F003E
:100C2000130F2F00938F4F00E39CE2FB938313007D
:100C30003306C601B38ECE01B3858500E31E75F879
:100C40000324C100130101016780000067800000D8
:100C5000130101FB23248104232291042320210575
:100C6000232C41032326110437FAFFFF232E3103DF
:100C7000232A51032328610323267103232481039C
:100C8000232291032320A103232EB1011384050005
:100C90009304060013890600336A47016302053690
:100CA000931A07011308050093DA0A01131C1500B3
:100CB000930B060093070600930900003306FC001F
:100CC00083D6070093872700B386DA00239FD7FED9
:100CD000E318F6FE9389190093070600E31038FF26
:100CE000139B2900930C040013080400938704004D
:100CF00013050000B38587011306080083960700DB
:100D00001306460093872700B386E602232ED6FEFD
:100D1000E396B7FE1305150033086801E31C35FDA3
:100D2000B30D3041330D640113972D0093080D006E
:100D30001305000093070000930500001303000053
:100D4000939D3D00330E170113060E006F00C00186
:100D500013150801130646001355054193050000BD
:100D600093870600638CC8028326060013150501CD
:100D700013550501B3A7D700B385D5001308A50007
:100D80003305F500E346BAFC1315050113064600CA
:100D90001355054193870600E398C8FC130313001D
:100DA000B308BE41E31033FB930500002326E100A6
:100DB000EF00D0282324A100930504001385090027
:100DC0009306090013860400EFF0DFD18328810029
:100DD0000327C100130500009307000093050000DE
:100DE00013030000330EA70113060E006F00C001AD
:100DF000131508011306460013550541930500001D
:100E000093870600630CCD028326060013150501A7
:100E100013550501B3A7D700B385D5001308A50066
:100E20003305F500E346BAFC131505011306460029
:100E30001355054193870600E318CDFC13031300F7
:100E4000330DBE41E31033FB93850800EF00101F04
:100E500093060900130D050013860400138509008D
:100E600093050400EFF01FCD1303040013050000E9
:100E70009307000093060000930800009305030009
:100E8000130600006F000002131508011306160078
:100E9000135505419306000093854500930707000D
:100EA000637E360303A705001315050113550501DD
:100EB000B3A7E700B386E6001308A5003305F500E5
:100EC000E344DAFC1315050113061600135505411A
:100ED0009385450093070700E36636FD9388180065
:100EE00033036301E3EC38F993050D00EF001015AF
:100EF00093060900130D05001386040013850900ED
:100F000093050400EFF05FCB13050000930700008A
:100F1000930600009308000093850C001306000060
:100F20006F00000213150801130616001355054142
:100F3000930600009385450093070700637E360300
:100F400003A705001315050113550501B3A7E70015
:100F5000B386E6001308A5003305F500E344DAFC88
:100F60001315050113061600135505419385450019
:100F700093070700E36636FD93881800B38C6C0175
:100F8000E3EC38F993050D00EF00500B1306000059
:100F900093870B009306000003D707009387270071
:100FA0009386160033075741239FE7FEE3E636FF9B
:100FB00013061600B38B8B01E36C36FD8320C1044E
:100FC000032481041315050183244104032901042A
:100FD0008329C103032A8103832A4103032B0103CD
:100FE000832BC102032C8102832C4102032D0102B9
:100FF000832DC101135505411301010567800000D0
:1010000093050000EF009003930609001386040087
:10101000930905009305040013050000EFF09FAC51
:101020009385090013050000EF00500193060900A5
:1010300013860400930905009305040013050000BE
:10104000EFF05FAF9385090013050000EF00007F0C
:101050009309050093050400930609001386040014
:1010600013050000EFF05FB593850900130500003C
:10107000EF00C07C6FF09FF4130101FF2324810077
:1010800013870500130406008325C5008326850009
:10109000032645000325050023261100EFF05FBB62
:1010A00093050400032481008320C1001301010182
:1010B0006F00C078130F0000930E00009385150099
:1010C000B38FEE019395050137380000B738000063
:1010D0009306F5FF93821F0093D505019307000047
:1010E000130EC002130340001308C8089388880732
:1010F00063FED20463100F0893F775009387D7FF40
:101100009397070113D7350093D70701137737005B
:101110006364F30A93972700B387170183A7070037
:10112000131727003307E8006780070083270701AC
:10113000130F800093851500B38FEE019395050181
:1011400093821F0093D50501E3E6D2FA63FCAE005B
:10115000B307D6013306A600238007009387170044
:10116000E31CF6FE6780000083270702130F800050
:101170006FF05FFC3307D601338FE70183CE0700A2
:101180001307170093871700A30FD7FFE318FFFE7D
:1011900093F775009387D7FFB30FF6019397070175
:1011A00013D735002380CF0193D70701938E020018
:1011B00013773700E370F3F6131727003307E800BF
:1011C00083270700130F40006FF0DFF68327070324
:1011D000130F80006FF01FF68327050003C7070079
:1011E000630407069306C002138617006304D72A18
:1011F00003A80500930807FD93F8F80F1303900068
:10120000130818006368130523A0050103C717001E
:101210006304072C93872700630ED70C1308E002A2
:10122000930890001303C002930607FD93F6F60F90
:101230006306070D63F4D82083A605011307100089
:101240009386160023A8D5002320F5001305070078
:10125000678000009308B002630C17039308D00264
:10126000630817039308E002630C172303A74500E4
:1012700023A00501930706001307170023A2E5002A
:10128000130710002320F5001305070067800000F6
:1012900023A0050103C81700630408221386270052
:1012A0006300D82283A68500130708FD1377F70F84
:1012B000930890009386160063F2E8021307E00299
:1012C000630AE81A23A4D500930706001307100049
:1012D0002320F500130507006780000023A4D50034
:1012E00003C72700630A071E9306C0029307160070
:1012F000E316D7F2130740006FF01FF503A70501AF
:101300001307170023A8E50003471600630E071C08
:101310009306C00213881700630ED718930607FDC3
:10132000130650041377F70D930890001303C002BF
:1013300093F6F60F6308C70263E2D81203C71700DB
:101340009306180093070800630607166302671CDC
:1013500013880600930607FD1377F70D93F6F60F33
:10136000E31CC7FC03A745011307170023AAE500E8
:1013700003C71700630C07141306C0029307180075
:101380006308C71483A6C500130757FD1377D70F4B
:101390009386160023A6D500630A070013071000E2
:1013A0002320F5001305070067800000034718009D
:1013B00063000714930628006300C71483A7850100
:1013C000130707FD1377F70F938717009308900013
:1013D00023ACF50063F8E8009387060013071000BC
:1013E0006FF01FFC03472800630E071093073800B7
:1013F0006302C704130690009308C002130707FD99
:101400001377F70F637CE60083A6450013071000EF
:101410009386160023A2D5006FF01FE303C71600C2
:1014200013881700938607006306070093070800D8
:10143000E31617FD130770006FF01FE10347160056
:101440009386170013860700E30607EA93870600D2
:10145000E31C67DC130740006FF01FDF83A6450124
:1014600093070800130710009386160023AAD500DF
:101470006FF09FDD23A4D50003C727006304070690
:101480009307C002130816006306F70293070600CD
:101490006FF0DFE893070600130700006FF0DFDA54
:1014A00023A0050103C71700630E07021388270056
:1014B000E31ED7FC93070800130750006FF0DFD836
:1014C00093070600130720006FF01FD8930708004A
:1014D000130730006FF05FD7930706001307400033
:1014E0006FF09FD693070600130750006FF0DFD50B
:1014F000130760006FF05FD5938706001307600045
:101500006FF09FD493870600130770006FF0DFD34E
:1015100093870600130750006FF01FD3130101F8E3
:10152000232A9106232821079304010113090103AB
:10153000232C810623263107232441072322510728
:1015400023206107232C8105938A0600130A0700D4
:1015500093890700232E1106232E7105138405009D
:10156000130C0500130B06002326B100930601059A
:10157000138704009307090023A007002320070016
:101580009387470013074700E398D7FE03470400FB
:10159000630E0712930BC1009305010313850B0023
:1015A000EFF09FC393070105131525003385A700AE
:1015B0000327C100832705FC034707009387170013
:1015C0002320F5FCE31A07FC23268100330C840159
:1015D0000347040063748411930704001306C002D8
:1015E0006F00800003C70700B34667016304C700AC
:1015F0002380D7008327C100B38747012326F1004A
:10160000E3E287FF83470400232681006380070409
:10161000930BC1009305010313850B00EFF0DFBBB3
:1016200093070105131525003385A7000327C10083
:10163000832705FC03470700938717002320F5FC49
:10164000E31A07FC23268100637484039306C00217
:101650008347040033C757016384D7002300E400A5
:101660000324C1003304440123268100E36284FF84
:101670001384040203A504009385090093844400A5
:10168000EF008018930505000325090013094900A0
:10169000EF00801793090500E31E94FC8320C10727
:1016A0000324810783244107032901078329C106F5
:1016B000032A8106832A4106032B0106832BC105D9
:1016C000032C810513010108678000002326810097
:1016D000330C8401E36284F16FF09FF9E31C07F29D
:1016E0006FF01FF99307500063ECA704B7370000B1
:1016F0009387C717131525003305F50083270500C9
:1017000067800700B737000003A5C719678000008E
:10171000B737000003A5471A67800000B7370000FD
:1017200003A5071A67800000B737000003A5071B51
:1017300067800000B737000003A5C71A6780000064
:10174000130500006780000037A6FFFF93078000A5
:101750001306160033C7A5009387F7FF93D515002E
:101760001377170093F7F70FB3C6C500135515008D
:10177000630607009395060193D50501E39C07FCDA
:10178000138505006780000037A8FFFF9376F50FEB
:10179000930780001308180033C7D5009387F7FF1D
:1017A00093D515001377170093F7F70F33C605018C
:1017B00093D61600630607009315060193D505011D
:1017C000E39C07FC37A6FFFF1355850093078000B5
:1017D0001306160033C7A5009387F7FF93D51500AE
:1017E0001377170093F7F70FB3C6C500135515000D
:1017F000630607009395060193D50501E39C07FC5A
:101800001385050067800000130101FF2324810078
:1018100013040500131505011355050123261100B6
:10182000EFF09FF693050500135504010324810092
:101830008320C100130101016FF01FF5131505018D
:10184000135505016FF05FF4130500006780000079
:101850001305000067800000B737000023AC0718AD
:1018600067800000B737000023AA071867800000D0
:10187000B737000003A54719B737000083A78719BA
:101880003305F540678000009307A0003355F5024B
:1018900067800000930710002300F50067800000B8
:1018A000230005006780000013F80704130101FB03
:1018B0006316081E373300001303833B93FF0701B1
:1018C00063860F1C93F7E7FF930E000213F82700BF
:1018D000930300006300080263CC052013F847005F
:1018E000631E081C13F88700630608009386F6FF42
:1018F0009303000293F20702638C020013080001B5
:10190000630C0621130886FF13381800B3860641BE
:10191000638C05181308C100130E1000330E0E411E
:10192000B3F8C502330F0E0113081800B3D5C50272
:10193000B308130183C80800A30F18FFE39205FE44
:101940009308FFFF13080F006354EF00130807000C
:10195000B386064193F717019385F6FF639207025A
:101960003307D500930700026354D01C13051500FC
:10197000A30FF5FEE31CE5FE9305E0FF9306F0FFE1
:10198000638603002300750013051500638A0200B7
:1019900093078000630AF61693070001630AF612A4
:1019A00063940F041307050013061000635CD01640
:1019B00013071700B307E640B387B700A30FD7FF9D
:1019C000B307F500E346F0FE93C7F5FF93D7F74161
:1019D000B3F7F5009386F5FFB386F64093871700BB
:1019E0003305F5009385F6FFB307E841B307F5002B
:1019F0001307000363580F0113051500A30FE5FE3D
:101A0000E39CA7FE6352E0051306C1001308100013
:101A1000B3071601130705003308C84003C60700C3
:101A2000130717009387F7FFA30FC7FE3306F800CD
:101A3000E346C0FE93C7F8FF93D7F741B3F7F8002A
:101A4000938717003305F500635ED0021307050086
:101A5000130600029306100013071700B387E64031
:101A6000B387B700A30FC7FEB307F500E346F0FE48
:101A700093C7F5FF93D7F741B3F5F50093851500AC
:101A80003305B500130101056780000013F8170046
:101A9000630C0804930E00036FF05FE3373300001C
:101AA0001303033E6FF09FE1930500032306B1008B
:101AB00093080000130F10006FF0DFE893F20702A5
:101AC0009386F6FF9303B002E38402E46FF01FE312
:101AD000930700032300F50093078007A300F50098
:101AE000130525006FF0DFEB930E00026FF01FDE91
:101AF00093F20702B305B0409386F6FF9303D0023A
:101B0000E38802E06FF09FDF930700032300F500F6
:101B1000130515006FF0DFE89386E6FFE39C05DE12
:101B20006FF09FF8938605009385F5FF6FF0DFEB6C
:101B30009387E6FF93860500938507006FF05FE4C7
:101B400067800000130101E9232A51132326111491
:101B5000232481142322911423202115232E3113B1
:101B6000232C41132328611323267113232481136B
:101B700023229113232AB114232CC114232ED11410
:101B80002320E1162322F1162324011723261117FF
:101B900083470500930A4115232251016384076C92
:101BA00093090102373A000037390000B7340000CA
:101BB00013040500130A4A1B138509001309891F22
:101BC0009384843B6F0080012300F5008347140059
:101BD000130515001304140063860712130750023F
:101BE000E394E7FE03461400930600019307000008
:101BF000130706FE1377F70F9305140063E8E60258
:101C00001317270033074701032707006700070062
:101C100093E717001384050003461400930514008E
:101C2000130706FE1377F70FE3FCE6FC130706FD28
:101C30001377F70F9306900063FAE6141307A002D8
:101C40009306F0FF630AE63E1308E0021307F0FF75
:101C5000630806111378F60D9308C004630A18058B
:101C60001308F6FB1378F80F9308700363EA08076C
:101C7000131828003308280103280800670008000B
:101C800093E70701138405006FF01FF993E74700FE
:101C9000138405006FF05FF893E7070213840500D3
:101CA0006FF09FF793E78700138405006FF0DFF66E
:101CB00003C3150093087003138415001308F3FB86
:101CC0001378F80F63E20803B738000013182800F0
:101CD0009388882D3308180103280800670008003E
:101CE0001303060013840500930750021307150021
:101CF0006300F35A2300F50083470400639C075CEC
:101D00001305070023000500834701026388075479
:101D10009306100093870900B38636413385D700B8
:101D20009387170003C70700E31A07FE8320C11437
:101D30000324811483244114032901148329C1132A
:101D4000032A8113832A4113032B0113832BC1120E
:101D5000032C8112832C41121301011767800000AC
:101D600003C615009308900013881500130706FD9D
:101D70001377F70F63F6E8041307A0026300E64C3D
:101D800093050800130700006FF0DFEC93060000D6
:101D90001308900013972600B306D700938515000B
:101DA00093961600B386C60003C60500938606FD0B
:101DB000130706FD1377F70FE37EE8FC6FF0DFE80B
:101DC00013070000931527003387E5001308180058
:101DD000131717003307C70003460800130707FD52
:101DE000930506FD93F5F50FE3FEB8FC9305080097
:101DF0006FF05FE693E707041308C00603A70A0025
:101E0000938A4A006310061113F60704938E0400A8
:101E100063060600B73E0000938E0E3E13030000DB
:101E200013080000930F60009302A0036F0080016D
:101E3000130601123306E60113083800230456EE98
:101E4000130717000346070093080112338E080199
:101E5000935846001376F600B3881E013386CE00F1
:101E600083C80800034606001303130023041EEF73
:101E7000A304CEEE130F2800E31CF3FB93F7070136
:101E80001386F6FF63940702B387E641B307F500B4
:101E9000130700026354DF4813051500A30FE5FE86
:101EA000E31CF5FE9306FFFF1306EFFF9307810087
:101EB0003307E50103C807001305150093871700D2
:101EC000A30F05FFE318E5FE6352DF0213080002CB
:101ED0009306100013051500B387A640B387C7000B
:101EE000A30F05FFB307F700E346FFFE83C72500F6
:101EF0006FF05FCE03A70A0093E70704938A4A00B6
:101F000013840500930507009308000013070000E1
:101F100093033006130B9000930EA000930240062B
:101F2000930F000313034000130EE0026F00C00282
:101F3000130601123307E6002304F7EF9388180015
:101F40006380680813070112330607012304C6EFF4
:101F5000130718009385150003C605001308170022
:101F6000E30806FC63DAC30EB36B5602130F0112CB
:101F7000B30CEF00330C0F011308370013072700D1
:101F80003346560233CFDB033386C40003460600D4
:101F90002384CCEE3386E401034F060033E6DB03F3
:101FA0002304ECEF3386C400034F0600130601122E
:101FB0003306E6002304E6EF93881800E39468F8FC
:101FC00093F707019385F6FF63940702B3870641F1
:101FD000B307F500130700026350D832130515004C
:101FE000A30FE5FEE31CF5FE9306F8FF9305E8FF5B
:101FF000930781003307050103C607001305150089
:1020000093871700A30FC5FEE318E5FE6352D802BD
:10201000130600029306100013051500B387A640AF
:10202000B387B700A30FC5FEB307F700E346F8FE7A
:10203000834714006FF01FBA83A60A00930524009B
:10204000938A4A0003462400E3D006C0B306D0407A
:1020500093E707016FF05FBFE356CBF4334FD6032E
:10206000930B0112B38BEB00130C2700130708002E
:1020700013080C00338FE401034F0F003366D603BF
:102080002384EBEF6FF01FF2138405001306A0000A
:1020900013884A0083A50A00930A0800EFF0DF8046
:1020A000834714006FF01FB31384050013068000EC
:1020B0006FF01FFE1384050093F707019386F6FF68
:1020C0006388071A03A70A001306150093871600F2
:1020D0002300E500938A4A003305F5001307000248
:1020E000930706006354D02093871700A38FE7FE61
:1020F000E39CA7FE3305D600834714006FF09FAD25
:102100001384050093E70704130600016FF05FF8DE
:10211000138405001306F0FF6396C60093E71700CB
:102120009306800083A50A0013060001938A4A00E3
:10213000EFF08FF7834714006FF0DFA913840500D9
:1021400003A60A0093050700938A4A006300061657
:10215000034806009308060063020816630007168A
:10216000130706006F00C0009385F5FF6388050024
:102170001307170003480700E31808FE93F7070149
:10218000330717411388F6FF63840708635EE01680
:10219000B305E500130616008347F6FF1305150087
:1021A000A30FF5FEE318B5FE1385050093080002A2
:1021B00013061000E35ED7E613051500B307A6402B
:1021C000B3870701A30F15FFB387F500E346F7FEBA
:1021D000834714006FF01FA01384050093E72700C6
:1021E0001306A0006FF0DFEA130600016FF05FEA4C
:1021F00003A70A0013840500938A4A006FF09FD05A
:1022000013884A0013840500130600016FF09FE84D
:10221000B387E640B307F50093050002635AD70E73
:1022200013051500A30FB5FEE31CF5FEB306D84059
:10223000B386E6001388F6FF6FF05FF503A70A0088
:1022400003C62500938A4A001348F7FF1358F84144
:1022500033770701938525006FF0DF9F130500009A
:102260006FF0DFAC93090102138509006FF09FA99D
:102270003307D500930700026352D00613051500FB
:10228000A30FF5FEE31CE5FE9306F0FF6FF09FE35E
:102290008347040093060700130705001385060013
:1022A0002300F700834714006FF0DF9237360000F9
:1022B00093088640130686406FF05FEA13F7070124
:1022C0001388F6FFE30607F49305050013070000E3
:1022D0006FF09FED130525006FF09FFC83A70A00A8
:1022E00013061500938A4A002300F5008347140063
:1022F000130506006FF01F8E9387E6FF9386050097
:10230000938507006FF0DFCE930505006FF0DFE9DE
:10231000930608001308F8FF6FF05FE79387E6FF66
:1023200093060600138607006FF05FB85030000078
:1023300058300000603000001301018137170000A1
:102340002326117E2324817E2322917E2320217F38
:10235000232E317D232C417D232A517D2328617D2D
:102360002326717D2324817D2322917D2320A17D3D
:10237000B7F7FFFF130101F9130707839387C77DA1
:1023800033072700138605002326A100B305F700B5
:102390001305E105EFF00FD013051000EFF08FB437
:1023A000231EA10013052000EFF0CFB3231FA100CF
:1023B00013053000EFF00FB32310A1021305400006
:1023C000EFF04FB2232CA10213055000EFF08FB1B4
:1023D000630E052C232EA102371700001307078375
:1023E000B7F7FFFF33072700B307F7002324F100F7
:1023F00083A7C77E639E0744832781008397077F57
:102400006380074437160000130606833306260050
:1024100037F7FFFF3307E6008327C1032324E100DA
:10242000032681001307010693F61700232AE67E90
:1024300013950601231E010413F727001355050108
:102440006308070013051500131505011355050151
:1024500013F6470063080600130515001315050160
:10246000135505011306007D3355A602371F0000E2
:10247000B7F5FFFF93080F83B38828001388C57E44
:10248000338E0801130600003388B800930E000055
:102490001303100093083000232AA102B315C300D0
:1024A000B3F5F5006390051E13061600E31816FF3A
:1024B000639E06146316071893F7470063860702A6
:1024C0003717000013070783B7F7FFFF330727000D
:1024D000B307F700032601038395C77E0325410355
:1024E0002324F100EFE01FBD8327810363960706D5
:1024F00093071000232CF102B717000037F4FFFFF9
:10250000938707831304C47EB3872700338487002F
:102510000327810393172700B387E70093971700DA
:10252000232CF102EFF04FB313050400EFD01FAEE0
:10253000EFF04FB3EFF0CFB3EFF00FB5E30A05FCC8
:102540009307A000B3D7A70203278103938717003F
:10255000B387E702232CF102EFF00FB0B7140000AD
:1025600037F4FFFF93870483B38727001305C47EE6
:102570003385A700EFD09FA9EFF0CFAEEFF04FAFBC
:1025800093870483B3872700B38787001309050067
:102590000395C77E930500002324F100EFF00FAAF6
:1025A00083278100930505000395E77EEFF00FA9CF
:1025B00083278100930505000395077FEFF00FA89F
:1025C0009305050003154103EFF04FA7B7870000FF
:1025D000938757B0930405006302F56463EEA70C7C
:1025E000B72700009387278F6300F562B757000075
:1025F0009387F7EA6316F52837350000130545CCB5
:10260000EFF04FD4930720006F00800D37170000C4
:102610001307078333072700B7F7FFFFB307F70058
:102620000396C77E83A5877F2324F100EFE08F9177
:102630008327C1032320A10413F72700E30E07E635
:10264000371700001307078333072700B7F7FFFF8B
:10265000B307F7002324F100032781008397E77E67
:10266000032541030316C77E8325C77F9397070180
:1026700033E6C70093064104EFE0CFA28327C103EE
:102680006FF09FE3B38FAE02032F487F93152600B0
:10269000938E1E00B305BE00939E0E0193DE0E01C5
:1026A000330FFF0123A6E5016FF01FE093077000D1
:1026B000232EF1026FF05FD2B7970000938727A017
:1026C000630AF552B7F700009387579F631AF51A0C
:1026D00037350000130585CFEFF0CFC693073000E4
:1026E000373B000003278B1A930C0000930B00006C
:1026F00063000754B716000093860683373C00003A
:1027000037F7FFFFB3862600939717003387E6005D
:10271000130C4CC42324E100330CFC00B73A000036
:10272000373A0000B73900006F008004832781002A
:10273000330474011314240033848700B717000096
:10274000338487000314C48233049401938B1B00E9
:102750001314040183278B1A13540401939B0B0158
:10276000931C040193DB0B0193DC0C4163F0FB121F
:1027700013944B0003278100B3077401939727003C
:10278000B307F700371D0000330DFD008327CD8010
:1027900023160D8293F717006384070203566D8298
:1027A00083560C00630ED60093850B0013854AD523
:1027B000EFF04FB98357CD82938717002316FD8220
:1027C00003278100B307740193972700B307F7002D
:1027D000371D0000330DFD000327CD8093772700C0
:1027E0006386070203568D828356CC006300D602AF
:1027F00093850B0013054AD8EFF0CFB48357CD82F1
:102800000327CD80938717002316FD821377470097
:10281000E30E07F003278100B307740193972700A5
:10282000B307F700371D0000330DFD000356AD82DE
:1028300083568C016310D6340314CD826FF0DFF021
:1028400003278100930760062318F77E6FF09FBB74
:1028500013071000E398E7BA832781008397077F67
:10286000E39207BA03278100B7371534938757419E
:102870002326F77E930760062318F77E6FF09FB834
:10288000370401001304F4FF373B0000EFE0DFFBE7
:10289000832541033304A40037350000130585DE8A
:1028A000EFF04FAA3735000093050900130505E046
:1028B000EFF04FA913050900EFE01FFD9305050098
:1028C00037350000130585E1EFF0CFA7131404019D
:1028D0001305090013540401EFE01FFB6318052CD6
:1028E00013050900EFE05FFA9307900063F6A72A4B
:1028F00083278B1A8325810337350000130585E86C
:10290000B385F5021319040113590941EFF08FA3A0
:10291000B735000037350000938505EA1305C5EA91
:10292000EFF04FA2B735000037350000938545EC36
:10293000130585ECEFF00FA1B73500003735000027
:10294000938505EE130585EEEFF0CF9F3735000038
:1029500093850400130505F0EFF0CF9E8327C10394
:1029600013F717006308070603278B1A630407068B
:102970003717000013070783B7F7FFFF3307270058
:10298000B307F70013040000B73900002324F10057
:10299000B71400009317440003278100B387870012
:1029A00093972700B307F700B387F40003D6678235
:1029B000930504001385C9F1EFF0CF9813041400B8
:1029C00083278B1A1314040113540401E364F4FCE9
:1029D0008327C10313F727006308070603278B1A11
:1029E000630C07243717000013070783B7F7FFFFAF
:1029F00033072700B307F70013040000B7390000BE
:102A00002324F100B714000093174400032781002A
:102A1000B387870093972700B307F700B387F400C5
:102A200003D6878293050400138589F3EFF08F9115
:102A30001304140083278B1A131404011354040184
:102A4000E364F4FC8327C10393F74700638607061A
:102A500083278B1A6382070C37170000130707833D
:102A6000B7F7FFFF33072700B307F7001304000091
:102A7000B73900002324F100B71400009317440075
:102A800003278100B387870093972700B307F700D8
:102A9000B387F40003D6A78293050400138549F594
:102AA000EFF04F8A1304140083278B1A13140401C8
:102AB00013540401E364F4FC3717000083278B1AD6
:102AC00013070783B7F4FFFF330727001304000041
:102AD000373A0000B3049700B7190000638E07026D
:102AE00093174400B387870093972700B387F400B8
:102AF000B387F90003D647829305040013050AF74C
:102B0000EFF04F841304140083278B1A131404016D
:102B100013540401E366F4FC630E090A6354200DA8
:102B200037350000130585FDEFF0CF811305E10572
:102B3000EFE01FD7130101078320C17E13050000BA
:102B40000324817E8324417E0329017E8329C17D64
:102B5000032A817D832A417D032B017D832BC17C48
:102B6000032C817C832C417C032D017C1301017F8C
:102B70006780000093850B00138589DBEFE09FFCE5
:102B80008357CD8293871700139407011354044190
:102B900023168D826FF05FBB37350000130585E487
:102BA000EFE05FFA130414006FF09FD483258B1AB3
:102BB0008329810313050900B389B902EFE0DFCC53
:102BC000B3D5A90237350000130505E3EFE09FF701
:102BD0006FF01FD1373500001305C5F8EFE09FF601
:102BE0006FF0DFF4373500001305C5FEEFE09FF509
:102BF0006FF0DFF337350000130585C6EFE09FF473
:102C0000930700006FF0DFAD37350000130585D264
:102C1000EFE05FF3930740006FF09FAC37350000A3
:102C2000130585C9EFE01FF2930710006FF05FAB4B
:102C3000130400006FF09FC593F74700E39E07EC75
:102C40006FF09FE7B0D44033796A14E7C1E3000026
:102C500052BE99110856D71F47070000475EBF397B
:102C6000A4E53A8E848D0000366B20706572666F25
:102C7000726D616E63652072756E20706172616D38
:102C8000657465727320666F7220636F72656D6123
:102C9000726B2E0A00000000366B2076616C69644E
:102CA0006174696F6E2072756E20706172616D65FE
:102CB0007465727320666F7220636F72656D6172E6
:102CC0006B2E0A0050726F66696C652067656E65D1
:102CD000726174696F6E2072756E20706172616DC1
:102CE000657465727320666F7220636F72656D61C3
:102CF000726B2E0A00000000324B20706572666F06
:102D0000726D616E63652072756E20706172616DA7
:102D1000657465727320666F7220636F72656D6192
:102D2000726B2E0A00000000324B2076616C6964E1
:102D30006174696F6E2072756E20706172616D656D
:102D40007465727320666F7220636F72656D617255
:102D50006B2E0A005B25755D4552524F5221206C47
:102D60006973742063726320307825303478202DA5
:102D70002073686F756C642062652030782530346C
:102D8000780A00005B25755D4552524F5221206D37
:102D900061747269782063726320307825303478EA
:102DA000202D2073686F756C642062652030782553
:102DB0003034780A000000005B25755D4552524FA3
:102DC000522120737461746520637263203078250A
:102DD000303478202D2073686F756C642062652014
:102DE0003078253034780A00436F72654D61726B1C
:102DF0002053697A65202020203A20256C750A002E
:102E0000546F74616C207469636B732020202020E0
:102E1000203A20256C750A00546F74616C20746927
:102E20006D65202873656373293A2025640A0000C4
:102E3000497465726174696F6E732F5365632020E6
:102E4000203A2025640A00004552524F5221204D5D
:102E5000757374206578656375746520666F72207C
:102E60006174206C65617374203130207365637305
:102E700020666F7220612076616C696420726573D0
:102E8000756C74210A000000497465726174696F81
:102E90006E73202020202020203A20256C750A0007
:102EA000474343372E322E3000000000436F6D70D1
:102EB000696C65722076657273696F6E203A2025A1
:102EC000730A00002D4F3200436F6D70696C65729C
:102ED00020666C6167732020203A2025730A000069
:102EE000535441434B0000004D656D6F7279206C67
:102EF0006F636174696F6E20203A2025730A0000A9
:102F000073656564637263202020202020202020C8
:102F1000203A203078253034780A00005B25645D43
:102F20006372636C697374202020202020203A2073
:102F30003078253034780A005B25645D6372636DF8
:102F4000617472697820202020203A203078253062
:102F500034780A005B25645D637263737461746521
:102F60002020202020203A203078253034780A0094
:102F70005B25645D63726366696E616C202020204E
:102F800020203A203078253034780A00436F72725E
:102F9000656374206F7065726174696F6E2076610D
:102FA0006C6964617465642E2053656520524541E7
:102FB000444D452E6D6420666F722072756E2061DF
:102FC0006E64207265706F7274696E672072756CC2
:102FD00065732E0A000000004572726F72732064E0
:102FE000657465637465640A0000000043616E6E79
:102FF0006F742076616C6964617465206F706572AE
:103000006174696F6E20666F7220746865736520E5
:10301000736565642076616C7565732C20706C65D2
:1030200061736520636F6D70617265207769746884
:1030300020726573756C7473206F6E2061206B6EE7
:103040006F776E20706C6174666F726D2E0A00006F
:10305000537461746963000048656170000000008A
:10306000537461636B004743433A2028474E552908
:1030700020372E322E3000002C1100002C110000C1
:103080006811000068110000CC1100005C310000E4
:10309000643100006C310000743100002C310000FC
:1030A000383100004431000050310000FC30000095
:1030B000083100001431000020310000CC30000045
:1030C000D8300000E4300000F030000054302E33DF
:1030D000652D3146000000002D542E542B2B5471C9
:1030E000000000003154332E3465347A00000000B3
:1030F00033342E30652D545E00000000352E3530FF
:1031000030652B33000000002D2E313233652D3217
:10311000000000002D3837652B38333200000000E6
:103120002B302E36652D31320000000033352E3520
:1031300034343030000000002E313233343530303A
:10314000000000002D3131302E37303000000000FB
:103150002B302E3634343030000000003530313220
:103160000000000031323334000000002D383734C5
:10317000000000002B313232000000004017000038
:10318000101700001C17000028170000341700005B
:103190000417000000000000000000000000000014
:1031A0000000000000000000010000000A00000014
:1031B00066000000A41C00002C1C00002C1C000059
:1031C000981C00002C1C00002C1C00002C1C000073
:1031D0002C1C00002C1C00002C1C00002C1C0000CF
:1031E0008C1C00002C1C0000801C00002C1C00000B
:1031F0002C1C0000101C0000F41E0000E01C00004D
:10320000E01C0000E01C0000E01C0000E01C0000CE
:10321000E01C0000E01C0000E01C0000E01C0000BE
:10322000E01C0000E01C0000E01C0000E01C0000AE
:10323000E01C0000E01C0000E01C0000E01C00009E
:10324000E01C0000E01C0000E01C0000E01C00008E
:10325000E01C000000210000E01C0000E01C000059
:10326000E01C0000E01C0000E01C0000E01C00006E
:10327000E01C0000E01C0000F0210000E01C000049
:10328000B4200000D8210000E01C0000E01C000079
:10329000E01C0000E01C0000D8210000E01C000041
:1032A000E01C0000E01C0000E01C0000E01C00002E
:1032B000A820000010210000E01C0000E01C00001D
:1032C0003C210000E01C000088200000E01C000001
:1032D000E01C000000220000F41D0000E81C0000BB
:1032E000E81C0000E81C0000E81C0000E81C0000CE
:1032F000E81C0000E81C0000E81C0000E81C0000BE
:10330000E81C0000E81C0000E81C0000E81C0000AD
:10331000E81C0000E81C0000E81C0000E81C00009D
:10332000E81C0000E81C0000E81C0000E81C00008D
:10333000E81C000004210000E81C0000E81C00005C
:10334000E81C0000E81C0000E81C0000E81C00006D
:10335000E81C0000E81C0000F81D0000E81C00004C
:10336000B8200000DC210000E81C0000E81C000080
:10337000E81C0000E81C0000DC210000E81C000044
:10338000E81C0000E81C0000E81C0000E81C00002D
:10339000AC20000014210000E81C0000E81C000024
:1033A00040210000E81C00008C200000E81C000008
:1033B000E81C0000E8210000303132333435363764
:1033C00038396162636465666768696A6B6C6D6EE3
:1033D0006F707172737475767778797A0000000077
:1033E000303132333435363738394142434445463B
:1033F0004748494A4B4C4D4E4F50515253545556E5
:103400005758595A000000003C4E554C4C3E0000A5
:00000001FF
