:1000000037010100EF20807673001000130101FF1B
:10001000232021010329C501232611002324810067
:1000200023229100232C0502232E050263040904D8
:100030001304050093040000930510001305040049
:10004000EF00004A83558403EF10D035231CA4022F
:100050009305F0FF13050400EF00804883558403E7
:10006000EF105034231CA402638404029384140010
:10007000E31499FC8320C100032481008324410000
:10008000032901001305000013010101678000002E
:10009000231DA4026FF09FFD631E06028317050057
:1000A00013970701135707011357870093F707F0BA
:1000B000B3E7E7002310F5008397050013970701C6
:1000C0001357070193F707F013578700B3E7E700CB
:1000D0002390F50003152500839725003305F5408F
:1000E00067800000130101FE232C8100031405002A
:1000F00023282101232E110093577440232A9100B5
:100100002326310193F717001379F4076392070848
:10011000938405009355344093F5F500939745007B
:1001200013777400B3E5B7009309050083D7840300
:1001300063000708930610006316D70213860700B2
:1001400013858402EF10002983D7C4031319050116
:100150001359094163940700239EA40283D78403A3
:100160006F0080001309040013150901938507002F
:1001700013550501137404F0EF10D0221379F90719
:1001800013640408239CA40233648900239089002B
:100190008320C10103248101130509008324410147
:1001A000032901018329C1001301010267800000B6
:1001B000930620021387050063D4D500130720029D
:1001C000839624000396040083A5440103A58401BB
:1001D0001377F70FEF10806F83D7E403131905012E
:1001E00013590941E39C07F6239FA40283D7840394
:1001F0006FF09FF7130101FF2320210113890500F0
:100200009305060023261100232481002322910058
:1002100013040600EFF01FED93040500930504009E
:1002200013050900EFF01FEC8320C10003248100B7
:100230003385A440032901008324410013010101F7
:100240006780000003970500839725002310E500D1
:100250002311F5006780000003280600930888003A
:1002600063F6E80403A70600130347006370F30472
:100270002320160183270500839805000396250097
:100280002320F800232005012322E80083A706008D
:10029000130508009387470023A0F6008327480032
:1002A000239017012391C700678000001308000006
:1002B000130508006780000083270500032645001A
:1002C0001307050083A5470083A6070013850700D1
:1002D0002322B70023A2C7002320D70023A00700B2
:1002E0006780000003A645008326450003A705009C
:1002F0002322C50023A2D5002320E50023A0A500CA
:100300006780000003972500634807026304050225
:100310008327450083972700639AE7006F00000555
:1003200083274500839727006386E70003250500A0
:10033000E31805FE67800000E30E05FE83274500F5
:100340000397050083C70700639AE7006F00400228
:100350008327450083C707006388E700032505005E
:10036000E31805FE6FF01FFD678000006780000046
:100370006780000063000502130700006F00800023
:1003800013850700832705002320E50013070500D8
:10039000E39807FE67800000130101FD232C410153
:1003A000232A510123267101232481012320A10145
:1003B00023261102232481022322910223202103D8
:1003C000232E31012328610123229101130A050004
:1003D000138C0500930B0600930A1000130D1000F8
:1003E000630E0A0A930C000013090000130B0000AF
:1003F000938C1C0013040A009304000003240400DF
:100400009384140063040400E39A9AFE93890A001B
:10041000638E0402638E0904630C04048325440084
:1004200003254A0013860B00E7000C006352A0046A
:1004300093070400032404009389F9FF630409026D
:100440002320F90013890700E39604FC638A09025C
:10045000630C0402930704009389F9FF032404004A
:10046000E31009FE138B0700138907006FF0DFFD0F
:1004700093070A009384F4FF032A0A006FF01FFC1D
:10048000130A0400E31604F623200900638CAC0170
:10049000939A1A00130A0B006FF09FF423200000B8
:1004A000730010008320C1020324810213050B0096
:1004B00083244102032901028329C101032A810106
:1004C000832A4101032B0101832BC100032C8100EE
:1004D000832C4100032D01001301010367800000FC
:1004E000130101FC232C8101031C4500232C8102F4
:1004F00023206103232E7101232E1102232A91024E
:1005000023282103232631032324410323225103DB
:10051000232A91012328A1012317B100930B050081
:10052000138B050003244502635A8025138D0500B3
:1005300013090000130A000093090000930400004F
:10054000930AC100B73C00009377F90F93850A0026
:10055000130504002316F100EFF0DFDA6300040254
:10056000130700006F008000138407008327040036
:100570002320E40013070400E39807FE6306050840
:1005800083274500938919009399090183970700F0
:1005900093D9090113F71700630C070093D797400D
:1005A00093F71700B384F4009394040193D40401E7
:1005B00083270500638C070003A707002320E500BD
:1005C0000327040023A0E7002320F40063460D0066
:1005D000130D1D002317A1019305090013870900BE
:1005E00093060A001386040013854C4D1309190065
:1005F000EF1090179317090193D7074163DC870326
:10060000031DE1006FF05FF483270400130A1A0052
:10061000131A0A0183A74700135A0A018387170098
:1006200093F71700B384F4009394040193D4040166
:100630006FF0DFF993992900338A4941B38444016B
:100640009394040193D40401635E6001B705000034
:100650001305040013860B009385451FEFF0DFD3CD
:10066000130405008327040093850A001305040082
:1006700083A9070083A6470003A6490003A7090032
:1006800023A2C70023A2D90023A0E70023A00900CA
:10069000EFF05FC713090500630C050C83274400C6
:1006A0009385040003950700EF10005B0329090000
:1006B00093040500E31409FE373500009385040018
:1006C0001305054FEF10500A8327040083A6490045
:1006D0001305040083A5470003A7070013060000C5
:1006E00023A2B90023A2D70023A0E900B705000088
:1006F00023A0370193858509EFF01FCA0324050065
:100700001309050063000402832749009385040050
:1007100003950700EF1040540324040093040500E0
:10072000E31404FE3735000093850400130545509B
:10073000EF1090038320C103032481031385040079
:1007400003290103832441038329C102032A81026F
:10075000832A4102032B0102832BC101032C810157
:10076000832C4101032D0101130101046780000066
:1007700003290400E30209F46FF05FF29304000020
:10078000930AC1006FF05FEC130740013357E50295
:10079000130101FF2326110023248100232291004D
:1007A000232021011385050023A00500B787FFFF43
:1007B0009388070893860501938F850093050000B1
:1007C0001307E7FF1318370033080501232205013B
:1007D000131F27002311080023101801330FE8010D
:1007E0001303480063F606019308880063E2E815E6
:1007F000630A070693130601B782FFFF93D3030131
:100800009306000093C2F2FF138E8F00930E4300F5
:1008100063760E059398060193D80801B3C7780054
:100820009397370093F8780093F78707B3E717019A
:1008300093988700B3E7F80063F2EE0323A0BF00AC
:100840002320F50123A26F002310F300231153008E
:1008500093850F0013830E00930F0E0093861600EE
:10086000E314D7FA93085000374E0000B35817032B
:100870009306100013070020130EFEFF6F00C00147
:100880002391D5001307071013170701938616004D
:10089000135707019305080003A805009377077015
:1008A00033C3C600B3E76700B3F7C701630A0800A4
:1008B00083A54500E3E616FD2391F5006FF09FFC4C
:1008C000B70500001306000093858509EFF0DFAC43
:1008D000130905003735000013058551EF10C06876
:1008E0006304090213040900B7340000832744009D
:1008F0001385C45203D6070083952700EF10C06606
:1009000003240400E31404FE373500001305052E0C
:10091000EF1080658320C1000324810013050900C6
:1009200083244100032901001301010167800000B5
:100930002320F50123266500232405001303F0FF7F
:1009400093C7F7FF93850F00231268002313F80065
:1009500013830800938F06006FF09FE9130101FDD8
:1009600023202103232A510113890500930A05003E
:1009700037350000930506009306090013060900A9
:100980001305855323261102232481022322910279
:10099000232E3101232C41012328610123267101DB
:1009A00023248101EF10405C630C0904131C19001F
:1009B000130B0000373A0000B73B0000B7390000C6
:1009C00093840A00130400006F00C000EF10C059A8
:1009D000938424008395040013050A55130414001E
:1009E000EF1080581385C954E31289FE13850B2E2E
:1009F000130B1B00EF104057B38A8A01E3122BFD43
:100A00008320C102032481028324410203290102BD
:100A10008329C101032A8101832A4101032B01019A
:100A2000832BC100032C81001301010367800000A8
:100A3000130101FD23202103232A510113890500FD
:100A4000930A050037350000930506009306090058
:100A5000130609001305855323261102232481025E
:100A600023229102232E3101232C410123286101ED
:100A70002326710123248101EF10004F630C090428
:100A8000131C2900130B0000373A0000B73B00008D
:100A9000B739000093840A00130400006F00C000FF
:100AA000EF10804C9384440083A5040013050A557D
:100AB00013041400EF10404B1385C954E31289FE50
:100AC00013850B2E130B1B00EF10004AB38A8A010B
:100AD000E3122BFD8320C1020324810283244102FF
:100AE000032901028329C101032A8101832A4101CB
:100AF000032B0101832BC100032C8100130101038F
:100B000067800000130101FF2326110023248100C8
:100B10002322910063140600130610009384F5FF4E
:100B200093F4C4FF138F4400130400006316050000
:100B30006F0000111304070013071400B307E70246
:100B400093973700E3E8A7FEB3038402930F0400F2
:100B500093931300B3047F0063040408370E01006D
:100B60009302000013031000B30E9F409310140073
:100B7000130EFEFF33855002130703003385A400D4
:100B80003306E6029317070193D70701B388AE0037
:100B90001305250013071700330867409355F641E6
:100BA00093D505013306B6003376C6013306B64049
:100BB000B385C7009395050193D50501B387B700A9
:100BC000231FB5FE93F7F70F2390F800E36A88FA26
:100BD0009382120063F68200130307006FF09FF9FF
:100BE000B38774009387F7FF93F7C7FF9387470096
:100BF000373600009305040013050F0023A4960068
:100C00001306465523A2E60123A6F60023A0F6010B
:100C1000EFF0DFD43736000013850400930504009D
:100C200013068655EFF09FD3130504008320C100FF
:100C30000324810083244100130101016780000027
:100C400093846400930FF0FF1304F0FF93032000DC
:100C50006FF0DFF0630A0508330FA04093172500FB
:100C6000B385F500931F2F00130E000093070000BB
:100C70009306000093080000131F3F00B38EBF00CF
:100C800013870E006F00C00193170301130747007D
:100C900093D707419308000093060800638CE50290
:100CA000032807009397070193D70701B3A606010E
:100CB000B38808011383A700B387D700E34616FD66
:100CC000939707011307470093D70741930608003E
:100CD000E398E5FC130E1E00B385EE41E310C5FB5F
:100CE0001385070067800000930700001385070045
:100CF00067800000630E0502131E15001313250004
:100D0000930800003308CE00138705008317060000
:100D10001307470013062600B387D702232EF7FEDA
:100D2000E31606FF93881800B3856500E31C15FDE4
:100D300067800000630A05021316060113560601B8
:100D400013181500930600003307B80083D7050079
:100D500093852500B307F600239FF5FEE318B7FE41
:100D600093861600E312D5FE678000006306050433
:100D7000931E150013152500338EA5003383D6016D
:100D800093870600130506001308000003170500EB
:100D9000839807009387270013052500330717035F
:100DA0003308E800E314F3FE23A005019385450012
:100DB0003306D601E316BEFC678000006300050819
:100DC000131E1500130101FF23268100B30EC60177
:100DD00013142500B382C60193030000138F06008D
:100DE000938F050013080F00930706009308000077
:100DF0000397070003130800938727003308C801EF
:100E000033076702B388E800E394FEFE23A01F01C6
:100E1000130F2F00938F4F00E396E2FD938313008F
:100E20003306C601B38ECE01B3858500E31875FA8B
:100E30000324C100130101016780000067800000E6
:100E4000630A0508131E1500130101FF2326810004
:100E5000B30EC60113142500B382C601930300002C
:100E6000138F0600938F050093080F0013080600E8
:100E700013030000039708008317080013082800D5
:100E8000B388C801B387E70213D7274093D75740E9
:100E90001377F70093F7F707B307F7023303F3006D
:100EA000E39A0EFD23A06F00130F2F00938F4F00C6
:100EB000E39CE2FB938313003306C601B38ECE019D
:100EC000B3858500E31E75F80324C10013010101F9
:100ED0006780000067800000130101FB2324810468
:100EE0002322910423202105232C410323261104CE
:100EF00037FAFFFF232E3103232A510323286103EE
:100F00002326710323248103232291032320A10399
:100F1000232EB101138405009304060013890600F3
:100F2000336A47016306053C931A0701130D070056
:100F300093DA0A01131C1500930B060093070600B1
:100F4000930900003306FC0083D60700938727002F
:100F5000B386DA00239FD7FEE318F6FE93891900C3
:100F600093070600E31035FF3736000013850400B1
:100F70001306C65593850900EFF05F9E139B290069
:100F8000930C04001305040093870400130700006A
:100F9000B3858701130605008396070013064600F4
:100FA00093872700B386A603232ED6FEE396B7FECB
:100FB0001307170033056501E31C37FDB30D3041FE
:100FC000330D640113972D0093080D0013050000E5
:100FD000930700009305000013030000939D3D005C
:100FE000330E170113060E006F00C0011315080120
:100FF000130646001355054193050000938706002C
:10100000638CC802832606001315050113550501DC
:10101000B3A7D700B385D5001308A5003305F500A5
:10102000E346BAFC131505011306460013550541A6
:1010300093870600E398C8FC13031300B308BE416E
:10104000E31033FB930500002326E100EF00D040BE
:10105000373600002324A1001306065793850900A4
:1010600013050400EFF0DF9C9305040013850900CD
:101070009306090013860400EFF05FCF83288100F8
:101080000327C1001305000093070000930500002B
:1010900013030000330EA70113060E006F00C001FA
:1010A000131508011306460013550541930500006A
:1010B00093870600630CCD028326060013150501F5
:1010C00013550501B3A7D700B385D5001308A500B4
:1010D0003305F500E346BAFC131505011306460077
:1010E0001355054193870600E318CDFC1303130045
:1010F000330DBE41E31033FB93850800EF00D0357C
:10110000373600001306465893850900130D050075
:1011100013050400EFF0DF91930609001385090021
:101120001386040093050400EFF05FC91303040065
:1011300013050000930700009306000093080000C9
:1011400093050300130600006F0000021315080149
:1011500013061600135505419306000093854500BC
:1011600093070700637E360303A7050013150501E7
:1011700013550501B3A7E700B386E6001308A500E1
:101180003305F500E344DAFC1315050113061600D8
:10119000135505419385450093070700E36636FD27
:1011A0009388180033036301E3EC38F993050D00CD
:1011B000EF00902A37360000130646599385090040
:1011C000130D050013050400EFF09F869306090038
:1011D000138509001386040093050400EFF05FC631
:1011E0001305000093070000930600009308000019
:1011F00093850C00130600006F0000021315080110
:10120000130616001355054193060000938545000B
:1012100093070700637E360303A705001315050136
:1012200013550501B3A7E700B386E6001308A50030
:101230003305F500E344DAFC131505011306160027
:10124000135505419385450093070700E36636FD76
:1012500093881800B38C6C01E3EC38F993050D000A
:10126000EF00901F373600001306865A93040500DE
:101270009385090013050400EFF08FFB13060000AF
:1012800093870B009306000003D70700938727007E
:101290009386160033075741239FE7FEE3E636FFA8
:1012A00013061600B38B8B01E36C36FD8320C1045B
:1012B00003248104139504010329010483244104B8
:1012C0008329C103032A8103832A4103032B0103DA
:1012D000832BC102032C8102832C4102032D0102C6
:1012E000832DC101135505411301010567800000DD
:1012F000373600001306C655138504009305000019
:10130000EFF0CFE59305000013050000EF00D014C7
:10131000373600009309050013060657130504002D
:1013200093050000EFF0CFF0930609001386040048
:101330009305040013050000EFF05FA393850900F7
:1013400013050000EF005011373600009309050027
:10135000130646581305040093050000EFF04FED07
:10136000930609001386040093050400130500008A
:10137000EFF0DFA49385090013050000EF00D00D06
:10138000373600009309050013064659130504007B
:1013900093050000EFF0CFE91386040093060900DF
:1013A0009305040013050000EFF09FA99385090041
:1013B00013050000EF00500A3736000093040500C3
:1013C0001306865A9305000013050400EFF04FE65C
:1013D0006FF0DFED130101FF232481001387050067
:1013E000130406008325C5008326850003264500D7
:1013F0000325050023261100EFF01FAE930504001E
:10140000032481008320C100130101016F00D00477
:10141000130101FF2324810023202101130405006F
:10142000138905009305050037350000232291003C
:101430001305C56193040600130609002326110055
:10144000EF009032130E0000130300009306190002
:10145000B30EC3019396060137360000B73500007E
:101460001305F4FF138F1E0093D6060193070000A7
:101470009308C002130840001306C65D9385855C7F
:10148000637EAF0463100E0A93F776009387D7FF4D
:101490009397070113D7360093D7070113773700C7
:1014A0006364F80C93972700B387B70083A70700FE
:1014B000131727003307E60067800700832707011B
:1014C000130E800093861600B30EC3019396060197
:1014D000138F1E0093D60601E366AFFA637C830088
:1014E000B387640033848400238007009387170048
:1014F000E31CF4FE032481008320C10003290100C2
:101500009385040083244100373500001305C5622C
:10151000130101016F00502583270702130E80007D
:101520006FF05FFA33876400338EC70103C307008F
:101530001307170093871700A30F67FEE318FEFE3B
:1015400093F776009387D7FFB38ED4019397070163
:1015500013D7360023801E0193D7070113030F0012
:1015600013773700E370F8F4131727003307E6000A
:1015700083270700130E40006FF0DFF48327070373
:10158000130E80006FF01FF48327050003C70700C8
:10159000630407069306C002138617006304D72A64
:1015A00003A80500930807FD93F8F80F13039000B4
:1015B000130818006368130523A0050103C717006B
:1015C0006304072C93872700630ED70C1308E002EF
:1015D000930890001303C002930607FD93F6F60FDD
:1015E0006306070D63F4D82083A6050113071000D6
:1015F0009386160023A8D5002320F50013050700C5
:10160000678000009308B002630C17039308D002B0
:10161000630817039308E002630C172303A7450030
:1016200023A00501930706001307170023A2E50076
:10163000130710002320F500130507006780000042
:1016400023A0050103C8170063040822138627009E
:101650006300D82283A68500130708FD1377F70FD0
:10166000930890009386160063F2E8021307E002E5
:10167000630AE81A23A4D500930706001307100095
:101680002320F500130507006780000023A4D50080
:1016900003C72700630A071E9306C00293071600BC
:1016A000E316D7F2130740006FF01FF503A70501FB
:1016B0001307170023A8E50003471600630E071C55
:1016C0009306C00213881700630ED718930607FD10
:1016D000130650041377F70D930890001303C0020C
:1016E00093F6F60F6308C70263E2D81203C7170028
:1016F0009306180093070800630607166302671C29
:1017000013880600930607FD1377F70D93F6F60F7F
:10171000E31CC7FC03A745011307170023AAE50034
:1017200003C71700630C07141306C00293071800C1
:101730006308C71483A6C500130757FD1377D70F97
:101740009386160023A6D500630A0700130710002E
:101750002320F500130507006780000003471800E9
:1017600063000714930628006300C71483A785014C
:10177000130707FD1377F70F93871700930890005F
:1017800023ACF50063F8E800938706001307100008
:101790006FF01FFC03472800630E07109307380003
:1017A0006302C704130690009308C002130707FDE5
:1017B0001377F70F637CE60083A64500130710003C
:1017C0009386160023A2D5006FF01FE303C716000F
:1017D0001388170093860700630607009307080025
:1017E000E31617FD130770006FF01FE103471600A3
:1017F0009386170013860700E30607EA938706001F
:10180000E31C67DC130740006FF01FDF83A6450170
:1018100093070800130710009386160023AAD5002B
:101820006FF09FDD23A4D50003C7270063040706DC
:101830009307C002130816006306F7029307060019
:101840006FF0DFE893070600130700006FF0DFDAA0
:1018500023A0050103C71700630E070213882700A2
:10186000E31ED7FC93070800130750006FF0DFD882
:1018700093070600130720006FF01FD89307080096
:10188000130730006FF05FD793070600130740007F
:101890006FF09FD693070600130750006FF0DFD557
:1018A000130760006FF05FD5938706001307600091
:1018B0006FF09FD493870600130770006FF0DFD39B
:1018C00093870600130750006FF01FD3130101F830
:1018D0002324410723206107232C81052328A10508
:1018E000130C0600138B0600130A0700130D0500E6
:1018F0003735000013870700232C810693060A0062
:101900001384050013060B0093050C0013050564F2
:10191000232A91062328210723263107232E110687
:101920009389070023225107232E7105232A91054D
:101930009304010123268100EF00006313090103D2
:1019400093060105138704009307010323A00700F2
:10195000232007009387470013074700E398D7FE2B
:101960008327C10083C7070063840704930CC10069
:10197000B73A00009305010313850C00EFF0DFC0B8
:101980009317250013070105B307F70003A707FC0A
:10199000930505001385CA651307170023A0E7FC0C
:1019A000EF00805C8327C10083C70700E39407FC36
:1019B000B73B000013850B2EEF00005B330DA40135
:1019C00023268100637AA411930704001306C00242
:1019D00003C70700B34687016304C7002380D7000D
:1019E0008327C100B38747012326F100E3E2A7FF65
:1019F0008347040023268100638C070E930CC100EB
:101A0000B73A00009305010313850C00EFF0DFB730
:101A10009317250013070105B307F70003A707FC79
:101A2000930505001385CA651307170023A0E7FC7B
:101A3000EF0080538327C10083C70700E39407FCAE
:101A400013850B2EEF004052232681006374A403FC
:101A50009306C0028347040033C767016384D7003D
:101A60002300E4000324C100330444012326810041
:101A7000E362A4FF1384040203A504009385090014
:101A800093844400EF00001A930505000325090024
:101A900013094900EF00001993090500E39E84FC37
:101AA0008320C107032481078324410703290107F9
:101AB0008329C106032A8106832A4106032B0106D6
:101AC000832BC105032C8105832C4105032D0105C2
:101AD000130101086780000083470400E39007F2C8
:101AE00013850B2EEF004048232681006FF09FF8EE
:101AF00013850B2EEF004047232681006FF05FF522
:101B00009307500063ECA704B73700009387077171
:101B1000131525003305F5008327050067800700AE
:101B2000B737000003A5077367800000B7370000D0
:101B300003A5877367800000B737000003A54773CC
:101B400067800000B737000003A547746780000076
:101B5000B737000003A50774678000001305000075
:101B60006780000037A6FFFF93078000130616006A
:101B700033C7A5009387F7FF93D515001377170098
:101B800093F7F70FB3C6C50013551500630607009A
:101B90009395060193D50501E39C07FC1385050089
:101BA0006780000037A8FFFF9376F50F930780004A
:101BB0001308180033C7D5009387F7FF93D5150096
:101BC0001377170093F7F70F33C6050193D6160066
:101BD000630607009315060193D50501E39C07FCF6
:101BE00037A6FFFF135585009307800013061600E4
:101BF00033C7A5009387F7FF93D515001377170018
:101C000093F7F70FB3C6C500135515006306070019
:101C10009395060193D50501E39C07FC1385050008
:101C200067800000130101FF2324810013040500D5
:101C3000131505011355050123261100EFF09FF63A
:101C40009305050013550401032481008320C1007E
:101C5000130101016FF01FF513150501135505015F
:101C60006FF05FF4130500006780000013050000AB
:101C700067800000B737000023A607726780000066
:101C8000B737000023A4077267800000B737000051
:101C900003A58772B737000083A7C7723305F540E5
:101CA000678000009307A0003355F50267800000AD
:101CB000930710002300F500678000002300050053
:101CC0006780000013F80704130101FB6316081E68
:101CD000374300001303C39493FF070163860F1C6F
:101CE00093F7E7FF930E000213F827009303000019
:101CF0006300080263CC052013F84700631E081C2C
:101D000013F88700630608009386F6FF930300022A
:101D100093F20702638C020013080001630C062192
:101D2000130886FF13381800B3860641638C051824
:101D30001308C100130E1000330E0E41B3F8C50294
:101D4000330F0E0113081800B3D5C502B3081301F1
:101D500083C80800A30F18FFE39205FE9308FFFF56
:101D600013080F006354EF0013080700B386064101
:101D700093F717019385F6FF639207023307D500A7
:101D8000930700026354D01C13051500A30FF5FE42
:101D9000E31CE5FE9305E0FF9306F0FF6386030076
:101DA0002300750013051500638A02009307800065
:101DB000630AF61693070001630AF61263940F0490
:101DC0001307050013061000635CD01613071700F5
:101DD000B307E640B387B700A30FD7FFB307F500FB
:101DE000E346F0FE93C7F5FF93D7F741B3F7F5004D
:101DF0009386F5FFB386F640938717003305F50009
:101E00009385F6FFB307E841B307F5001307000316
:101E100063580F0113051500A30FE5FEE39CA7FE11
:101E20006352E0051306C10013081000B307160142
:101E3000130705003308C84003C60700130717003F
:101E40009387F7FFA30FC7FE3306F800E346C0FEF3
:101E500093C7F8FF93D7F741B3F7F80093871700BC
:101E60003305F500635ED002130705001306000278
:101E70009306100013071700B387E640B387B70037
:101E8000A30FC7FEB307F500E346F0FE93C7F5FFC7
:101E900093D7F741B3F5F500938515003305B500E9
:101EA000130101056780000013F81700630C080494
:101EB000930E00036FF05FE3374300001303439773
:101EC0006FF09FE1930500032306B1009308000023
:101ED000130F10006FF0DFE893F207029386F6FF0E
:101EE0009303B002E38402E46FF01FE3930700035F
:101EF0002300F50093078007A300F50013052500D4
:101F00006FF0DFEB930E00026FF01FDE93F207021B
:101F1000B305B0409386F6FF9303D002E38802E056
:101F20006FF09FDF930700032300F50013051500F2
:101F30006FF0DFE89386E6FFE39C05DE6FF09FF825
:101F4000938605009385F5FF6FF0DFEB9387E6FF3F
:101F500093860500938507006FF05FE4B707008064
:101F60002380A70067800000130101E9232A511391
:101F700023261114232481142322911423202115B4
:101F8000232E3113232C411323286113232671138D
:101F90002324811323229113232AB114232CC11447
:101FA000232ED1142320E1162322F1162324011716
:101FB0002326111783470500930A41152322510157
:101FC000638C076C93090102373A0000373900002F
:101FD000B744000013040500130A8A74138509002E
:101FE0001309C9789384C4946F0080012300F5001D
:101FF00083471400130515001304140063860712A9
:1020000013075002E394E7FE034614009306000111
:1020100093070000130706FE1377F70F93051400CC
:1020200063E8E60213172700330747010327070079
:102030006700070093E717001384050003461400A8
:1020400093051400130706FE1377F70FE3FCE6FC75
:10205000130706FD1377F70F9306900063FEE6144F
:102060001307A0029306F0FF630EE63E1308E0029A
:102070001307F0FF630C06111378F60D9308C004E4
:10208000630A18051308F6FB1378F80F930870031A
:1020900063EA0807131828003308280103280800FA
:1020A0006700080093E70701138405006FF01FF92C
:1020B00093E74700138405006FF05FF893E707028A
:1020C000138405006FF09FF793E7870013840500E2
:1020D0006FF0DFF603C31500930870031384150037
:1020E0001308F3FB1378F80F63E20803B748000006
:1020F000131828009388C88633081801032808009D
:1021000067000800130306001384050093075002BC
:10211000130715006308F35A2300F50083470400F2
:102120006394075E130507002300050003470102BF
:102130006300075693061000938709003706008056
:10214000B38636413385D7002300E6009387170016
:1021500003C70700E31807FE8320C114032481147A
:1021600083244114032901148329C113032A8113F1
:10217000832A4113032B0113832BC112032C8112D9
:10218000832C4112130101176780000003C615005C
:102190009308900013881500130706FD1377F70FB7
:1021A00063F6E8041307A0026304E64C93050800F5
:1021B000130700006FF05FEC930600001308900017
:1021C00013972600B306D700938515009396160043
:1021D000B386C60003C60500938606FD130706FDF9
:1021E0001377F70FE37EE8FC6FF05FE8130700005A
:1021F000931527003387E5001308180013171700FD
:102200003307C70003460800130707FD930506FDC3
:1022100093F5F50FE3FEB8FC930508006FF0DFE5DA
:1022200093E707041308C00603A70A00938A4A002D
:102230006310061113F60704938E0400630606006C
:10224000B74E0000938E4E97130300001308000052
:10225000930F60009302A0036F0080011306011228
:102260003306E60113083800230456EE130717005F
:102270000346070093080112338E08019358460065
:102280001376F600B3881E013386CE0083C808009B
:10229000034606001303130023041EEFA304CEEE2F
:1022A000130F2800E31CF3FB93F707011386F6FFD7
:1022B00063940702B387E641B307F50013070002F2
:1022C0006358DF4813051500A30FE5FEE31CF5FE78
:1022D0009306FFFF1306EFFF930781003307E50125
:1022E00003C807001305150093871700A30F05FF08
:1022F000E318E5FE6352DF021308000293061000A4
:1023000013051500B387A640B387C700A30F05FFC9
:10231000B307F700E346FFFE83C725006FF0DFCD6C
:1023200003A70A0093E70704938A4A001384050071
:10233000930507009308000013070000930330067D
:10234000130B9000930EA00093024006930F00031E
:1023500013034000130EE0026F00C00213060112C7
:102360003307E6002304F7EF9388180063806808BA
:1023700013070112330607012304C6EF13071800E1
:102380009385150003C6050013081700E30806FC33
:1023900063DAC30EB36B5602130F0112B30CEF00D6
:1023A000330C0F011308370013072700334656027A
:1023B00033CFDB033386C400034606002384CCEE10
:1023C0003386E401034F060033E6DB032304ECEF1E
:1023D0003386C400034F0600130601123306E600DD
:1023E0002304E6EF93881800E39468F893F7070155
:1023F0009385F6FF63940702B3870641B307F500A0
:10240000130700026354D83213051500A30FE5FE2D
:10241000E31CF5FE9306F8FF9305E8FF93078100A0
:102420003307050103C6070013051500938717003E
:10243000A30FC5FEE318E5FE6352D802130600029F
:102440009306100013051500B387A640B387B700A5
:10245000A30FC5FEB307F700E346F8FE8347140059
:102460006FF09FB983A60A0093052400938A4A005F
:1024700003462400E3DC06BEB306D04093E7070121
:102480006FF0DFBEE356CBF4334FD603930B01124C
:10249000B38BEB00130C27001307080013080C0084
:1024A000338FE401034F0F003366D6032384EBEF31
:1024B0006FF01FF2138405001306A00013884A0072
:1024C00083A50A00930A0800EFF0CFFF83471400AA
:1024D0006FF09FB213840500130680006FF01FFE9B
:1024E0001384050093F707019386F6FF638C071AA0
:1024F00003A70A0013061500938716002300E500C2
:10250000938A4A003305F50013070002930706007B
:102510006358D02093871700A38FE7FEE39CA7FEA4
:102520003305D600834714006FF01FAD13840500F8
:1025300093E70704130600016FF05FF813840500AA
:102540001306F0FF6396C60093E71700930680001A
:1025500083A50A0013060001938A4A00EFF08FF664
:10256000834714006FF05FA91384050003A60A00D7
:1025700093050700938A4A00630406160348060081
:10258000930806006306081663040716130706007F
:102590006F00C0009385F5FF6388050013071700DF
:1025A00003480700E31808FE93F7070133071741B4
:1025B0001388F6FF638807086352E018B308E60043
:1025C00093070500130616008345F6FF938717004F
:1025D000A38FB7FEE31816FF3306E50013050600C8
:1025E0009308000293051000E35AD7E6130515007F
:1025F000B387A540B3870701A30F15FFB307F60004
:10260000E346F7FE834714006FF01F9F1384050015
:1026100093E727001306A0006FF05FEA130600019E
:102620006FF0DFE903A70A0013840500938A4A00CC
:102630006FF01FD013884A001384050013060001B1
:102640006FF01FE8B387E640B307F500930500027B
:10265000635AD70E13051500A30FB5FEE39CA7FE22
:10266000B306D840B386E6001388F6FF6FF0DFF4B8
:1026700003A70A0003C62500938A4A001348F7FF00
:102680001358F84133770701938525006FF0DF9EDB
:10269000130500006FF05FAC930901021385090078
:1026A0006FF09FA83307D500930700026352D0064E
:1026B00013051500A30FF5FEE31CE5FE9306F0FFDE
:1026C0006FF01FE38347040093060700130705001C
:1026D000138506002300F700834714006FF0DF9195
:1026E000374600009308C6991306C6996FF0DFE9D4
:1026F00013F707011388F6FFE30607F41306050036
:10270000130700006FF09FED130525006FF09FFC8D
:1027100083A70A0013061500938A4A002300F500D8
:1027200083471400130506006FF01F8D9387E6FFA3
:1027300093860500938507006FF05FCE13060500B2
:102740006FF0DFE9930608001308F8FF6FF0DFE68B
:102750009387E6FF93060600138607006FF0DFB746
:10276000AC340000B4340000BC340000130101811B
:102770002326117E2324817E2322917E2320217F04
:10278000232E317D232C417D232A517D2328617DF9
:102790002326717D2324817D2322917D2320A17D09
:1027A000130101F92326A100373500001305050B9D
:1027B00093840500EFF04FFBB717000037F4FFFFDD
:1027C00093870783B38727001304C47DB3858700ED
:1027D000138604001305E105EFF08FCD13051000FB
:1027E000EFF00FB2231EA10013052000EFF04FB150
:1027F000231FA10013053000EFF08FB02310A102BA
:1028000013054000EFF0CFAF930710001305500001
:10281000232CF102EFF0CFAE630E052C232EA10284
:102820003717000013070783B7F7FFFF33072700A9
:10283000B307F7002324F10083A7C77E639E0744F4
:10284000832781008397077F638007443716000042
:10285000130606833306260037F7FFFF3307E6002B
:102860008327C1032324E100032681001307010607
:1028700093F61700232AE67E13950601231E010412
:1028800013F727001355050163080700130515000A
:10289000131505011355050113F6470063080600DB
:1028A0001305150013150501135505011306007DC9
:1028B0003355A602371F0000B7F5FFFF93080F83BB
:1028C000B38828001388C57E338E080113060000E4
:1028D0003388B800930E00001303100093083000F3
:1028E000232AA102B315C300B3F5F5006390051EBA
:1028F00013061600E31816FF639E061463160718E6
:1029000093F7470063860702371700001307078312
:10291000B7F7FFFF33072700B307F70003260103CC
:102920008395C77E032541032324F100EFE05FAECA
:10293000832781036396070693071000232CF10277
:10294000B717000037F4FFFF938707831304C47E93
:10295000B387270033848700032781039317270059
:10296000B387E70093971700232CF102EFF08FB0A5
:1029700013050400EFD08FE9EFF08FB0EFF00FB147
:10298000EFF04FB2E30A05FC9307A000B3D7A7020C
:102990000327810393871700B387E702232CF102F3
:1029A000EFF04FADB714000037F4FFFF93870483B7
:1029B000B38727001305C47E3385A700EFD00FE54A
:1029C000EFF00FACEFF08FAC93870483B387270051
:1029D000B3878700130905000395C77E93050000A0
:1029E0002324F100EFF04FA7832781009305050012
:1029F0000395E77EEFF04FA683278100930505003E
:102A00000395077FEFF04FA59305050003154103DC
:102A1000EFF08FA4B7870000938757B093040500A9
:102A20006302F56463EEA70CB72700009387278F36
:102A30006300F562B75700009387F7EA6316F5283D
:102A40003735000013050512EFF00FD29307200071
:102A50006F00800D37170000130707833307270027
:102A6000B7F7FFFFB307F7000396C77E83A5877FFD
:102A70002324F100EFD05FD18327C1032320A104D9
:102A800013F72700E30E07E6371700001307078345
:102A900033072700B7F7FFFFB307F7002324F10040
:102AA000032781008397E77E032541030316C77E32
:102AB0008325C77F9397070133E6C7009306410438
:102AC000EFE04F848327C1036FF09FE3B38FAE0223
:102AD000032F487F93152600938E1E00B305BE007A
:102AE000939E0E0193DE0E01330FFF0123A6E50135
:102AF0006FF01FE093077000232EF1026FF05FD29A
:102B0000B7970000938727A0630AF552B7F7000034
:102B10009387579F631AF51A37350000130545153B
:102B2000EFF08FC493073000373B00000327CB73CF
:102B3000930C0000930B000063000754B7160000CD
:102B400093860683373C000037F7FFFFB3862600E5
:102B5000939717003387E600130CCC082324E10079
:102B6000330CFC00B73A0000373A0000B7390000D8
:102B70006F00800483278100330474011314240040
:102B800033848700B7170000338487000314C4829E
:102B900033049401938B1B00131404018327CB731C
:102BA00013540401939B0B01931C040193DB0B0151
:102BB00093DC0C4163F0FB1213944B00032781005C
:102BC000B307740193972700B307F700371D000080
:102BD000330DFD008327CD8023160D8293F7170058
:102BE0006384070203566D8283560C00630ED60081
:102BF00093850B0013850A1BEFF00FB78357CD8227
:102C0000938717002316FD8203278100B307740101
:102C100093972700B307F700371D0000330DFD0021
:102C20000327CD80937727006386070203568D82A2
:102C30008356CC006300D60293850B0013050A1E51
:102C4000EFF08FB28357CD820327CD809387170093
:102C50002316FD8213774700E30E07F00327810058
:102C6000B307740193972700B307F700371D0000DF
:102C7000330DFD000356AD8283568C016310D634AC
:102C80000314CD826FF0DFF0032781009307600605
:102C90002318F77E6FF09FBB13071000E398E7BA85
:102CA000832781008397077FE39207BA0327810078
:102CB000B7371534938757412326F77E930760066D
:102CC0002318F77E6FF09FB8370401001304F4FF58
:102CD000373B0000EFE01FF9832541033304A400D4
:102CE0003735000013054524EFF00FA837350000F5
:102CF000930509001305C525EFF00FA7130509007B
:102D0000EFE05FFA9305050037350000130545270E
:102D1000EFF08FA5131404011305090013540401E7
:102D2000EFE05FF86318052C13050900EFE09FF74B
:102D30009307900063F6A72A8327CB73832581032B
:102D4000373500001305452EB385F502131904012C
:102D500013590941EFF04FA1B73500003735000096
:102D60009385C52F13058530EFF00FA0B735000010
:102D7000373500009385053213054532EFF0CF9EBD
:102D8000B7350000373500009385C533130545344A
:102D9000EFF08F9D37350000938504001305C5358E
:102DA000EFF08F9C8327C10313F717006308070612
:102DB0000327CB7363040706371700001307078345
:102DC000B7F7FFFF33072700B307F700130400002E
:102DD000B73900002324F100B71400009317440012
:102DE00003278100B387870093972700B307F70075
:102DF000B387F40003D667829305040013858937EF
:102E0000EFF08F96130414008327CB73131404017F
:102E100013540401E364F4FC8327C10313F7270070
:102E2000630807060327CB73630C072437170000DA
:102E300013070783B7F7FFFF33072700B307F70030
:102E400013040000B73900002324F100B714000078
:102E50009317440003278100B387870093972700C7
:102E6000B307F700B387F40003D687829305040005
:102E700013854939EFF04F8F130414008327CB7368
:102E80001314040113540401E364F4FC8327C10305
:102E900093F74700638607068327CB736382070C8B
:102EA0003717000013070783B7F7FFFF3307270023
:102EB000B307F70013040000B73900002324F10022
:102EC000B71400009317440003278100B3878700DD
:102ED00093972700B307F700B387F40003D6A782C0
:102EE000930504001385093BEFF00F8813041400C9
:102EF0008327CB731314040113540401E364F4FC1B
:102F0000371700008327CB7313070783B7F4FFFF3E
:102F10003307270013040000373A0000B30497007A
:102F2000B7190000638E070293174400B387870028
:102F300093972700B387F400B387F90003D647823D
:102F4000930504001305CA3CEFF00F82130414002C
:102F50008327CB731314040113540401E366F4FCB8
:102F6000630E090A6354200D3735000013054543ED
:102F7000EFE09FFF1305E105EFE05FD413010107C8
:102F80008320C17E130500000324817E8324417EBB
:102F90000329017E8329C17D032A817D832A417D06
:102FA000032B017D832BC17C032C817C832C417CF2
:102FB000032D017C1301017F6780000093850B00C6
:102FC00013854921EFE05FFA8357CD82938717007D
:102FD000139407011354044123168D826FF05FBBD5
:102FE000373500001305452AEFE01FF813041400DD
:102FF0006FF09FD48325CB738329810313050900C8
:10300000B389B902EFE01FCAB3D5A9023735000072
:103010001305C528EFE05FF56FF01FD137350000CD
:103020001305853EEFE05FF46FF0DFF43735000005
:1030300013058544EFE05FF36FF0DFF337350000F1
:103040001305450CEFE05FF2930700006FF0DFAD72
:103050003735000013054518EFE01FF193074000D6
:103060006FF09FAC373500001305450FEFE0DFEF41
:10307000930710006FF05FAB130400006FF09FC563
:1030800093F74700E39E07EC6FF09FE7B0D440331F
:10309000796A14E7C1E3000052BE99110856D71FA0
:1030A00047070000475EBF39A4E53A8E848D0000D3
:1030B000436F72656D61726B207374617274210A63
:1030C00000000000366B20706572666F726D616E75
:1030D00063652072756E20706172616D65746572D2
:1030E0007320666F7220636F72656D61726B2E0A5A
:1030F00000000000366B2076616C69646174696F52
:103100006E2072756E20706172616D657465727388
:1031100020666F7220636F72656D61726B2E0A009C
:1031200050726F66696C652067656E65726174695F
:103130006F6E2072756E20706172616D657465725C
:103140007320666F7220636F72656D61726B2E0AF9
:1031500000000000324B20706572666F726D616E08
:1031600063652072756E20706172616D6574657241
:103170007320666F7220636F72656D61726B2E0AC9
:1031800000000000324B2076616C69646174696FE5
:103190006E2072756E20706172616D6574657273F8
:1031A00020666F7220636F72656D61726B2E0A000C
:1031B0005B25755D4552524F5221206C6973742016
:1031C00063726320307825303478202D2073686F47
:1031D000756C64206265203078253034780A0000F0
:1031E0005B25755D4552524F5221206D61747269A5
:1031F000782063726320307825303478202D207356
:10320000686F756C64206265203078253034780AE8
:10321000000000005B25755D4552524F522120731E
:1032200074617465206372632030782530347820AF
:103230002D2073686F756C642062652030782530AE
:1032400034780A00436F72654D61726B2053697A5E
:1032500065202020203A20256C750A00546F746187
:103260006C207469636B732020202020203A202575
:103270006C750A00546F74616C2074696D65202848
:1032800073656373293A2025640A000049746572E6
:103290006174696F6E732F5365632020203A202577
:1032A000640A00004552524F5221204D757374201C
:1032B0006578656375746520666F72206174206C33
:1032C00065617374203130207365637320666F729B
:1032D00020612076616C696420726573756C74215D
:1032E0000A000000497465726174696F6E73202072
:1032F00020202020203A20256C750A0047434337C0
:103300002E322E3000000000436F6D70696C6572C4
:103310002076657273696F6E203A2025730A00006B
:103320002D4F3200436F6D70696C657220666C6161
:1033300067732020203A2025730A0000535441432C
:103340004B0000004D656D6F7279206C6F63617486
:10335000696F6E20203A2025730A0000736565644A
:10336000637263202020202020202020203A20305B
:1033700078253034780A00005B25645D6372636CE5
:10338000697374202020202020203A2030782530B6
:1033900034780A005B25645D6372636D61747269E1
:1033A0007820202020203A203078253034780A00F8
:1033B0005B25645D637263737461746520202020F3
:1033C00020203A203078253034780A005B25645D6F
:1033D00063726366696E616C2020202020203A2091
:1033E0003078253034780A00436F72726563742038
:1033F0006F7065726174696F6E2076616C6964616B
:103400007465642E2053656520524541444D452E18
:103410006D6420666F722072756E20616E6420721A
:1034200065706F7274696E672072756C65732E0AB1
:10343000000000004572726F7273206465746563EA
:103440007465640A0000000043616E6E6F7420763C
:10345000616C6964617465206F7065726174696F15
:103460006E20666F7220746865736520736565648D
:103470002076616C7565732C20706C6561736520B6
:10348000636F6D706172652077697468207265730F
:10349000756C7473206F6E2061206B6E6F776E2079
:1034A000706C6174666F726D2E0A000053746174E3
:1034B0006963000048656170000000005374616337
:1034C0006B004743433A2028474E552920372E3278
:1034D0002E3000004C6973742066696E6420256488
:1034E0003A205B25642C25642C25645D0A000000CD
:1034F0004C69737420736F727420313A2025303414
:10350000780A00004C69737420736F727420323A29
:1035100020253034780A0000496E697469616C694D
:103520007A6564206C6973743A0A00005B25303454
:10353000782C253034785D004D61747269782025CF
:1035400073205B25647825645D3A0A002C00000036
:103550002564000041000000420000006D617472AB
:1035600069785F6164645F636F6E7374000000006C
:103570006D61747269785F6D756C5F636F6E737483
:10358000000000006D61747269785F6D756C5F7624
:10359000656374006D61747269785F6D756C5F6DE1
:1035A00061747269780000006D61747269785F6D92
:1035B000756C5F6D61747269785F62697465787447
:1035C0007261637400000000BC140000BC140000B1
:1035D00018150000181500007C150000F0360000DA
:1035E000F83600000037000008370000C036000041
:1035F000CC360000D8360000E436000090360000DB
:103600009C360000A8360000B4360000603600008A
:103610006C36000078360000843600005374617404
:10362000653A2025642C25640A00000053746174F7
:103630006520496E7075743A2025730A00000000F9
:1036400053746174652042656E63683A2025642C6A
:1036500025642C25642C253034780A0025642C0040
:1036600054302E33652D3146000000002D542E5469
:103670002B2B5471000000003154332E3465347A02
:103680000000000033342E30652D545E0000000031
:10369000352E353030652B33000000002D2E3132B1
:1036A00033652D32000000002D3837652B3833325A
:1036B000000000002B302E36652D31320000000056
:1036C00033352E3534343030000000002E313233A3
:1036D00034353030000000002D3131302E3730309D
:1036E000000000002B302E36343430300000000053
:1036F0003530313200000000313233340000000038
:103700002D383734000000002B3132320000000029
:103710005C1B00002C1B0000381B0000441B000039
:10372000501B0000201B00000000000000000000F3
:103730000000000000000000000000000100000088
:103740000100000066000000C820000050200000BA
:1037500050200000BC20000050200000502000003D
:103760005020000050200000502000005020000099
:1037700050200000B020000050200000A4200000D5
:1037800050200000502000003420000020230000C2
:103790000421000004210000042100000421000095
:1037A0000421000004210000042100000421000085
:1037B0000421000004210000042100000421000075
:1037C0000421000004210000042100000421000065
:1037D0000421000004210000042100000421000055
:1037E00004210000042100002C2500000421000019
:1037F0000421000004210000042100000421000035
:1038000004210000042100000421000024260000FF
:1038100004210000E02400000C2600000421000028
:103820000421000004210000042100000C260000F7
:1038300004210000042100000421000004210000F4
:1038400004210000D42400003C25000004210000D5
:10385000042100006825000004210000B4240000B9
:103860000421000004210000342600002022000072
:103870000C2100000C2100000C2100000C21000094
:103880000C2100000C2100000C2100000C21000084
:103890000C2100000C2100000C2100000C21000074
:1038A0000C2100000C2100000C2100000C21000064
:1038B0000C2100000C2100000C2100000C21000054
:1038C0000C2100000C210000302500000C2100001C
:1038D0000C2100000C2100000C2100000C21000034
:1038E0000C2100000C2100000C210000242200000B
:1038F0000C210000E4240000102600000C21000030
:103900000C2100000C2100000C21000010260000FA
:103910000C2100000C2100000C2100000C210000F3
:103920000C210000D8240000402500000C210000DC
:103930000C2100006C2500000C210000B8240000C0
:103940000C2100000C2100001C2600003031323315
:103950003435363738396162636465666768696A29
:103960006B6C6D6E6F707172737475767778797A2F
:1039700000000000303132333435363738394142B7
:10398000434445464748494A4B4C4D4E4F5051528F
:10399000535455565758595A000000003C4E554C48
:0439A0004C3E000099
:00000001FF
