:1000000037010100EF20D0023705008013054500BD
:100010002320050073001000130101FF232021019C
:100020000329C501232611002324810023229100E6
:10003000232C0502232E0502630409041304050082
:10004000930400009305100013050400EF00004A1C
:1000500083558403EF10101E231CA4029305F0FFA8
:1000600013050400EF00804883558403EF10901CB3
:10007000231CA4026384040293841400E31499FCF7
:100080008320C1000324810083244100032901004F
:10009000130500001301010167800000231DA40265
:1000A0006FF09FFD631E060283170500139707017B
:1000B000135707011357870093F707F0B3E7E700DB
:1000C0002310F500839705001397070113570701C5
:1000D00093F707F013578700B3E7E7002390F50085
:1000E00003152500839725003305F5406780000040
:1000F000130101FE232C8100031405002328210194
:10010000232E110093577440232A91002326310196
:1001100093F717001379F407639207089384050097
:100120009355344093F5F500939745001377740089
:10013000B3E5B7009309050083D78403630007087C
:10014000930610006316D7021386070013858402F6
:10015000EF10401D83D7C40313190501135909413A
:1001600063940700239EA40283D784036F0080005A
:1001700013090400131509019385070013550501A0
:10018000137404F0EF10100B1379F90713640408CB
:10019000239CA40233648900239089008320C10139
:1001A000032481011305090083244101032901016E
:1001B0008329C10013010102678000009306200219
:1001C0001387050063D4D50013072002839624000B
:1001D0000396040083A5440103A584011377F70F58
:1001E000EF10805E83D7E403131905011359094109
:1001F000E39C07F6239FA40283D784036FF09FF745
:10020000130101FF23202101138905009305060036
:1002100023261100232481002322910013040600C9
:10022000EFF01FED9304050093050400130509008A
:10023000EFF01FEC8320C100032481003385A4402C
:10024000032901008324410013010101678000009C
:1002500003970500839725002310E5002311F5007F
:1002600067800000032806009308880063F6E8040E
:1002700003A70600130347006370F304232016014D
:100280008327050083980500039625002320F800A6
:10029000232005012322E80083A706001305080098
:1002A0009387470023A0F600832748002390170177
:1002B0002391C700678000001308000013050800A1
:1002C000678000008327050003264500130705000B
:1002D00083A5470083A60700138507002322B700E4
:1002E00023A2C7002320D70023A0070067800000B7
:1002F00003A645008326450003A705002322C50069
:1003000023A2D5002320E50023A0A50067800000DC
:10031000039725006348070263040502832745000D
:1003200083972700639AE7006F0000058327450045
:10033000839727006386E70003250500E31805FE81
:1003400067800000E30E05FE832745000397050044
:1003500083C70700639AE7006F00400283274500C8
:1003600083C707006388E70003250500E31805FE3F
:100370006FF01FFD6780000067800000678000004D
:1003800063000502130700006F008000138507005B
:10039000832705002320E50013070500E39807FEE7
:1003A00067800000130101FD232C4101232A510124
:1003B00023267101232481012320A1012326110278
:1003C000232481022322910223202103232E3101A1
:1003D0002328610123229101130A0500138C0500D3
:1003E000930B0600930A1000130D1000630E0A0A07
:1003F000930C000013090000130B0000938C1C00E9
:1004000013040A00930400000324040093841400DE
:1004100063040400E39A9AFE93890A00638E04023F
:10042000638E0904630C04048325440003254A00F9
:1004300013860B00E7000C006352A004930704002E
:10044000032404009389F9FF630409022320F900BF
:1004500013890700E39604FC638A0902630C040213
:10046000930704009389F9FF03240400E31009FEB5
:10047000138B0700138907006FF0DFFD93070A0055
:100480009384F4FF032A0A006FF01FFC130A040090
:10049000E31604F623200900638CAC01939A1A003A
:1004A000130A0B006FF09FF423200000730010006C
:1004B0008320C1020324810213050B00832441021F
:1004C000032901028329C101032A8101832A4101F1
:1004D000032B0101832BC100032C8100832C4100DD
:1004E000032D01001301010367800000130101FCCB
:1004F000232C8101031C4500232C8102232251035C
:1005000023206103232E1102232A91022328210391
:100510002326310323244103232E7101232A910131
:100520002317B100130B0500938A0500032445022D
:10053000635A8021938C050013090000930B00007F
:100540009309000093040000130AC1009377F90F88
:1005500093050A00130504002316F100EFF05FDB9A
:1005600063000402130700006F008000138407007B
:10057000832704002320E40013070400E39807FE08
:10058000630A050683274500938919009399090199
:100590008397070093D9090113F71700630C07002D
:1005A00093D7974093F71700B384F4009394040112
:1005B00093D4040183270500638C070003A7070079
:1005C0002320E5000327040023A0E7002320F400F4
:1005D00063C60C00938C1C002317910113091900AA
:1005E0001319090113590941630C2C03831CE10001
:1005F0006FF0DFF583270400938B1B00939B0B01A7
:1006000083A7470093DB0B018387170093F717003D
:10061000B384F4009394040193D404016FF05FFB5E
:1006200093992900B38B7941B384740193940401A5
:1006300093D40401635E5001B70500001305040064
:1006400013060B0093850520EFF0DFD5130405009A
:100650008327040093050A001305040083A90700FB
:1006600003AA470083A6490003A7090023A2D700D5
:1006700023A2490123A0E70023A00900EFF05FC9EE
:1006800013090500630A050A8327440093850400C3
:1006900003950700EF104045032909009304050066
:1006A000E31409FE0329040003AA490003274900B3
:1006B00083270900B705000023A2E900232249018E
:1006C00023A0F900232039011305040013060000BC
:1006D0009385450AEFF01FCD03240500130905009B
:1006E00063000402832749009385040003950700F3
:1006F000EF10803F0324040093040500E31404FE7C
:100700008320C1030324810313850400032901030B
:10071000832441038329C102032A8102832A4102DF
:10072000032B0102832BC101032C8101832C410186
:10073000130101046780000003290400E30809F69F
:100740006FF09FF493040000130AC1006FF09FEE56
:10075000130101FF232291009384050093054001BA
:1007600023248100232021012326110013090600E0
:10077000EF2080001305E5FF93163500B386D40003
:10078000B787FFFF23A0040023A2D4001387070824
:10079000131E25002390E600239106001387040111
:1007A000338EC601938584009388460013040000AD
:1007B0006376D70013868600636EC60F630A05064C
:1007C000131F0901B78EFFFF135F0F01130700000E
:1007D00093CEFEFF13838500138648006376D3040F
:1007E0001318070113580801B347E801939737001E
:1007F0001378780093F78707B3E70701139887000A
:10080000B367F8006372C60323A0850023A0B40079
:1008100023A215012390F8002391D8011384050029
:10082000930806009305030013071700E314E5FA85
:1008300093055000EF105074374600001307002056
:10084000930610001306F6FF6F00C0012311D800B5
:100850001307071013170701938616001357070194
:1008600013840500832504009377077033C826019D
:10087000B3E70701B3F7C700638A05000328440004
:10088000E3E6A6FC2311F8006FF09FFC032481002F
:100890008320C10003290100138504008324410043
:1008A000B7050000130600009385450A13010101F6
:1008B0006FF05FAF23A0B40023A6140123A40400AB
:1008C00093C7F7FF138405009305F0FF2392B6004A
:1008D0002393F60093080600930507006FF01FEEC0
:1008E000130101FB23248104232E310323229103CE
:1008F000232611042322910423202105232C4103C4
:10090000232A51032328610323267103232481030F
:100910002320A103232EB10193090500938C060027
:10092000130406006314060013041000138BF5FF74
:10093000137BCBFF130D4B0093040000639609005B
:100940006F00C01393040900138914009305090074
:1009500013050900EF10905F13153500E36435FFB0
:100960009385040013850400EF10505E9317150063
:100970002326F10023249100330BFD00638C04082F
:10098000B7090100930A000013091000330A6D41F2
:10099000139C14009389F9FF93850A0013050C003A
:1009A000EF10D05AB30BAB00930D090093850D00E7
:1009B00013050400EF1090591356F5411356060124
:1009C0003304C50093970D013374340193D70701A5
:1009D0003304C440B38687009396060193D606017C
:1009E000B387D7002390DB0093F7F70FB3067A01A4
:1009F000938D1D002390F600B3872D41938B2B0020
:100A0000E3E697FA938A1A0063F69A0013890D00B9
:100A10006FF09FF88327C1008320C1040324810461
:100A2000B307FB009387F7FF93F7C7FF9387470050
:100A300023A6FC008327810023A2AC0123A46C0120
:100A400023A0FC001385040003290104832441042E
:100A50008329C103032A8103832A4103032B010352
:100A6000832BC102032C8102832C4102032D01023E
:100A7000832DC10113010105678000009307F0FF7A
:100A80002324F10093072000130B6B009304F0FF65
:100A90002326F1006FF0DFEE630A0508330FA04054
:100AA00093172500B385F500931F2F00130E000048
:100AB000930700009306000093080000131F3F00F7
:100AC000B38EBF0013870E006F00C00193170301A0
:100AD0001307470093D707419308000093060800C7
:100AE000638CE502032807009397070193D707015A
:100AF000B3A60601B38808011383A700B387D70004
:100B0000E34616FD939707011307470093D7074164
:100B100093060800E398E5FC130E1E00B385EE4132
:100B2000E310C5FB138507006780000093070000F2
:100B300013850700678000006306050A130101FDA5
:100B400023248102232E3101232C4101232A510128
:100B50002328610123267101232481012326110208
:100B6000232291022320210393890600130B050001
:100B7000131C150013040600931B2500138A05009F
:100B8000930A000033098C0093040A000315040043
:100B90009385090013042400EF10503B23A0A40008
:100BA00093844400E31424FF938A1A00330A7A01E1
:100BB000E31A5BFD8320C1020324810283244102E6
:100BC000032901028329C101032A8101832A4101EA
:100BD000032B0101832BC100032C810013010103AE
:100BE0006780000067800000630A05021316060193
:100BF0001356060113181500930600003307B800BA
:100C000083D7050093852500B307F600239FF5FEE3
:100C1000E318B7FE93861600E312D5FE6780000046
:100C2000630A050A130101FD23248101131C150029
:100C300013152500232E3101232C4101232A5101B4
:100C40002328610123267101232611022324810216
:100C50002322910223202103938B0600138A05008F
:100C6000930A0600338BA500B389860113840B0019
:100C700093840A00130900008315040003950400FF
:100C80001304240093842400EF10502C3309A9008E
:100C9000E39489FE23202A01130A4A00B38A8A01B9
:100CA000E3164BFD8320C102032481028324410209
:100CB000032901028329C101032A8101832A4101F9
:100CC000032B0101832BC100032C810013010103BD
:100CD0006780000067800000630C050E130101FBB4
:100CE0002322910493172500931415002320210536
:100CF000232A51032328610323267103232481031C
:100D0000232291032326110423248104232E31035B
:100D1000232C41032320A103232EB1012326D1003C
:100D2000930C0500930A0600330996002324F10072
:100D3000938B0500338B9600130C00008329C100B0
:100D4000138A0B00138D090013840A00930D000011
:100D500083150D000315040013042400330D9D00BA
:100D6000EF10D01EB38DAD00E31489FE2320BA012D
:100D700093892900130A4A00E3163BFD832781006B
:100D8000130C1C00B38A9A0033099900B38BFB0043
:100D9000E3968CFB8320C104032481048324410453
:100DA000032901048329C103032A8103832A410300
:100DB000032B0103832BC102032C8102832C4102EC
:100DC000032D0102832DC10113010105678000007D
:100DD0006780000063060510130101FB23248104D2
:100DE000931725001314150023229104232C41038B
:100DF000232A51032328610323267103232481031B
:100E00002326110423202105232E310323229103BD
:100E10002320A103232EB1012326D100130C0500AA
:100E2000130A0600B30486002324F100138B050087
:100E3000B38A8600930B00000329C10093090B00BD
:100E4000930C0900930D0A00130D000083950C000C
:100E500003950D00938D2D00B38C8C00EF10100FB7
:100E6000935625409355554093F5F50713F5F60035
:100E7000EF10D00D330DAD00E39AB4FD23A0A9010E
:100E80001309290093894900E39C2AFB83278100E9
:100E9000938B1B00330A8A00B3848400330BFB005E
:100EA000E31C7CF98320C1040324810483244104CE
:100EB000032901048329C103032A8103832A4103EF
:100EC000032B0103832BC102032C8102832C4102DB
:100ED000032D0102832DC10113010105678000006C
:100EE00067800000130101FB232861032322910383
:100EF00023261104930C07002324810437F7FFFFF6
:100F00002322910423202105232E3103232C410386
:100F1000232A510323267103232481032320A103C1
:100F2000232EB1012322B1002324C1002326D100A6
:100F300033EBEC006306053613940C01130805002F
:100F40001354040193191500930606002320C100D1
:100F5000930B0000B385D90003D6060093862600C4
:100F60003306C400239FC6FEE398D5FE938B1B0077
:100F700093860500E31078FF832D4100832A8100CA
:100F800093942B00138A0D00130D0000338C3A014B
:100F900013890D0003950A0093850C00938A2A009B
:100FA000EF10C07A2320A90013094900E3948AFFB7
:100FB000130D1D00B38D9D00E31A7DFD83274100B5
:100FC000B30C7041139D2C00338C970013030C005D
:100FD000130500009306000013080000130E000024
:100FE000939C3C00B30E6D0093850E006F00C00112
:100FF000139508019385450013550541130800001A
:1010000093060600630CB30203A605001315050141
:1010100013550501B3A6C6003308C8009308A50000
:101020003305D500E3460BFD1315050193854500F7
:101030001355054193060600E318B3FC130E1E007A
:1010400033839E41E3107EFB93050000EF00D0291F
:101050008326C1000326810083254100930D0500EE
:1010600013850B00EFF0DFBB1305000093060000B3
:101070001308000013030000330E8D0193050E00CA
:101080006F00C00113950801938545001355054174
:101090001308000093060600630CBC0203A60500BB
:1010A0001315050113550501B3A6C6003308C80082
:1010B0009308A5003305D500E3460BFD1315050184
:1010C000938545001355054193060600E318BCFCC3
:1010D00013031300330C9E41E31073FB93850D0043
:1010E000EF009020032941008326C10003268100E0
:1010F00093050900130C050013850B00EFF0DFBD0D
:10110000930E0900130500009306000093050000EC
:10111000130E000093880E00130800006F000002F9
:10112000131503011308180013550541930500001A
:101130009388480093060600637E780303A60800A0
:101140001315050113550501B3A6C600B385C500E7
:101150001303A5003305D500E344BBFC13150501BB
:10116000130818001355054193884800930606009C
:10117000E36678FD130E1E00B38E9E00E36C7EF9CD
:1011800093050C00EF0050168326C1008325410013
:1011900003268100130C050013850B00EFF09FC39D
:1011A000130500009306000093050000130E0000D5
:1011B00093080A00130800006F00000213150301D2
:1011C0001308180013550541930500009388480043
:1011D00093060600637E780303A608001315050135
:1011E00013550501B3A6C600B385C5001303A500BA
:1011F0003305D500E344BBFC1315050113081800A3
:10120000135505419388480093060600E36678FD70
:10121000130E1E00330A9A00E36C7EF993050C004E
:10122000EF00900C93050000032701001306000057
:10123000835607001307270013061600B38686405F
:10124000231FD7FEE36676FF8327010093851500F1
:10125000B38737012320F100E3E875FD8320C10443
:101260000324810413150501832441040329010487
:101270008329C103032A8103832A4103032B01032A
:10128000832BC102032C8102832C4102032D010216
:10129000832DC1011355054113010105678000002D
:1012A00093050000EF0050048329C1000329810049
:1012B00083244100938609001306090013040500E6
:1012C0009385040013050000EFF09F95930504003B
:1012D00013050000EF005001938609001306090072
:1012E000130405009385040013050000EFF0DF9E52
:1012F0009305040013050000EF00007F13040500B0
:101300009385040093860900130609001305000065
:10131000EFF05FAC9305040013050000EF00C07C04
:101320006FF0DFF3130101FF232481001387050011
:10133000130406008325C500832685000326450087
:101340000325050023261100EFF0DFB99305040003
:10135000032481008320C100130101016F00C078C4
:10136000130F0000930E000093851500B38FEE015C
:101370009395050137480000B74800009306F5FF34
:1013800093821F0093D5050193070000130EC0023E
:1013900013034000130848BB938808BA63FED204C5
:1013A00063100F0893F775009387D7FF9397070192
:1013B00013D7350093D70701137737006364F30A17
:1013C00093972700B387170183A7070013172700F8
:1013D0003307E8006780070083270701130F8000A9
:1013E00093851500B38FEE019395050193821F003D
:1013F00093D50501E3E6D2FA63FCAE00B307D6014C
:101400003306A6002380070093871700E31CF6FE2F
:101410006780000083270702130F80006FF05FFCD6
:101420003307D601338FE70183CE07001307170078
:1014300093871700A30FD7FFE318FFFE93F77500FC
:101440009387D7FFB30FF6019397070113D73500A2
:101450002380CF0193D70701938E020013773700C3
:10146000E370F3F6131727003307E800832707001C
:10147000130F40006FF0DFF683270703130F800080
:101480006FF01FF68327050003C7070063040706F4
:101490009306C002138617006304D72A03A8050029
:1014A000930807FD93F8F80F130390001308180032
:1014B0006368130523A0050103C717006304072C05
:1014C00093872700630ED70C1308E002930890005F
:1014D0001303C002930607FD93F6F60F6306070D8C
:1014E00063F4D82083A60501130710009386160025
:1014F00023A8D5002320F50013050700678000000E
:101500009308B002630C17039308D0026308170313
:101510009308E002630C172303A7450023A00501ED
:10152000930706001307170023A2E5001307100016
:101530002320F500130507006780000023A00501A4
:1015400003C8170063040822138627006300D8220B
:1015500083A68500130708FD1377F70F9308900003
:101560009386160063F2E8021307E002630AE81AA2
:1015700023A4D50093070600130710002320F500CD
:10158000130507006780000023A4D50003C72700C8
:10159000630A071E9306C00293071600E316D7F2EC
:1015A000130740006FF01FF503A70501130717008D
:1015B00023A8E50003471600630E071C9306C0022C
:1015C00013881700630ED718930607FD13065004FF
:1015D0001377F70D930890001303C00293F6F60FEC
:1015E0006308C70263E2D81203C717009306180006
:1015F00093070800630607166302671C138806003A
:10160000930607FD1377F70D93F6F60FE31CC7FC5F
:1016100003A745011307170023AAE50003C7170016
:10162000630C07141306C002930718006308C7145D
:1016300083A6C500130757FD1377D70F93861600AF
:1016400023A6D500630A0700130710002320F50026
:1016500013050700678000000347180063000714A4
:10166000930628006300C71483A78501130707FDAD
:101670001377F70F938717009308900023ACF500BA
:1016800063F8E80093870600130710006FF01FFC53
:1016900003472800630E0710930738006302C7044E
:1016A000130690009308C002130707FD1377F70F86
:1016B000637CE60083A6450013071000938616009E
:1016C00023A2D5006FF01FE303C71600138817008D
:1016D000938607006306070093070800E31617FDCB
:1016E000130770006FF01FE1034716009386170081
:1016F00013860700E30607EA93870600E31C67DC0E
:10170000130740006FF01FDF83A645019307080011
:10171000130710009386160023AAD5006FF09FDDF3
:1017200023A4D50003C72700630407069307C0025C
:10173000130816006306F702930706006FF0DFE850
:1017400093070600130700006FF0DFDA23A00501FE
:1017500003C71700630E070213882700E31ED7FC98
:1017600093070800130750006FF0DFD893070600B7
:10177000130720006FF01FD89307080013073000ED
:101780006FF05FD793070600130740006FF09FD6F6
:1017900093070600130750006FF0DFD513076000B2
:1017A0006FF05FD593870600130760006FF09FD43A
:1017B00093870600130770006FF0DFD3938706004E
:1017C000130750006FF01FD3130101F8232A91066D
:1017D000232821079304010113090103232C810607
:1017E00023263107232441072322510723206107A1
:1017F000232C8105938A0600130A070093890700AA
:10180000232E1106232E710513840500130C0500E9
:10181000130B06002326B10093060105138704006D
:101820009307090023A007002320070093874700A0
:1018300013074700E398D7FE03470400630E07121F
:10184000930BC1009305010313850B00EFF09FC3B9
:1018500093070105131525003385A7000327C10051
:10186000832705FC03470700938717002320F5FC17
:10187000E31A07FC23268100330C8401034704008C
:1018800063748411930704001306C0026F00800084
:1018900003C70700B34667016304C7002380D7006E
:1018A0008327C100B38747012326F100E3E287FFC6
:1018B000834704002326810063800704930BC10043
:1018C0009305010313850B00EFF0DFBB93070105C0
:1018D000131525003385A7000327C100832705FCC6
:1018E00003470700938717002320F5FCE31A07FC42
:1018F00023268100637484039306C0028347040097
:1019000033C757016384D7002300E4000324C100D8
:101910003304440123268100E36284FF138404021C
:1019200003A504009385090093844400EF00801808
:10193000930505000325090013094900EF008017EE
:1019400093090500E31E94FC8320C107032481074B
:1019500083244107032901078329C106032A81063D
:10196000832A4106032B0106832BC105032C810525
:10197000130101086780000023268100330C8401D5
:10198000E36284F16FF09FF9E31C07F26FF01FF937
:101990009307500063ECA704B7470000938747CA3A
:1019A000131525003305F500832705006780070020
:1019B000B747000003A547CC67800000B747000089
:1019C00003A5C7CC67800000B747000003A587CCFC
:1019D00067800000B747000003A587CD678000003F
:1019E000B747000003A547CD67800000130500003E
:1019F0006780000037A6FFFF9307800013061600DC
:101A000033C7A5009387F7FF93D515001377170009
:101A100093F7F70FB3C6C50013551500630607000B
:101A20009395060193D50501E39C07FC13850500FA
:101A30006780000037A8FFFF9376F50F93078000BB
:101A40001308180033C7D5009387F7FF93D5150007
:101A50001377170093F7F70F33C6050193D61600D7
:101A6000630607009315060193D50501E39C07FC67
:101A700037A6FFFF13558500930780001306160055
:101A800033C7A5009387F7FF93D515001377170089
:101A900093F7F70FB3C6C50013551500630607008B
:101AA0009395060193D50501E39C07FC138505007A
:101AB00067800000130101FF232481001304050047
:101AC000131505011355050123261100EFF09FF6AC
:101AD0009305050013550401032481008320C100F0
:101AE000130101016FF01FF51315050113550501D1
:101AF0006FF05FF41305000067800000732500C0DD
:101B000067800000F32700C0374700002320F7CC90
:101B100067800000F32700C037470000232EF7CA74
:101B200067800000B747000003A5C7CBB747000098
:101B300083A707CC3305F54067800000678000006D
:101B4000930710002300F5006780000023000500C4
:101B500067800000130101F6232C8108232A9108D5
:101B600023263109232441092326B107232E1108F6
:101B7000232821092322510923206109232E7107DB
:101B8000232C8107232A91072328A10713F8070490
:101B90002326E100938D07001304050093840500BC
:101BA000130A060093890600631C0822B74A000046
:101BB000938A0AEE13FC0D01630C0C2093FDEDFFDC
:101BC000130B000213F72D00130D00006300070232
:101BD00063C2042613F74D006314072213F78D0028
:101BE000630607009389F9FF130D000293FC0D02B1
:101BF000638C0C0013070001630AEA2413078AFFB1
:101C000013371700B389E9406382041E1309C10129
:101C1000930B1000B38B2B4193050A00138504002E
:101C2000EF00103A3385AA000347050093050A0028
:101C3000138504002300E900EF001034B3862B0164
:101C40009304050013091900E31805FC1385F6FF3A
:101C50008327C1009385060063D4F60093850700AF
:101C6000B389B94093F71D011386F9FF6392070208
:101C70003307340193070002635C301F1304140020
:101C8000A30FF4FEE31CE4FE1306E0FF9309F0FF4C
:101C900063060D002300A40113041400638A0C00E2
:101CA00093078000630AFA1A930700016304FA1687
:101CB00063140C0413070400130810006352301D52
:101CC00013071700B307E840B387C700A30F67FFE8
:101CD000B307F400E346F0FE9347F6FF93D7F741CE
:101CE000B377F6009309F6FFB389F940938717009D
:101CF0003304F4001386F9FFB387D540B307F4002B
:101D00001307000363D8B60013041400A30FE4FE06
:101D1000E39C87FE635AD0149305C101930610001B
:101D2000B387A50013070400B386B64083C5070038
:101D3000130717009387F7FFA30FB7FEB385F600CD
:101D4000E346B0FE9347F5FF93D7F7413375F500AF
:101D5000130515003305A400635E30031307050067
:101D6000930500029306100013071700B387E6409F
:101D7000B387C700A30FB7FEB307F500E346F0FE35
:101D80009347F6FF93D7F7413376F6001306160014
:101D90003305C5008320C109032481098324410937
:101DA000032901098329C108032A8108832A4108DC
:101DB000032B0108832BC107032C8107832C4107C8
:101DC000032D0107832DC1061301010A678000005E
:101DD00013F71D00630C0704130B00036FF09FDE65
:101DE000B74A0000938A8AF06FF0DFDC1307000324
:101DF000230EE10013050000930610006FF05FE56D
:101E000093FC0D029389F9FF130DB002E38E0CDEF3
:101E10006FF05FDE930700032300F4009307800751
:101E2000A300F400130424006FF09FE8130B0002DA
:101E30006FF05FD993FC0D02B30490409389F9FFD2
:101E4000130DD002E3820CDC6FF0DFDA9389E9FF37
:101E5000E39E04DA6FF09FF9930700032300F40078
:101E6000130414006FF0DFE4130504006FF0DFEEDD
:101E70009387E9FF93090600138607006FF05FE17F
:101E8000930906001306F6FF6FF01FE7B7070080FF
:101E90002380A70067800000130101B72328614554
:101EA00023261146232481462322914623202147BD
:101EB000232E3145232C4145232A514523267145A4
:101EC00023248145232291452320A145232EB1437C
:101ED000232AB146232CC146232ED1462320E14894
:101EE0002322F14823240149232611498347050071
:101EF000130B414723266103638607781309810486
:101F0000B74A0000374A0000B74900001304050033
:101F100093040900938ACACD130A0AD2938909EE61
:101F20006F0080012380F400834714009384140021
:101F3000130414006386071213075002E394E7FEAC
:101F4000034614009306000193070000130706FEE2
:101F50001377F70F9305140063E8E60213172700C1
:101F600033075701032707006700070093E71700AF
:101F7000138405000346140093051400130706FE9E
:101F80001377F70FE3FCE6FC130706FD1377F70F53
:101F90009306900063F0E6161307A0029306F0FF85
:101FA000630CE6441305E0021307F0FF630EA6106E
:101FB0001375F60D1308C004630A05051305F6FB37
:101FC0001375F50F13087003636AA806131525002F
:101FD00033054501032505006700050093E7070168
:101FE000138405006FF01FF993E747001384050081
:101FF0006FF05FF893E70702138405006FF09FF717
:1020000093E78700138405006FF0DFF683C815009F
:1020100013087003138415001385F8FB1375F50F6F
:102020006362A8023748000013152500130808E072
:102030003305050103250500670005009308060028
:102040001384050093075002138714006382F86617
:102050002380F40083470400639E0768930407000D
:102060002380040083478104638A076013071000FC
:10207000B7060080330727413305E9002380F600C7
:102080001309190083470900E39807FE8320C1461E
:102090000324814683244146032901468329C145FF
:1020A000032A8145832A4145032B0145832BC144E3
:1020B000032C8144832C4144032D0144832DC143CF
:1020C000130101496780000003C615001308900042
:1020D00013851500130706FD1377F70F6376E804E1
:1020E0001307A002630CE6569305050013070000D2
:1020F0006FF01FEC93060000130590001397260065
:10210000B306D7009385150093961600B386C600D4
:1021100003C60500938606FD130706FD1377F70F28
:10212000E37EE5FC6FF01FE813070000931527001E
:102130003387E50013051500131717003307C70091
:1021400003460500130707FD930506FD93F5F50FFC
:10215000E37EB8FC930505006FF09FE593E7070465
:102160001305C00603270B00130B4B006310A610CA
:1021700013F60704138E090063060600374E0000AD
:10218000130E8EF09308000013050000130F60007B
:10219000930FA0036F008001130601433306D6019D
:1021A000130535002300F6C1130717000346070087
:1021B000130801433303A800135846001376F600B2
:1021C00033080E013306CE0003480800034606001C
:1021D00093881800230003C1A300C3C0930E2500F9
:1021E000E39CE8FB93F707011386F6FF639407026D
:1021F000B387D641B387F4001307000263D0DE54DF
:1022000093841400A38FE4FEE39CF4FE9386FEFF08
:102210001386EEFF930701033387D40103C507003C
:102220009384140093871700A38FA4FEE398E4FE21
:1022300063D2DE021305000293061000938414009B
:10224000B3879640B387C700A38FA4FEB307F700F8
:10225000E3C6FEFE83C725006FF09FCD03270B006A
:1022600093E70704130B4B0013840500930D07003D
:10227000930B000013070000130E30061303000336
:1022800013084000930CE0026F00C00213060143E4
:10229000B30B760123806BC0130717006302070F8F
:1022A0001306014333068601930B1C00230096C1DD
:1022B000938D1D0003CD0D00138C1B00E3080DFC56
:1022C000635CAE159305400613050D00232E6100D7
:1022D000232CC101232A01012328E1002326D10058
:1022E0002324F100EF00C0483385A900834E050088
:1022F00093070143338677012300D6C19305400637
:1023000013050D00EF00004F9305A000130D05000D
:10231000EF0000463385A900834E05009307014373
:10232000338C870113862B0013050D002300DCC1BD
:102330009305A0002322C100EF00C04B03264100FB
:10234000832781008326C10003270101032841015F
:10235000032E81010323C101138C3B00130D0500E3
:10236000930B0600338DA90103460D00930501432D
:10237000B38B75012380CBC013071700E31207F35B
:1023800093F707019385F6FF63940702B3878641AD
:10239000B387F400130700026350DC389384140001
:1023A000A38FE4FEE39CF4FE9306FCFF9305ECFF91
:1023B000930701033387840103C607009384140045
:1023C00093871700A38FC4FEE398E4FE6352DC02F8
:1023D000130600029306100093841400B3879640FE
:1023E000B387B700A38FC4FEB307F700E346FCFE34
:1023F000834714006FF0DFB383260B00930524009E
:10240000130B4B0003462400E3DE06B8B306D040AE
:1024100093E707016FF01FB913069000E354A6F588
:102420009305A00013050D00232C6100232AC10190
:10243000232801012326E1002324D1002322F100D7
:10244000EF0000333385A900834E05009307014355
:102450003386770113050D002300D6C19305A00034
:10246000EF00403913862B00130D0500930B0C0071
:1024700003238101130C0600032E410103280101EF
:102480000327C10083268100832741006FF09FED61
:10249000138405001306A00013054B0083250B00D1
:1024A000130B050013850400EFF0CFEA9304050039
:1024B000834714006FF0DFA7138405001306800024
:1024C0006FF09FFD1384050093F707019386F6FFD5
:1024D0006380071C03270B001386140093871600E4
:1024E0002380E400130B4B00B384F40013070002B5
:1024F00093070600635CD02093871700A38FE7FE45
:10250000E39C97FEB304D600834714006FF05FA2EC
:102510001384050093E70704130600016FF0DFF74B
:10252000138405001306F0FF6396C60093E71700B7
:102530009306800083250B00138504001306000119
:10254000EFF04FE1130B4B00930405008347140099
:102550006FF01F9E1384050003260B0093050700F0
:10256000130B4B0063040616034506001308060010
:102570006306051663040716130706006F00C00004
:102580009385F5FF638805001307170003450700CF
:10259000E31805FE93F70701330707411385F6FF9C
:1025A000638807086352E0183308E6009387040045
:1025B000130616008345F6FF93871700A38FB7FE17
:1025C000E31806FF3386E4009304060013080002B4
:1025D00093051000E35ED7E093841400B387954021
:1025E000B387A700A38F04FFB307F600E346F7FE07
:1025F000834714006FF0DF931384050093E72700EF
:102600001306A0006FF05FE9130600016FF0DFE82A
:1026100003270B0013840500130B4B006FF01FC53D
:1026200013054B0013840500130600016FF01FE72C
:10263000B387E640B387F40093050002635AD70ED0
:1026400093841400A38FB4FEE39C97FEB306D54099
:10265000B386E6001385F6FF6FF0DFF403270B0067
:1026600003C62500130B4B001345F7FF1355F54127
:102670003377A700938525006FF09F931305000023
:102680006FF0DFA013098104930409006FF05F9DD0
:102690003387D400930700026352D006938414005A
:1026A000A38FF4FEE39CE4FE9306F0FF6FF09FE23D
:1026B00083470400930607001387040093840600F1
:1026C0002300F700834714006FF09F863746000011
:1026D000130806F3130606F36FF0DFE913F707019B
:1026E0001385F6FFE30607F41386040013070000C2
:1026F0006FF09FED938424006FF09FFC83270B0005
:1027000013861400130B4B002380F400834714003E
:10271000930406006FF0DF819387E6FF9386050040
:10272000938507006FF0DFC8138604006FF0DFE9C0
:10273000930605001305F5FF6FF0DFE69387E6FFCC
:1027400093060600138607006FF0DFAC1306050042
:102750001305000093F61500638406003305C500D9
:1027600093D5150013161600E39605FE678000004A
:102770006340050663C6050613860500930505003C
:102780001305F0FF630C060293061000637AB6008F
:102790006358C0001316160093961600E36AB6FE3F
:1027A0001305000063E6C500B385C5403365D50059
:1027B00093D6160013561600E39606FE67800000B7
:1027C00093820000EFF05FFB138505006780020035
:1027D0003305A04063D80500B305B0406FF0DFF9C2
:1027E000B305B04093820000EFF01FF93305A0401D
:1027F000678002009382000063CA0500634C0500F5
:10280000EFF09FF71385050067800200B305B04025
:10281000E35805FE3305A040EFF01FF63305B04046
:1028200067800200A8330000B0330000B833000016
:10283000130101F7138605002326A1009305C100AB
:102840001305E1052326110823248108232291087A
:1028500023202109232E3107232C4107232A510746
:102860002328610723267107232481072322910748
:102870002320A107EFF0CFAC13051000EFF04F912C
:10288000231EA10013052000EFF08F90231FA1004D
:1028900013053000EFF0CF8F2310A1021305400085
:1028A000EFF00F8F232CA10213055000EFF04F8E95
:1028B00063060520232EA1028327C101639E0734EE
:1028C00083170102638807360324C103B73700006A
:1028D0009387073D1379140093742400931509011D
:1028E00093D50501333790002322F102231E010402
:1028F00093774400B385E50063880700938515004E
:102900009395050193D505011305007DEFF0DFE6F2
:10291000130A0500232AA10293090000930B00006B
:10292000130B1000930A3000B3173B01B3F7870075
:10293000639C071493891900E39859FF63120910E7
:102940006390041213744400630A04000326010315
:102950008315C10103254103EFE09FA08327810375
:10296000639C070493071000232CF10203278103C3
:1029700093172700B387E70093971700232CF102E2
:10298000EFF04F981305C101EFD00FE9EFF08F98EA
:10299000EFF04F99EFF08F9AE30A05FC93050500DD
:1029A0001305A000EFF05FDD9305150003258103FB
:1029B000EFF0DFD9232CA102EFF0CF941305C10172
:1029C000EFD08FE5EFF00F95EFF0CF95930905006D
:1029D0000315C10193050000EFF00F919305050069
:1029E0000315E101EFF04F90930505000315010277
:1029F000EFF08F8F9305050003154103EFF0CF8EA5
:102A0000B7870000938757B0130905006304F55694
:102A100063ECA70AB72700009387278F6302F5545A
:102A2000B75700009387F7EA631CF520373500009D
:102A30001305C501EFF04FC6930720006F00400B50
:102A40000316C1018325810213050A00EFD05FD070
:102A50000324C1032320A10493742400E38404EE1F
:102A60008317E1010316C1018325C1020325410338
:102A7000939707019306410433E6C700EFD05FE662
:102A80000324C1036FF01FEC9307C10113850B00F2
:102A9000139C290093050A00338C8701EFF01FCBAC
:102AA00083274102938B1B00939B0B013385A70067
:102AB00093DB0B012326AC006FF0DFE79307700078
:102AC000232EF1026FF05FDFB7970000938727A0F6
:102AD000630EF546B7F700009387579F6312F5160C
:102AE0003735000013050505EFF00FBB93073000E5
:102AF000B74B000003A70BCD130D0000130C000013
:102B000063040748B73C000093971700938CCCF9F7
:102B1000B38CFC00373B0000B73A0000373A0000A6
:102B20006F0000043304840113142400930701068A
:102B3000338487000314C4FF3304A401130C1C0066
:102B40001314040183A70BCD13540401131C0C01AF
:102B5000131D0401135C0C01135D0D416378FC0E21
:102B600013144C00B30484019307010693942400CA
:102B7000B384970083A7C4FD239E04FE93F7170038
:102B80006384070203D664FF83D60C00630ED6006D
:102B900093050C001305CB0AEFF00FB083D7C4FFE9
:102BA00093871700239EF4FEB30484019307010664
:102BB00093942400B384970083A7C4FD13F72700E0
:102BC0006306070203D684FF83D6CC006300D602D7
:102BD00093050C001385CA0DEFF00FAC03D7C4FFAB
:102BE00083A7C4FD13071700239EE4FE93F7470055
:102BF000E38A07F2B3048401939424009307010647
:102C0000B384970003D6A4FF83D68C016318D62A19
:102C10000394C4FF6FF05FF213071000E396E7CA56
:102C200083170102E39207CAB737153493875741D8
:102C3000232EF100930760062310F1026FF0DFC826
:102C4000370401001304F4FFB74B0000EFE09FEAE4
:102C5000832541033304A400373500001305051410
:102C6000EFF08FA337350000938509001305851514
:102C7000EFF08FA213850900EFE05FEC93050500EC
:102C80003735000013050517EFF00FA113140401E9
:102C90001385090013540401EFE05FEA631C052467
:102CA00013850900EFE09FE99307900063FAA722DC
:102CB00083A50BCD032581039314040193D4044110
:102CC000EFF0DFA893050500373500001305051E5A
:102CD000EFF08F9CB7350000373500009385851FD6
:102CE00013054520EFF04F9BB73500003735000046
:102CF0009385C52113050522EFF00F9AB735000023
:102D0000373500009385852313050524EFF0CF9810
:102D1000373500009305090013058525EFF0CF979F
:102D20008327C10313F717006308070403A70BCD1C
:102D300063040704130400003739000093174400AC
:102D4000B38787001307010693972700B307F7009F
:102D500003D667FF9305040013054927EFF0CF93CF
:102D60001304140083A70BCD13140401135404019E
:102D7000E366F4FC8327C10313F727006308070405
:102D800003A70BCD630607201304000037390000AA
:102D900093174400B3878700130701069397270012
:102DA000B307F70003D687FF93050400130509292D
:102DB000EFF08F8E1304140083A70BCD13140401BE
:102DC00013540401E366F4FC8327C10393F747001F
:102DD0006386070483A70BCD6386070813040000EE
:102DE0003739000093174400B387870013070106A3
:102DF00093972700B307F70003D6A7FF93050400B6
:102E00001305C92AEFF04F891304140083A70BCDD3
:102E10001314040113540401E366F4FC83A70BCDDF
:102E20001304000037390000638E07029317440033
:102E3000B38787001307010693972700B307F700AE
:102E400003D647FF930504001305892CEFF0CF84C8
:102E50001304140083A70BCD1314040113540401AD
:102E6000E366F4FC6384040C635A900C373500006D
:102E700013050533EFF04F821305E105EFE01FCD99
:102E80008320C10803248108832441080329010801
:102E90008329C107032A8107832A4107032B0107DE
:102EA000832BC106032C8106832C4106032D0106CA
:102EB00013050000130101096780000093050C0051
:102EC00013050A11EFE05FFD83D7C4FF9387170056
:102ED0001394070113540441239E84FE6FF0DFC551
:102EE000373500001305051AEFE01FFB130414002B
:102EF0006FF01FDC83A50BCD03258103EFF01F8549
:102F00009304050013850900EFE05FC393050500F6
:102F100013850400EFF05F86930505003735000048
:102F200013058518EFE05FF76FF09FD73735000086
:102F30001305452EEFE05FF66FF01FF43735000004
:102F400013054534EFE05FF56FF01FF337350000F0
:102F5000130505FCEFE05FF4930700006FF05FB925
:102F60003735000013050508EFE01FF39307400015
:102F70006FF01FB837350000130505FFEFE0DFF1F4
:102F8000930710006FF0DFB6130400006FF01FCC42
:102F900093F74700E39807EC6FF05FE8B0D4403355
:102FA000796A14E7C1E3000052BE99110856D71F91
:102FB00047070000475EBF39A4E53A8E848D0000C4
:102FC000366B20706572666F726D616E636520721C
:102FD000756E20706172616D657465727320666FC5
:102FE0007220636F72656D61726B2E0A00000000C3
:102FF000366B2076616C69646174696F6E207275DE
:103000006E20706172616D657465727320666F7297
:1030100020636F72656D61726B2E0A0050726F666D
:10302000696C652067656E65726174696F6E207288
:10303000756E20706172616D657465727320666F64
:103040007220636F72656D61726B2E0A0000000062
:10305000324B20706572666F726D616E63652072AF
:10306000756E20706172616D657465727320666F34
:103070007220636F72656D61726B2E0A0000000032
:10308000324B2076616C69646174696F6E20727571
:103090006E20706172616D657465727320666F7207
:1030A00020636F72656D61726B2E0A005B25755D22
:1030B0004552524F5221206C697374206372632011
:1030C000307825303478202D2073686F756C64203B
:1030D0006265203078253034780A00005B25755D04
:1030E0004552524F5221206D61747269782063728B
:1030F0006320307825303478202D2073686F756C0C
:1031000064206265203078253034780A00000000A1
:103110005B25755D4552524F522120737461746571
:103120002063726320307825303478202D20736836
:103130006F756C64206265203078253034780A0021
:10314000436F72654D61726B2053697A6520202050
:10315000203A20256C750A00546F74616C207469E4
:10316000636B732020202020203A20256C750A00F4
:10317000546F74616C2074696D6520287365637386
:10318000293A2025640A0000497465726174696FE8
:103190006E732F5365632020203A2025640A0000B7
:1031A0004552524F5221204D7573742065786563E6
:1031B00075746520666F72206174206C656173742C
:1031C000203130207365637320666F722061207632
:1031D000616C696420726573756C74210A0000006B
:1031E000497465726174696F6E73202020202020FD
:1031F000203A20256C750A00474343372E322E3083
:1032000000000000436F6D70696C65722076657216
:1032100073696F6E203A2025730A00002D4F32002B
:10322000436F6D70696C657220666C6167732020F6
:10323000203A2025730A0000535441434B000000FC
:103240004D656D6F7279206C6F636174696F6E206C
:10325000203A2025730A0000736565646372632059
:103260002020202020202020203A203078253034B3
:10327000780A00005B25645D6372636C6973742077
:103280002020202020203A203078253034780A0071
:103290005B25645D6372636D6174726978202020C0
:1032A00020203A203078253034780A005B25645D90
:1032B00063726373746174652020202020203A209B
:1032C0003078253034780A005B25645D637263666C
:1032D000696E616C2020202020203A203078253033
:1032E00034780A00436F7272656374206F70657280
:1032F0006174696F6E2076616C6964617465642EB7
:103300002053656520524541444D452E6D6420662D
:103310006F722072756E20616E64207265706F72BC
:1033200074696E672072756C65732E0A0000000068
:103330004572726F72732064657465637465640AA4
:103340000000000043616E6E6F742076616C6964EA
:10335000617465206F7065726174696F6E20666F4D
:103360007220746865736520736565642076616C8E
:103370007565732C20706C6561736520636F6D706B
:10338000617265207769746820726573756C7473F7
:10339000206F6E2061206B6E6F776E20706C617491
:1033A000666F726D2E0A00005374617469630000C9
:1033B0004865617000000000537461636B0047430F
:1033C000433A2028474E552920372E322E30000010
:1033D00000000000000000000000000000000000ED
:1033E00000000000000000000000000000000000DD
:1033F00000000000000000000000000000000000CD
:1034000000000000000000000000000000000000BC
:103BA000D8130000D81300001414000014140000EF
:103BB00078140000843C00008C3C0000943C000021
:103BC0009C3C0000543C0000603C00006C3C000049
:103BD000783C0000243C0000303C00003C3C0000ED
:103BE000483C0000F43B0000003C00000C3C00009E
:103BF000183C000054302E33652D31460000000083
:103C00002D542E542B2B5471000000003154332EB0
:103C10003465347A0000000033342E30652D545E54
:103C200000000000352E353030652B3300000000D9
:103C30002D2E313233652D32000000002D383765CE
:103C40002B383332000000002B302E36652D3132F8
:103C50000000000033352E353434303000000000D1
:103C60002E31323334353030000000002D31313008
:103C70002E373030000000002B302E3634343030F8
:103C800000000000353031320000000031323334A2
:103C9000000000002D383734000000002B31323294
:103CA00000000000EC190000BC190000C819000059
:103CB000D4190000E0190000B01900000000000055
:103CC00000000000000000000000000000000000F4
:103CD000010000000100000066000000002000005C
:103CE000881F0000881F0000F41F0000881F0000CC
:103CF000881F0000881F0000881F0000881F000028
:103D0000881F0000881F0000E81F0000881F0000B7
:103D1000DC1F0000881F0000881F00006C1F0000CF
:103D20005C2200003C2000003C2000003C20000001
:103D30003C2000003C2000003C2000003C20000013
:103D40003C2000003C2000003C2000003C20000003
:103D50003C2000003C2000003C2000003C200000F3
:103D60003C2000003C2000003C2000003C200000E3
:103D70003C2000003C2000003C20000010250000FA
:103D80003C2000003C2000003C2000003C200000C3
:103D90003C2000003C2000003C2000003C200000B3
:103DA000102600003C200000C4240000F82500007C
:103DB0003C2000003C2000003C2000003C20000093
:103DC000F82500003C2000003C2000003C200000C2
:103DD0003C2000003C200000B8240000202500000A
:103DE0003C2000003C200000542500003C20000046
:103DF000902400003C2000003C2000002026000011
:103E00005C21000044200000442000004420000009
:103E10004420000044200000442000004420000012
:103E20004420000044200000442000004420000002
:103E300044200000442000004420000044200000F2
:103E400044200000442000004420000044200000E2
:103E500044200000442000004420000014250000FD
:103E600044200000442000004420000044200000C2
:103E700044200000442000004420000044200000B2
:103E80006021000044200000C8240000FC25000040
:103E90004420000044200000442000004420000092
:103EA000FC250000442000004420000044200000C5
:103EB0004420000044200000BC2400002425000011
:103EC0004420000044200000582500004420000049
:103ED0009424000044200000442000000826000034
:103EE0003031323334353637383961626364656670
:103EF0006768696A6B6C6D6E6F70717273747576DA
:103F00007778797A00000000303132333435363733
:103F100038394142434445464748494A4B4C4D4E47
:103F20004F505152535455565758595A000000009B
:083F30003C4E554C4C3E0000D4
:00000001FF
