:1000000037010100EF10802C3705008013054500F3
:1000100023200500029041114AC00329C50122C4D2
:1000200026C206C62A84232C0502232E05028144FB
:1000300063992401B240224492440249014541019E
:100040008280854522855D2C83558403EF009033A3
:10005000231CA402FD552285552483558403EF00FB
:100060007032231CA40299E0231DA4028504C9B7A1
:100070000DE68317050013F707F0C207C183A183BC
:10008000D98F2310F5008397050013F707F0C207F7
:10009000C183A183D98F2390F50003152500839791
:1000A00025001D8D8280011126CA8314050006CE0D
:1000B00022CC93D774404AC84EC6858B91CB13F59A
:1000C000F407F2406244D2444249B2490561828059
:1000D0002E8493D5344093F7F5009395470013F79A
:1000E0007400DD8DAA898357840311C78546630197
:1000F000D70626891DA8930620022E8763D4D50033
:100100001307200283162400031604004C48084CF1
:100110001377F70FEF00F0108357E403131905016D
:100120001359094199E3231FA4028355840313152E
:1001300009014181EF00102593F404F0231CA4026F
:1001400093E404081375F907C98C2390990095BFAF
:100150003E8613058402D52D8357C4031319050168
:1001600013590941F9F3231EA402C1B7011126CA8C
:10017000AE84B28506CE22CC32C6353732462A84CA
:100180002685B2850D373305A440F2406244D2443F
:1001900005618280839705002310F5008397250071
:1001A0002311F50082802A8808429308850063FCA9
:1001B000E8029842130347006377F30223201601F5
:1001C000832708001CC12320A80058C19C42039724
:1001D000050091079CC25C412390E700039725002E
:1001E0002391E7008280014582801C415841D4431D
:1001F00054C1D8C3984318C123A007003E8582800C
:10020000D441584154C1D8C1984118C188C1828095
:100210008397250063DE070015C15C4103C7070013
:10022000839705006313F70082800841F5B7084102
:1002300011C5584103172700E31BF7FE8280AA87E8
:10024000014591E38280984388C33E85BA87D5BF34
:10025000797152CC56CA62C466C26AC006D622D42C
:1002600026D24AD04ECE5AC85EC62E8CB28C2A8A6E
:10027000854A054DD284814B014B014A99E42320E4
:100280000B00635E7D05860AF5B7850B2684014960
:100290000040050909E8D689631A0900638309004B
:1002A00015E8A284E1BFE3952AFFF5B7638309004F
:1002B00001ECA287268484407D1963000B02232071
:1002C0008B00228B3E84C9BF4C40C8406686029C8E
:1002D000E351A0FE1C40FD19CDB7228ADDB7B25014
:1002E0002254528592540259F249624AD24A424BF0
:1002F000B24B224C924C024D456182805D71A2C48A
:100300005ED64051831B4500A6C2CAC052DC56DAF5
:100310005AD886C64EDE2A862E8A231FB100814A0D
:10032000014B0149814463CF7A070A0933096941C6
:10033000CA94C204C18063594001B70500002285F8
:100340009385C51631372A8408404535AA896C083B
:1003500022857D3D2A8919E1032904006317090CD0
:100360001C4003A74900B7050000D443228501467D
:1003700023A2D900D8C398439385050723A0E90099
:1003800023A03701F13500412A8955E8B6402644BB
:10039000268506499644F259625AD25A425BB25BAC
:1003A0006161828093F7FA0F6C08228532C6231EA2
:1003B000F100B93DAA89228559352A843246639CC9
:1003C00009021C41050B420BDC43135B0B018387C5
:1003D0001700858BBE94C204C1808317E10163C5F9
:1003E00007008507231FF10093871A00939A0701DE
:1003F00093DA0A410DBF03A7490005094209831793
:1004000007001359090113F7170011C7A587858B3A
:10041000BE94C204C18083A70900E1D3984323A0FE
:10042000E900184098C31CC04DBF5C40A6850395E9
:100430000700EF00A078AA840329090005B78327E5
:100440004900A68503950700EF004077AA84004085
:100450002DBF397122DC51443354850226DA4AD843
:100460004ED652D456D206DEE17723A005009387FC
:100470000708AE893289340870004E85014A791424
:1004800093143400AE94C4C12390F400239104006B
:10049000938785003EC6938744003ECC931A240080
:1004A000B707008093C7F7FFA69A3ECE2687D68768
:1004B0006C08D539636C8A0215453354A40283A7AE
:1004C0000900116605477D168C43A9E9B7050000B0
:1004D0004E85014693850507A53BF2506254D254E0
:1004E0004259B259225A925A2161828013170A0145
:1004F0004183B34727018E071D8B93F78707D98F59
:1005000013978700D98F231EF1002687D6873408DA
:1005100070006C084E854139050A69BFC84363778E
:1005200087002311E5000507AE8779BF9316070101
:10053000C18293871600A20793F70770B3C62601FE
:10054000D58FF18F2311F500F9BF411122C611E2B9
:1005500005460147814729A085073387F7020E0723
:10056000E36CA7FE1385F7FFB307A502FD15F1990C
:10057000910593121500014F0543C163939817002D
:10058000B3871501BE8F3384F540636CAF049CC6FE
:10059000C697FD173244F19B9107CCC2DCC688C2D6
:1005A00041018280330606031317080141830508C1
:1005B00033667602B30EC700C20E93DE0E01769745
:1005C0002310DE011377F70FB30EC4012390EE0062
:1005D000090E33076840E367A7FC050F969F2A932F
:1005E0006DB77E8E1A88F5B7131E250081488147A6
:1005F00081460147639FA8023E858280131328002D
:100600002E9303230300C207C1831A97635DE6009C
:10061000A907C207C187014705089A86E310A8FE0B
:100620008508F295C1BFB3A66600B697C207C18719
:10063000E5B70148E5B713131500131E2500014760
:100640006316A702828093981700B29883980800D7
:10065000139827002E98B388D80285072320180105
:10066000E393A7FE05071A96F295D9BF8147CDBF40
:10067000931815000147631FA700828003D8070065
:10068000850689073298239F07FFE399A6FE050791
:10069000C695D5B7AE878146CDBF13131500014768
:1006A0006313A700828023A005008147639667003B
:1006B000050791051A96EDB73308F600B388F600E2
:1006C00003180800839808008907B308180303A8D3
:1006D0000500469823A00501D1BF931F2500131FD5
:1006E000150001436314A30482801317180023A08C
:1006F000070036978148639AA80005089107E3161A
:10070000A8FE0503FE957A96F1BF139E1800329E4F
:10071000031E0E00831E070085087A97B30EDE03C2
:1007200003AE0700769E23A0C701F1B7AE8701484C
:10073000F9B7931F2500131F1500814E639CAE046B
:10074000828013181300232007003698014E631A85
:10075000AE0005031107E316A3FE850EFE957A96FB
:10076000F1BF93171E00B297831808008397070004
:10077000050E7A98B387170393D82740958793F887
:10078000F80093F7F707B387F80283280700C697A6
:100790001CC375BF2E8701437DBF01114AC8328932
:1007A00026CA3A8652C4AE847D7ACA8506CE336A9A
:1007B000470122CC4EC656C2BA895AC02A84B68A8C
:1007C000453DCE864A86A6852285B5355286A685C4
:1007D0002285193D8145DD26D6862A8B4A86A68547
:1007E0002285653D5286A6852285FD3BDA85F92660
:1007F000D6862A8B4A86A6852285C5355286A68549
:100800002285DD33DA855D2ED6862A8B4A86A6853B
:10081000228505375286A6852285F933DA85792E19
:10082000330630414206AA84CA852285418689352D
:10083000F2406244139504014249D244B249224A2B
:10084000924A024B418505618280411122C42E8764
:1008500032844C4514455041084106C63D3FA285AF
:100860002244B240410199AE8505C2050968096379
:10087000130EF5FFC181814701478146930EC002E7
:10088000114F130808411303C33DB388E600938F4B
:10089000180063E9CF01B307D6003387C740636F01
:1008A000A704828019CFB2963E9783C207008507BE
:1008B0008506A38F56FEE31AF7FEB2982380D8016F
:1008C000FE8613F775007517420793D7150041830D
:1008D000B18B6367EF000A071A971843C297028724
:1008E000C2979C4311478505C205C18179BF9C4BC6
:1008F0002147D5BF9C53EDBF9C5BDDBF2380070024
:10090000850761BF1441096801470543130EC00202
:100910009D4E1308083F2546130F50049308E0022C
:1009200083C7060099C36315670014C13A858280A6
:100930008506E38CC7FFE3E5EEFE931F2700C29F09
:1009400083AF0F00828F938F07FD93FFFF0F114737
:100950006370F603938F57FD93FFDF0F0947638999
:100960000F00154763861701DC4105478507DCC189
:100970009C4185079CC16DB79845938F07FD93FFF8
:10098000FF0F05076377F6016398170198C51547B0
:1009900041BF98C5114769B798C5054751B76396D8
:1009A00017019C4985079CC9DDB7938707FD93F71D
:1009B000F70FE377F6F69C4985079CC9F9BF93FFCB
:1009C000F70D6397EF01DC490D478507DCC989BF47
:1009D000938707FD93F7F70FE374F6F4DC49850777
:1009E000DCC965BFD845938757FD93F7D70F050737
:1009F000D8C51947DDF32DB7984D938707FD93F7B9
:100A0000F70F050798CD1D47E37CF6F079B793877C
:100A100007FD93F7F70FE375F6F0DC418507DCC1BE
:100A2000ADBF1971A2DCA6DACAD8CED6D2D42E8434
:100A30003E892ECE86DEAA84368ABA8981459307FE
:100A4000000298002E972320070018102E972320CD
:100A500007009105E397F5FEF24783C70700A1EF72
:100A600022CEA2941307C002F24763E4970622CE77
:100A7000F24783C70700ADEB22CE1307C002F2474F
:100A800063E097080144930400021C10A297884376
:100A9000CA8539229C00A297AA858843110409229D
:100AA0002A89E31494FEF6506654D6544659B65932
:100AB000265A096182808C00680832C6A1359C10D4
:100AC0000A053E95832705FC324685072320F5FC61
:100AD00061B783C507006385E500B18D2380B7004A
:100AE000F247CE973ECE49B78C006808213D9C1056
:100AF0000A053E95832705FC85072320F5FC8DBF5D
:100B000003C607006306E600334646012380C7009C
:100B1000F247CE973ECEA5B77D15914763EDA7026C
:100B20008967938707500A053E951C41828789672C
:100B300003A547528280896703A50752828089678F
:100B400003A507538280896703A5C75282808967FE
:100B500003A5C7518280014582809166A14789061D
:100B6000617633C7A500058B058111C3B58D8581DD
:100B700001C7D18DC205C181FD1793F7F70FF5F3BA
:100B80002E858280411122C42A841375F50F06C672
:100B9000E937AA85135584002244B240410175BF4C
:100BA000411122C42A844205418106C6E13FAA853B
:100BB000135504012244B2404101E9B74205418185
:100BC000D1B701458280732500C08280F32700C021
:100BD0000967232CF7508280F32700C00967232A76
:100BE000F7508280896703A54751896783A787519A
:100BF0001D8D8280828085472300F500828023003E
:100C0000050082803E8893F707045D71C9CBB72841
:100C100000009388C8559377080199C31378E8FFBB
:100C200093771800930E000399E3930E00029377D5
:100C30002800014381CB63D90506B305B040FD16FA
:100C40001303D002137F080263060F00C147631B22
:100C5000F606F916ADED930700032306F10085476C
:100C6000BE8563D3E700BA85137718018D8E45C31F
:100C700063050300230065000505630A0F00214793
:100C8000631DE608130700032300E500050513783C
:100C900008016300080CAA9513060003D1A0B72829
:100CA00000009388485385BF9377480089C7FD1695
:100CB0001303B00241BF93778800C9D7FD16130311
:100CC000000249B7A147E317F6F8FD1661B781475F
:100CD000130EC1008507B30FFE0033FEC502B3D566
:100CE000C502469E034E0E00A38FCFFFF5F18DBFC8
:100CF0000507A30FF7FFB308EE40E34B10FF36875D
:100D000063D306000147FD163A95998E95B72A8759
:100D1000330ED500930F0002F9BF4147E319E6F601
:100D2000130700032300E50013078007A300E50075
:100D30000905B1BF0507A30FD7FF3306E840E34B12
:100D4000C0FE368763D306000147FD163A95998E9B
:100D500099B72A873308D500CDB70505A30FC5FE7F
:100D60003387A540E3CBE7FE3E872A866346E00251
:100D700063D307008147AA973E87B385D700130541
:100D800000023386E5406342C00263D30600814619
:100D90003385D700616182806C00BA9583C5F5FF09
:100DA00005067D17A30FB6FED1B70507A30FA7FE53
:100DB000C9BFB70700802380A7008280130101BA52
:100DC000232C8142232A9142232061432A84232217
:100DD000B144281093054144372B0000B72400008C
:100DE000232821432326314323244143232E114228
:100DF00023225143232E7141232C81412324C144BA
:100E00002326D1442328E144232AF144232C0145FD
:100E1000232E11452EC62A89130A0002B729000085
:100E2000130B4B539384C45583470400B9E3230049
:100E30000500CA87B706008003C70700338527412E
:100E4000631B07468320C14303248143832441431A
:100E5000032901438329C142032A8142832A414253
:100E6000032B0142832BC141032C81411301014615
:100E70008280130750026387E7002300F500AE8AE3
:100E8000050521AC81479306B0021308D0029308F0
:100E9000000313030002130E300219A863070701B1
:100EA0006314170393E7170019A093E7070132842F
:100EB00003471400130614006303D702E3E0E6FEC1
:100EC000630267026303C703930607FD93F6F60FF9
:100ED00025486362D8068146A548294305A093E7C3
:100EE0004700F1B793E78700D9B793E70702C1B787
:100EF000B38666020506C296938606FD0348060081
:100F0000130708FD1377F70FE3F4E8FE0348060024
:100F10001307E002631DE80C03481600A5481304FC
:100F20001600130708FD1377F70F63E3E80A01477C
:100F3000A54829433DA01308A002FD56E31807FD6C
:100F40009441130624009105E3D206FCB306D04079
:100F500093E7070165BF330767020504429713074C
:100F600007FD03480400130608FD1376F60FE3F4AB
:100F7000C8FE034804009308C0047D561373F80D9F
:100F80006314130142860504034804009308900685
:100F9000630A180763EC080793081006630F181715
:100FA00063EA080593081004630718171306800501
:100FB000630FC82E930750026305F8002300F50065
:100FC000050583470400E39A07EA7D14AE8AF1A081
:100FD0009308A0020147E31E18F998411304260064
:100FE00013864500635307000147B28559B7328421
:100FF0007D5741B7130630066302C8061306400644
:10100000E31AC8FA93E727002946A1A01306300780
:10101000630CC808636606031306F006630EC80275
:1010200013060007E318C8F87D566395C60093E7DA
:101030001700A146938A450041468C41E136B1A88C
:1010400013065007E302C8FC930880074146E313E8
:1010500018F7938A4500D5B72146E5BFC18B8DE7C8
:101060003306D50021A0A38F47FF3E8593071500C7
:101070003307F640E349E0FE9387F6FF6343D00071
:101080008546B386D74085069C41938A4500050571
:10109000A30FF5FEFD166345D0000504D68569B3A0
:1010A0000505A30F45FFFDB7938A45008C4199E1E3
:1010B000938549582E972E8603480600630408003E
:1010C000631EE602C18B3307B64091E7FD16938796
:1010D00016006347F702AA873386A7406346E602F5
:1010E000BA876353070081473E95AA96B387A64007
:1010F000E355F7FA0505A30F45FFCDBF05066DBF04
:101100000505A30F45FFD9B7850503C6F5FF85077C
:10111000A38FC7FED1B793E707041307C00683A8C0
:101120000500938A4500631DE60E13F70704268326
:1011300011E35A8301468145994E130FA00333876B
:10114000C8000347070013080141330EB8001358C5
:1011500047003D8B1A981A97034808000347070079
:10116000050623000EC1A300EEC013882500631AF4
:10117000D603C18BA9C3814710083E9603460600DB
:101180003307F50085072300C700E317F8FE4295F3
:10119000AA96B387A640E352F8F00505A30F45FFD2
:1011A000CDBF130701413A988D052300E8C141BF27
:1011B0000505A30F45FFFD1693871600E34AF8FEC9
:1011C0005DBF1307014113861B00BA9B23807BC0C0
:1011D000338708010347070093050141930B16006D
:1011E000338CC50021EF23005CC00508E31BD8FD4C
:1011F000C18BC5CB814710083E96034606003307D6
:10120000F50085072300C700E39777FF5E95AA9650
:10121000B387A640E3D3FBE80505A30F45FFCDBF89
:1012200001480146130F3006A54F2943130E40060F
:1012300093020003914E9303E00259BF6353EF04FE
:10124000B345C70309063367C703DA9583C50500AD
:101250002300BCC093050141AE9BB34567023367D1
:101260006702DA9583C505002380BBC05A97034700
:10127000070093050141930B16002E962300E6C04C
:10128000ADB7E3D5EFFE334667025A960346060034
:10129000336767022300CCC05E86C9BF0505A30F74
:1012A00045FFFD1693871600E3CAFBFEA1B793E73F
:1012B0000704414679BB2380E6008507B5BE0000E0
:1012C000E41B0000EC1B0000F41B000075712E866F
:1012D0002AC66C001305E10506C722C526C34AC10C
:1012E000CEDED2DCD6DADAD8DED6E2D4E6D2EAD066
:1012F000EFF07F900545EFF03F82231EA1000945E6
:10130000EFF09F81231FA1000D45EFF0FF80231018
:10131000A1021145EFF05F802ADC1545EFF0CFFF09
:10132000630B05162ADEF24781EB0317010209E77A
:10133000130760062310E1020547639EE700831749
:10134000010291EBB7371534938757413ECE93078F
:1013500060062310F102F25689679387C7C013F81D
:1013600016003ED213150801231E010493F7260030
:10137000418191C3050593F7460081C705054205E4
:1013800041819307007D33D5A7020147814705437B
:101390008D482ADA3316E300758E09CE338EA70204
:1013A0006C08131627002E9692558507C207C18335
:1013B000F2954CC60507E31F17FD630808000316E6
:1013C000C101A255EFF0EF88AAC0F257898B81CFF7
:1013D0008317E1010316C101B2555255C207D4006B
:1013E0005D8EEFF08F96F257918B99C74256831519
:1013F000C1015255EFF04FC7E2579DEB85473EDCE8
:101400002944E257B38787023EDCEFF02FFC6808DF
:10141000EFE07FC0EFF04FFCEFF0CFFCEFF08FFD7F
:101420006DD13354A402625505043304850222DCD5
:10143000EFF0CFF96808EFE01FBEEFF0EFF9EFF043
:101440006FFA2A8B0315C10181450969EFF00FF787
:10145000AA850315E101EFF06FF6AA8503150102D5
:10146000EFF0CFF5AA8503154103EFF02FF5A16743
:10147000938757B02A8A630CF50663E1A702896750
:101480009387278F6305F50895679387F7EA6308C5
:10149000F5067D543DAA9D473EDE71B5A56793874D
:1014A00027A0630FF500BD679387579FE313F5FEF1
:1014B000372500001305C588EFF05F908D4701A820
:1014C000371500001305C57FEFF05F8F8147856AF0
:1014D0008607938A8A7D01448144930B4004BE9A17
:1014E000372C0000B72C0000372D0000F9A8372555
:1014F00000001305C582EFF07F8C8547C9BF3725F3
:10150000000013058585EFF07F8B8947C9B7372524
:1015100000001305C58BEFF07F8A91474DBFB3895B
:1015200074039C10BE9983A7C9FD239E09FE858B79
:101530008DC303D669FF83D60A00630CD600A68547
:1015400013058C8EEFF09F8783D7C9FF8507239EF5
:10155000F9FEB38974039C10BE9983A7C9FD898BDA
:101560008DC303D689FF83D6CA00630CD600A68537
:1015700013858C91EFF09F8483D7C9FF8507239E45
:10158000F9FEB38974039C10BE9983A7C9FD918BA2
:101590008DC303D6A9FF83D68A01630CD600A68526
:1015A0001305CD94EFF09F8183D7C9FF8507239E54
:1015B000F9FEB387740398108504C204C180BA97FA
:1015C00003D5C7FF2A944204418483278952E3E864
:1015D000F4F4EFF00FDFD2552A94372500001305FD
:1015E000C597EFF0AFFD37250000DA851305459963
:1015F000EFF0CFFC5A85EFF0EFDFAA85372500002A
:101600001305C59AEFF08FFB42045A854180EFF035
:101610006FDE0DC183258952E2545A85B384B4022A
:10162000EFF04FDDB3D5A402372500001305459C2C
:10163000EFF0CFF85A85EFF0EFDBA54763F3A7088B
:1016400083278952E255372500001305C5A1B385CC
:10165000F50242044184EFF06FF6B725000037250C
:101660000000938545A3130505A4EFF02FF5B725DA
:10167000000037250000938585A51305C5A5EFF06B
:10168000EFF3B725000037250000938545A7130524
:10169000C5A7EFF0AFF237250000D285130545A9A5
:1016A000EFF0CFF1F257858BA1EBF257898BB5EFB5
:1016B000F257918BC5E7814493094004372A000013
:1016C000D1A0372500001305C59DEFF02FEF0504CD
:1016D00085BFB38734039810A685850413050AAB2C
:1016E000C204C180BA9703D667FFEFF02FED8327BE
:1016F0008952E3E0F4FE55BF814493094004372A40
:101700000000F5B7B38734039810A6858504130548
:10171000CAACC204C180BA9703D687FFEFF00FEAC4
:1017200083278952E3E0F4FE61B7814493094004C2
:10173000372A0000F5B7B38734039810A6858504CF
:1017400013058AAEC204C180BA9703D6A7FFEFF093
:10175000EFE683278952E3E0F4FEB1BF81449309A9
:101760004004372A0000F5B7B38734039810A685E4
:10177000850413054AB0C204C180BA9703D647FF57
:10178000EFF0CFE383278952E3E0F4FE15E8372535
:101790000000130505B2EFF06FE21305E105EFF06D
:1017A0000FC6BA402A449A440A49F659665AD65A8C
:1017B000465BB65B265C965C065D014549618280AE
:1017C00063578000372500001305C5B6E9B73725F4
:1017D0000000130505B8C1B7B0D44033796A14E7E7
:1017E000C1E3000052BE99110856D71F47070000F9
:1017F000475EBF39A4E53A8E848D0000366B2070B9
:101800006572666F726D616E63652072756E2070B1
:101810006172616D657465727320666F7220636FAB
:1018200072656D61726B2E0A00000000366B2076C7
:10183000616C69646174696F6E2072756E2070618D
:1018400072616D657465727320666F7220636F726A
:10185000656D61726B2E0A0050726F66696C65204F
:1018600067656E65726174696F6E2072756E207047
:101870006172616D657465727320666F7220636F4B
:1018800072656D61726B2E0A00000000324B207091
:101890006572666F726D616E63652072756E207021
:1018A0006172616D657465727320666F7220636F1B
:1018B00072656D61726B2E0A00000000324B20765B
:1018C000616C69646174696F6E2072756E207061FD
:1018D00072616D657465727320666F7220636F72DA
:1018E000656D61726B2E0A005B25755D4552524F26
:1018F0005221206C69737420637263203078253024
:101900003478202D2073686F756C642062652030F8
:1019100078253034780A00005B25755D4552524FBA
:101920005221206D6174726978206372632030786F
:1019300025303478202D2073686F756C64206265C3
:10194000203078253034780A000000005B25755D72
:101950004552524F52212073746174652063726343
:1019600020307825303478202D2073686F756C64B2
:10197000206265203078253034780A00436F726524
:101980004D61726B2053697A65202020203A202512
:101990006C750A00546F74616C207469636B7320FA
:1019A00020202020203A20256C750A00546F746195
:1019B0006C2074696D65202873656373293A20254E
:1019C000640A0000497465726174696F6E732F5305
:1019D00065632020203A2025640A00004552524FBA
:1019E0005221204D75737420657865637574652088
:1019F000666F72206174206C6561737420313020D1
:101A00007365637320666F7220612076616C696410
:101A100020726573756C74210A0000004974657248
:101A20006174696F6E73202020202020203A2025C9
:101A30006C750A00474343372E322E3000000000F9
:101A4000436F6D70696C65722076657273696F6E35
:101A5000203A2025730A00002D4F3200436F6D702D
:101A6000696C657220666C6167732020203A2025BE
:101A7000730A0000535441434B0000004D656D6FE5
:101A80007279206C6F636174696F6E20203A202533
:101A9000730A000073656564637263202020202050
:101AA00020202020203A203078253034780A000089
:101AB0005B25645D6372636C697374202020202051
:101AC00020203A203078253034780A005B25645D88
:101AD0006372636D617472697820202020203A203F
:101AE0003078253034780A005B25645D6372637357
:101AF000746174652020202020203A203078253021
:101B000034780A005B25645D63726366696E616C9C
:101B10002020202020203A203078253034780A00F8
:101B2000436F7272656374206F7065726174696F60
:101B30006E2076616C6964617465642E20536565FE
:101B400020524541444D452E6D6420666F722072CF
:101B5000756E20616E64207265706F7274696E6755
:101B60002072756C65732E0A000000004572726F5A
:101B700072732064657465637465640A0000000014
:101B800043616E6E6F742076616C69646174652068
:101B90006F7065726174696F6E20666F7220746811
:101BA00065736520736565642076616C7565732C5B
:101BB00020706C6561736520636F6D706172652064
:101BC0007769746820726573756C7473206F6E200A
:101BD00061206B6E6F776E20706C6174666F726DD2
:101BE0002E0A0000537461746963000048656170D7
:101BF00000000000537461636B004743433A2028A0
:101C0000474E552920372E322E30000000000000AC
:101C100000000000000000000000000000000000C4
:101C200000000000000000000000000000000000B4
:101C300000000000000000000000000000000000A4
:101C40000000000000000000000000000000000094
:1023D000000000000000000000000000EE08000007
:1023E000EE080000F4080000F4080000F8080000FF
:1023F000460900002009000078090000E4090000F7
:102400009E090000BE090000F80900000E0A000045
:10241000E0240000E8240000F0240000F82400007C
:10242000B0240000BC240000C8240000D424000014
:10243000802400008C24000098240000A4240000C4
:10244000502400005C240000682400007424000074
:1024500054302E33652D3146000000002D542E548B
:102460002B2B5471000000003154332E3465347A24
:102470000000000033342E30652D545E0000000053
:10248000352E353030652B33000000002D2E3132D3
:1024900033652D32000000002D3837652B3833327C
:1024A000000000002B302E36652D31320000000078
:1024B00033352E3534343030000000002E313233C5
:1024C00034353030000000002D3131302E373030BF
:1024D000000000002B302E36343430300000000075
:1024E000353031320000000031323334000000005A
:1024F0002D383734000000002B313232000000004C
:102500002E0B0000360B00003E0B0000460B0000B7
:102510004E0B000000000000000000000000000062
:1025200000000000000000000100000001000000A9
:102530006600000030313233343536373839616265
:10254000636465666768696A6B6C6D6E6F707172E3
:10255000737475767778797A000000003031323301
:102560003435363738394142434445464748494A6D
:102570004B4C4D4E4F505152535455565758595A33
:0C258000000000003C4E554C4C3E00009A
:00000001FF
