:1000000037810000EF10D02237050080130545002E
:100010002320050073001000EF12D01A0329C50138
:1000200013040500232C0502232E0502930400006F
:1000300063962401130500006F10501D93051000F6
:1000400013050400EF00403883558403EF00107D52
:10005000231CA4029305F0FF13050400EF00C03633
:1000600083558403EF00907B231CA4026394040057
:10007000231DA402938414006FF09FFB631E0602ED
:100080008317050013F707F09397070193D707012C
:1000900093D78700B367F7002310F5008397050017
:1000A00013F707F09397070193D7070193D78700BA
:1000B000B367F7002390F50003152500839725000B
:1000C0003305F54067800000EF12D00C8314050063
:1000D00093D7744093F717006386070013F5F4076E
:1000E0006F1090111384050093D5344093F7F500F9
:1000F0009395470013F77400B3E5F50093090500E5
:1001000083578403630A070093061000630AD70627
:10011000138904006F000004930620021387050072
:1001200063D4D500130720028316240003160400AD
:1001300083254401032584011377F70FEF00904CCA
:100140008357E40313190501135909416394070008
:10015000231FA402835584031315090113550501B8
:10016000EF00D06B93F404F0231CA40293E4040882
:100170001375F907B3649500239099006FF05FF64B
:100180001386070013058402EF00D01B8357C403B6
:100190001319050113590941E39E07FA231EA4020E
:1001A0006FF05FFBEF121002130101FF9384050053
:1001B000930506002326C100EFF01FF10326C100BE
:1001C000130405001385040093050600EFF0DFEF2C
:1001D0003305A440130101016F10500383970500FC
:1001E0002310F500839725002311F5006780000098
:1001F00013080500032506009308850063F4E8044E
:1002000003A7060013034700637EF30223201601B1
:10021000832708002320F5002320A8002322E500DF
:1002200083A70600039705009387470023A0F600E5
:10023000832745002390E700039725002391E700DB
:100240006780000013050000678000008327050019
:100250000327450083A647002322D50023A2E700F9
:1002600003A707002320E50023A00700138507004C
:100270006780000083A64500032745002322D500A0
:1002800023A2E50003A705002320E50023A0A50085
:10029000678000008397250063D40702630A050284
:1002A0008327450003C70700839705006314F70001
:1002B00067800000032505006FF05FFE0325050041
:1002C000630805000327450003172700E318F7FE1E
:1002D0006780000093070500130500006394070082
:1002E0006780000003A7070023A0A700138507006D
:1002F000930707006FF09FFEEF120068138C050054
:10030000930C0600130A0500930A1000130D100049
:1003100093040A00930B0000130B0000130A000063
:10032000639A040023200B00635C7D09939A1A00F2
:100330006FF01FFE938B1B00138404001309000051
:100340000324040013091900631E040093890A00A2
:10035000631E090063840900631A04049304040003
:100360006FF01FFCE39E2AFD6FF05FFE63840900BF
:1003700063140402930704001384040083A404009C
:100380001309F9FF630A0B0223208B00130B0400EF
:10039000138407006FF0DFFB8325440003A54400AE
:1003A00013860C00E7000C00E356A0FC8327040032
:1003B0009389F9FF6FF01FFD130A04006FF01FFD12
:1003C00013050A006F100062EF12005B0324450260
:1003D000831B4500130101FE13060500138A050067
:1003E000231FB100930A0000130B00001309000043
:1003F0009304000063C27A0B131929003309694181
:10040000B38424019394040193D40401635C4001F8
:10041000B7050000130504009385451AEFF0DFEDE2
:100420001304050003250400EFF05FE293090500C3
:100430009305C10113050400EFF0DFE51309050082
:100440006314050003290400631C091083270400BA
:1004500003A74900B705000083A647001305040061
:100460001306000023A2D90023A2E70003A7070078
:100470009385C50723A0E90023A03701EFF0DFE74C
:100480000324050013090500631A040E13850400F4
:10049000130101026F10005593F7FA0F9305C10184
:1004A000130504002326C100231EF100EFF09FDE98
:1004B0009309050013050400EFF0DFE113040500C4
:1004C0000326C1006396090483270500130B1B0054
:1004D000131B0B0183A74700135B0B0183871700D6
:1004E00093F71700B384F4009394040193D40401A8
:1004F0008317E10163C6070093871700231FF100EC
:1005000093871A00939A070193DA0A416FF09FEEDE
:1005100003A74900130919001319090183170700DC
:100520001359090113F71700630C070093D797407D
:1005300093F71700B384F4009394040193D4040157
:1005400083A70900E38607FA03A7070023A0E900B1
:100550000327040023A0E7002320F4006FF05FF9D5
:10056000832744009385040003950700EF00502F74
:1005700093040500032909006FF01FED832749004C
:100580009385040003950700EF00902D9304050068
:10059000032404006FF05FEFEF12C03F130440012B
:1005A00033548502B787FFFF23A005009387070810
:1005B000130101FE938905001309060093068101CA
:1005C0001306C10013850900130A00001304E4FF99
:1005D00093143400B384950023A295002390F40073
:1005E00023910400938785002326F100938744001C
:1005F000232CF100931A2400B707008093C7F7FF5C
:10060000B38A5401232EF1001387040093870A0054
:100610009305C101EFF0DFBD63608A04130550004C
:100620003354A40283A709003746000013071000C3
:100630001306F6FF83A5070063960506B7050000BD
:10064000130600009385C50713850900EFF0DFCA84
:10065000130101026F10403A13170A0113570701E3
:10066000B3472701939737001377770093F78707EE
:10067000B3E7E70013978700B367F700231EF10085
:100680001387040093870A00930681011306C100B3
:100690009305C10113850900EFF09FB5130A1A00F5
:1006A0006FF09FF703A54700637A87002311E500E9
:1006B00013071700938705006FF0DFF79316070104
:1006C00093D60601938716009397870093F70770D8
:1006D000B3C62601B3E7D700B3F7C7002311F5006F
:1006E0006FF01FFDEF12002E6314060013061000BA
:1006F00013070000930700006F00000193871700A5
:100700003387F70213173700E36AA7FE1385F7FF55
:10071000B307A5029385F5FF93F5C5FF93854500C3
:1007200093121500130F000013031000B70301000C
:1007300093981700B3871501938F07003384F54012
:10074000636CAF0623A4F600B38717019387F7FF06
:1007500093F7C7FF9387470023A2B60023A6F600AE
:1007600023A0A6006F10802A330606031317080182
:10077000135707011308180033667602B30EC7003B
:10078000939E0E0193DE0E013307D7012310DE0185
:100790001377F70FB30EC4012390EE00130E2E0053
:1007A00033076840E362A7FC130F1F00B38F5F009D
:1007B000330365006FF0DFF8138E0F00130803009A
:1007C0006FF01FFE131E2500930800009307000022
:1007D00093060000130700006392A8061385070024
:1007E0006780000013132800338365000323030090
:1007F0009397070193D70701330767006356E60213
:100800009387A7009397070193D707411307000029
:100810001308180093060300E316A8FC9388180039
:10082000B385C5016FF05FFBB3A66600B387D70041
:100830009397070193D707416FF09FFD13080000BE
:100840006FF09FFD13131500131E25001307000002
:10085000631EA7026780000093981700B308160173
:10086000839808001398270033880501B388D802BD
:100870009387170023201801E390A7FE13071700A2
:1008800033066600B385C5016FF09FFC9307000037
:100890006FF09FFE93181500130700006316A70260
:1008A0006780000003D8070093861600938727000F
:1008B00033080601239F07FFE396A6FE13071700E0
:1008C000B38515016FF09FFD938705009306000027
:1008D0006FF09FFE13131500130700006314A700A9
:1008E0006780000023A0050093070000639A67005B
:1008F0001307170093854500330666006FF01FFE4F
:100900003308F600B388F60003180800839808003F
:1009100093872700B308180303A8050033081801BC
:1009200023A005016FF09FFC931F2500131F1500E6
:10093000130300006312A30667800000131718005A
:1009400023A007003387E600930800006390A80205
:100950001308180093874700E312A8FE130313003F
:10096000B385F5013306E6016FF0DFFC139E180036
:10097000330EC601031E0E00831E07009388180065
:100980003307E701B30EDE0303AE0700330EDE01CB
:1009900023A0C7016FF09FFB938705001308000099
:1009A0006FF09FFB931F2500131F1500930E00008F
:1009B000639CAE0667800000131813002320070015
:1009C00033880601130E00006310AE0213031300F8
:1009D00013074700E312A3FE938E1E00B385F501B3
:1009E0003306E6016FF0DFFC93171E00B307F60035
:1009F0008318080083970700130E1E003308E801D0
:100A0000B387170393D8274093D7574093F8F8003C
:100A100093F7F707B387F80283280700B387F80036
:100A20002320F7006FF05FFA13870500130300001F
:100A30006FF05FFAEF021076130906009384050049
:100A4000130607009305090037FAFFFF336A4701D1
:100A50009309070013040500938A0600EFF09FE353
:100A6000938609001306090093850400130504000A
:100A7000EFF05FDD13060A00938504001305040000
:100A8000EFF05FD493050000EF00805D93860A00CD
:100A9000130B0500130609009385040013050400D9
:100AA000EFF05FE313060A009385040013050400CA
:100AB000EFF05FD193050B00EF00805A93860A0098
:100AC000130B0500130609009385040013050400A9
:100AD000EFF09FE513060A00938504001305040058
:100AE000EFF05FCE93050B00EF00805793860A006E
:100AF000130B050013060900938504001305040079
:100B0000EFF05FEA13060A00938504001305040062
:100B1000EFF05FCB93050B00EF00805433063041BC
:100B2000131606019304050013560641130504002D
:100B300093050900EFF01FD61395040113550541E5
:100B40006F00906BEF021068130406001387050016
:100B500083268500032645008325C500032505005F
:100B6000EFF05FED93050400EF00804F6F00106A17
:100B70009385150093950501373800003733000041
:100B8000130EF5FF93D5050193070000130700002E
:100B900093060000930EC002130F4000130848CDC7
:100BA000130303CAB388E600938F180063EACF01EA
:100BB000B307D6003387C740636EA708678000007D
:100BC00063060702B306D6003387E70083C2070037
:100BD0009387170093861600A38F56FEE318F7FE3F
:100BE000B30816012380D80193860F0013F7750010
:100BF0001307D7FF1317070193D7150013570701E2
:100C000093F7C700636CEF001317270033076700E3
:100C100003270700B307F80067000700B307F800D1
:100C200083A70700130740009385150093950501DE
:100C300093D505016FF01FF783A707011307800005
:100C40006FF09FFE83A707026FF05FFF83A7070384
:100C50006FF0DFFE23800700938717006FF09FF58A
:100C60008326050037380000130700001303100027
:100C7000130EC002930E7000130848CB13069000A9
:100C8000130F50049308E00283C706006384070033
:100C9000631867002320D500130507006780000054
:100CA00093861600E388C7FFE3E0EEFE931F27005C
:100CB000B38F0F0183AF0F0067800F00938F07FD85
:100CC00093FFFF0F130740006376F603938F57FDE2
:100CD00093FFDF0F13072000638E0F0013075000F0
:100CE000638A170183A74500130710009387170035
:100CF00023A2F50083A705009387170023A0F50022
:100D00006FF09FF803A78500938F07FD93FFFF0FF8
:100D100013071700637AF601639E170123A4E50009
:100D2000130750006FF05FF623A4E500130740009F
:100D30006FF09FF523A4E500130710006FF0DFF4B8
:100D4000639A170183A705019387170023A8F5006D
:100D50006FF01FFD938707FD93F7F70FE376F6F229
:100D600083A705019387170023A8F5006FF0DFFC28
:100D700093FFF70D639CEF0183A745011307300034
:100D80009387170023AAF5006FF01FF0938707FDE4
:100D900093F7F70FE37AF6EE83A7450193871700E1
:100DA00023AAF5006FF05FF903A7C500938757FDED
:100DB00093F7D70F1307170023A6E500130760006A
:100DC000E39C07F66FF05FEC03A78501938707FDAF
:100DD00093F7F70F1307170023ACE5001307700014
:100DE000E374F6EA6FF05FF5938707FD93F7F70F6B
:100DF000E37CF6E883A745009387170023A2F5005C
:100E00006FF09FF3EF021039130101FA138405000C
:100E100013890700232EB10093040500138A0600EE
:100E200093090700930500009307000213070104CC
:100E30003307B70023200700130701023307B70069
:100E40002320070093854500E392F5FE8327C10127
:100E500083C70700639E0706232E8100B304940016
:100E60001307C0028327C10163EC9708232E81007A
:100E70008327C10183C707006394070A232E8100DB
:100E80001307C0028327C10163E0970C130400001D
:100E90009304000293070102B387870003A50700AC
:100EA00093050900EF00801993070104B3878700B9
:100EB0009305050003A5070013044400EF00001884
:100EC00013090500E31894FC130101066F00D032EA
:100ED000930501041305C1012326C100EFF05FD87B
:100EE00093070106131525003385A700832705FC0A
:100EF0000326C100938717002320F5FC6FF01FF530
:100F000083C507006386E500B3C5C5002380B7002D
:100F10008327C101B3873701232EF1006FF09FF4BF
:100F2000930501041305C101EFF09FD39307010658
:100F3000131525003385A700832705FC9387170029
:100F40002320F5FC6FF0DFF203C607006306E6001E
:100F5000334646012380C7008327C101B387370189
:100F6000232EF1006FF01FF21305F5FF93074000E9
:100F700063ECA704B7370000938747DC13152500FF
:100F80003305F5008327050067800700B7370000A9
:100F900003A587DE67800000B737000003A547DEA2
:100FA00067800000B737000003A547DF67800000B7
:100FB000B737000003A507DF67800000B7370000E0
:100FC00003A507DE678000001305000067800000AE
:100FD000B746000093078000938626003786FFFF00
:100FE00033C7A500137717001355150063040700D6
:100FF000B3C5D50093D5150063080700B3E5C50058
:101000009395050193D505019387F7FF93F7F70FA4
:10101000E39807FC1385050067800000EF02901A33
:10102000130405001375F50FEFF09FFA9305050003
:1010300013558400EFF0DFF96F00501DEF02901898
:10104000130405001315050113550501EFF01FFDED
:101050009305050013550401EFF05FFC6F00101BB2
:1010600013150501135505016FF05FFB1305000013
:1010700067800000732500C067800000F32700C070
:1010800037370000232EF7DC67800000F32700C00D
:1010900037370000232CF7DC67800000B7370000EB
:1010A00003A587DDB737000083A7C7DD3305F5400B
:1010B0006780000067800000930710002300F500A0
:1010C00067800000EF02101023000500EFF01FFD05
:1010D000B707008023A4A7006F00501313880700F0
:1010E00093F70704130101FB638C070AB73800006C
:1010F000938808E293770801638407001378E8FF78
:1011000093771800930E000363940700930E000278
:101110009377280013030000638A070063D805084B
:10112000B305B0409386F6FF1303D002137F080285
:1011300063080F0093070001631EF6089386E6FF1D
:101140006392050A930700032306F100930710003A
:101150009385070063D4E700930507001377180110
:10116000B386B640630C070C6306030023006500DA
:1011700013051500630C0F00130780006318E60CBD
:10118000130700032300E500130515001378080179
:1011900063040810B305B500130600036F000011C7
:1011A000B7380000938888DF6FF0DFF4937748004A
:1011B000638807009386F6FF1303B0026FF01FF7F2
:1011C00093778800E38407F69386F6FF1303000203
:1011D0006FF0DFF593078000E314F6F69386F6FFD1
:1011E0006FF01FF693070000130EC10093871700DE
:1011F000B30FFE0033FEC502B3D5C502338EC8015E
:10120000034E0E00A38FCFFFE39005FE6FF05FF457
:1012100013071700A30FF7FFB308EE40E34A10FFD0
:101220001387060063D40600130700009386F6FFB9
:101230003305E500B386E6406FF01FF313070500A2
:10124000330ED500930F00026FF01FFD130700014E
:10125000E31EE6F2130700032300E50013078007EF
:10126000A300E500130525006FF05FF213071700D8
:10127000A30FD7FF3306E840E34AC0FE13870600FA
:1012800063D40600130700009386F6FF3305E500DC
:10129000B386E6406FF01FF0130705003308D50052
:1012A0006FF05FFD13051500A30FC5FE3387A54042
:1012B000E3CAE7FE1387070013060500634CE0024C
:1012C00063D4070093070000B307F50013870700F6
:1012D000B385D700130500023386E540634AC00298
:1012E00063D40600930600003385D700130101057F
:1012F000678000009305C100B385E50083C5F5FF55
:10130000130616001307F7FFA30FB6FE6FF01FFBBF
:1013100013071700A30FA7FE6FF01FFCB70700808D
:101320002380A70067800000130101BA232C8142AB
:10133000232A914223206143130405002322B14450
:101340001305810293054144373B0000B734000088
:10135000232821432326314323244143232E1142B2
:1013600023225143232E7141232C81412324C14444
:101370002326D1442328E144232AF144232C014588
:10138000232E11452326B10013090500130A00027C
:10139000B7390000130B8BDF938404E2834704000A
:1013A000639607042300050093070900B706008031
:1013B00003C70700338527416312075A8320C143BF
:1013C0000324814383244143032901438329C142E8
:1013D000032A8142832A4142032B0142832BC141CC
:1013E000032C81411301014667800000130750025E
:1013F000638AE7002300F500938A050013051500B2
:101400006F004029930700009306B0021308D00232
:101410009308000313030002130E30026F00C00193
:10142000630807016316170393E717006F00800036
:1014300093E7070113040600034714001306140082
:101440006308D702E3EEE6FC63086702630AC7039A
:10145000930607FD93F6F60F130890006360D80813
:1014600093060000930890001303A0006F00C002D1
:1014700093E747006FF01FFC93E787006FF09FFB37
:1014800093E707026FF01FFBB38666021306160090
:10149000B3860601938606FD03480600130708FD80
:1014A0001377F70FE3F2E8FE034806001307E002A4
:1014B0006314E81003481600930890001304160004
:1014C000130708FD1377F70F63E4E80C1307000018
:1014D000930890001303A0006F00C0031308A0023C
:1014E0009306F0FFE31207FD83A605001306240010
:1014F00093854500E3DA06FAB306D04093E7070187
:101500006FF09FFA330767021304140033070701D3
:10151000130707FD03480400130608FD1376F60FB2
:10152000E3F2C8FE034804009308C0041306F0FF6A
:101530001373F80D63161301130608001304140047
:1015400003480400930890066306180963EA080933
:1015500093081006630A181F63E60807930810042F
:101560006302181F130680056304C83E93075002E8
:101570006306F8002300F5001305150083470400F7
:10158000E39A07E61304F4FF938A05006F008010C6
:101590009308A00213070000E31618F903A705003B
:1015A0001304260013864500635407001307000048
:1015B000930506006FF01FF7130406001307F0FFF2
:1015C0006FF05FF613063006630EC806130640067A
:1015D000E31EC8F893E727001306A0006F008005FC
:1015E000130630076304C80C636C06031306F00689
:1015F0006306C80413060007E31AC8F61306F0FFD3
:101600006396C60093E7170093068000938A45000F
:101610001306000183A50500EFF05FAC6F008007A3
:1016200013065007E30AC8FA93088007130600015F
:10163000E31E18F3938A45006FF0DFFD1306800068
:101640006FF05FFF93F70701639A07023306D50037
:101650006F00C000A38F47FF138507009307150095
:101660003307F640E348E0FE9387F6FF6344D0007B
:1016700093061000B386D7409386160083A7050013
:10168000938A450013051500A30FF5FE9386F6FF18
:101690006348D0001304140093850A006FF01FD034
:1016A00013051500A30F45FF6FF05FFE938A4500F9
:1016B00083A5050063940500938589E43387E500DD
:1016C0001386050003480600630408006318E60457
:1016D00093F707013307B640639807009386F6FF38
:1016E000938716006340F704930705003386A740ED
:1016F0006340E60493070700635407009307000064
:101700003305F500B306D500B387A640E354F7F8D8
:1017100013051500A30F45FF6FF01FFF13061600FA
:101720006FF05FFA13051500A30F45FF6FF01FFB65
:101730009385150003C6F5FF93871700A38FC7FE97
:101740006FF0DFFA93E707041307C00683A80500CC
:10175000938A45006314E61413F707041383040007
:101760006314070013030B00130600009305000029
:10177000930E6000130FA0033387C80003470700D0
:1017800013080141330EB800135847001377F700D0
:10179000330803013307E300034808000347070049
:1017A0001306160023000EC1A300EEC01388250007
:1017B0006314D60593F70701638E070493070000AF
:1017C000130601013306F600034606003307F50051
:1017D000938717002300C700E314F8FE33050501C3
:1017E000B306D500B387A640E356F8EA1305150003
:1017F000A30F45FF6FF01FFF1307014133080701D7
:10180000938535002300E8C16FF01FF7130515001D
:10181000A30F45FF9386F6FF93871600E348F8FE73
:101820006FF0DFF91307014113861B00B30B77013B
:1018300023807BC0338708010347070093050141DC
:10184000930B1600338CC500631E070623005CC093
:1018500013081800E318D8FD93F707016382070EF9
:1018600093070000130601013306F6000346060045
:101870003307F500938717002300C700E39477FF31
:1018800033057501B306D500B387A640E3D4FBE06A
:1018900013051500A30F45FF6FF01FFF130800008D
:1018A00013060000130F3006930F90001303A000DF
:1018B000130E400693020003930E40009303E002D0
:1018C0006FF05FF7635AEF04B345C70313062600B2
:1018D0003367C703B305BB0083C505002300BCC045
:1018E00093050141B38B7501B34567023367670206
:1018F000B305BB0083C505002380BBC03307EB00E5
:101900000347070093050141930B16003386C5007A
:101910002300E6C06FF0DFF3E3D2EFFE3346670249
:101920003306CB0003460600336767022300CCC0B2
:1019300013860B006FF09FFC13051500A30F45FFE6
:101940009386F6FF93871600E3C8FBFE6FF05FF106
:1019500093E70704130600016FF0DFCD2380E60054
:10196000938717006FF0DFA4130101FC130300003D
:101970002326B1016F00C000130101FC130300FF17
:101980002328A101232A9101232C8101232E7101F7
:101990006F00C000130101FC130300FE232061034C
:1019A0002322510323244103232631032328210327
:1019B000232A9102232C8102232E1102330161403C
:1019C00067800200130101FF2320210123229100DF
:1019D000232481002326110067800200832DC1008B
:1019E00013010101032D0100832C4100032C810010
:1019F000832BC10013010101032B0100832A410045
:101A0000032A81008329C100130101010329010078
:101A100083244100032481008320C10013010101BC
:101A200067800000A8240000B0240000B824000053
:101A3000EFF29FF4130101FA138605002326A1009B
:101A40009305C1001305E105EFF00FE71305100042
:101A5000EFF08FD1231EA10013052000EFF0CFD0AF
:101A6000231FA10013053000EFF00FD02310A102B7
:101A700013054000EFF04FCF232CA10213055000B7
:101A8000EFF08FCE63040520232EA1028327C1012E
:101A9000639A070003170102631607001307600625
:101AA0002310E102130710006390E702831701027D
:101AB000639C0700B737153493875741232EF100F5
:101AC000930760062310F1028326C103B7270000A5
:101AD0009387074D13F816002322F102131508010E
:101AE000231E010493F726001355050163840700A4
:101AF0001305150093F746006388070013051500CA
:101B000013150501135505019307007D33D5A70271
:101B10001307000093070000130310009308300020
:101B2000232AA1023316E3003376D60063060602A9
:101B3000338EA7029305C101131627003386C50013
:101B400083254102938717009397070193D70701D5
:101B5000B385C5012326B60013071700E31417FD4C
:101B6000630A08000316C10183258102EFE0DFA2AA
:101B70002320A1048327C10393F727006382070270
:101B80008317E1010316C1018325C1020325410327
:101B9000939707019306410433E6C700EFE09FB433
:101BA0008327C10393F74700638A070003260103D5
:101BB0008315C10103254103EFE09FFB83278103C8
:101BC0006396070493071000232CF1021304A0006E
:101BD00083278103B3878702232CF102EFF00FCA1A
:101BE0001305C101EFE04FC3EFF04FCAEFF00FCB89
:101BF000EFF04FCCE30E05FC3354A4020325810320
:101C00001304140033048502232C8102EFF00FC764
:101C10001305C101EFE04FC0EFF04FC7EFF00FC861
:101C2000130B05000315C1019305000037390000AF
:101C3000EFF00FC3930505000315E101EFF04FC26C
:101C40009305050003150102EFF08FC19305050010
:101C500003154103EFF0CFC0B7870000938757B05B
:101C6000130A0500630EF50863E8A702B727000012
:101C70009387278F630AF50AB75700009387F7EA1F
:101C8000630AF5081304F0FF6F00C0199307700092
:101C9000232EF1026FF09FDFB7970000938727A0F4
:101CA0006302F502B7F700009387579FE31CF5FC2A
:101CB0003725000013050515EFF00FE793073000F7
:101CC0006F004001372500001305050CEFF0CFE54C
:101CD00093070000B72A000093971700938ACA0958
:101CE0001304000093040000930B4004B38AFA002D
:101CF000372C0000B72C0000372D00006F000012B9
:101D0000372500001305050FEFF00FE293071000D1
:101D10006FF05FFC372500001305C511EFF0CFE031
:101D2000930720006FF01FFB3725000013050518EF
:101D3000EFF08FDF930740006FF0DFF9B389740392
:101D400093070106B389370183A7C9FD239E09FEC6
:101D500093F717006384070203D669FF83D60A004E
:101D6000630ED600938504001305CC1AEFF0CFDB89
:101D700083D7C9FF93871700239EF9FEB3897403A5
:101D800093070106B389370183A7C9FD93F727009D
:101D90006384070203D689FF83D6CA00630ED60088
:101DA000938504001385CC1DEFF00FD883D7C9FFAE
:101DB00093871700239EF9FEB389740393070106E6
:101DC000B389370183A7C9FD93F7470063840702EE
:101DD00003D6A9FF83D68A01630ED600938504003B
:101DE00013050D21EFF04FD483D7C9FF9387170058
:101DF000239EF9FEB387740313070106938414002E
:101E00009394040193D40401B307F70003D5C7FFEB
:101E10003304A40013140401135404418327C9DEBE
:101E2000E3EEF4F0EFF08FA4832541033304850043
:101E30003725000013050524EFF00FCF37250000EC
:101E400093050B0013058525EFF00FCE13050B004E
:101E5000EFF04FA693050500372500001305052771
:101E6000EFF08FCC1314040113050B00135404017D
:101E7000EFF04FA4630405028325C9DE83248103A8
:101E800013050B00B384B402EFF0CFA2B3D5A402C4
:101E90003725000013058528EFF00FC913050B0047
:101EA000EFF04FA19307900063F2A70A8327C9DEE2
:101EB00083258103372500001305052EB385F50220
:101EC0001314040113540441EFF00FC6B7250000AA
:101ED000372500009385852F13054530EFF0CFC4DB
:101EE000B7250000372500009385C531130505325D
:101EF000EFF08FC3B72500003725000093858533A9
:101F000013050534EFF04FC23725000093050A0092
:101F100013058535EFF04FC18327C10393F71700F1
:101F2000639A07068327C10393F727006396070A7E
:101F30008327C10393F747006392070E93040000C1
:101F400093094004372A00006F00C01037250000B5
:101F50001305052AEFF04FBD130414006FF01FF5B1
:101F6000B387340313070106938504009384140098
:101F700013054A379394040193D40401B307F7007F
:101F800003D667FFEFF04FBA8327C9DEE3EAF4FC1C
:101F90006FF05FF99304000093094004372A0000B2
:101FA0006FF09FFEB3873403130701069385040087
:101FB0009384140013050A399394040193D4040103
:101FC000B307F70003D687FFEFF00FB68327C9DE0C
:101FD000E3EAF4FC6FF0DFF593040000930940049A
:101FE000372A00006FF09FFEB38734031307010602
:101FF00093850400938414001305CA3A9394040152
:1020000093D40401B307F70003D6A7FFEFF0CFB1D5
:102010008327C9DEE3EAF4FC6FF05FF2930400006B
:1020200093094004372A00006FF09FFEB387340302
:1020300013070106938504009384140013058A3C5A
:102040009394040193D40401B307F70003D647FF28
:10205000EFF08FAD8327C9DEE3EAF4FC63120402DC
:10206000372500001305453EEFF00FAC1305E105E1
:10207000EFF04F8513050000130101066FF09F96E6
:102080006358800037250000130505436FF0DFFD1E
:1020900037250000130545446FF01FFDB0D44033D1
:1020A000796A14E7C1E3000052BE99110856D71FA0
:1020B00047070000475EBF39A4E53A8E848D0000D3
:1020C000366B20706572666F726D616E636520722B
:1020D000756E20706172616D657465727320666FD4
:1020E0007220636F72656D61726B2E0A00000000D2
:1020F000366B2076616C69646174696F6E207275ED
:102100006E20706172616D657465727320666F72A6
:1021100020636F72656D61726B2E0A0050726F667C
:10212000696C652067656E65726174696F6E207297
:10213000756E20706172616D657465727320666F73
:102140007220636F72656D61726B2E0A0000000071
:10215000324B20706572666F726D616E63652072BE
:10216000756E20706172616D657465727320666F43
:102170007220636F72656D61726B2E0A0000000041
:10218000324B2076616C69646174696F6E20727580
:102190006E20706172616D657465727320666F7216
:1021A00020636F72656D61726B2E0A005B25755D31
:1021B0004552524F5221206C697374206372632020
:1021C000307825303478202D2073686F756C64204A
:1021D0006265203078253034780A00005B25755D13
:1021E0004552524F5221206D61747269782063729A
:1021F0006320307825303478202D2073686F756C1B
:1022000064206265203078253034780A00000000B0
:102210005B25755D4552524F522120737461746580
:102220002063726320307825303478202D20736845
:102230006F756C64206265203078253034780A0030
:10224000436F72654D61726B2053697A652020205F
:10225000203A20256C750A00546F74616C207469F3
:10226000636B732020202020203A20256C750A0003
:10227000546F74616C2074696D6520287365637395
:10228000293A2025640A0000497465726174696FF7
:102290006E732F5365632020203A2025640A0000C6
:1022A0004552524F5221204D7573742065786563F5
:1022B00075746520666F72206174206C656173743B
:1022C000203130207365637320666F722061207641
:1022D000616C696420726573756C74210A0000007A
:1022E000497465726174696F6E732020202020200C
:1022F000203A20256C750A00474343372E322E3092
:1023000000000000436F6D70696C65722076657225
:1023100073696F6E203A2025730A00002D4F32003A
:10232000436F6D70696C657220666C616773202005
:10233000203A2025730A0000535441434B0000000B
:102340004D656D6F7279206C6F636174696F6E207B
:10235000203A2025730A0000736565646372632068
:102360002020202020202020203A203078253034C2
:10237000780A00005B25645D6372636C6973742086
:102380002020202020203A203078253034780A0080
:102390005B25645D6372636D6174726978202020CF
:1023A00020203A203078253034780A005B25645D9F
:1023B00063726373746174652020202020203A20AA
:1023C0003078253034780A005B25645D637263667B
:1023D000696E616C2020202020203A203078253042
:1023E00034780A00436F7272656374206F7065728F
:1023F0006174696F6E2076616C6964617465642EC6
:102400002053656520524541444D452E6D6420663C
:102410006F722072756E20616E64207265706F72CB
:1024200074696E672072756C65732E0A0000000077
:102430004572726F72732064657465637465640AB3
:102440000000000043616E6E6F742076616C6964F9
:10245000617465206F7065726174696F6E20666F5C
:102460007220746865736520736565642076616C9D
:102470007565732C20706C6561736520636F6D707A
:10248000617265207769746820726573756C747306
:10249000206F6E2061206B6E6F776E20706C6174A0
:1024A000666F726D2E0A00005374617469630000D8
:1024B0004865617000000000537461636B0047431E
:1024C000433A2028474E552920372E322E3000001F
:1024D00000000000000000000000000000000000FC
:1024E00000000000000000000000000000000000EC
:1024F00000000000000000000000000000000000DC
:1025000000000000000000000000000000000000CB
:102CA000380C0000380C0000440C0000440C0000FC
:102CB0004C0C0000BC0C0000880C0000040D00004F
:102CC000A80D0000400D0000700D0000C80D0000B0
:102CD000E80D0000A42D0000AC2D0000B42D000074
:102CE000BC2D0000742D0000802D00008C2D0000F4
:102CF000982D0000442D0000502D00005C2D000098
:102D0000682D0000142D0000202D00002C2D000047
:102D1000382D000054302E33652D31460000000060
:102D20002D542E542B2B5471000000003154332E9F
:102D30003465347A0000000033342E30652D545E43
:102D400000000000352E353030652B3300000000C8
:102D50002D2E313233652D32000000002D383765BD
:102D60002B383332000000002B302E36652D3132E7
:102D70000000000033352E353434303000000000C0
:102D80002E31323334353030000000002D313130F7
:102D90002E373030000000002B302E3634343030E7
:102DA0000000000035303132000000003132333491
:102DB000000000002D383734000000002B31323283
:102DC000000000008C0F0000980F0000A40F00000E
:102DD000B00F0000BC0F0000000000000000000069
:102DE00000000000000000000000000001000000E2
:102DF00001000000660000003031323334353637D0
:102E000038396162636465666768696A6B6C6D6EA8
:102E10006F707172737475767778797A000000003C
:102E20003031323334353637383941424344454600
:102E30004748494A4B4C4D4E4F50515253545556AA
:102E40005758595A000000003C4E554C4C3E00006B
:102E50001000000000000000017A5200017C050112
:102E60001B0D02004800000018000000FCEAFFFFF4
:102E70005C00000000440E40489B0D44DB440E40C3
:102E8000489A0C44990B44980A44970944D7D8D9D6
:102E9000DADB440E40489608449507449406449370
:102EA00005449204448903448802448101000000DF
:102EB0001C000000640000000CEBFFFF1800000085
:102EC00000440E1048890444880244810100000037
:102ED0002C00000000000000017A5200017C01017A
:102EE0001B0D020E409B0D9A0C990B980A970996A0
:102EF00008950794069305920489038802810100CE
:102F00004400000034000000D4EAFFFF4800000045
:102F10000044DB44DB0E3044DA44D944D844D7447F
:102F2000D7D8D9DADB0E2044D644D544D444D34490
:102F3000D3D4D5D6D8D9DADB0E1044D244C944C88C
:082F400044C1440E0000000032
:00000001FF
