:1000000037810000EF10900F370500801305450081
:1000100023200500029041114AC00329C50106C6EC
:1000200022C426C2232C0502232E0502630A0902DC
:100030002A84814485452285092E83558403EF0057
:100040003079231CA402FD552285012683558403A3
:10005000EF001078231CA40299C88504E31C99FCC6
:10006000B240224492440249014541018280231D4D
:10007000A402E5B71DE68317050013970701418326
:10008000218393F707F0D98F2310F500839705009C
:1000900013970701418393F707F02183D98F2390AA
:1000A000F50003152500839725001D8D8280011121
:1000B00022CC031405004AC806CE9357744026CAC2
:1000C0004EC6858B1379F407ADE7AE849355344063
:1000D000BD899397450013777400DD8DAA8983D776
:1000E000840325C385466313D7023E8613858402A5
:1000F000EF00102183D7C4031319050113590941D7
:1001000099E3239EA40283D7840311A022891315A7
:100110000901BE854181137404F0EF00706B1379FF
:10012000F90713640408239CA40233648900239014
:100130008900F24062444A85D2444249B24905618D
:100140008280930620022E8763D4D50013072002F5
:100150008396240003960400CC48884C1377F70F4D
:10016000EF00304E83D7E4031319050113590941F9
:10017000D9FB239FA40283D7840351BF41114AC0F6
:100180002E89B28506C622C426C232840D37AA84BF
:10019000A2854A85293FB24022443385A4400249C2
:1001A0009244410182800397050083972500231024
:1001B000E5002311F50082800328060093088800DB
:1001C00063FFE802984213034700637AF302232097
:1001D00016011C4183980500039625002320F80092
:1001E000232005012322E8009C42428591079CC2FE
:1001F00083274800239017012391C700828001487C
:10020000428582801C4150412A87CC4394433E85DD
:100210004CC3D0C314C323A007008280D0415441F3
:10022000984150C1D4C118C188C18280039725006C
:100230006341070211CD5C41839727006398E70073
:100240001DA85C41839727006384E700084175F986
:1002500082807DDD5C410397050083C707006398BA
:10026000E70019A85C4183C707006385E7000841E0
:1002700075F9F9BF82808280828001C9014711A08F
:100280003E851C4118C12A87E5FF8280797152CCD6
:1002900056CA5EC662C46AC006D622D426D24AD0E6
:1002A0004ECE5AC866C22A8A2E8CB28B854A054D1C
:1002B000630B0A06814C0149014B850C5284814431
:1002C0000040850419C0E39D9AFED68985C4638EDB
:1002D000090205CC4C4003254A005E86029C635609
:1002E000A002A2870040FD19630E09002320F90037
:1002F0003E89F1FC6380090205C0A287FD19004018
:10030000E31609FE3E8B3E89EDB7D287FD14032A22
:100310000A00D9BF228A55F0232009006388AC0166
:10032000860A5A8A71B7232000000290B2502254E4
:100330005A8592540259F249624AD24A424BB24B10
:10034000224C924C024D45618280397162CC031C73
:10035000450022DC56D25AD006DE26DA4AD84ED6DE
:1003600052D45ECE66CA2317B1002A8BAE8A4051A2
:1003700063508017AE8C0149814B81498144130A37
:10038000C1009377F90FD28522852316F100793DBC
:1003900001C8014711A03E841C4018C02287E5FF18
:1003A00029C55C418509C2098397070093D90901D2
:1003B00013F7170011C7A587858BBE94C204C180AF
:1003C0001C4191C7984318C1184098C31CC063C50D
:1003D0000C00850C231791010509420913590941A5
:1003E00063022C03831CE10069BF1C40850BC20B18
:1003F000DC4393DB0B0183871700858BBE94C2041B
:10040000C180F1B78A09B38B7941DE94C204C180FF
:10041000635A5001B705000022855A869385C51797
:10042000B5352A841C40D285228583A9070003AAFA
:10043000470083A6490003A70900D4C323A24901AA
:1004400098C323A00900DD332A8935CD5C40A685F9
:1004500003950700EF00B03E03290900AA84E317C3
:1004600009FE0329040003AA490003274900832742
:100470000900B705000023A2E9002322490123A0B7
:10048000F900232039012285014693854507FD3B6C
:1004900000412A8919C883274900A68503950700CA
:1004A000EF00F0390040AA847DF4F25062542685B2
:1004B0004259D254B259225A925A025BF24B624CC0
:1004C000D24C2161828003290400E30009FABDBFF8
:1004D0008144130AC1002DBF51473357E5022E85D1
:1004E00023A00500E1779388070893860501938F81
:1004F000850081457917131837002A9823220501B2
:10050000131F27002311080023101801429F130313
:10051000480063F606019308880063EDE80B35C3D5
:1005200093130601E17293D30301814693C2F2FF54
:10053000138E8F00930E430063720E05939806018D
:1005400093D80801B3C778008E0793F8780093F723
:100550008707B3E7170193988700B3E7F80063FFB5
:10056000EE0123A0BF002320F50123A26F0023107A
:10057000F30023115300FE857683F28F8506E3197D
:10058000D7FA9548116EB358170385461307002014
:100590007D1E09A82391D500130707104207850681
:1005A0004183C28503A805009377077033C3C60053
:1005B000B3E76700B3F7C70163080800CC41E3EB7A
:1005C00016FD2391F500C9BFB705000001469385CC
:1005D00045076DB92320F501232665002324050076
:1005E0007D5393C7F7FFFE85231268002313F8009D
:1005F0004683B68F2DB7411122C626C44AC22A8827
:1006000011E20546938FF5FF93FFCFFF13844F0050
:1006100001456314080079A83A8513071500B3074C
:10062000E7028E07E3EA07FFB302A502AA84860267
:10063000B30F54002DC1416E014F0543B30EF44179
:10064000931315007D1E3388E3031A877E983306C3
:10065000E60293170701C18333890E0109080507D4
:10066000B30867409355F641C1812E963376C60193
:100670000D8EB385C700C205C181AE97231FB8FE9A
:1006800093F7F70F2310F900E3E3A8FC050F637459
:10069000AF003A834DBFB3875F00FD17C0C2F19B27
:1006A0003244910784C223A4F601DCC6A244124955
:1006B00041018280990FFD547D558942ADBF35C1FE
:1006C000330FA04093172500BE95931F2F00014EB6
:1006D0008147814681480E0FB38EBF00768709A8F7
:1006E000931703011107C1878148C2866384E5021D
:1006F00003280700C207C183B3A60601C29813836B
:10070000A700B697E34E16FDC2071107C187C28640
:10071000E390E5FE050EB385EE41E31FC5FB3E8584
:10072000828081473E8582801DC5131E15001313EC
:10073000250081483308CE002E8783170600110755
:100740000906B387D702232EF7FEE31806FF8508B4
:100750009A95E31115FF82801DC14206418213184C
:10076000150081463307B80083D705008905B29785
:10077000239FF5FEE31AB7FE8506E315D5FE8280BA
:1007800005CD931E15000A05338EA5003383D601CF
:10079000B68732850148031705008398070089074B
:1007A0000905330717033A98E317F3FE23A0050161
:1007B00091057696E31EBEFC828039C9131E150092
:1007C000411122C6B30EC60113142500B382C6011F
:1007D0008143368FAE8F7A88B287814803970700AE
:1007E000031308008907729833076702BA98E397E2
:1007F000FEFE23A01F01090F910FE39EE2FD85037A
:100800007296F29EA295E31675FC324441018280F5
:1008100082803DC1131E1500411122C6B30EC601D0
:1008200013142500B382C6018143368FAE8FFA8838
:100830003288014303970800831708000908F298DB
:10084000B387E70213D7274095873D8B93F7F707C8
:10085000B307F7023E93E39F0EFD23A06F00090F3D
:10086000910FE396E2FD85037296F29EA295E31E38
:1008700075FA32444101828082805D71A2C4A6C2B1
:10088000CAC052DC86C67D7A4EDE56DA5AD85ED6AB
:1008900062D466D26AD06ECE2E84B2843689336A30
:1008A000470163010522931A07012A8893DA0A0196
:1008B000131C1500B28BB28781493306FC0083D626
:1008C00007008907D696239FD7FEE31AF6FE85090F
:1008D000B287E31438FF139B2900A28C2288A687D5
:1008E0000145B38587014286839607001106890773
:1008F000B386E602232ED6FEE398B7FE05055A9886
:10090000E31135FFB30D3041330D640113972D0012
:10091000EA8801458147814501438E0D330E170159
:10092000728609A813150801110641858145B6870D
:100930006383C802144242054181B3A7D700B6952C
:100940001308A5003E95E34FBAFC42051106418508
:10095000B687E391C8FE0503B308BE41E31033FD3B
:1009600081453AC6E92D2AC4A2854E85CA862686C7
:10097000013DA24832470145814781450143330E7D
:10098000A701728609A81315080111064185814542
:10099000B6876303CD02144242054181B3A7D70055
:1009A000B6951308A5003E95E34FBAFC4205110623
:1009B0004185B687E311CDFE0503330DBE41E3103B
:1009C00033FDC685AD2DCA862A8D26864E85A28525
:1009D000ED33228301458147814681489A8501464E
:1009E00011A8131508010506418581469105BA87AE
:1009F00063743603984142054181B3A7E700BA9674
:100A00001308A5003E95E34EDAFC42050506418534
:100A10009105BA87E36036FF85085A93E3E038FD15
:100A2000EA85312DCA862A8D26864E85A285D53344
:100A30000145814781468148E685014611A8131585
:100A400008010506418581469105BA87637436031E
:100A5000984142054181B3A7E700BA961308A50063
:100A60003E95E34EDAFC4205050641859105BA87BD
:100A7000E36036FF8508DA9CE3E038FDEA85C123B0
:100A80000146DE87814603D70700890785063307BD
:100A90005741239FE7FEE3E836FF0506E29BE3624A
:100AA00036FFB6402644420596440649F259625A3A
:100AB000D25A425BB25B225C925C025DF24D418590
:100AC000616182808145A52BCA862686AA89A28576
:100AD00001457D31CE8501459D23CA862686AA899A
:100AE000A2850145D939CE850145912BAA89A285D8
:100AF000CA8626860145313BCE850145892355B7F7
:100B0000411122C42E8732844C451445504108417E
:100B100006C6A533A2852244B24041010DA3014F70
:100B2000814E8505B38FEE01C2050D688D68930671
:100B3000F5FF93821F00C1818147130EC00211434C
:100B4000130808A99388C8A763FFD202631B0F0488
:100B500093F77500F517C20713D73500C1830D8BC6
:100B6000636AF3068A07C6979C430A0742978287FF
:100B70001C4B214F8505B38FEE01C20593821F00E8
:100B8000C181E3E5D2FC63FAAE00B307D6012A9631
:100B9000238007008507E31DF6FE82801C53214F4A
:100BA000D1BF3307D6013E9F83CE070005078507D7
:100BB000A30FD7FFE31AFFFE93F77500F517B29F57
:100BC000C20713D735002380CF01C183968E0D8BCA
:100BD000E37AF3F80A0742971C43114F61BF1C5B8D
:100BE000214F49BF1C4103C7070039CB9306C00200
:100BF000138617006301D72003A80500930807FD9B
:100C000093F8F80F25430508636F130323A005012C
:100C100003C717006306072089076304D70A130870
:100C2000E002A5481303C002930607FD93F6F60FF2
:100C3000630B070963F3D81894490547850694C9DF
:100C40001CC13A8582809308B0026304170393089D
:100C5000D002630017039308E0026301171BD84119
:100C600023A00501B2870507D8C105471CC13A85F5
:100C7000828023A0050103C81700630D081813869E
:100C800027006309D8189445130708FD1377F70F59
:100C9000A548850663FCE8001307E0026301E81439
:100CA00094C5B28705471CC13A85828094C503C7A5
:100CB0002700630707169306C00293071600E31088
:100CC000D7F61147B5BF9849050798C903471600DD
:100CD000630C07149306C002138817006309D71228
:100CE000930607FD130650041377F70DA548130369
:100CF000C00293F6F60F6306C70263ECD80C03C775
:100D0000170093061800C287630307106308671271
:100D10003688930607FD1377F70D93F6F60FE31E5B
:100D2000C7FCD8490507D8C903C717007DC71306F4
:100D3000C002930718006303C70ED445130757FD7D
:100D40001377D70F8506D4C509C705471CC13A8557
:100D500082800347180079CB93062800630AC70CEA
:100D60009C4D130707FD1377F70F8507A5489CCD0A
:100D700063F5E800B6870547D1BF0347280045CF94
:100D8000930738006309C70225469308C00213077A
:100D900007FD1377F70F6377E600D4410547850613
:100DA000D4C179BD03C7160013881700BE8601C7DA
:100DB000C287E31E17FD1D4761B5034716009386E2
:100DC00017003E86E30F07EEB687E31F67E411477F
:100DD00085BDD449C28705478506D4C995B594C554
:100DE00003C7270029C39307C00213081600630036
:100DF000F702B287F5B5B287014799B523A005017F
:100E000003C717000DC313882700E314D7FEC2875A
:100E100015473DB5B287094725B5C2870D470DB5C2
:100E2000B287114731BDB287154719BD194709BDB2
:100E3000B687194731B5B6871D4719B5B687154727
:100E400001B51971A6DACAD8040813090103A2DC96
:100E5000CED6D2D4D6D2DAD0E2CCB68A3A8ABE89FD
:100E600086DEDECE2E842A8C328B2EC69408268710
:100E7000CA8723A007002320070091071107E39AE0
:100E8000D7FE0347040071CB930BC1000C185E859D
:100E9000913B9C080A053E953247832705FC034792
:100EA000070085072320F5FC75F322C6229C034723
:100EB00004006379840BA2871306C00219A003C73C
:100EC0000700B34667016304C7002380D700B24719
:100ED000D2973EC6E3E587FF8347040022C68DC74D
:100EE000930BC1000C185E85F5399C080A053E95E8
:100EF0003247832705FC0347070085072320F5FCBD
:100F000075F322C6637184039306C002834704000D
:100F100033C757016384D7002300E400324452945E
:100F200022C6E36584FF138404028840CE859104C1
:100F3000CD28AA85032509001109E520AA89E31611
:100F400094FEF6506654D6544659B659265A965AC7
:100F5000065BF64B664C0961828022C6229CE36CDC
:100F600084F5D1B741F3C1B7954763EDA7028D670B
:100F7000938707B80A053E951C4182878D6703A5B4
:100F800007BA82808D6703A587BA82808D6703A523
:100F900047BA82808D6703A547BB82808D6703A512
:100FA00007BB8280014582806976A147050633C769
:100FB000A500FD178581058B93F7F70FB3C6C50014
:100FC000058101C793950601C181F5F32E858280C5
:100FD00069789376F50FA147050833C7D500FD174B
:100FE0008581058B93F7F70F33C60501858201C70D
:100FF00093150601C181F5F369762181A1470506A4
:1010000033C7A500FD178581058B93F7F70FB3C68E
:10101000C500058101C793950601C181F5F32E85B1
:101020008280411122C42A844205418106C64D377F
:10103000AA85135504012244B240410151BF420523
:10104000418179B701458280732500C08280F327F2
:1010500000C00D67232EF7B88280F32700C00D670C
:10106000232CF7B882808D6703A587B98D6783A786
:10107000C7B91D8D8280828085472300F50082805C
:101080008D670D670327C7B983A787B923000500BC
:10109000998F370700801CC7828013F807045D71A1
:1010A00063140818373300001303C3DB93FF0701F1
:1010B00063850F16F99B930E000213F827008143F6
:1010C000630F080063C3051A13F84700631A081674
:1010D00013F8870063050800FD169303000293F2DE
:1010E0000702638B020041486301061B130886FF59
:1010F00013381800B3860641638D05121308C1002A
:10110000054E330E0E41B3F8C502330F0E0105082C
:10111000B3D5C5029A9883C80800A30F18FFE5F558
:101120009308FFFF7A886353EF003A88B38606413D
:10113000C58B9385F6FF91EF3307D5009307000227
:10114000635CD0140505A30FF5FEE31DE5FEF9551C
:10115000FD566385030023007500050563880200C2
:10116000A147630EF610C1476304F60E639A0F029F
:101170002A870546635FD0100507B307E640AE97A0
:10118000A30FD7FFAA97E349F0FE93C7F5FFFD87AA
:10119000ED8F9386F5FF9D8E85073E959385F6FF2F
:1011A000B307E841AA971307000363570F0105052A
:1011B000A30FE5FEE39DA7FE635AE0037000054818
:1011C000B30716012A873308C84003C6070005077E
:1011D000FD17A30FC7FE3306F800E348C0FE93C710
:1011E000F8FFFD87B3F7F80085073E956355D002F9
:1011F0002A871306000285460507B387E640AE97A7
:10120000A30FC7FEAA97E349F0FE93C7F5FFFD873A
:10121000FD8D85052E956161828013F817006303AB
:101220000804930E000351BD37330000130343DE5F
:10123000B5BD930500032306B1008148054FDDB518
:1012400093F20702FD169303B002E38702EA61BD41
:10125000930700032300F50093078007A300F50020
:10126000090529B7930E000289BD93F20702B30561
:10127000B040FD169303D002E38002E8ADB59307BA
:1012800000032300F5000505D5B5F916E39805E63A
:101290004DB7AE86FD1529B79387E6FFAE86BE85AE
:1012A0004DBDB70700802380A7008280130101BADB
:1012B00023225143232E1142232C8142232A91427F
:1012C0002328214323263143232441432320614300
:1012D000232E7141232C8141232A91412322B144A1
:1012E0002324C1442326D1442328E144232AF14462
:1012F000232C0145232E114583470500930A4144C1
:1013000056C663800756930981020D6A0D69B7348A
:1013100000002A84130A8ABB4E851309C9BF93842F
:10132000C4DB01A82300F50083471400050505046C
:10133000EDCB13075002E397E7FE03461400C146C6
:101340008147130706FE1377F70F9305140063E335
:10135000E6020A0752971843028793E717002E8484
:101360000346140093051400130706FE1377F70FC6
:10137000E3F1E6FE130706FD1377F70FA54663F1C9
:10138000E6121307A002FD56630CE6321308E002D2
:101390007D576305060F1378F60D9308C004630F9D
:1013A00018031308F6FB1378F80F9308700363EB28
:1013B00008050A084A9803280800028893E70701ED
:1013C0002E8479BF93E747002E8459BF93E7070225
:1013D0002E8479B793E787002E8459B703C315008D
:1013E00093087003138415001308F3FB1378F80FA8
:1013F00063EC08018D680A089388C8CD46980328D5
:101400000800028832832E849307500213071500C8
:10141000630AF3462300F50083470400639D0748F1
:101420003A852300050003478102630A0742854687
:10143000CE8737060080B38636413385D700230038
:10144000E600850703C707006DFB8320C143032423
:10145000814383244143032901438329C142032A51
:101460008142832A4142032B0142832BC141032C39
:101470008141832C414113010146828003C615003E
:10148000A54813881500130706FD1377F70F63FCB3
:10149000E8021307A0026307E63AC2850147E5BDEB
:1014A0008146254813972600BA9685058606B2968A
:1014B00003C60500938606FD130706FD1377F70F95
:1014C000E372E8FEE1B50147931527002E97050862
:1014D0000607329703460800130707FD930506FD2C
:1014E00093F5F50FE3F2B8FEC28575B593E70704EF
:1014F0001308C00603A70A00910A6315060D13F628
:101500000704A68E09C6B73E0000938E4EDE014347
:101510000148994F9302A00301A8130601417A964E
:101520000D08230056C00507034607009308014134
:10153000338E0801935846003D8AF698769683C804
:10154000080003460600050323001EC1A300CEC009
:10155000130F2800E313F3FDC18B1386F6FF8DE311
:10156000B387E641AA9713070002635DDF360505DE
:10157000A30FE5FEE31DF5FE9306FFFF1306EFFF45
:101580001C083307E50103C8070005058507A30FFD
:1015900005FFE31AE5FE635EDF00130800028546DF
:1015A0000505B387A640B297A30F05FFBA97E34995
:1015B000FFFE83C72500A5BB03A70A0093E7070426
:1015C000910A2E84BA858148014793033006254B42
:1015D000A94E93024006930F00031143130EE0023D
:1015E00015A01306014132972300F7C185086389CE
:1015F000680613070141330607012300C6C113071C
:101600001800850503C605001308170079DA63D7AB
:10161000C30CB36B5602130F0141B30CEF00330C34
:101620000F011308370009073346560233CFDB0397
:101630002696034606002380CCC03386E401034F80
:10164000060033E6DB032300ECC12696034F0600B9
:10165000130601413A962300E6C18508E39B68F82A
:10166000C18B9385F6FF8DE3B3870641AA971307D5
:101670000002635FD8240505A30FE5FEE31DF5FE18
:101680009306F8FF9305E8FF1C083307050103C61E
:10169000070005058507A30FC5FEE31AE5FE635E97
:1016A000D8001306000285460505B387A640AE970D
:1016B000A30FC5FEBA97E349F8FE8347140085B926
:1016C00083A60A0093052400910A03462400E3DF61
:1016D00006CAB306D04093E707014DB9E357CBF6EE
:1016E000334FD603930B0141BA9B130C270042875B
:1016F0006288269F034F0F003366D6032380EBC119
:10170000A9B72E84294613884A0083A50A00C28AF5
:1017100069328347140021B92E842146EDB72E8407
:10172000C18BFD166383071403A70A001306150077
:10173000938716002300E500910A3E9513070002E7
:10174000B2876353D0188507A38FE7FEE39DA7FEFA
:101750003305D60083471400D9BE2E8493E70704CF
:10176000414655B72E847D566395C60093E7170012
:10177000A14683A50A004146910A05328347140019
:101780007DB62E8403A60A00BA85910A6306061068
:1017900003480600B2886308081063060710328702
:1017A00019A0FD1591C5050703480700E31B08FEB6
:1017B000C18B330717411388F6FFBDC3635FE01089
:1017C000B308E600AA8705068345F6FF8507A38FC1
:1017D000B7FEE31A16FF3306E500328593080002D0
:1017E0008545E35CD7EC0505B387A540C297A30FF9
:1017F00015FFB297E349F7FE834714000DBE2E8410
:1018000093E72700294601B74146F5BD03A70A0023
:101810002E84910A45BB13884A002E844146F5B5B3
:10182000B387E640AA9793050002635AD70A0505D5
:10183000A30FB5FEE39DA7FEB306D840BA96138862
:10184000F6FFADBF03A70A0003C62500910A13489F
:10185000F7FF1358F8413377070189052DBE01457D
:10186000EDB6930981024E856DBE3307D50093070F
:1018700000026354D0040505A30FF5FEE31DE5FE49
:10188000FD565DB583470400BA862A873685230056
:10189000F7008347140061BC373600009308C6E0A8
:1018A0001306C6E0DDBD13F707011388F6FF2DDB35
:1018B0002A8601471DB70905D9BF83A70A00130669
:1018C0001500910A2300F50083471400328585B482
:1018D0009387E6FFAE86BE8545BB2A86FDBDC286E0
:1018E0007D18E9BD9387E6FFB2863E8651B90000B8
:1018F000842200008C2200009422000075712E8644
:101900002AC66C001305E10506C722C526C34AC1D5
:10191000CEDED2DCD6DADAD8DED6E2D4E6D2EAD02F
:10192000EFF08FF50545EFF02FE4231EA1000945E8
:10193000EFF08FE3231FA1000D45EFF0EFE223103E
:10194000A1021145EFF04FE22ADC1545EFF0CFE19F
:10195000630C05162ADEF247639D072683170102F2
:1019600063850728F25789659385C52A93F6170082
:1019700013F727001396060141823335E0002ED27B
:10198000231E010493F547002A9691C513051600FE
:101990001316050141821305007D3355C50201432D
:1019A000014685480D482ADAB395C800FD8D639E2F
:1019B000050E0506E31A06FFE9E2631B070C918B8F
:1019C00099C742568315C1015255EFF04F95E25722
:1019D0008DEF85473EDC625793172700BA9786073D
:1019E0003EDCEFF0CFE66808EFE0EFE2EFF0EFE685
:1019F000EFF06FE7EFF02FE879DDA94733D5A702C5
:101A0000E25705053385A7022ADCEFF04FE46808AA
:101A1000EFE06FE0EFF06FE4EFF0EFE4AA89031579
:101A2000C1018145EFF0AFE1AA850315E101EFF0B7
:101A30000FE1AA8503150102EFF06FE0AA850315F7
:101A40004103EFF0CFDFA167938757B02A89630680
:101A5000F54063EEA70689679387278F6307F53EF6
:101A600095679387F7EA6317F51837250000130584
:101A700085EFEFF0BF838947A5A80316C101A255E2
:101A8000EFE09FA5F257AAC013F72700E30907F27A
:101A90008317E1010316C101B2555255C2075D8E8D
:101AA000D400EFE05FB5F25719BFB30EA302125E88
:101AB0009315260060080503A29542031353030102
:101AC000769E23A6C501F5B59D473EDE69B5A5679F
:101AD000938727A06303F536BD679387579F631BE2
:101AE000F510372500001305C5F2EFF02FFC8D47E8
:101AF0008D6B03A7CBBA014D014C63080736896C87
:101B00008607938C8CE7BE9C372B0000B72A000019
:101B1000372A000035A062940A049C103E940314F6
:101B2000C4FF6A94050C420483A7CBBA4180420CDF
:101B3000131D0401135C0C01135D0D41637FFC0A4E
:101B400013144C00B30484019C108A04BE9483A730
:101B5000C4FD239E04FE858B8DC303D664FF83D60C
:101B60000C00630CD600E28513058BF8EFF00FF440
:101B700083D7C4FF8507239EF4FEB30484019C1021
:101B80008A04BE9483A7C4FD13F727001DC303D6A0
:101B900084FF83D6CC00630ED600E28513858AFBD2
:101BA000EFF0CFF003D7C4FF83A7C4FD0507239E42
:101BB000E4FE918BADD3B30484018A049C10BE94DF
:101BC00003D6A4FF83D68C016314D6200394C4FFEC
:101BD00089BF0547E398E7D883170102E39407D844
:101BE000B7371534938757413ECE930760062310CD
:101BF000F1028DBB41647D148D6BEFF0AFC4D25503
:101C00002A94372500001305C501EFF02FEA372588
:101C10000000CE8513054503EFF04FE94E85EFF048
:101C20008FC5AA85372500001305C504EFF00FE81E
:101C300042044E854180EFF00FC46311051C4E85B0
:101C4000EFF06FC3A54763F3A71A83A7CBBAE2559A
:101C5000372500001305C50BB385F5029314040165
:101C6000C184EFF0AFE4B72500003725000093856D
:101C7000450D1305050EEFF06FE3B725000037257E
:101C800000009385850F1305C50FEFF02FE2B725F0
:101C9000000037250000938545111305C511EFF0AD
:101CA000EFE037250000CA8513054513EFF00FE07C
:101CB000F25713F7170005CF03A7CBBA0DCB01449A
:101CC0003729000093174400A29798108A07BA9703
:101CD00003D667FFA28513050915EFF02FDD050474
:101CE00083A7CBBA42044180E36EF4FCF25713F7AA
:101CF00027000DCF03A7CBBA630B07160144372982
:101D0000000093174400A29798108A07BA9703D649
:101D100087FFA2851305C916EFF04FD9050483A7E5
:101D2000CBBA42044180E36EF4FCF257918B9DCB19
:101D300083A7CBBAB5C301443729000093174400E9
:101D4000A29798108A07BA9703D6A7FFA285130512
:101D50008918EFF0AFD5050483A7CBBA42044180C0
:101D6000E36EF4FC83A7CBBA0144372900008DC78A
:101D700093174400A29798108A07BA9703D647FF93
:101D8000A2851305491AEFF06FD2050483A7CBBAD9
:101D900042044180E36EF4FCD9C0635990083725B2
:101DA00000001305C520EFF06FD01305E105EFF03B
:101DB0002FADBA402A449A440A49F659665AD65A6F
:101DC000465BB65B265C965C065D01454961828098
:101DD000E2851305CAFEEFF06FCD83D7C4FF8507F8
:101DE000139407014184239E84FE25BB3725000000
:101DF0001305C507EFF08FCB050481BD83A5CBBAD2
:101E0000E2544E85B384B402EFF0EFA6B3D5A4023A
:101E10003725000013054506EFF04FC90DB53725EE
:101E200000001305051CEFF06FC841B7372500000F
:101E300013050522EFF08FC78DBF3725000013056E
:101E4000C5E9EFF0AFC6814765B13725000013053E
:101E5000C5F5EFF0AFC5914761B93725000013050F
:101E6000C5ECEFF0AFC4854761B1014479B3918B04
:101E7000E39407F2C5BD0000B0D44033796A14E79B
:101E8000C1E3000052BE99110856D71F4707000052
:101E9000475EBF39A4E53A8E848D0000366B207012
:101EA0006572666F726D616E63652072756E20700B
:101EB0006172616D657465727320666F7220636F05
:101EC00072656D61726B2E0A00000000366B207621
:101ED000616C69646174696F6E2072756E207061E7
:101EE00072616D657465727320666F7220636F72C4
:101EF000656D61726B2E0A0050726F66696C6520A9
:101F000067656E65726174696F6E2072756E2070A0
:101F10006172616D657465727320666F7220636FA4
:101F200072656D61726B2E0A00000000324B2070EA
:101F30006572666F726D616E63652072756E20707A
:101F40006172616D657465727320666F7220636F74
:101F500072656D61726B2E0A00000000324B2076B4
:101F6000616C69646174696F6E2072756E20706156
:101F700072616D657465727320666F7220636F7233
:101F8000656D61726B2E0A005B25755D4552524F7F
:101F90005221206C6973742063726320307825307D
:101FA0003478202D2073686F756C64206265203052
:101FB00078253034780A00005B25755D4552524F14
:101FC0005221206D617472697820637263203078C9
:101FD00025303478202D2073686F756C642062651D
:101FE000203078253034780A000000005B25755DCC
:101FF0004552524F5221207374617465206372639D
:1020000020307825303478202D2073686F756C640B
:10201000206265203078253034780A00436F72657D
:102020004D61726B2053697A65202020203A20256B
:102030006C750A00546F74616C207469636B732053
:1020400020202020203A20256C750A00546F7461EE
:102050006C2074696D65202873656373293A2025A7
:10206000640A0000497465726174696F6E732F535E
:1020700065632020203A2025640A00004552524F13
:102080005221204D757374206578656375746520E1
:10209000666F72206174206C65617374203130202A
:1020A0007365637320666F7220612076616C69646A
:1020B00020726573756C74210A00000049746572A2
:1020C0006174696F6E73202020202020203A202523
:1020D0006C750A00474343372E322E300000000053
:1020E000436F6D70696C65722076657273696F6E8F
:1020F000203A2025730A00002D4F3200436F6D7087
:10210000696C657220666C6167732020203A202517
:10211000730A0000535441434B0000004D656D6F3E
:102120007279206C6F636174696F6E20203A20258C
:10213000730A0000736565646372632020202020A9
:1021400020202020203A203078253034780A0000E2
:102150005B25645D6372636C6973742020202020AA
:1021600020203A203078253034780A005B25645DE1
:102170006372636D617472697820202020203A2098
:102180003078253034780A005B25645D63726373B0
:10219000746174652020202020203A20307825307A
:1021A00034780A005B25645D63726366696E616CF6
:1021B0002020202020203A203078253034780A0052
:1021C000436F7272656374206F7065726174696FBA
:1021D0006E2076616C6964617465642E2053656558
:1021E00020524541444D452E6D6420666F72207229
:1021F000756E20616E64207265706F7274696E67AF
:102200002072756C65732E0A000000004572726FB3
:1022100072732064657465637465640A000000006D
:1022200043616E6E6F742076616C696461746520C1
:102230006F7065726174696F6E20666F722074686A
:1022400065736520736565642076616C7565732CB4
:1022500020706C6561736520636F6D7061726520BD
:102260007769746820726573756C7473206F6E2063
:1022700061206B6E6F776E20706C6174666F726D2B
:102280002E0A000053746174696300004865617030
:1022900000000000537461636B004743433A2028F9
:1022A000474E552920372E322E3000000000000006
:1022B000000000000000000000000000000000001E
:1022C000000000000000000000000000000000000E
:1022D00000000000000000000000000000000000FE
:1022E00000000000000000000000000000000000EE
:102A7000000000000000000000000000700B0000DB
:102A8000700B00009C0B00009C0B0000DE0B000094
:102A9000602B0000682B0000702B0000782B0000DA
:102AA000302B00003C2B0000482B0000542B000072
:102AB000002B00000C2B0000182B0000242B000022
:102AC000D02A0000DC2A0000E82A0000F42A0000D6
:102AD00054302E33652D3146000000002D542E5405
:102AE0002B2B5471000000003154332E3465347A9E
:102AF0000000000033342E30652D545E00000000CD
:102B0000352E353030652B33000000002D2E31324C
:102B100033652D32000000002D3837652B383332F5
:102B2000000000002B302E36652D313200000000F1
:102B300033352E3534343030000000002E3132333E
:102B400034353030000000002D3131302E37303038
:102B5000000000002B302E363434303000000000EE
:102B600035303132000000003132333400000000D3
:102B70002D383734000000002B31323200000000C5
:102B8000A40F0000840F00008C0F0000940F0000C1
:102B90009C0F00007C0F00000000000000000000FF
:102BA0000000000000000000000000000100000024
:102BB0000100000066000000D41300007413000040
:102BC00074130000CC130000741300007413000091
:102BD00074130000741300007413000074130000D9
:102BE00074130000C413000074130000BC13000031
:102BF00074130000741300005A130000B81500008D
:102C00000414000004140000041400000414000064
:102C10000414000004140000041400000414000054
:102C20000414000004140000041400000414000044
:102C30000414000004140000041400000414000034
:102C40000414000004140000041400000414000024
:102C500004140000041400005A17000004140000BB
:102C60000414000004140000041400000414000004
:102C70000414000004140000041400000C180000E8
:102C8000041400001E170000FE17000004140000CA
:102C9000041400000414000004140000FE170000D7
:102CA00004140000041400000414000004140000C4
:102CB000041400001817000064170000041400003A
:102CC0000414000082170000041400000217000022
:102CD000041400000414000016180000EC14000096
:102CE0000814000008140000081400000814000074
:102CF0000814000008140000081400000814000064
:102D00000814000008140000081400000814000053
:102D10000814000008140000081400000814000043
:102D20000814000008140000081400000814000033
:102D300008140000081400005C17000008140000CC
:102D40000814000008140000081400000814000013
:102D5000081400000814000008140000F01400001B
:102D600008140000201700000018000008140000DC
:102D700008140000081400000814000000180000E7
:102D800008140000081400000814000008140000D3
:102D9000081400001A17000066170000081400004D
:102DA0000814000084170000081400000417000035
:102DB00008140000081400000818000030313233F5
:102DC0003435363738396162636465666768696AC5
:102DD0006B6C6D6E6F707172737475767778797ACB
:102DE0000000000030313233343536373839414253
:102DF000434445464748494A4B4C4D4E4F5051522B
:102E0000535455565758595A000000003C4E554CE3
:042E10004C3E000034
:00000001FF
